{
  "_format": "hh-sol-artifact-1",
  "contractName": "Marketplace",
  "sourceName": "contracts/Marketplace.sol",
  "abi": [
    {
      "anonymous": false,
      "inputs": [
        {
          "indexed": true,
          "internalType": "address",
          "name": "nft",
          "type": "address"
        },
        {
          "indexed": true,
          "internalType": "uint256",
          "name": "tokenID",
          "type": "uint256"
        },
        {
          "indexed": false,
          "internalType": "uint256",
          "name": "price",
          "type": "uint256"
        },
        {
          "indexed": true,
          "internalType": "address",
          "name": "buyer",
          "type": "address"
        },
        {
          "indexed": false,
          "internalType": "address",
          "name": "to",
          "type": "address"
        }
      ],
      "name": "AcceptAsk",
      "type": "event"
    },
    {
      "anonymous": false,
      "inputs": [
        {
          "indexed": false,
          "internalType": "uint256",
          "name": "bid_id",
          "type": "uint256"
        },
        {
          "indexed": true,
          "internalType": "address",
          "name": "nft",
          "type": "address"
        },
        {
          "indexed": true,
          "internalType": "uint256",
          "name": "tokenID",
          "type": "uint256"
        },
        {
          "indexed": false,
          "internalType": "address",
          "name": "bidder",
          "type": "address"
        },
        {
          "indexed": true,
          "internalType": "address",
          "name": "accepter",
          "type": "address"
        },
        {
          "indexed": false,
          "internalType": "uint256",
          "name": "price",
          "type": "uint256"
        }
      ],
      "name": "AcceptBid",
      "type": "event"
    },
    {
      "anonymous": false,
      "inputs": [
        {
          "indexed": false,
          "internalType": "uint256",
          "name": "collection_offer_id",
          "type": "uint256"
        },
        {
          "indexed": false,
          "internalType": "address",
          "name": "bidder",
          "type": "address"
        },
        {
          "indexed": false,
          "internalType": "uint256",
          "name": "price_per_item",
          "type": "uint256"
        },
        {
          "indexed": false,
          "internalType": "uint256",
          "name": "remaining_quantity",
          "type": "uint256"
        }
      ],
      "name": "AcceptCollectionOffer",
      "type": "event"
    },
    {
      "anonymous": false,
      "inputs": [
        {
          "indexed": true,
          "internalType": "address",
          "name": "seller",
          "type": "address"
        },
        {
          "indexed": true,
          "internalType": "address",
          "name": "nft",
          "type": "address"
        },
        {
          "indexed": true,
          "internalType": "uint256",
          "name": "tokenID",
          "type": "uint256"
        }
      ],
      "name": "CancelAsk",
      "type": "event"
    },
    {
      "anonymous": false,
      "inputs": [
        {
          "indexed": false,
          "internalType": "uint256",
          "name": "bid_id",
          "type": "uint256"
        },
        {
          "indexed": true,
          "internalType": "address",
          "name": "nft",
          "type": "address"
        },
        {
          "indexed": true,
          "internalType": "uint256",
          "name": "tokenID",
          "type": "uint256"
        },
        {
          "indexed": true,
          "internalType": "address",
          "name": "bidder",
          "type": "address"
        }
      ],
      "name": "CancelBid",
      "type": "event"
    },
    {
      "anonymous": false,
      "inputs": [
        {
          "indexed": false,
          "internalType": "uint256",
          "name": "collection_offer_id",
          "type": "uint256"
        },
        {
          "indexed": false,
          "internalType": "address",
          "name": "bidder",
          "type": "address"
        },
        {
          "indexed": false,
          "internalType": "uint256",
          "name": "price_per_item",
          "type": "uint256"
        },
        {
          "indexed": false,
          "internalType": "uint256",
          "name": "quantity",
          "type": "uint256"
        },
        {
          "indexed": false,
          "internalType": "uint256",
          "name": "recived_amount",
          "type": "uint256"
        }
      ],
      "name": "CancleCollectionOffer",
      "type": "event"
    },
    {
      "anonymous": false,
      "inputs": [
        {
          "indexed": true,
          "internalType": "address",
          "name": "seller",
          "type": "address"
        },
        {
          "indexed": true,
          "internalType": "address",
          "name": "nft",
          "type": "address"
        },
        {
          "indexed": true,
          "internalType": "uint256",
          "name": "tokenID",
          "type": "uint256"
        },
        {
          "indexed": false,
          "internalType": "uint256",
          "name": "price",
          "type": "uint256"
        },
        {
          "indexed": false,
          "internalType": "address",
          "name": "to",
          "type": "address"
        }
      ],
      "name": "CreateAsk",
      "type": "event"
    },
    {
      "anonymous": false,
      "inputs": [
        {
          "indexed": false,
          "internalType": "uint256",
          "name": "bid_id",
          "type": "uint256"
        },
        {
          "indexed": true,
          "internalType": "address",
          "name": "nft",
          "type": "address"
        },
        {
          "indexed": true,
          "internalType": "uint256",
          "name": "tokenID",
          "type": "uint256"
        },
        {
          "indexed": true,
          "internalType": "address",
          "name": "bidder",
          "type": "address"
        },
        {
          "indexed": false,
          "internalType": "uint256",
          "name": "price",
          "type": "uint256"
        }
      ],
      "name": "CreateBid",
      "type": "event"
    },
    {
      "anonymous": false,
      "inputs": [
        {
          "indexed": false,
          "internalType": "uint256",
          "name": "collection_offer_id",
          "type": "uint256"
        },
        {
          "indexed": false,
          "internalType": "address",
          "name": "bidder",
          "type": "address"
        },
        {
          "indexed": false,
          "internalType": "uint256",
          "name": "price_per_item",
          "type": "uint256"
        },
        {
          "indexed": false,
          "internalType": "uint256",
          "name": "quantity",
          "type": "uint256"
        }
      ],
      "name": "CreateCollectionOffer",
      "type": "event"
    },
    {
      "anonymous": false,
      "inputs": [
        {
          "indexed": false,
          "internalType": "uint8",
          "name": "version",
          "type": "uint8"
        }
      ],
      "name": "Initialized",
      "type": "event"
    },
    {
      "anonymous": false,
      "inputs": [
        {
          "indexed": false,
          "internalType": "address",
          "name": "sender",
          "type": "address"
        },
        {
          "indexed": false,
          "internalType": "uint256",
          "name": "amount",
          "type": "uint256"
        }
      ],
      "name": "WithdrawEvent",
      "type": "event"
    },
    {
      "inputs": [
        {
          "internalType": "contract INFTContract[]",
          "name": "nft",
          "type": "address[]"
        },
        {
          "internalType": "uint256[]",
          "name": "tokenID",
          "type": "uint256[]"
        }
      ],
      "name": "acceptAsk",
      "outputs": [],
      "stateMutability": "payable",
      "type": "function"
    },
    {
      "inputs": [
        {
          "internalType": "contract INFTContract[]",
          "name": "nft",
          "type": "address[]"
        },
        {
          "internalType": "uint256[]",
          "name": "tokenID",
          "type": "uint256[]"
        },
        {
          "internalType": "uint256[]",
          "name": "bidID",
          "type": "uint256[]"
        }
      ],
      "name": "acceptBid",
      "outputs": [],
      "stateMutability": "payable",
      "type": "function"
    },
    {
      "inputs": [
        {
          "internalType": "contract INFTContract",
          "name": "nft",
          "type": "address"
        },
        {
          "internalType": "uint256",
          "name": "tokenID",
          "type": "uint256"
        },
        {
          "internalType": "uint256",
          "name": "collectionOfferId",
          "type": "uint256"
        }
      ],
      "name": "acceptCollectionOffer",
      "outputs": [],
      "stateMutability": "payable",
      "type": "function"
    },
    {
      "inputs": [
        {
          "internalType": "address",
          "name": "",
          "type": "address"
        },
        {
          "internalType": "uint256",
          "name": "",
          "type": "uint256"
        }
      ],
      "name": "asks",
      "outputs": [
        {
          "internalType": "bool",
          "name": "exists",
          "type": "bool"
        },
        {
          "internalType": "address",
          "name": "seller",
          "type": "address"
        },
        {
          "internalType": "uint256",
          "name": "price",
          "type": "uint256"
        },
        {
          "internalType": "address",
          "name": "to",
          "type": "address"
        }
      ],
      "stateMutability": "view",
      "type": "function"
    },
    {
      "inputs": [
        {
          "internalType": "address",
          "name": "",
          "type": "address"
        },
        {
          "internalType": "uint256",
          "name": "",
          "type": "uint256"
        },
        {
          "internalType": "uint256",
          "name": "",
          "type": "uint256"
        }
      ],
      "name": "bids",
      "outputs": [
        {
          "internalType": "uint256",
          "name": "bid_id",
          "type": "uint256"
        },
        {
          "internalType": "bool",
          "name": "exists",
          "type": "bool"
        },
        {
          "internalType": "address",
          "name": "buyer",
          "type": "address"
        },
        {
          "internalType": "uint256",
          "name": "price",
          "type": "uint256"
        }
      ],
      "stateMutability": "view",
      "type": "function"
    },
    {
      "inputs": [
        {
          "internalType": "contract INFTContract[]",
          "name": "nft",
          "type": "address[]"
        },
        {
          "internalType": "uint256[]",
          "name": "tokenID",
          "type": "uint256[]"
        }
      ],
      "name": "cancelAsk",
      "outputs": [],
      "stateMutability": "nonpayable",
      "type": "function"
    },
    {
      "inputs": [
        {
          "internalType": "contract INFTContract[]",
          "name": "nft",
          "type": "address[]"
        },
        {
          "internalType": "uint256[]",
          "name": "tokenID",
          "type": "uint256[]"
        },
        {
          "internalType": "uint256[]",
          "name": "bidID",
          "type": "uint256[]"
        }
      ],
      "name": "cancelBid",
      "outputs": [],
      "stateMutability": "nonpayable",
      "type": "function"
    },
    {
      "inputs": [
        {
          "internalType": "contract INFTContract",
          "name": "nft",
          "type": "address"
        },
        {
          "internalType": "uint256",
          "name": "collectionOfferId",
          "type": "uint256"
        }
      ],
      "name": "cancelCollectionOffer",
      "outputs": [],
      "stateMutability": "nonpayable",
      "type": "function"
    },
    {
      "inputs": [
        {
          "internalType": "address payable",
          "name": "newBeneficiary",
          "type": "address"
        }
      ],
      "name": "changeBeneficiary",
      "outputs": [],
      "stateMutability": "nonpayable",
      "type": "function"
    },
    {
      "inputs": [
        {
          "internalType": "address",
          "name": "",
          "type": "address"
        },
        {
          "internalType": "uint256",
          "name": "",
          "type": "uint256"
        }
      ],
      "name": "collectionOffers",
      "outputs": [
        {
          "internalType": "uint256",
          "name": "collection_offer_id",
          "type": "uint256"
        },
        {
          "internalType": "address",
          "name": "bidder",
          "type": "address"
        },
        {
          "internalType": "uint256",
          "name": "price_per_item",
          "type": "uint256"
        },
        {
          "internalType": "uint256",
          "name": "amount",
          "type": "uint256"
        }
      ],
      "stateMutability": "view",
      "type": "function"
    },
    {
      "inputs": [
        {
          "internalType": "contract INFTContract[]",
          "name": "nft",
          "type": "address[]"
        },
        {
          "internalType": "uint256[]",
          "name": "tokenID",
          "type": "uint256[]"
        },
        {
          "internalType": "uint256[]",
          "name": "price",
          "type": "uint256[]"
        },
        {
          "internalType": "address[]",
          "name": "to",
          "type": "address[]"
        }
      ],
      "name": "createAsk",
      "outputs": [],
      "stateMutability": "nonpayable",
      "type": "function"
    },
    {
      "inputs": [
        {
          "internalType": "contract INFTContract[]",
          "name": "nft",
          "type": "address[]"
        },
        {
          "internalType": "uint256[]",
          "name": "tokenID",
          "type": "uint256[]"
        },
        {
          "internalType": "uint256[]",
          "name": "price",
          "type": "uint256[]"
        }
      ],
      "name": "createBid",
      "outputs": [],
      "stateMutability": "payable",
      "type": "function"
    },
    {
      "inputs": [
        {
          "internalType": "contract INFTContract",
          "name": "nft",
          "type": "address"
        },
        {
          "internalType": "uint256",
          "name": "pricePerItem",
          "type": "uint256"
        },
        {
          "internalType": "uint256",
          "name": "quantity",
          "type": "uint256"
        }
      ],
      "name": "createCollectionOffer",
      "outputs": [],
      "stateMutability": "payable",
      "type": "function"
    },
    {
      "inputs": [
        {
          "internalType": "address",
          "name": "",
          "type": "address"
        }
      ],
      "name": "escrow",
      "outputs": [
        {
          "internalType": "uint256",
          "name": "",
          "type": "uint256"
        }
      ],
      "stateMutability": "view",
      "type": "function"
    },
    {
      "inputs": [
        {
          "internalType": "address payable",
          "name": "newBeneficiary",
          "type": "address"
        },
        {
          "internalType": "uint256",
          "name": "_marketFee",
          "type": "uint256"
        }
      ],
      "name": "initialize",
      "outputs": [],
      "stateMutability": "nonpayable",
      "type": "function"
    },
    {
      "inputs": [],
      "name": "revokeAdmin",
      "outputs": [],
      "stateMutability": "nonpayable",
      "type": "function"
    },
    {
      "inputs": [
        {
          "internalType": "address payable",
          "name": "_newFund",
          "type": "address"
        }
      ],
      "name": "updateFundAddress",
      "outputs": [],
      "stateMutability": "nonpayable",
      "type": "function"
    },
    {
      "inputs": [
        {
          "internalType": "uint256",
          "name": "_newFee",
          "type": "uint256"
        }
      ],
      "name": "updateMarketFee",
      "outputs": [],
      "stateMutability": "nonpayable",
      "type": "function"
    },
    {
      "inputs": [],
      "name": "withdraw",
      "outputs": [],
      "stateMutability": "nonpayable",
      "type": "function"
    }
  ],
  "bytecode": "0x608060405234801561001057600080fd5b50613648806100206000396000f3fe6080604052600436106101445760003560e01c8063835a55ff116100c0578063d8cfc77511610074578063dc07065711610059578063dc070657146103ef578063e22d4f7d1461040f578063f778550e1461049757600080fd5b8063d8cfc775146103c9578063db9941f0146103dc57600080fd5b8063a613b6a9116100a5578063a613b6a914610369578063ae25a41214610389578063cd6dc687146103a957600080fd5b8063835a55ff146103295780639b4843791461034957600080fd5b80633b3facda1161011757806346d02934116100fc57806346d02934146101db57806357d3c7c3146102715780637495c6ac146102ac57600080fd5b80633b3facda146101b35780633ccfd60b146101c657600080fd5b806308d73d13146101495780630d6aef041461015e5780631d5459f714610173578063386e88ed14610193575b600080fd5b61015c6101573660046130ae565b6104aa565b005b34801561016a57600080fd5b5061015c610864565b34801561017f57600080fd5b5061015c61018e3660046130e3565b6108aa565b34801561019f57600080fd5b5061015c6101ae366004613100565b610916565b61015c6101c1366004613178565b610a9e565b3480156101d257600080fd5b5061015c61123b565b3480156101e757600080fd5b506102396101f63660046130ae565b600260208181526000948552604080862082529385528385209052908352912080546001820154919092015460ff82169161010090046001600160a01b03169084565b604051610268949392919093845291151560208401526001600160a01b03166040830152606082015260800190565b60405180910390f35b34801561027d57600080fd5b5061029e61028c3660046130e3565b60046020526000908152604090205481565b604051908152602001610268565b3480156102b857600080fd5b506103016102c7366004613100565b60036020818152600093845260408085209091529183529120805460018201546002830154929093015490926001600160a01b0316919084565b604080519485526001600160a01b039093166020850152918301526060820152608001610268565b34801561033557600080fd5b5061015c6103443660046131e4565b611380565b34801561035557600080fd5b5061015c6103643660046132a8565b61173a565b34801561037557600080fd5b5061015c610384366004613178565b611789565b34801561039557600080fd5b5061015c6103a43660046132c1565b6119e2565b3480156103b557600080fd5b5061015c6103c4366004613100565b611c9c565b61015c6103d73660046130ae565b611dea565b61015c6103ea3660046132c1565b611f1c565b3480156103fb57600080fd5b5061015c61040a3660046130e3565b61260a565b34801561041b57600080fd5b5061046a61042a366004613100565b6001602081815260009384526040808520909152918352912080549181015460029091015460ff8316926001600160a01b03610100909104811692911684565b6040805194151585526001600160a01b039384166020860152840191909152166060820152608001610268565b61015c6104a53660046132c1565b61266e565b6001600160a01b0383166000908152600360208181526040808420858552909152909120015483906105495760405162461bcd60e51b815260206004820152602360248201527f7265616d61696e20616d6f756e74206d7573742067726561746572207468616e60448201527f203020000000000000000000000000000000000000000000000000000000000060648201526084015b60405180910390fd5b600061055f6001600160a01b03861633866128b1565b116040518060600160405280602581526020016135ee60259139906105975760405162461bcd60e51b815260040161054091906133a1565b5060006105ae6001600160a01b0386163086612a5a565b9050806105fd5760405162461bcd60e51b815260206004820152601360248201527f4e4654206973206e6f7420617070726f766564000000000000000000000000006044820152606401610540565b6001600160a01b038281166000908152600360209081526040808320878452825280832060010154815184815292830190915291926106489289821692339291909116908990612b89565b9050806040518060400160405280601981526020017f4d61726b6574706c6163653a3a4e4654206e6f742073656e74000000000000008152509061069f5760405162461bcd60e51b815260040161054091906133a1565b506001600160a01b038316600090815260016020908152604080832088845290915290205460ff1615610716576001600160a01b0383166000908152600160208181526040808420898552909152822080546001600160a81b03191681559081019190915560020180546001600160a01b03191690555b6001600160a01b038316600090815260036020908152604080832088845290915290206002015461074c90849087903390612d05565b6001600160a01b0383166000908152600360208181526040808420898552909152909120015461077e906001906133ca565b6001600160a01b0384811660009081526003602081815260408084208b85529091528083209091018490558782528120600181015460029091015489835292169290819003610809576001600160a01b03861660009081526003602081815260408084208b855290915282208281556001810180546001600160a01b03191690556002810183905501555b604080518881526001600160a01b0385166020820152908101839052606081018290527f16b57cd263616de422ff341d570beceb7ad39f6a1c3d6b545734497e9b4f85fe9060800160405180910390a1505050505050505050565b6006546001600160a01b031633146108985760405162461bcd60e51b81526020600482015260006024820152604401610540565b600680546001600160a01b0319169055565b6006546001600160a01b031633146108f45760405162461bcd60e51b815260206004820152600d60248201526c24b73b30b634b21020b236b4b760991b6044820152606401610540565b600580546001600160a01b0319166001600160a01b0392909216919091179055565b6001600160a01b03808316600090815260036020908152604080832085845282529182902060010154825160608101909352602580845286949190911633149291613556908301399061097c5760405162461bcd60e51b815260040161054091906133a1565b506001600160a01b0381166000908152600360208181526040808420868552909152822060028101549101546109b291906133dd565b336000908152600460205260408120805492935083929091906109d69084906133f4565b90915550506001600160a01b0382166000908152600360208181526040808420878552825292839020600281015492015483518781523392810192909252928101919091526060810191909152608081018290527fd0e925362e975194ae5995a6362be193a363f97859b1e1b06752721d6c2c1ea49060a00160405180910390a1506001600160a01b031660009081526003602081815260408084209484529390529181208181556001810180546001600160a01b0319169055600281018290559091015550565b6000805b848110156111f8576000868683818110610abe57610abe613407565b9050602002016020810190610ad391906130e3565b6001600160a01b0381166000908152600160205260408120919250868685818110610b0057610b00613407565b90506020020135815260200190815260200160002060000160009054906101000a900460ff166040518060400160405280601f81526020017f4d61726b6574706c6163653a3a61736b20646f6573206e6f742065786973740081525090610b7a5760405162461bcd60e51b815260040161054091906133a1565b506001600160a01b03811660009081526001602052604081203391878786818110610ba757610ba7613407565b90506020020135815260200190815260200160002060000160019054906101000a90046001600160a01b03166001600160a01b031614156040518060400160405280602081526020017f4d61726b6574706c6163653a3a63616e7420616363657074206f776e2061736b81525090610c325760405162461bcd60e51b815260040161054091906133a1565b506001600160a01b038116600090815260016020526040812081878786818110610c5e57610c5e613407565b60209081029290920135835250810191909152604001600020600201546001600160a01b031614610d41576001600160a01b03811660009081526001602052604081203391878786818110610cb557610cb5613407565b90506020020135815260200190815260200160002060020160009054906101000a90046001600160a01b03166001600160a01b0316146040518060400160405280601c81526020017f4d61726b6574706c6163653a3a61736b2069732072657365727665640000000081525090610d3f5760405162461bcd60e51b815260040161054091906133a1565b505b6001600160a01b0381166000908152600160205260408120610dec9082888887818110610d7057610d70613407565b90506020020135815260200190815260200160002060000160019054906101000a90046001600160a01b0316878786818110610dae57610dae613407565b905060200201358a8a87818110610dc757610dc7613407565b9050602002016020810190610ddc91906130e3565b6001600160a01b031691906128b1565b1160405180606001604052806022815260200161357b6022913990610e245760405162461bcd60e51b815260040161054091906133a1565b506001600160a01b038116600090815260016020526040812090868685818110610e5057610e50613407565b9050602002013581526020019081526020016000206001015483610e7491906133f4565b9250610f4f81868685818110610e8c57610e8c613407565b9050602002013560016000856001600160a01b03166001600160a01b031681526020019081526020016000206000898988818110610ecc57610ecc613407565b90506020020135815260200190815260200160002060000160019054906101000a90046001600160a01b031660016000866001600160a01b03166001600160a01b0316815260200190815260200160002060008a8a89818110610f3157610f31613407565b90506020020135815260200190815260200160002060010154612d05565b33858584818110610f6257610f62613407565b90506020020135826001600160a01b03167fb091ff9056a2c0d53cb2036724ee1772de8f404d7d476d5968722166c0fd2e7b60016000866001600160a01b03166001600160a01b0316815260200190815260200160002060008a8a89818110610fcd57610fcd613407565b9050602002013581526020019081526020016000206001015460016000876001600160a01b03166001600160a01b0316815260200190815260200160002060008b8b8a81811061101f5761101f613407565b602090810292909201358352508181019290925260409081016000206002015481519384526001600160a01b0316918301919091520160405180910390a46001600160a01b038116600090815260016020526040812061111e908288888781811061108c5761108c613407565b90506020020135815260200190815260200160002060000160019054906101000a90046001600160a01b0316338888878181106110cb576110cb613407565b60408051600081526020808201909252910292909201359190508c8c898181106110f7576110f7613407565b905060200201602081019061110c91906130e3565b6001600160a01b031693929190612b89565b9050806040518060400160405280601981526020017f4d61726b6574706c6163653a3a4e4654206e6f742073656e7400000000000000815250906111755760405162461bcd60e51b815260040161054091906133a1565b506001600160a01b0382166000908152600160205260408120908787868181106111a1576111a1613407565b60209081029290920135835250810191909152604001600090812080546001600160a81b0319168155600181019190915560020180546001600160a01b0319169055508190506111f08161341d565b915050610aa2565b503481146040518060600160405280602d81526020016135c1602d9139906112335760405162461bcd60e51b815260040161054091906133a1565b505050505050565b33600090815260046020526040902054806112985760405162461bcd60e51b815260206004820152601d60248201527f4e6f7420656e6f75676820616d6f756e7420746f2077697468647261770000006044820152606401610540565b33600081815260046020526040808220829055519091829184908381818185875af1925050503d80600081146112ea576040519150601f19603f3d011682016040523d82523d6000602084013e6112ef565b606091505b5091509150816113415760405162461bcd60e51b815260206004820152601460248201527f4661696c656420746f2073656e642045746865720000000000000000000000006044820152606401610540565b60408051338152602081018590527f5dba113b49cfa7c90315e8e604e6b506f7abcb909b01dcb19ec39005086e68fc91015b60405180910390a1505050565b60005b8781101561172f5760006113bc338989858181106113a3576113a3613407565b905060200201358c8c86818110610dc757610dc7613407565b116040518060600160405280602581526020016135ee60259139906113f45760405162461bcd60e51b815260040161054091906133a1565b5061271085858381811061140a5761140a613407565b905060200201351161145e5760405162461bcd60e51b815260206004820152600d60248201527f707269636520746f6f206c6f77000000000000000000000000000000000000006044820152606401610540565b60006114b43089898581811061147657611476613407565b905060200201358c8c8681811061148f5761148f613407565b90506020020160208101906114a491906130e3565b6001600160a01b03169190612a5a565b9050806115035760405162461bcd60e51b815260206004820152601360248201527f4e4654206973206e6f7420617070726f766564000000000000000000000000006044820152606401610540565b604080516080810182526001815233602082015290810187878581811061152c5761152c613407565b90506020020135815260200185858581811061154a5761154a613407565b905060200201602081019061155f91906130e3565b6001600160a01b03169052600160008c8c8681811061158057611580613407565b905060200201602081019061159591906130e3565b6001600160a01b03166001600160a01b0316815260200190815260200160002060008a8a868181106115c9576115c9613407565b6020908102929092013583525081810192909252604090810160002083518154938501516001600160a81b031990941690151574ffffffffffffffffffffffffffffffffffffffff001916176101006001600160a01b0394851602178155908301516001820155606090920151600290920180546001600160a01b0319169290911691909117905587878381811061166357611663613407565b905060200201358a8a8481811061167c5761167c613407565b905060200201602081019061169191906130e3565b6001600160a01b0316337fa11d5827cf84bec195af5ef315a898693f8633b4c246f5e91c1d0fff29f58a348989878181106116ce576116ce613407565b905060200201358888888181106116e7576116e7613407565b90506020020160208101906116fc91906130e3565b604080519283526001600160a01b0390911660208301520160405180910390a450806117278161341d565b915050611383565b505050505050505050565b6006546001600160a01b031633146117845760405162461bcd60e51b815260206004820152600d60248201526c24b73b30b634b21020b236b4b760991b6044820152606401610540565b600755565b60005b838110156119db5760008585838181106117a8576117a8613407565b90506020020160208101906117bd91906130e3565b6001600160a01b03811660009081526001602052604081209192503391908686868181106117ed576117ed613407565b90506020020135815260200190815260200160002060000160019054906101000a90046001600160a01b03166001600160a01b031614604051806060016040528060258152602001613556602591399061185a5760405162461bcd60e51b815260040161054091906133a1565b5060006118b13086868681811061187357611873613407565b9050602002013589898781811061188c5761188c613407565b90506020020160208101906118a191906130e3565b6001600160a01b03169190612e01565b9050806119005760405162461bcd60e51b815260206004820152601360248201527f4e4654206973206e6f74207265766f6b656421000000000000000000000000006044820152606401610540565b6001600160a01b03821660009081526001602052604081209086868681811061192b5761192b613407565b60209081029290920135835250810191909152604001600090812080546001600160a81b0319168155600181019190915560020180546001600160a01b031916905584848481811061197f5761197f613407565b90506020020135826001600160a01b0316336001600160a01b03167f4d7cdcd7d8e1e150c4c5703fb12c932a0683bc890e601471c754e8e43b1de18c60405160405180910390a4505080806119d39061341d565b91505061178c565b5050505050565b60005b85811015611c93576000878783818110611a0157611a01613407565b9050602002016020810190611a1691906130e3565b6001600160a01b0381166000908152600260205260408120919250339190888886818110611a4657611a46613407565b9050602002013581526020019081526020016000206000868686818110611a6f57611a6f613407565b90506020020135815260200190815260200160002060010160019054906101000a90046001600160a01b03166001600160a01b0316146040518060600160405280602581526020016135316025913990611adc5760405162461bcd60e51b815260040161054091906133a1565b506001600160a01b038116600090815260026020526040812090878785818110611b0857611b08613407565b9050602002013581526020019081526020016000206000858585818110611b3157611b31613407565b9050602002013581526020019081526020016000206002015460046000336001600160a01b03166001600160a01b031681526020019081526020016000206000828254611b7e91906133f4565b90915550506001600160a01b038116600090815260026020526040812090878785818110611bae57611bae613407565b9050602002013581526020019081526020016000206000858585818110611bd757611bd7613407565b6020908102929092013583525081019190915260400160009081208181556001810180546001600160a81b03191690556002015533868684818110611c1e57611c1e613407565b90506020020135826001600160a01b03167f887dc05d3b632d032620de6116a12ec3b9febaccde6fd31195972c655d7161fe878787818110611c6257611c62613407565b90506020020135604051611c7891815260200190565b60405180910390a45080611c8b8161341d565b9150506119e5565b50505050505050565b600054610100900460ff1615808015611cbc5750600054600160ff909116105b80611cd65750303b158015611cd6575060005460ff166001145b611d485760405162461bcd60e51b815260206004820152602e60248201527f496e697469616c697a61626c653a20636f6e747261637420697320616c72656160448201527f647920696e697469616c697a65640000000000000000000000000000000000006064820152608401610540565b6000805460ff191660011790558015611d6b576000805461ff0019166101001790555b600580546001600160a01b0385166001600160a01b03199182161790915560068054909116331790556007829055600060088190556009558015611de5576000805461ff0019169055604051600181527f7f26b83ff96e1f2b6a682f133852f6798a09c465da95921460cefb384740249890602001611373565b505050565b6000611df683836133dd565b9050348114611e475760405162461bcd60e51b815260206004820152600f60248201527f494e56414c49442042414c414e434500000000000000000000000000000000006044820152606401610540565b60006009546001611e5891906133f4565b60408051608080820183528382523360208084018281528486018b815260608087018c81526001600160a01b038f8116600090815260038088528b82208d83528852908b902099518a55945160018a0180546001600160a01b03191691909216179055915160028801559051959091019490945584518681529081019190915292830188905290820186905291925086917f06e0dbc683ef60581fed8ddd261dc286deeafceec28e36434d0e02026c8f3c5d910160405180910390a1505050505050565b6000805b868110156125c5576000611f5933888885818110611f4057611f40613407565b905060200201358b8b86818110610dc757610dc7613407565b116040518060600160405280602581526020016135ee6025913990611f915760405162461bcd60e51b815260040161054091906133a1565b506000888883818110611fa657611fa6613407565b9050602002016020810190611fbb91906130e3565b6001600160a01b0381166000908152600260205260408120919250888885818110611fe857611fe8613407565b905060200201358152602001908152602001600020600086868581811061201157612011613407565b905060200201358152602001908152602001600020600201548361203591906133f4565b92506120d58188888581811061204d5761204d613407565b905060200201353360026000866001600160a01b03166001600160a01b0316815260200190815260200160002060008c8c8981811061208e5761208e613407565b90506020020135815260200190815260200160002060008a8a898181106120b7576120b7613407565b90506020020135815260200190815260200160002060020154612d05565b6000612106308989868181106120ed576120ed613407565b905060200201358c8c8781811061148f5761148f613407565b9050806121555760405162461bcd60e51b815260206004820152601360248201527f4e4654206973206e6f7420617070726f766564000000000000000000000000006044820152606401610540565b3388888581811061216857612168613407565b90506020020135836001600160a01b03167fc9827422dbb5e685186f9d060d161538c8998d44888e66d5d28062aeddc2593e60026000876001600160a01b03166001600160a01b0316815260200190815260200160002060008d8d8a8181106121d3576121d3613407565b90506020020135815260200190815260200160002060008b8b8a8181106121fc576121fc613407565b9050602002013581526020019081526020016000206000015460026000886001600160a01b03166001600160a01b0316815260200190815260200160002060008e8e8b81811061224e5761224e613407565b90506020020135815260200190815260200160002060008c8c8b81811061227757612277613407565b90506020020135815260200190815260200160002060010160019054906101000a90046001600160a01b031660026000896001600160a01b03166001600160a01b0316815260200190815260200160002060008f8f8c8181106122dc576122dc613407565b90506020020135815260200190815260200160002060008d8d8c81811061230557612305613407565b90506020020135815260200190815260200160002060020154604051612347939291909283526001600160a01b03919091166020830152604082015260600190565b60405180910390a46001600160a01b0382166000908152600260205260408120612413903390838c8c8981811061238057612380613407565b90506020020135815260200190815260200160002060008a8a898181106123a9576123a9613407565b90506020020135815260200190815260200160002060010160019054906101000a90046001600160a01b03168b8b888181106123e7576123e7613407565b60408051600081526020808201909252910292909201359190508f8f8a8181106110f7576110f7613407565b9050806040518060400160405280601981526020017f4d61726b6574706c6163653a3a4e4654206e6f742073656e74000000000000008152509061246a5760405162461bcd60e51b815260040161054091906133a1565b506001600160a01b0383166000908152600160205260408120908a8a8781811061249657612496613407565b602090810292909201358352508101919091526040016000205460ff1615612526576001600160a01b0383166000908152600160205260408120908a8a878181106124e3576124e3613407565b60209081029290920135835250810191909152604001600090812080546001600160a81b0319168155600181019190915560020180546001600160a01b03191690555b6001600160a01b0383166000908152600260205260408120908a8a8781811061255157612551613407565b905060200201358152602001908152602001600020600088888781811061257a5761257a613407565b6020908102929092013583525081019190915260400160009081208181556001810180546001600160a81b031916905560020155508291506125bd90508161341d565b915050611f20565b503481146040518060600160405280602d81526020016135c1602d9139906126005760405162461bcd60e51b815260040161054091906133a1565b5050505050505050565b6006546001600160a01b0316331461263e5760405162461bcd60e51b81526020600482015260006024820152604401610540565b6001600160a01b0381166108f45760405162461bcd60e51b81526020600482015260006024820152604401610540565b6000805b8681101561287657600088888381811061268e5761268e613407565b90506020020160208101906126a391906130e3565b9050600060085460016126b691906133f4565b90506040518060800160405280828152602001600115158152602001336001600160a01b031681526020018787868181106126f3576126f3613407565b9050602002013581525060026000846001600160a01b03166001600160a01b0316815260200190815260200160002060008a8a8781811061273657612736613407565b60209081029290920135835250818101929092526040908101600090812085825283528190208351815591830151600183018054928501516001600160a01b03166101000274ffffffffffffffffffffffffffffffffffffffff0019921515929092166001600160a81b031990931692909217179055606090910151600290910155338888858181106127cb576127cb613407565b90506020020135836001600160a01b03167fb6f01cf086c6aafcbf84635bd5cad3fa1064d5877595330a8ea85625ea31d22f848a8a8981811061281057612810613407565b9050602002013560405161282e929190918252602082015260400190565b60405180910390a4600881905585858481811061284d5761284d613407565b905060200201358461285f91906133f4565b93505050808061286e9061341d565b915050612672565b5034811460405180606001604052806024815260200161359d60249139906126005760405162461bcd60e51b815260040161054091906133a1565b6040517f6352211e000000000000000000000000000000000000000000000000000000008152600481018290526000906001600160a01b03851690636352211e90602401602060405180830381865afa92505050801561292e575060408051601f3d908101601f1916820190925261292b91810190613436565b60015b612a2a573d80801561295c576040519150601f19603f3d011682016040523d82523d6000602084013e612961565b606091505b506040517efdd58e0000000000000000000000000000000000000000000000000000000081526001600160a01b0385811660048301526024820185905286169062fdd58e90604401602060405180830381865afa9250505080156129e2575060408051601f3d908101601f191682019092526129df91810190613453565b60015b612a21573d808015612a10576040519150601f19603f3d011682016040523d82523d6000602084013e612a15565b606091505b50600092505050612a53565b9150612a539050565b836001600160a01b0316816001600160a01b031603612a4d576001915050612a53565b60009150505b9392505050565b60405163095ea7b360e01b81526001600160a01b038381166004830152602482018390526000919085169063095ea7b390604401600060405180830381600087803b158015612aa857600080fd5b505af1925050508015612ab9575060015b612b81573d808015612ae7576040519150601f19603f3d011682016040523d82523d6000602084013e612aec565b606091505b5060405163a22cb46560e01b81526001600160a01b0385811660048301526001602483015286169063a22cb465906044015b600060405180830381600087803b158015612b3857600080fd5b505af1925050508015612b49575060015b612b77573d808015612a10576040519150601f19603f3d011682016040523d82523d6000602084013e612a15565b6001915050612a53565b506001612a53565b6040517fb88d4fde0000000000000000000000000000000000000000000000000000000081526000906001600160a01b0387169063b88d4fde90612bd790889088908890889060040161346c565b600060405180830381600087803b158015612bf157600080fd5b505af1925050508015612c02575060015b612cf8573d808015612c30576040519150601f19603f3d011682016040523d82523d6000602084013e612c35565b606091505b506040517ff242432a0000000000000000000000000000000000000000000000000000000081526001600160a01b0388169063f242432a90612c84908990899089906001908a906004016134a8565b600060405180830381600087803b158015612c9e57600080fd5b505af1925050508015612caf575060015b612cee573d808015612cdd576040519150601f19603f3d011682016040523d82523d6000602084013e612ce2565b606091505b50600092505050612cfc565b6001915050612cfc565b5060015b95945050505050565b600061271060075483612d1891906133dd565b612d2291906134e0565b9050600080612d32878786612ec7565b9092509050600081612d4485876133ca565b612d4e91906133ca565b9050600082118015612d6857506001600160a01b03831615155b15612d9b576001600160a01b03831660009081526004602052604081208054849290612d959084906133f4565b90915550505b6005546001600160a01b031660009081526004602052604081208054869290612dc59084906133f4565b90915550506001600160a01b03861660009081526004602052604081208054839290612df29084906133f4565b90915550505050505050505050565b60405163095ea7b360e01b815260006004820181905260248201839052906001600160a01b0385169063095ea7b390604401600060405180830381600087803b158015612e4d57600080fd5b505af1925050508015612e5e575060015b612b81573d808015612e8c576040519150601f19603f3d011682016040523d82523d6000602084013e612e91565b606091505b5060405163a22cb46560e01b81526001600160a01b0385811660048301526000602483015286169063a22cb46590604401612b1e565b600080612edb8563152a902d60e11b612f70565b15612f615760405163152a902d60e11b8152600481018590526024810184905260009081906001600160a01b03881690632a55205a906044016040805180830381865afa158015612f30573d6000803e3d6000fd5b505050506040513d601f19601f82011682018060405250810190612f549190613502565b9094509250612f68915050565b5060009050805b935093915050565b6000612f7b83612f95565b8015612f8c5750612f8c8383612fe0565b90505b92915050565b6000612fa8826301ffc9a760e01b612fe0565b8015612f8f5750612fd9827fffffffff00000000000000000000000000000000000000000000000000000000612fe0565b1592915050565b604080517fffffffff000000000000000000000000000000000000000000000000000000008316602480830191909152825180830390910181526044909101909152602080820180517bffffffffffffffffffffffffffffffffffffffffffffffffffffffff166301ffc9a760e01b178152825160009392849283928392918391908a617530fa92503d9150600051905082801561307f575060208210155b801561308b5750600081115b979650505050505050565b6001600160a01b03811681146130ab57600080fd5b50565b6000806000606084860312156130c357600080fd5b83356130ce81613096565b95602085013595506040909401359392505050565b6000602082840312156130f557600080fd5b8135612a5381613096565b6000806040838503121561311357600080fd5b823561311e81613096565b946020939093013593505050565b60008083601f84011261313e57600080fd5b50813567ffffffffffffffff81111561315657600080fd5b6020830191508360208260051b850101111561317157600080fd5b9250929050565b6000806000806040858703121561318e57600080fd5b843567ffffffffffffffff808211156131a657600080fd5b6131b28883890161312c565b909650945060208701359150808211156131cb57600080fd5b506131d88782880161312c565b95989497509550505050565b6000806000806000806000806080898b03121561320057600080fd5b883567ffffffffffffffff8082111561321857600080fd5b6132248c838d0161312c565b909a50985060208b013591508082111561323d57600080fd5b6132498c838d0161312c565b909850965060408b013591508082111561326257600080fd5b61326e8c838d0161312c565b909650945060608b013591508082111561328757600080fd5b506132948b828c0161312c565b999c989b5096995094979396929594505050565b6000602082840312156132ba57600080fd5b5035919050565b600080600080600080606087890312156132da57600080fd5b863567ffffffffffffffff808211156132f257600080fd5b6132fe8a838b0161312c565b9098509650602089013591508082111561331757600080fd5b6133238a838b0161312c565b9096509450604089013591508082111561333c57600080fd5b5061334989828a0161312c565b979a9699509497509295939492505050565b6000815180845260005b8181101561338157602081850181015186830182015201613365565b506000602082860101526020601f19601f83011685010191505092915050565b602081526000612f8c602083018461335b565b634e487b7160e01b600052601160045260246000fd5b81810381811115612f8f57612f8f6133b4565b8082028115828204841417612f8f57612f8f6133b4565b80820180821115612f8f57612f8f6133b4565b634e487b7160e01b600052603260045260246000fd5b60006001820161342f5761342f6133b4565b5060010190565b60006020828403121561344857600080fd5b8151612a5381613096565b60006020828403121561346557600080fd5b5051919050565b60006001600160a01b0380871683528086166020840152508360408301526080606083015261349e608083018461335b565b9695505050505050565b60006001600160a01b03808816835280871660208401525084604083015283606083015260a0608083015261308b60a083018461335b565b6000826134fd57634e487b7160e01b600052601260045260246000fd5b500490565b6000806040838503121561351557600080fd5b825161352081613096565b602093909301519294929350505056fe4d61726b6574706c6163653a3a6e6f7420612063726561746f72206f6620746865206269644d61726b6574706c6163653a3a6e6f7420612063726561746f72206f66207468652061736b4d61726b6574706c6163653a3a61736b2063726561746f72206e6f74206f776e65724d61726b6574706c6163653a3a696e73756666696369656e742065746865722073656e744d61726b6574706c6163653a3a61736b20707269636520686967686572207468616e2073656e742076616c75654d61726b6574706c6163653a3a6e6f7420616e206f776e6572206f6620746f6b656e204944a2646970667358221220280a41cf5c717d1cd266d4c16291e18bdac72149c144cfc2020d4db5b3e4a92064736f6c63430008130033",
  "linkReferences": {},
  "deployedLinkReferences": {}
}