{
  "_format": "hh-sol-artifact-1",
  "contractName": "LaunchpadFactory",
  "sourceName": "contracts/LaunchpadFactory.sol",
  "abi": [
    {
      "inputs": [],
      "stateMutability": "nonpayable",
      "type": "constructor"
    },
    {
      "anonymous": false,
      "inputs": [
        {
          "indexed": true,
          "internalType": "address",
          "name": "collection_address",
          "type": "address"
        },
        {
          "indexed": true,
          "internalType": "address",
          "name": "minter",
          "type": "address"
        },
        {
          "indexed": false,
          "internalType": "uint256",
          "name": "quantity",
          "type": "uint256"
        },
        {
          "indexed": false,
          "internalType": "uint256",
          "name": "price_per_item",
          "type": "uint256"
        }
      ],
      "name": "MintNativeEvent",
      "type": "event"
    },
    {
      "anonymous": false,
      "inputs": [
        {
          "indexed": true,
          "internalType": "address",
          "name": "collection_address",
          "type": "address"
        },
        {
          "indexed": false,
          "internalType": "string",
          "name": "name",
          "type": "string"
        },
        {
          "indexed": false,
          "internalType": "string",
          "name": "symbol",
          "type": "string"
        },
        {
          "indexed": false,
          "internalType": "uint256",
          "name": "supply",
          "type": "uint256"
        }
      ],
      "name": "RegisterCollectionEvent",
      "type": "event"
    },
    {
      "anonymous": false,
      "inputs": [
        {
          "indexed": true,
          "internalType": "address",
          "name": "collection_address",
          "type": "address"
        },
        {
          "indexed": false,
          "internalType": "string",
          "name": "name",
          "type": "string"
        },
        {
          "indexed": false,
          "internalType": "string",
          "name": "symbol",
          "type": "string"
        },
        {
          "indexed": false,
          "internalType": "uint256",
          "name": "supply",
          "type": "uint256"
        }
      ],
      "name": "UpdateCollectionEvent",
      "type": "event"
    },
    {
      "inputs": [
        {
          "internalType": "address",
          "name": "collection_address",
          "type": "address"
        }
      ],
      "name": "getCollection",
      "outputs": [
        {
          "components": [
            {
              "internalType": "address",
              "name": "collection_address",
              "type": "address"
            },
            {
              "internalType": "string",
              "name": "name",
              "type": "string"
            },
            {
              "internalType": "string",
              "name": "symbol",
              "type": "string"
            },
            {
              "internalType": "uint256",
              "name": "supply",
              "type": "uint256"
            },
            {
              "internalType": "string",
              "name": "token_uri",
              "type": "string"
            },
            {
              "internalType": "uint256",
              "name": "royalty",
              "type": "uint256"
            },
            {
              "internalType": "address",
              "name": "royalty_wallet",
              "type": "address"
            },
            {
              "internalType": "address",
              "name": "creator_wallet",
              "type": "address"
            },
            {
              "internalType": "uint256",
              "name": "next_token_id",
              "type": "uint256"
            },
            {
              "internalType": "bool",
              "name": "iterated_uri",
              "type": "bool"
            }
          ],
          "internalType": "struct LaunchpadFactory.Collection",
          "name": "collection",
          "type": "tuple"
        }
      ],
      "stateMutability": "view",
      "type": "function"
    },
    {
      "inputs": [
        {
          "internalType": "address",
          "name": "collection_address",
          "type": "address"
        },
        {
          "internalType": "string",
          "name": "group_name",
          "type": "string"
        }
      ],
      "name": "getMintInfoDetail",
      "outputs": [
        {
          "components": [
            {
              "internalType": "bool",
              "name": "exist",
              "type": "bool"
            },
            {
              "internalType": "string",
              "name": "group_name",
              "type": "string"
            },
            {
              "internalType": "uint256",
              "name": "minted",
              "type": "uint256"
            }
          ],
          "internalType": "struct LaunchpadFactory.MintInfoDetail",
          "name": "mint_info",
          "type": "tuple"
        }
      ],
      "stateMutability": "view",
      "type": "function"
    },
    {
      "inputs": [
        {
          "internalType": "address",
          "name": "collection_address",
          "type": "address"
        },
        {
          "internalType": "uint256",
          "name": "token_id",
          "type": "uint256"
        }
      ],
      "name": "getMinter",
      "outputs": [
        {
          "internalType": "address",
          "name": "minter",
          "type": "address"
        }
      ],
      "stateMutability": "view",
      "type": "function"
    },
    {
      "inputs": [
        {
          "internalType": "address",
          "name": "collection_address",
          "type": "address"
        },
        {
          "internalType": "string",
          "name": "group_name",
          "type": "string"
        }
      ],
      "name": "getPhase",
      "outputs": [
        {
          "components": [
            {
              "internalType": "string",
              "name": "name",
              "type": "string"
            },
            {
              "internalType": "bytes32",
              "name": "merkle_root",
              "type": "bytes32"
            },
            {
              "internalType": "uint256",
              "name": "max_tokens",
              "type": "uint256"
            },
            {
              "internalType": "uint256",
              "name": "unit_price",
              "type": "uint256"
            },
            {
              "internalType": "uint256",
              "name": "start_time",
              "type": "uint256"
            },
            {
              "internalType": "uint256",
              "name": "end_time",
              "type": "uint256"
            }
          ],
          "internalType": "struct LaunchpadFactory.MintGroup",
          "name": "phase",
          "type": "tuple"
        }
      ],
      "stateMutability": "view",
      "type": "function"
    },
    {
      "inputs": [
        {
          "internalType": "address",
          "name": "collection_address",
          "type": "address"
        },
        {
          "internalType": "string",
          "name": "group_name",
          "type": "string"
        },
        {
          "internalType": "uint256",
          "name": "quantity",
          "type": "uint256"
        },
        {
          "internalType": "bytes32[]",
          "name": "_proof",
          "type": "bytes32[]"
        }
      ],
      "name": "mint_native",
      "outputs": [],
      "stateMutability": "payable",
      "type": "function"
    },
    {
      "inputs": [
        {
          "internalType": "string",
          "name": "name",
          "type": "string"
        },
        {
          "internalType": "string",
          "name": "symbol",
          "type": "string"
        },
        {
          "internalType": "uint256",
          "name": "supply",
          "type": "uint256"
        },
        {
          "internalType": "string",
          "name": "token_uri",
          "type": "string"
        },
        {
          "internalType": "uint256",
          "name": "royalty",
          "type": "uint256"
        },
        {
          "internalType": "address",
          "name": "royalty_wallet",
          "type": "address"
        },
        {
          "internalType": "address",
          "name": "creator_wallet",
          "type": "address"
        },
        {
          "internalType": "bool",
          "name": "iterated_uri",
          "type": "bool"
        },
        {
          "components": [
            {
              "internalType": "string",
              "name": "name",
              "type": "string"
            },
            {
              "internalType": "bytes32",
              "name": "merkle_root",
              "type": "bytes32"
            },
            {
              "internalType": "uint256",
              "name": "max_tokens",
              "type": "uint256"
            },
            {
              "internalType": "uint256",
              "name": "unit_price",
              "type": "uint256"
            },
            {
              "internalType": "uint256",
              "name": "start_time",
              "type": "uint256"
            },
            {
              "internalType": "uint256",
              "name": "end_time",
              "type": "uint256"
            }
          ],
          "internalType": "struct LaunchpadFactory.MintGroup[]",
          "name": "_mint_groups",
          "type": "tuple[]"
        }
      ],
      "name": "register_collection",
      "outputs": [],
      "stateMutability": "nonpayable",
      "type": "function"
    },
    {
      "inputs": [
        {
          "internalType": "address",
          "name": "collection_address",
          "type": "address"
        },
        {
          "internalType": "string",
          "name": "name",
          "type": "string"
        },
        {
          "internalType": "string",
          "name": "symbol",
          "type": "string"
        },
        {
          "internalType": "uint256",
          "name": "supply",
          "type": "uint256"
        },
        {
          "internalType": "string",
          "name": "token_uri",
          "type": "string"
        },
        {
          "internalType": "address",
          "name": "creator_wallet",
          "type": "address"
        },
        {
          "internalType": "bool",
          "name": "iterated_uri",
          "type": "bool"
        },
        {
          "components": [
            {
              "internalType": "string",
              "name": "name",
              "type": "string"
            },
            {
              "internalType": "bytes32",
              "name": "merkle_root",
              "type": "bytes32"
            },
            {
              "internalType": "uint256",
              "name": "max_tokens",
              "type": "uint256"
            },
            {
              "internalType": "uint256",
              "name": "unit_price",
              "type": "uint256"
            },
            {
              "internalType": "uint256",
              "name": "start_time",
              "type": "uint256"
            },
            {
              "internalType": "uint256",
              "name": "end_time",
              "type": "uint256"
            }
          ],
          "internalType": "struct LaunchpadFactory.MintGroup[]",
          "name": "_mint_groups",
          "type": "tuple[]"
        }
      ],
      "name": "update_collection",
      "outputs": [],
      "stateMutability": "nonpayable",
      "type": "function"
    }
  ],
  "bytecode": "0x608060405234801561001057600080fd5b50600480546001600160a01b031916331790556148f1806100326000396000f3fe608060405260043610620000795760003560e01c8063bf7151091162000054578063bf715109146200013d578063c3b5dbfb1462000171578063e40de8871462000196578063ff215f2414620001ca57600080fd5b806313890cf8146200007e578063a165a58b14620000e2578063b99e97ff1462000109575b600080fd5b3480156200008b57600080fd5b50620000c56200009d3660046200188b565b6001600160a01b03918216600090815260026020908152604080832093835292905220541690565b6040516001600160a01b0390911681526020015b60405180910390f35b348015620000ef57600080fd5b506200010762000101366004620019c3565b620001e1565b005b3480156200011657600080fd5b506200012e6200012836600462001ac8565b620004f2565b604051620000d9919062001b70565b3480156200014a57600080fd5b50620001626200015c36600462001ac8565b6200061e565b604051620000d9919062001bb0565b3480156200017e57600080fd5b50620001076200019036600462001c0c565b62000771565b348015620001a357600080fd5b50620001bb620001b536600462001d1c565b62000a84565b604051620000d9919062001d3a565b62000107620001db36600462001e24565b62000d4c565b6004546001600160a01b03163314620002315760405162461bcd60e51b815260206004820152600d60248201526c24b73b30b634b21027bbb732b960991b60448201526064015b60405180910390fd5b60408051610140810182526001600160a01b03808c1680835260208084018d90528385018c9052606084018b9052608084018a90526000828152808252948520600581015460a08601526006810154841660c086015292891660e0850152600161010085015287151561012085015290845292909252600390910154620002fb5760405162461bcd60e51b815260206004820152601560248201527f436f6c6c656374696f6e206e6f74206578697374210000000000000000000000604482015260640162000228565b6001600160a01b038a8116600090815260208181526040909120835181546001600160a01b0319169316929092178255820151829190600182019062000342908262001f41565b506040820151600282019062000359908262001f41565b5060608201516003820155608082015160048201906200037a908262001f41565b5060a0820151600582015560c08201516006820180546001600160a01b039283166001600160a01b03199182161790915560e08401516007840180549190931691161790556101008201516008820155610120909101516009909101805491151560ff1990921691909117905560005b828110156200049f578383828181106200040857620004086200200e565b90506020028101906200041c919062002024565b6001600160a01b038c1660009081526003602052604090208585848181106200044957620004496200200e565b90506020028101906200045d919062002024565b62000469908062002045565b604051620004799291906200208f565b9081526040519081900360200190206200049482826200216d565b5050600101620003ea565b50896001600160a01b03167e80007cd925b6b63d6b4959ed3945afa44a9cf2bf4fc49aef159690f9da81518a8a8a604051620004de93929190620021f7565b60405180910390a250505050505050505050565b62000519604051806060016040528060001515815260200160608152602001600081525090565b3360009081526001602090815260408083206001600160a01b03871684529091529081902090516200054d90849062002231565b90815260408051918290036020908101832060608401909252815460ff161515835260018201805491840191620005849062001eb2565b80601f0160208091040260200160405190810160405280929190818152602001828054620005b29062001eb2565b8015620006035780601f10620005d75761010080835404028352916020019162000603565b820191906000526020600020905b815481529060010190602001808311620005e557829003601f168201915b50505050508152602001600282015481525050905092915050565b6200065b6040518060c001604052806060815260200160008019168152602001600081526020016000815260200160008152602001600081525090565b6001600160a01b0383166000908152600360205260409081902090516200068490849062002231565b90815260200160405180910390206040518060c0016040529081600082018054620006af9062001eb2565b80601f0160208091040260200160405190810160405280929190818152602001828054620006dd9062001eb2565b80156200072e5780601f1062000702576101008083540402835291602001916200072e565b820191906000526020600020905b8154815290600101906020018083116200071057829003601f168201915b5050505050815260200160018201548152602001600282015481526020016003820154815260200160048201548152602001600582015481525050905092915050565b6004546001600160a01b03163314620007bd5760405162461bcd60e51b815260206004820152600d60248201526c24b73b30b634b21027bbb732b960991b604482015260640162000228565b60008a8a8888604051620007d19062001860565b620007e0949392919062002245565b604051809103906000f080158015620007fd573d6000803e3d6000fd5b5090506000604051806101400160405280836001600160a01b031681526020018d81526020018c81526020018b81526020018a8152602001898152602001886001600160a01b03168152602001876001600160a01b0316815260200160018152602001861515815250905080600080846001600160a01b03166001600160a01b0316815260200190815260200160002060008201518160000160006101000a8154816001600160a01b0302191690836001600160a01b031602179055506020820151816001019081620008d1919062001f41565b5060408201516002820190620008e8908262001f41565b50606082015160038201556080820151600482019062000909908262001f41565b5060a0820151600582015560c08201516006820180546001600160a01b039283166001600160a01b03199182161790915560e08401516007840180549190931691161790556101008201516008820155610120909101516009909101805491151560ff1990921691909117905560005b8381101562000a2e578484828181106200099757620009976200200e565b9050602002810190620009ab919062002024565b6001600160a01b0384166000908152600360205260409020868684818110620009d857620009d86200200e565b9050602002810190620009ec919062002024565b620009f8908062002045565b60405162000a089291906200208f565b90815260405190819003602001902062000a2382826200216d565b505060010162000979565b50816001600160a01b03167fa0449a4ae707a6a688cd5b879680e13f42ecc334eaf4d62ce5197a87c97153a68d8d8d60405162000a6e93929190620021f7565b60405180910390a2505050505050505050505050565b62000af860405180610140016040528060006001600160a01b03168152602001606081526020016060815260200160008152602001606081526020016000815260200160006001600160a01b0316815260200160006001600160a01b03168152602001600081526020016000151581525090565b6001600160a01b038083166000908152602081815260409182902082516101408101909352805490931682526001830180549293929184019162000b3c9062001eb2565b80601f016020809104026020016040519081016040528092919081815260200182805462000b6a9062001eb2565b801562000bbb5780601f1062000b8f5761010080835404028352916020019162000bbb565b820191906000526020600020905b81548152906001019060200180831162000b9d57829003601f168201915b5050505050815260200160028201805462000bd69062001eb2565b80601f016020809104026020016040519081016040528092919081815260200182805462000c049062001eb2565b801562000c555780601f1062000c295761010080835404028352916020019162000c55565b820191906000526020600020905b81548152906001019060200180831162000c3757829003601f168201915b505050505081526020016003820154815260200160048201805462000c7a9062001eb2565b80601f016020809104026020016040519081016040528092919081815260200182805462000ca89062001eb2565b801562000cf95780601f1062000ccd5761010080835404028352916020019162000cf9565b820191906000526020600020905b81548152906001019060200180831162000cdb57829003601f168201915b50505091835250506005820154602082015260068201546001600160a01b03908116604083015260078301541660608201526008820154608082015260099091015460ff16151560a09091015292915050565b6001600160a01b03808616600090815260208181526040808320815161014081019092528054909416815260018401805493949193919284019162000d919062001eb2565b80601f016020809104026020016040519081016040528092919081815260200182805462000dbf9062001eb2565b801562000e105780601f1062000de45761010080835404028352916020019162000e10565b820191906000526020600020905b81548152906001019060200180831162000df257829003601f168201915b5050505050815260200160028201805462000e2b9062001eb2565b80601f016020809104026020016040519081016040528092919081815260200182805462000e599062001eb2565b801562000eaa5780601f1062000e7e5761010080835404028352916020019162000eaa565b820191906000526020600020905b81548152906001019060200180831162000e8c57829003601f168201915b505050505081526020016003820154815260200160048201805462000ecf9062001eb2565b80601f016020809104026020016040519081016040528092919081815260200182805462000efd9062001eb2565b801562000f4e5780601f1062000f225761010080835404028352916020019162000f4e565b820191906000526020600020905b81548152906001019060200180831162000f3057829003601f168201915b5050509183525050600582015460208083019190915260068301546001600160a01b039081166040808501919091526007850154821660608501526008850154608085015260099094015460ff16151560a0909301929092529089166000908152600390915281812091519293509162000fca90889062002231565b90815260200160405180910390206040518060c001604052908160008201805462000ff59062001eb2565b80601f0160208091040260200160405190810160405280929190818152602001828054620010239062001eb2565b8015620010745780601f10620010485761010080835404028352916020019162001074565b820191906000526020600020905b8154815290600101906020018083116200105657829003601f168201915b5050505050815260200160018201548152602001600282015481526020016003820154815260200160048201548152602001600582015481525050905060008260600151118015620010dc5750816060015185836101000151620010d99190620022a5565b11155b6200112a5760405162461bcd60e51b815260206004820152601360248201527f4e6f7420656e6f75676820666f722073616c6500000000000000000000000000604482015260640162000228565b60006200113a426103e8620022bb565b9050808260800151111580156200115557508160a001518111155b620011a35760405162461bcd60e51b815260206004820152601060248201527f4e6f742074696d6520746f206d696e7400000000000000000000000000000000604482015260640162000228565b6000826060015187620011b79190620022bb565b90508034146200120a5760405162461bcd60e51b815260206004820152600f60248201527f496e76616c69642042616c616e63650000000000000000000000000000000000604482015260640162000228565b602083015115620012b0576040516bffffffffffffffffffffffff193360601b166020820152600090603401604051602081830303815290604052805190602001209050620012608787866020015184620016f4565b620012ae5760405162461bcd60e51b815260206004820152600d60248201527f496e76616c69642070726f6f6600000000000000000000000000000000000000604482015260640162000228565b505b3360009081526001602090815260408083206001600160a01b038d1684529091528082209051620012e3908b9062002231565b90815260408051918290036020908101832060608401909252815460ff1615158352600182018054918401916200131a9062001eb2565b80601f0160208091040260200160405190810160405280929190818152602001828054620013489062001eb2565b8015620013995780601f106200136d5761010080835404028352916020019162001399565b820191906000526020600020905b8154815290600101906020018083116200137b57829003601f168201915b5050505050815260200160028201548152505090508360400151816040015110620014075760405162461bcd60e51b815260206004820152601060248201527f4d617820546f6b656e204d696e74656400000000000000000000000000000000604482015260640162000228565b620014178560e00151836200170e565b60005b88811015620015445761010086015160808701516000906200143d90836200177f565b6040517fcd279c7c0000000000000000000000000000000000000000000000000000000081529091506001600160a01b038e169063cd279c7c906200148b90339086908690600401620022d5565b600060405180830381600087803b158015620014a657600080fd5b505af1158015620014bb573d6000803e3d6000fd5b505050508360000151620014d557602084018c9052600184525b600184604001818151620014ea9190620022a5565b905250610100880180516001919062001505908390620022a5565b905250506001600160a01b038c1660009081526002602090815260408083209383529290522080546001600160a01b031916331790556001016200141a565b506001600160a01b038a8116600090815260208181526040909120875181546001600160a01b031916931692909217825586015186919060018201906200158c908262001f41565b5060408201516002820190620015a3908262001f41565b506060820151600382015560808201516004820190620015c4908262001f41565b5060a0820151600582015560c08201516006820180546001600160a01b03199081166001600160a01b039384161790915560e08401516007840180549092169083161790556101008301516008830155610120909201516009909101805460ff1916911515919091179055336000908152600160209081526040808320938e16835292905281902090518291906200165e908c9062002231565b908152604051602091819003820190208251815460ff191690151517815590820151600182019062001691908262001f41565b50604091820151600290910155606085015181518a8152602081019190915233916001600160a01b038d16917fd9d642d1278e86f6ebbecd64acf9dc2279c4972d94a05a4813503897ff53e4a5910160405180910390a350505050505050505050565b60008262001704868685620017d5565b1495945050505050565b80156200177b5760008060008084865af16200177b5762461bcd60e51b6000527c20000000000000000000000000000000000000000000000000000000006020527c1c5f7472616e736665724574682f5452414e534645525f4641494c4544604052600060605260646000fd5b5050565b60606000826040516020016200179791815260200190565b60405160208183030381529060405290508381604051602001620017bd92919062002308565b60405160208183030381529060405291505092915050565b600081815b8481101562001821576200180a82878784818110620017fd57620017fd6200200e565b905060200201356200182a565b91508062001818816200238e565b915050620017da565b50949350505050565b60008183106200184857600082815260208490526040902062001857565b60008381526020839052604090205b90505b92915050565b61251180620023ab83390190565b80356001600160a01b03811681146200188657600080fd5b919050565b600080604083850312156200189f57600080fd5b620018aa836200186e565b946020939093013593505050565b634e487b7160e01b600052604160045260246000fd5b600082601f830112620018e057600080fd5b813567ffffffffffffffff80821115620018fe57620018fe620018b8565b604051601f8301601f19908116603f01168101908282118183101715620019295762001929620018b8565b816040528381528660208588010111156200194357600080fd5b836020870160208301376000602085830101528094505050505092915050565b803580151581146200188657600080fd5b60008083601f8401126200198757600080fd5b50813567ffffffffffffffff811115620019a057600080fd5b6020830191508360208260051b8501011115620019bc57600080fd5b9250929050565b60008060008060008060008060006101008a8c031215620019e357600080fd5b620019ee8a6200186e565b985060208a013567ffffffffffffffff8082111562001a0c57600080fd5b62001a1a8d838e01620018ce565b995060408c013591508082111562001a3157600080fd5b62001a3f8d838e01620018ce565b985060608c0135975060808c013591508082111562001a5d57600080fd5b62001a6b8d838e01620018ce565b965062001a7b60a08d016200186e565b955062001a8b60c08d0162001963565b945060e08c013591508082111562001aa257600080fd5b5062001ab18c828d0162001974565b915080935050809150509295985092959850929598565b6000806040838503121562001adc57600080fd5b62001ae7836200186e565b9150602083013567ffffffffffffffff81111562001b0457600080fd5b62001b1285828601620018ce565b9150509250929050565b60005b8381101562001b3957818101518382015260200162001b1f565b50506000910152565b6000815180845262001b5c81602086016020860162001b1c565b601f01601f19169290920160200192915050565b60208152815115156020820152600060208301516060604084015262001b9a608084018262001b42565b9050604084015160608401528091505092915050565b602081526000825160c0602084015262001bce60e084018262001b42565b9050602084015160408401526040840151606084015260608401516080840152608084015160a084015260a084015160c08401528091505092915050565b6000806000806000806000806000806101208b8d03121562001c2d57600080fd5b8a3567ffffffffffffffff8082111562001c4657600080fd5b62001c548e838f01620018ce565b9b5060208d013591508082111562001c6b57600080fd5b62001c798e838f01620018ce565b9a5060408d0135995060608d013591508082111562001c9757600080fd5b62001ca58e838f01620018ce565b985060808d0135975062001cbc60a08e016200186e565b965062001ccc60c08e016200186e565b955062001cdc60e08e0162001963565b94506101008d013591508082111562001cf457600080fd5b5062001d038d828e0162001974565b915080935050809150509295989b9194979a5092959850565b60006020828403121562001d2f57600080fd5b62001857826200186e565b6020815262001d556020820183516001600160a01b03169052565b6000602083015161014080604085015262001d7561016085018362001b42565b91506040850151601f198086850301606087015262001d95848362001b42565b93506060870151608087015260808701519150808685030160a08701525062001dbf838262001b42565b92505060a085015160c085015260c085015162001de760e08601826001600160a01b03169052565b5060e085015161010062001e05818701836001600160a01b03169052565b8601516101208681019190915290950151151593019290925250919050565b60008060008060006080868803121562001e3d57600080fd5b62001e48866200186e565b9450602086013567ffffffffffffffff8082111562001e6657600080fd5b62001e7489838a01620018ce565b955060408801359450606088013591508082111562001e9257600080fd5b5062001ea18882890162001974565b969995985093965092949392505050565b600181811c9082168062001ec757607f821691505b60208210810362001ee857634e487b7160e01b600052602260045260246000fd5b50919050565b601f82111562001f3c57600081815260208120601f850160051c8101602086101562001f175750805b601f850160051c820191505b8181101562001f385782815560010162001f23565b5050505b505050565b815167ffffffffffffffff81111562001f5e5762001f5e620018b8565b62001f768162001f6f845462001eb2565b8462001eee565b602080601f83116001811462001fae576000841562001f955750858301515b600019600386901b1c1916600185901b17855562001f38565b600085815260208120601f198616915b8281101562001fdf5788860151825594840194600190910190840162001fbe565b508582101562001ffe5787850151600019600388901b60f8161c191681555b5050505050600190811b01905550565b634e487b7160e01b600052603260045260246000fd5b6000823560be198336030181126200203b57600080fd5b9190910192915050565b6000808335601e198436030181126200205d57600080fd5b83018035915067ffffffffffffffff8211156200207957600080fd5b602001915036819003821315620019bc57600080fd5b8183823760009101908152919050565b67ffffffffffffffff831115620020ba57620020ba620018b8565b620020d283620020cb835462001eb2565b8362001eee565b6000601f841160018114620021095760008515620020f05750838201355b600019600387901b1c1916600186901b17835562002166565b600083815260209020601f19861690835b828110156200213c57868501358255602094850194600190920191016200211a565b50868210156200215a5760001960f88860031b161c19848701351681555b505060018560011b0183555b5050505050565b8135601e198336030181126200218257600080fd5b8201803567ffffffffffffffff8111156200219c57600080fd5b602082019150803603821315620021b257600080fd5b620021bf8183856200209f565b50506020820135600182015560408201356002820155606082013560038201556080820135600482015560a082013560058201555050565b6060815260006200220c606083018662001b42565b828103602084015262002220818662001b42565b915050826040830152949350505050565b600082516200203b81846020870162001b1c565b6080815260006200225a608083018762001b42565b82810360208401526200226e818762001b42565b9150508360408301526001600160a01b038316606083015295945050505050565b634e487b7160e01b600052601160045260246000fd5b808201808211156200185a576200185a6200228f565b80820281158282048414176200185a576200185a6200228f565b6001600160a01b0384168152826020820152606060408201526000620022ff606083018462001b42565b95945050505050565b600083516200231c81846020880162001b1c565b7f2f0000000000000000000000000000000000000000000000000000000000000090830190815283516200235881600184016020880162001b1c565b7f2e6a736f6e00000000000000000000000000000000000000000000000000000060019290910191820152600601949350505050565b600060018201620023a357620023a36200228f565b506001019056fe60806040523480156200001157600080fd5b5060405162002511380380620025118339810160408190526200003491620001b8565b83836000620000448382620002dc565b506001620000538282620002dc565b50506007805460ff19169055506200006b3362000099565b600b91909155600a80546001600160a01b0319166001600160a01b0390921691909117905550620003a89050565b600780546001600160a01b03838116610100818102610100600160a81b031985161790945560405193909204169182907f8be0079c531659141344cd1fd0a4f28419497f9722a3daafe3b4186f6b6457e090600090a35050565b634e487b7160e01b600052604160045260246000fd5b600082601f8301126200011b57600080fd5b81516001600160401b0380821115620001385762000138620000f3565b604051601f8301601f19908116603f01168101908282118183101715620001635762000163620000f3565b816040528381526020925086838588010111156200018057600080fd5b600091505b83821015620001a4578582018301518183018401529082019062000185565b600093810190920192909252949350505050565b60008060008060808587031215620001cf57600080fd5b84516001600160401b0380821115620001e757600080fd5b620001f58883890162000109565b955060208701519150808211156200020c57600080fd5b506200021b8782880162000109565b60408701516060880151919550935090506001600160a01b03811681146200024257600080fd5b939692955090935050565b600181811c908216806200026257607f821691505b6020821081036200028357634e487b7160e01b600052602260045260246000fd5b50919050565b601f821115620002d757600081815260208120601f850160051c81016020861015620002b25750805b601f850160051c820191505b81811015620002d357828155600101620002be565b5050505b505050565b81516001600160401b03811115620002f857620002f8620000f3565b62000310816200030984546200024d565b8462000289565b602080601f8311600181146200034857600084156200032f5750858301515b600019600386901b1c1916600185901b178555620002d3565b600085815260208120601f198616915b82811015620003795788860151825594840194600190910190840162000358565b5085821015620003985787850151600019600388901b60f8161c191681555b5050505050600190811b01905550565b61215980620003b86000396000f3fe608060405234801561001057600080fd5b50600436106101825760003560e01c806370a08231116100d8578063a22cb4651161008c578063cd279c7c11610066578063cd279c7c1461031d578063e985e9c514610330578063f2fde38b1461036c57600080fd5b8063a22cb465146102e4578063b88d4fde146102f7578063c87b56dd1461030a57600080fd5b80638456cb59116100bd5780638456cb59146102be5780638da5cb5b146102c657806395d89b41146102dc57600080fd5b806370a0823114610295578063715018a6146102b657600080fd5b80632a55205a1161013a57806342966c681161011457806342966c68146102645780635c975abb146102775780636352211e1461028257600080fd5b80632a55205a146102175780633f4ba83a1461024957806342842e0e1461025157600080fd5b8063081812fc1161016b578063081812fc146101c4578063095ea7b3146101ef57806323b872dd1461020457600080fd5b806301ffc9a71461018757806306fdde03146101af575b600080fd5b61019a610195366004611bd2565b61037f565b60405190151581526020015b60405180910390f35b6101b7610390565b6040516101a69190611c3f565b6101d76101d2366004611c52565b610422565b6040516001600160a01b0390911681526020016101a6565b6102026101fd366004611c87565b610449565b005b610202610212366004611cb1565b61059d565b61022a610225366004611ced565b610615565b604080516001600160a01b0390931683526020830191909152016101a6565b6102026106d0565b61020261025f366004611cb1565b6106e2565b610202610272366004611c52565b6106fd565b60075460ff1661019a565b6101d7610290366004611c52565b610774565b6102a86102a3366004611d0f565b6107d9565b6040519081526020016101a6565b610202610873565b610202610885565b60075461010090046001600160a01b03166101d7565b6101b7610895565b6102026102f2366004611d2a565b6108a4565b610202610305366004611df2565b6108b3565b6101b7610318366004611c52565b610931565b61020261032b366004611e6e565b61093c565b61019a61033e366004611ed9565b6001600160a01b03918216600090815260056020908152604080832093909416825291909152205460ff1690565b61020261037a366004611d0f565b610975565b600061038a82610a02565b92915050565b60606000805461039f90611f0c565b80601f01602080910402602001604051908101604052809291908181526020018280546103cb90611f0c565b80156104185780601f106103ed57610100808354040283529160200191610418565b820191906000526020600020905b8154815290600101906020018083116103fb57829003601f168201915b5050505050905090565b600061042d82610a40565b506000908152600460205260409020546001600160a01b031690565b600061045482610774565b9050806001600160a01b0316836001600160a01b0316036104e25760405162461bcd60e51b815260206004820152602160248201527f4552433732313a20617070726f76616c20746f2063757272656e74206f776e6560448201527f720000000000000000000000000000000000000000000000000000000000000060648201526084015b60405180910390fd5b336001600160a01b038216148061051c57506001600160a01b038116600090815260056020908152604080832033845290915290205460ff165b61058e5760405162461bcd60e51b815260206004820152603d60248201527f4552433732313a20617070726f76652063616c6c6572206973206e6f7420746f60448201527f6b656e206f776e6572206f7220617070726f76656420666f7220616c6c00000060648201526084016104d9565b6105988383610aa4565b505050565b6105a8335b82610b1f565b61060a5760405162461bcd60e51b815260206004820152602d60248201527f4552433732313a2063616c6c6572206973206e6f7420746f6b656e206f776e6560448201526c1c881bdc88185c1c1c9bdd9959609a1b60648201526084016104d9565b610598838383610b9e565b60008281526009602090815260408083208151808301909252546001600160a01b038116808352600160a01b9091046bffffffffffffffffffffffff169282019290925282916106945750604080518082019091526008546001600160a01b0381168252600160a01b90046bffffffffffffffffffffffff1660208201525b6020810151600090612710906106b8906bffffffffffffffffffffffff1687611f46565b6106c29190611f6b565b915196919550909350505050565b6106d8610db1565b6106e0610e11565b565b610598838383604051806020016040528060008152506108b3565b610706336105a2565b6107685760405162461bcd60e51b815260206004820152602d60248201527f4552433732313a2063616c6c6572206973206e6f7420746f6b656e206f776e6560448201526c1c881bdc88185c1c1c9bdd9959609a1b60648201526084016104d9565b61077181610e63565b50565b6000818152600260205260408120546001600160a01b03168061038a5760405162461bcd60e51b815260206004820152601860248201527f4552433732313a20696e76616c696420746f6b656e204944000000000000000060448201526064016104d9565b60006001600160a01b0382166108575760405162461bcd60e51b815260206004820152602960248201527f4552433732313a2061646472657373207a65726f206973206e6f74206120766160448201527f6c6964206f776e6572000000000000000000000000000000000000000000000060648201526084016104d9565b506001600160a01b031660009081526003602052604090205490565b61087b610db1565b6106e06000610e6c565b61088d610db1565b6106e0610edd565b60606001805461039f90611f0c565b6108af338383610f1a565b5050565b6108bd3383610b1f565b61091f5760405162461bcd60e51b815260206004820152602d60248201527f4552433732313a2063616c6c6572206973206e6f7420746f6b656e206f776e6560448201526c1c881bdc88185c1c1c9bdd9959609a1b60648201526084016104d9565b61092b84848484610fe8565b50505050565b606061038a82611066565b610944610db1565b61094e838361116e565b6109588282611188565b600a54600b546105989184916001600160a01b0390911690611262565b61097d610db1565b6001600160a01b0381166109f95760405162461bcd60e51b815260206004820152602660248201527f4f776e61626c653a206e6577206f776e657220697320746865207a65726f206160448201527f646472657373000000000000000000000000000000000000000000000000000060648201526084016104d9565b61077181610e6c565b60006001600160e01b031982167f2a55205a00000000000000000000000000000000000000000000000000000000148061038a575061038a8261138d565b6000818152600260205260409020546001600160a01b03166107715760405162461bcd60e51b815260206004820152601860248201527f4552433732313a20696e76616c696420746f6b656e204944000000000000000060448201526064016104d9565b6000818152600460205260409020805473ffffffffffffffffffffffffffffffffffffffff19166001600160a01b0384169081179091558190610ae682610774565b6001600160a01b03167f8c5be1e5ebec7d5bd14f71427d1e84f3dd0314c0f7b2291e5b200ac8c7c3b92560405160405180910390a45050565b600080610b2b83610774565b9050806001600160a01b0316846001600160a01b03161480610b7257506001600160a01b0380821660009081526005602090815260408083209388168352929052205460ff165b80610b965750836001600160a01b0316610b8b84610422565b6001600160a01b0316145b949350505050565b826001600160a01b0316610bb182610774565b6001600160a01b031614610c155760405162461bcd60e51b815260206004820152602560248201527f4552433732313a207472616e736665722066726f6d20696e636f72726563742060448201526437bbb732b960d91b60648201526084016104d9565b6001600160a01b038216610c905760405162461bcd60e51b8152602060048201526024808201527f4552433732313a207472616e7366657220746f20746865207a65726f2061646460448201527f726573730000000000000000000000000000000000000000000000000000000060648201526084016104d9565b610c9d83838360016113cb565b826001600160a01b0316610cb082610774565b6001600160a01b031614610d145760405162461bcd60e51b815260206004820152602560248201527f4552433732313a207472616e736665722066726f6d20696e636f72726563742060448201526437bbb732b960d91b60648201526084016104d9565b6000818152600460209081526040808320805473ffffffffffffffffffffffffffffffffffffffff199081169091556001600160a01b0387811680865260038552838620805460001901905590871680865283862080546001019055868652600290945282852080549092168417909155905184937fddf252ad1be2c89b69c2b068fc378daa952ba7f163c4a11628f55a4df523b3ef91a4505050565b6007546001600160a01b036101009091041633146106e05760405162461bcd60e51b815260206004820181905260248201527f4f776e61626c653a2063616c6c6572206973206e6f7420746865206f776e657260448201526064016104d9565b610e196113d8565b6007805460ff191690557f5db9ee0a495bf2e6ff9c91a7834c1ba4fdd244a5e8aa4e537bd38aeae4b073aa335b6040516001600160a01b03909116815260200160405180910390a1565b6107718161142a565b600780546001600160a01b038381166101008181027fffffffffffffffffffffff0000000000000000000000000000000000000000ff85161790945560405193909204169182907f8be0079c531659141344cd1fd0a4f28419497f9722a3daafe3b4186f6b6457e090600090a35050565b610ee561146a565b6007805460ff191660011790557f62e78cea01bee320cd4e420270b5ea74000d11b0c9f74754ebdbfc544b05a258610e463390565b816001600160a01b0316836001600160a01b031603610f7b5760405162461bcd60e51b815260206004820152601960248201527f4552433732313a20617070726f766520746f2063616c6c65720000000000000060448201526064016104d9565b6001600160a01b03838116600081815260056020908152604080832094871680845294825291829020805460ff191686151590811790915591519182527f17307eab39ab6107e8899845ad3d59bd9653f200f220920489ca2b5937696c31910160405180910390a3505050565b610ff3848484610b9e565b610fff848484846114bd565b61092b5760405162461bcd60e51b815260206004820152603260248201527f4552433732313a207472616e7366657220746f206e6f6e20455243373231526560448201527131b2b4bb32b91034b6b83632b6b2b73a32b960711b60648201526084016104d9565b606061107182610a40565b6000828152600660205260408120805461108a90611f0c565b80601f01602080910402602001604051908101604052809291908181526020018280546110b690611f0c565b80156111035780601f106110d857610100808354040283529160200191611103565b820191906000526020600020905b8154815290600101906020018083116110e657829003601f168201915b50505050509050600061112160408051602081019091526000815290565b90508051600003611133575092915050565b81511561116557808260405160200161114d929190611f8d565b60405160208183030381529060405292505050919050565b610b9684611609565b6108af82826040518060200160405280600081525061167d565b6000828152600260205260409020546001600160a01b03166112125760405162461bcd60e51b815260206004820152602e60248201527f45524337323155524953746f726167653a2055524920736574206f66206e6f6e60448201527f6578697374656e7420746f6b656e00000000000000000000000000000000000060648201526084016104d9565b600082815260066020526040902061122a828261200a565b506040518281527ff8e1a15aba9398e019f0b49df1a4fde98ee17ae345cb5f6b5e2c27f5033e8ce79060200160405180910390a15050565b6127106bffffffffffffffffffffffff821611156112e85760405162461bcd60e51b815260206004820152602a60248201527f455243323938313a20726f79616c7479206665652077696c6c2065786365656460448201527f2073616c6550726963650000000000000000000000000000000000000000000060648201526084016104d9565b6001600160a01b03821661133e5760405162461bcd60e51b815260206004820152601b60248201527f455243323938313a20496e76616c696420706172616d6574657273000000000060448201526064016104d9565b6040805180820182526001600160a01b0393841681526bffffffffffffffffffffffff92831660208083019182526000968752600990529190942093519051909116600160a01b029116179055565b60006001600160e01b031982167f4906490600000000000000000000000000000000000000000000000000000000148061038a575061038a826116fb565b6113d361146a565b61092b565b60075460ff166106e05760405162461bcd60e51b815260206004820152601460248201527f5061757361626c653a206e6f742070617573656400000000000000000000000060448201526064016104d9565b61143381611796565b6000818152600660205260409020805461144c90611f0c565b15905061077157600081815260066020526040812061077191611b6e565b60075460ff16156106e05760405162461bcd60e51b815260206004820152601060248201527f5061757361626c653a207061757365640000000000000000000000000000000060448201526064016104d9565b60006001600160a01b0384163b156115fe57604051630a85bd0160e11b81526001600160a01b0385169063150b7a02906115019033908990889088906004016120ca565b6020604051808303816000875af192505050801561153c575060408051601f3d908101601f1916820190925261153991810190612106565b60015b6115e4573d80801561156a576040519150601f19603f3d011682016040523d82523d6000602084013e61156f565b606091505b5080516000036115dc5760405162461bcd60e51b815260206004820152603260248201527f4552433732313a207472616e7366657220746f206e6f6e20455243373231526560448201527131b2b4bb32b91034b6b83632b6b2b73a32b960711b60648201526084016104d9565b805181602001fd5b6001600160e01b031916630a85bd0160e11b149050610b96565b506001949350505050565b606061161482610a40565b600061162b60408051602081019091526000815290565b9050600081511161164b5760405180602001604052806000815250611676565b8061165584611846565b604051602001611666929190611f8d565b6040516020818303038152906040525b9392505050565b61168783836118e6565b61169460008484846114bd565b6105985760405162461bcd60e51b815260206004820152603260248201527f4552433732313a207472616e7366657220746f206e6f6e20455243373231526560448201527131b2b4bb32b91034b6b83632b6b2b73a32b960711b60648201526084016104d9565b60006001600160e01b031982167f80ac58cd00000000000000000000000000000000000000000000000000000000148061175e57506001600160e01b031982167f5b5e139f00000000000000000000000000000000000000000000000000000000145b8061038a57507f01ffc9a7000000000000000000000000000000000000000000000000000000006001600160e01b031983161461038a565b60006117a182610774565b90506117b18160008460016113cb565b6117ba82610774565b6000838152600460209081526040808320805473ffffffffffffffffffffffffffffffffffffffff199081169091556001600160a01b0385168085526003845282852080546000190190558785526002909352818420805490911690555192935084927fddf252ad1be2c89b69c2b068fc378daa952ba7f163c4a11628f55a4df523b3ef908390a45050565b6060600061185383611a8c565b600101905060008167ffffffffffffffff81111561187357611873611d66565b6040519080825280601f01601f19166020018201604052801561189d576020820181803683370190505b5090508181016020015b600019017f3031323334353637383961626364656600000000000000000000000000000000600a86061a8153600a85049450846118a757509392505050565b6001600160a01b03821661193c5760405162461bcd60e51b815260206004820181905260248201527f4552433732313a206d696e7420746f20746865207a65726f206164647265737360448201526064016104d9565b6000818152600260205260409020546001600160a01b0316156119a15760405162461bcd60e51b815260206004820152601c60248201527f4552433732313a20746f6b656e20616c7265616479206d696e7465640000000060448201526064016104d9565b6119af6000838360016113cb565b6000818152600260205260409020546001600160a01b031615611a145760405162461bcd60e51b815260206004820152601c60248201527f4552433732313a20746f6b656e20616c7265616479206d696e7465640000000060448201526064016104d9565b6001600160a01b0382166000818152600360209081526040808320805460010190558483526002909152808220805473ffffffffffffffffffffffffffffffffffffffff19168417905551839291907fddf252ad1be2c89b69c2b068fc378daa952ba7f163c4a11628f55a4df523b3ef908290a45050565b6000807a184f03e93ff9f4daa797ed6e38ed64bf6a1f0100000000000000008310611ad5577a184f03e93ff9f4daa797ed6e38ed64bf6a1f010000000000000000830492506040015b6d04ee2d6d415b85acef81000000008310611b01576d04ee2d6d415b85acef8100000000830492506020015b662386f26fc100008310611b1f57662386f26fc10000830492506010015b6305f5e1008310611b37576305f5e100830492506008015b6127108310611b4b57612710830492506004015b60648310611b5d576064830492506002015b600a831061038a5760010192915050565b508054611b7a90611f0c565b6000825580601f10611b8a575050565b601f01602090049060005260206000209081019061077191905b80821115611bb85760008155600101611ba4565b5090565b6001600160e01b03198116811461077157600080fd5b600060208284031215611be457600080fd5b813561167681611bbc565b60005b83811015611c0a578181015183820152602001611bf2565b50506000910152565b60008151808452611c2b816020860160208601611bef565b601f01601f19169290920160200192915050565b6020815260006116766020830184611c13565b600060208284031215611c6457600080fd5b5035919050565b80356001600160a01b0381168114611c8257600080fd5b919050565b60008060408385031215611c9a57600080fd5b611ca383611c6b565b946020939093013593505050565b600080600060608486031215611cc657600080fd5b611ccf84611c6b565b9250611cdd60208501611c6b565b9150604084013590509250925092565b60008060408385031215611d0057600080fd5b50508035926020909101359150565b600060208284031215611d2157600080fd5b61167682611c6b565b60008060408385031215611d3d57600080fd5b611d4683611c6b565b915060208301358015158114611d5b57600080fd5b809150509250929050565b634e487b7160e01b600052604160045260246000fd5b600067ffffffffffffffff80841115611d9757611d97611d66565b604051601f8501601f19908116603f01168101908282118183101715611dbf57611dbf611d66565b81604052809350858152868686011115611dd857600080fd5b858560208301376000602087830101525050509392505050565b60008060008060808587031215611e0857600080fd5b611e1185611c6b565b9350611e1f60208601611c6b565b925060408501359150606085013567ffffffffffffffff811115611e4257600080fd5b8501601f81018713611e5357600080fd5b611e6287823560208401611d7c565b91505092959194509250565b600080600060608486031215611e8357600080fd5b611e8c84611c6b565b925060208401359150604084013567ffffffffffffffff811115611eaf57600080fd5b8401601f81018613611ec057600080fd5b611ecf86823560208401611d7c565b9150509250925092565b60008060408385031215611eec57600080fd5b611ef583611c6b565b9150611f0360208401611c6b565b90509250929050565b600181811c90821680611f2057607f821691505b602082108103611f4057634e487b7160e01b600052602260045260246000fd5b50919050565b808202811582820484141761038a57634e487b7160e01b600052601160045260246000fd5b600082611f8857634e487b7160e01b600052601260045260246000fd5b500490565b60008351611f9f818460208801611bef565b835190830190611fb3818360208801611bef565b01949350505050565b601f82111561059857600081815260208120601f850160051c81016020861015611fe35750805b601f850160051c820191505b8181101561200257828155600101611fef565b505050505050565b815167ffffffffffffffff81111561202457612024611d66565b612038816120328454611f0c565b84611fbc565b602080601f83116001811461206d57600084156120555750858301515b600019600386901b1c1916600185901b178555612002565b600085815260208120601f198616915b8281101561209c5788860151825594840194600190910190840161207d565b50858210156120ba5787850151600019600388901b60f8161c191681555b5050505050600190811b01905550565b60006001600160a01b038087168352808616602084015250836040830152608060608301526120fc6080830184611c13565b9695505050505050565b60006020828403121561211857600080fd5b815161167681611bbc56fea2646970667358221220494cc3bb294ff8734a8b6ea4bbe334e1e4eff37421031bb44b0eb79f4de4434c64736f6c63430008130033a26469706673582212202bef1da5064c8b29a30620bbef77971a44ea2f4131818557231388bad279151364736f6c63430008130033",
  "linkReferences": {},
  "deployedLinkReferences": {}
}