{
  "_format": "hh-sol-artifact-1",
  "contractName": "ZeZuPool",
  "sourceName": "contracts/ZeZuPool.sol",
  "abi": [
    {
      "inputs": [],
      "stateMutability": "nonpayable",
      "type": "constructor"
    },
    {
      "inputs": [],
      "name": "Unauthorized",
      "type": "error"
    },
    {
      "anonymous": false,
      "inputs": [
        {
          "indexed": true,
          "internalType": "address",
          "name": "from",
          "type": "address"
        },
        {
          "indexed": true,
          "internalType": "address",
          "name": "to",
          "type": "address"
        },
        {
          "indexed": false,
          "internalType": "uint256",
          "name": "amount",
          "type": "uint256"
        }
      ],
      "name": "Transfer",
      "type": "event"
    },
    {
      "inputs": [
        {
          "internalType": "address",
          "name": "user",
          "type": "address"
        }
      ],
      "name": "balanceOf",
      "outputs": [
        {
          "internalType": "uint256",
          "name": "",
          "type": "uint256"
        }
      ],
      "stateMutability": "view",
      "type": "function"
    },
    {
      "inputs": [],
      "name": "decimals",
      "outputs": [
        {
          "internalType": "uint8",
          "name": "",
          "type": "uint8"
        }
      ],
      "stateMutability": "pure",
      "type": "function"
    },
    {
      "inputs": [],
      "name": "deposit",
      "outputs": [],
      "stateMutability": "payable",
      "type": "function"
    },
    {
      "inputs": [],
      "name": "name",
      "outputs": [
        {
          "internalType": "string",
          "name": "",
          "type": "string"
        }
      ],
      "stateMutability": "view",
      "type": "function"
    },
    {
      "inputs": [
        {
          "internalType": "address",
          "name": "exchange",
          "type": "address"
        }
      ],
      "name": "setExchangeAddress",
      "outputs": [],
      "stateMutability": "nonpayable",
      "type": "function"
    },
    {
      "inputs": [],
      "name": "totalSupply",
      "outputs": [
        {
          "internalType": "uint256",
          "name": "",
          "type": "uint256"
        }
      ],
      "stateMutability": "view",
      "type": "function"
    },
    {
      "inputs": [
        {
          "internalType": "address",
          "name": "from",
          "type": "address"
        },
        {
          "internalType": "address",
          "name": "to",
          "type": "address"
        },
        {
          "internalType": "uint256",
          "name": "amount",
          "type": "uint256"
        }
      ],
      "name": "transferFrom",
      "outputs": [
        {
          "internalType": "bool",
          "name": "",
          "type": "bool"
        }
      ],
      "stateMutability": "nonpayable",
      "type": "function"
    },
    {
      "inputs": [
        {
          "internalType": "uint256",
          "name": "amount",
          "type": "uint256"
        }
      ],
      "name": "withdraw",
      "outputs": [],
      "stateMutability": "nonpayable",
      "type": "function"
    },
    {
      "inputs": [
        {
          "internalType": "address",
          "name": "from",
          "type": "address"
        },
        {
          "internalType": "address",
          "name": "to",
          "type": "address"
        },
        {
          "internalType": "uint256",
          "name": "amount",
          "type": "uint256"
        }
      ],
      "name": "withdrawFrom",
      "outputs": [],
      "stateMutability": "nonpayable",
      "type": "function"
    },
    {
      "stateMutability": "payable",
      "type": "receive"
    }
  ],
  "bytecode": "0x608060405234801561001057600080fd5b5033600160006101000a81548173ffffffffffffffffffffffffffffffffffffffff021916908373ffffffffffffffffffffffffffffffffffffffff1602179055506110bf806100616000396000f3fe60806040526004361061008a5760003560e01c8063313ce56711610059578063313ce5671461015a57806370a08231146101855780639555a942146101c2578063d082ea8c146101eb578063d0e30db01461021457610099565b806306fdde031461009e57806318160ddd146100c957806323b872dd146100f45780632e1a7d4d1461013157610099565b366100995761009761021e565b005b600080fd5b3480156100aa57600080fd5b506100b36102dc565b6040516100c09190610bc5565b60405180910390f35b3480156100d557600080fd5b506100de610315565b6040516100eb9190610c00565b60405180910390f35b34801561010057600080fd5b5061011b60048036038101906101169190610caa565b61031d565b6040516101289190610d18565b60405180910390f35b34801561013d57600080fd5b5061015860048036038101906101539190610d33565b6103c4565b005b34801561016657600080fd5b5061016f6105a8565b60405161017c9190610d7c565b60405180910390f35b34801561019157600080fd5b506101ac60048036038101906101a79190610d97565b6105b1565b6040516101b99190610c00565b60405180910390f35b3480156101ce57600080fd5b506101e960048036038101906101e49190610caa565b6105fa565b005b3480156101f757600080fd5b50610212600480360381019061020d9190610d97565b61086e565b005b61021c61021e565b005b34600260003373ffffffffffffffffffffffffffffffffffffffff1673ffffffffffffffffffffffffffffffffffffffff168152602001908152602001600020600082825461026d9190610df3565b925050819055503373ffffffffffffffffffffffffffffffffffffffff16600073ffffffffffffffffffffffffffffffffffffffff167fddf252ad1be2c89b69c2b068fc378daa952ba7f163c4a11628f55a4df523b3ef346040516102d29190610c00565b60405180910390a3565b6040518060400160405280600981526020017f5a655a7520506f6f6c000000000000000000000000000000000000000000000081525081565b600047905090565b60008060009054906101000a900473ffffffffffffffffffffffffffffffffffffffff1673ffffffffffffffffffffffffffffffffffffffff163373ffffffffffffffffffffffffffffffffffffffff16146103ae576040517f08c379a00000000000000000000000000000000000000000000000000000000081526004016103a590610e73565b60405180910390fd5b6103b9848484610938565b600190509392505050565b6000600260003373ffffffffffffffffffffffffffffffffffffffff1673ffffffffffffffffffffffffffffffffffffffff1681526020019081526020016000205490508181101561044b576040517f08c379a000000000000000000000000000000000000000000000000000000000815260040161044290610edf565b60405180910390fd5b818103600260003373ffffffffffffffffffffffffffffffffffffffff1673ffffffffffffffffffffffffffffffffffffffff1681526020019081526020016000208190555060003373ffffffffffffffffffffffffffffffffffffffff16836040516104b790610f30565b60006040518083038185875af1925050503d80600081146104f4576040519150601f19603f3d011682016040523d82523d6000602084013e6104f9565b606091505b505090508061053d576040517f08c379a000000000000000000000000000000000000000000000000000000000815260040161053490610f91565b60405180910390fd5b600073ffffffffffffffffffffffffffffffffffffffff163373ffffffffffffffffffffffffffffffffffffffff167fddf252ad1be2c89b69c2b068fc378daa952ba7f163c4a11628f55a4df523b3ef8560405161059b9190610c00565b60405180910390a3505050565b60006012905090565b6000600260008373ffffffffffffffffffffffffffffffffffffffff1673ffffffffffffffffffffffffffffffffffffffff168152602001908152602001600020549050919050565b60008054906101000a900473ffffffffffffffffffffffffffffffffffffffff1673ffffffffffffffffffffffffffffffffffffffff163373ffffffffffffffffffffffffffffffffffffffff1614610688576040517f08c379a000000000000000000000000000000000000000000000000000000000815260040161067f90610e73565b60405180910390fd5b6000600260008573ffffffffffffffffffffffffffffffffffffffff1673ffffffffffffffffffffffffffffffffffffffff1681526020019081526020016000205490508181101561070f576040517f08c379a000000000000000000000000000000000000000000000000000000000815260040161070690610ffd565b60405180910390fd5b818103600260008673ffffffffffffffffffffffffffffffffffffffff1673ffffffffffffffffffffffffffffffffffffffff1681526020019081526020016000208190555060008373ffffffffffffffffffffffffffffffffffffffff168360405161077b90610f30565b60006040518083038185875af1925050503d80600081146107b8576040519150601f19603f3d011682016040523d82523d6000602084013e6107bd565b606091505b5050905080610801576040517f08c379a00000000000000000000000000000000000000000000000000000000081526004016107f890610f91565b60405180910390fd5b600073ffffffffffffffffffffffffffffffffffffffff168573ffffffffffffffffffffffffffffffffffffffff167fddf252ad1be2c89b69c2b068fc378daa952ba7f163c4a11628f55a4df523b3ef8560405161085f9190610c00565b60405180910390a35050505050565b3373ffffffffffffffffffffffffffffffffffffffff16600160009054906101000a900473ffffffffffffffffffffffffffffffffffffffff1673ffffffffffffffffffffffffffffffffffffffff16146108f5576040517f82b4290000000000000000000000000000000000000000000000000000000000815260040160405180910390fd5b806000806101000a81548173ffffffffffffffffffffffffffffffffffffffff021916908373ffffffffffffffffffffffffffffffffffffffff16021790555050565b600073ffffffffffffffffffffffffffffffffffffffff168273ffffffffffffffffffffffffffffffffffffffff16036109a7576040517f08c379a000000000000000000000000000000000000000000000000000000000815260040161099e90611069565b60405180910390fd5b6000600260008573ffffffffffffffffffffffffffffffffffffffff1673ffffffffffffffffffffffffffffffffffffffff16815260200190815260200160002054905081811015610a2e576040517f08c379a0000000000000000000000000000000000000000000000000000000008152600401610a2590610ffd565b60405180910390fd5b818103600260008673ffffffffffffffffffffffffffffffffffffffff1673ffffffffffffffffffffffffffffffffffffffff1681526020019081526020016000208190555081600260008573ffffffffffffffffffffffffffffffffffffffff1673ffffffffffffffffffffffffffffffffffffffff1681526020019081526020016000206000828254610ac39190610df3565b925050819055508273ffffffffffffffffffffffffffffffffffffffff168473ffffffffffffffffffffffffffffffffffffffff167fddf252ad1be2c89b69c2b068fc378daa952ba7f163c4a11628f55a4df523b3ef84604051610b279190610c00565b60405180910390a350505050565b600081519050919050565b600082825260208201905092915050565b60005b83811015610b6f578082015181840152602081019050610b54565b60008484015250505050565b6000601f19601f8301169050919050565b6000610b9782610b35565b610ba18185610b40565b9350610bb1818560208601610b51565b610bba81610b7b565b840191505092915050565b60006020820190508181036000830152610bdf8184610b8c565b905092915050565b6000819050919050565b610bfa81610be7565b82525050565b6000602082019050610c156000830184610bf1565b92915050565b600080fd5b600073ffffffffffffffffffffffffffffffffffffffff82169050919050565b6000610c4b82610c20565b9050919050565b610c5b81610c40565b8114610c6657600080fd5b50565b600081359050610c7881610c52565b92915050565b610c8781610be7565b8114610c9257600080fd5b50565b600081359050610ca481610c7e565b92915050565b600080600060608486031215610cc357610cc2610c1b565b5b6000610cd186828701610c69565b9350506020610ce286828701610c69565b9250506040610cf386828701610c95565b9150509250925092565b60008115159050919050565b610d1281610cfd565b82525050565b6000602082019050610d2d6000830184610d09565b92915050565b600060208284031215610d4957610d48610c1b565b5b6000610d5784828501610c95565b91505092915050565b600060ff82169050919050565b610d7681610d60565b82525050565b6000602082019050610d916000830184610d6d565b92915050565b600060208284031215610dad57610dac610c1b565b5b6000610dbb84828501610c69565b91505092915050565b7f4e487b7100000000000000000000000000000000000000000000000000000000600052601160045260246000fd5b6000610dfe82610be7565b9150610e0983610be7565b9250828201905080821115610e2157610e20610dc4565b5b92915050565b7f556e617574686f72697a6564207472616e736665720000000000000000000000600082015250565b6000610e5d601583610b40565b9150610e6882610e27565b602082019050919050565b60006020820190508181036000830152610e8c81610e50565b9050919050565b7f496e73756666696369656e742066756e64730000000000000000000000000000600082015250565b6000610ec9601283610b40565b9150610ed482610e93565b602082019050919050565b60006020820190508181036000830152610ef881610ebc565b9050919050565b600081905092915050565b50565b6000610f1a600083610eff565b9150610f2582610f0a565b600082019050919050565b6000610f3b82610f0d565b9150819050919050565b7f5472616e73666572206661696c65640000000000000000000000000000000000600082015250565b6000610f7b600f83610b40565b9150610f8682610f45565b602082019050919050565b60006020820190508181036000830152610faa81610f6e565b9050919050565b7f496e73756666696369656e742062616c616e6365000000000000000000000000600082015250565b6000610fe7601483610b40565b9150610ff282610fb1565b602082019050919050565b6000602082019050818103600083015261101681610fda565b9050919050565b7f43616e6e6f74207472616e7366657220746f2030206164647265737300000000600082015250565b6000611053601c83610b40565b915061105e8261101d565b602082019050919050565b6000602082019050818103600083015261108281611046565b905091905056fea2646970667358221220a895039a85db735c5751627ac6b652a3a4a5e91b065e9b908564758098f5f48e64736f6c63430008110033",
  "linkReferences": {},
  "deployedLinkReferences": {}
}