{"contracts/Marketplace.sol":{"Marketplace":{"abi":[{"inputs":[],"stateMutability":"nonpayable","type":"constructor"},{"anonymous":false,"inputs":[{"indexed":true,"internalType":"address","name":"nft","type":"address"},{"indexed":true,"internalType":"uint256","name":"tokenID","type":"uint256"},{"indexed":false,"internalType":"uint256","name":"price","type":"uint256"},{"indexed":true,"internalType":"address","name":"buyer","type":"address"},{"indexed":false,"internalType":"address","name":"to","type":"address"}],"name":"AcceptAsk","type":"event"},{"anonymous":false,"inputs":[{"indexed":false,"internalType":"uint256","name":"bid_id","type":"uint256"},{"indexed":true,"internalType":"address","name":"nft","type":"address"},{"indexed":true,"internalType":"uint256","name":"tokenID","type":"uint256"},{"indexed":false,"internalType":"address","name":"bidder","type":"address"},{"indexed":true,"internalType":"address","name":"accepter","type":"address"},{"indexed":false,"internalType":"uint256","name":"price","type":"uint256"}],"name":"AcceptBid","type":"event"},{"anonymous":false,"inputs":[{"indexed":false,"internalType":"uint256","name":"collection_offer_id","type":"uint256"},{"indexed":false,"internalType":"address","name":"bidder","type":"address"},{"indexed":false,"internalType":"uint256","name":"price_per_item","type":"uint256"},{"indexed":false,"internalType":"uint256","name":"remaining_quantity","type":"uint256"}],"name":"AcceptCollectionOffer","type":"event"},{"anonymous":false,"inputs":[{"indexed":true,"internalType":"address","name":"seller","type":"address"},{"indexed":true,"internalType":"address","name":"nft","type":"address"},{"indexed":true,"internalType":"uint256","name":"tokenID","type":"uint256"}],"name":"CancelAsk","type":"event"},{"anonymous":false,"inputs":[{"indexed":false,"internalType":"uint256","name":"bid_id","type":"uint256"},{"indexed":true,"internalType":"address","name":"nft","type":"address"},{"indexed":true,"internalType":"uint256","name":"tokenID","type":"uint256"},{"indexed":true,"internalType":"address","name":"bidder","type":"address"}],"name":"CancelBid","type":"event"},{"anonymous":false,"inputs":[{"indexed":false,"internalType":"uint256","name":"collection_offer_id","type":"uint256"},{"indexed":false,"internalType":"address","name":"bidder","type":"address"},{"indexed":false,"internalType":"uint256","name":"price_per_item","type":"uint256"},{"indexed":false,"internalType":"uint256","name":"quantity","type":"uint256"},{"indexed":false,"internalType":"uint256","name":"recived_amount","type":"uint256"}],"name":"CancleCollectionOffer","type":"event"},{"anonymous":false,"inputs":[{"indexed":true,"internalType":"address","name":"seller","type":"address"},{"indexed":true,"internalType":"address","name":"nft","type":"address"},{"indexed":true,"internalType":"uint256","name":"tokenID","type":"uint256"},{"indexed":false,"internalType":"uint256","name":"price","type":"uint256"},{"indexed":false,"internalType":"address","name":"to","type":"address"}],"name":"CreateAsk","type":"event"},{"anonymous":false,"inputs":[{"indexed":false,"internalType":"uint256","name":"bid_id","type":"uint256"},{"indexed":true,"internalType":"address","name":"nft","type":"address"},{"indexed":true,"internalType":"uint256","name":"tokenID","type":"uint256"},{"indexed":true,"internalType":"address","name":"bidder","type":"address"},{"indexed":false,"internalType":"uint256","name":"price","type":"uint256"}],"name":"CreateBid","type":"event"},{"anonymous":false,"inputs":[{"indexed":false,"internalType":"uint256","name":"collection_offer_id","type":"uint256"},{"indexed":false,"internalType":"address","name":"bidder","type":"address"},{"indexed":false,"internalType":"uint256","name":"price_per_item","type":"uint256"},{"indexed":false,"internalType":"uint256","name":"quantity","type":"uint256"}],"name":"CreateCollectionOffer","type":"event"},{"anonymous":false,"inputs":[{"indexed":false,"internalType":"uint8","name":"version","type":"uint8"}],"name":"Initialized","type":"event"},{"anonymous":false,"inputs":[{"indexed":false,"internalType":"address","name":"sender","type":"address"},{"indexed":false,"internalType":"uint256","name":"amount","type":"uint256"}],"name":"WithdrawEvent","type":"event"},{"inputs":[],"name":"REVERT_ASK_DOES_NOT_EXIST","outputs":[{"internalType":"string","name":"","type":"string"}],"stateMutability":"view","type":"function"},{"inputs":[],"name":"REVERT_ASK_INSUFFICIENT_VALUE","outputs":[{"internalType":"string","name":"","type":"string"}],"stateMutability":"view","type":"function"},{"inputs":[],"name":"REVERT_ASK_IS_RESERVED","outputs":[{"internalType":"string","name":"","type":"string"}],"stateMutability":"view","type":"function"},{"inputs":[],"name":"REVERT_ASK_SELLER_NOT_OWNER","outputs":[{"internalType":"string","name":"","type":"string"}],"stateMutability":"view","type":"function"},{"inputs":[],"name":"REVERT_BID_TOO_LOW","outputs":[{"internalType":"string","name":"","type":"string"}],"stateMutability":"view","type":"function"},{"inputs":[],"name":"REVERT_CANT_ACCEPT_OWN_ASK","outputs":[{"internalType":"string","name":"","type":"string"}],"stateMutability":"view","type":"function"},{"inputs":[],"name":"REVERT_INSUFFICIENT_ETHER","outputs":[{"internalType":"string","name":"","type":"string"}],"stateMutability":"view","type":"function"},{"inputs":[],"name":"REVERT_NFT_NOT_SENT","outputs":[{"internalType":"string","name":"","type":"string"}],"stateMutability":"view","type":"function"},{"inputs":[],"name":"REVERT_NOT_A_CREATOR_OF_ASK","outputs":[{"internalType":"string","name":"","type":"string"}],"stateMutability":"view","type":"function"},{"inputs":[],"name":"REVERT_NOT_A_CREATOR_OF_BID","outputs":[{"internalType":"string","name":"","type":"string"}],"stateMutability":"view","type":"function"},{"inputs":[],"name":"REVERT_NOT_OWNER_OF_TOKEN_ID","outputs":[{"internalType":"string","name":"","type":"string"}],"stateMutability":"view","type":"function"},{"inputs":[],"name":"REVERT_OWNER_OF_TOKEN_ID","outputs":[{"internalType":"string","name":"","type":"string"}],"stateMutability":"view","type":"function"},{"inputs":[{"internalType":"contract INFTContract[]","name":"nft","type":"address[]"},{"internalType":"uint256[]","name":"tokenID","type":"uint256[]"}],"name":"acceptAsk","outputs":[],"stateMutability":"payable","type":"function"},{"inputs":[{"internalType":"contract INFTContract[]","name":"nft","type":"address[]"},{"internalType":"uint256[]","name":"tokenID","type":"uint256[]"},{"internalType":"uint256[]","name":"bidID","type":"uint256[]"}],"name":"acceptBid","outputs":[],"stateMutability":"payable","type":"function"},{"inputs":[{"internalType":"contract INFTContract","name":"nft","type":"address"},{"internalType":"uint256","name":"tokenID","type":"uint256"},{"internalType":"uint256","name":"collectionOfferId","type":"uint256"}],"name":"acceptCollectionOffer","outputs":[],"stateMutability":"payable","type":"function"},{"inputs":[{"internalType":"address","name":"","type":"address"},{"internalType":"uint256","name":"","type":"uint256"}],"name":"asks","outputs":[{"internalType":"bool","name":"exists","type":"bool"},{"internalType":"address","name":"seller","type":"address"},{"internalType":"uint256","name":"price","type":"uint256"},{"internalType":"address","name":"to","type":"address"}],"stateMutability":"view","type":"function"},{"inputs":[{"internalType":"address","name":"","type":"address"},{"internalType":"uint256","name":"","type":"uint256"},{"internalType":"uint256","name":"","type":"uint256"}],"name":"bids","outputs":[{"internalType":"uint256","name":"bid_id","type":"uint256"},{"internalType":"bool","name":"exists","type":"bool"},{"internalType":"address","name":"buyer","type":"address"},{"internalType":"uint256","name":"price","type":"uint256"}],"stateMutability":"view","type":"function"},{"inputs":[{"internalType":"contract INFTContract[]","name":"nft","type":"address[]"},{"internalType":"uint256[]","name":"tokenID","type":"uint256[]"}],"name":"cancelAsk","outputs":[],"stateMutability":"nonpayable","type":"function"},{"inputs":[{"internalType":"contract INFTContract[]","name":"nft","type":"address[]"},{"internalType":"uint256[]","name":"tokenID","type":"uint256[]"},{"internalType":"uint256[]","name":"bidID","type":"uint256[]"}],"name":"cancelBid","outputs":[],"stateMutability":"nonpayable","type":"function"},{"inputs":[{"internalType":"contract INFTContract","name":"nft","type":"address"},{"internalType":"uint256","name":"collectionOfferId","type":"uint256"}],"name":"cancelCollectionOffer","outputs":[],"stateMutability":"nonpayable","type":"function"},{"inputs":[{"internalType":"address payable","name":"newBeneficiary","type":"address"}],"name":"changeBeneficiary","outputs":[],"stateMutability":"nonpayable","type":"function"},{"inputs":[{"internalType":"address","name":"","type":"address"},{"internalType":"uint256","name":"","type":"uint256"}],"name":"collectionOffers","outputs":[{"internalType":"uint256","name":"collection_offer_id","type":"uint256"},{"internalType":"address","name":"bidder","type":"address"},{"internalType":"uint256","name":"price_per_item","type":"uint256"},{"internalType":"uint256","name":"amount","type":"uint256"}],"stateMutability":"view","type":"function"},{"inputs":[{"internalType":"contract INFTContract[]","name":"nft","type":"address[]"},{"internalType":"uint256[]","name":"tokenID","type":"uint256[]"},{"internalType":"uint256[]","name":"price","type":"uint256[]"},{"internalType":"address[]","name":"to","type":"address[]"}],"name":"createAsk","outputs":[],"stateMutability":"nonpayable","type":"function"},{"inputs":[{"internalType":"contract INFTContract[]","name":"nft","type":"address[]"},{"internalType":"uint256[]","name":"tokenID","type":"uint256[]"},{"internalType":"uint256[]","name":"price","type":"uint256[]"}],"name":"createBid","outputs":[],"stateMutability":"payable","type":"function"},{"inputs":[{"internalType":"contract INFTContract","name":"nft","type":"address"},{"internalType":"uint256","name":"pricePerItem","type":"uint256"},{"internalType":"uint256","name":"quantity","type":"uint256"}],"name":"createCollectionOffer","outputs":[],"stateMutability":"payable","type":"function"},{"inputs":[{"internalType":"address","name":"","type":"address"}],"name":"escrow","outputs":[{"internalType":"uint256","name":"","type":"uint256"}],"stateMutability":"view","type":"function"},{"inputs":[{"internalType":"address payable","name":"newBeneficiary","type":"address"},{"internalType":"uint256","name":"_marketFee","type":"uint256"}],"name":"initialize","outputs":[],"stateMutability":"nonpayable","type":"function"},{"inputs":[],"name":"revokeAdmin","outputs":[],"stateMutability":"nonpayable","type":"function"},{"inputs":[],"name":"withdraw","outputs":[],"stateMutability":"nonpayable","type":"function"}],"evm":{"bytecode":{"linkReferences":{},"object":"6080604052600060085560006009553480156200001b57600080fd5b50600054610100900460ff16158080156200003d5750600054600160ff909116105b80620000595750303b15801562000059575060005460ff166001145b620000c15760405162461bcd60e51b815260206004820152602e60248201527f496e697469616c697a61626c653a20636f6e747261637420697320616c72656160448201526d191e481a5b9a5d1a585b1a5e995960921b606482015260840160405180910390fd5b6000805460ff191660011790558015620000e5576000805461ff0019166101001790555b80156200012c576000805461ff0019169055604051600181527f7f26b83ff96e1f2b6a682f133852f6798a09c465da95921460cefb38474024989060200160405180910390a15b506138b3806200013d6000396000f3fe6080604052600436106101c25760003560e01c80637495c6ac116100f7578063d8cfc77511610095578063e22d4f7d11610064578063e22d4f7d14610664578063e2ea8b5f146106ec578063f778550e14610701578063faf068881461071457600080fd5b8063d8cfc775146105d5578063d9cfeedf146105e8578063db9941f014610631578063dc0706571461064457600080fd5b8063a6774b7e116100d1578063a6774b7e14610537578063a9fdb8a714610580578063ae25a41214610595578063cd6dc687146105b557600080fd5b80637495c6ac1461047a578063835a55ff146104f7578063a613b6a91461051757600080fd5b80633b3facda1161016457806346d029341161013e57806346d02934146103205780634a30e50f146103ad57806357d3c7c3146103f65780636f92eb3d1461043157600080fd5b80633b3facda146102e35780633bd36a82146102f65780633ccfd60b1461030b57600080fd5b806313ca384a116101a057806313ca384a146102505780632bce9c5614610299578063355823c3146102ae578063386e88ed146102c357600080fd5b806308d73d13146101c757806309e97095146101dc5780630d6aef041461023b575b600080fd5b6101da6101d5366004613332565b610729565b005b3480156101e857600080fd5b506102256040518060400160405280601981526020017f4d61726b6574706c6163653a3a4e4654206e6f742073656e740000000000000081525081565b60405161023291906133ad565b60405180910390f35b34801561024757600080fd5b506101da610ae3565b34801561025c57600080fd5b506102256040518060400160405280601f81526020017f4d61726b6574706c6163653a3a61736b20646f6573206e6f742065786973740081525081565b3480156102a557600080fd5b50610225610b29565b3480156102ba57600080fd5b50610225610b45565b3480156102cf57600080fd5b506101da6102de3660046133c0565b610b61565b6101da6102f1366004613438565b610ce9565b34801561030257600080fd5b50610225611486565b34801561031757600080fd5b506101da6114a2565b34801561032c57600080fd5b5061037e61033b366004613332565b600260208181526000948552604080862082529385528385209052908352912080546001820154919092015460ff82169161010090046001600160a01b03169084565b604051610232949392919093845291151560208401526001600160a01b03166040830152606082015260800190565b3480156103b957600080fd5b506102256040518060400160405280602081526020017f4d61726b6574706c6163653a3a63616e7420616363657074206f776e2061736b81525081565b34801561040257600080fd5b506104236104113660046134a4565b60046020526000908152604090205481565b604051908152602001610232565b34801561043d57600080fd5b506102256040518060400160405280601881526020017f4d61726b6574706c6163653a3a62696420746f6f206c6f77000000000000000081525081565b34801561048657600080fd5b506104cf6104953660046133c0565b60036020818152600093845260408085209091529183529120805460018201546002830154929093015490926001600160a01b0316919084565b604080519485526001600160a01b039093166020850152918301526060820152608001610232565b34801561050357600080fd5b506101da6105123660046134c1565b6115e7565b34801561052357600080fd5b506101da610532366004613438565b6119a1565b34801561054357600080fd5b506102256040518060400160405280601e81526020017f4d61726b6574706c6163653a3a6f776e6572206f6620746f6b656e204944000081525081565b34801561058c57600080fd5b50610225611bfa565b3480156105a157600080fd5b506101da6105b0366004613585565b611c16565b3480156105c157600080fd5b506101da6105d03660046133c0565b611ed0565b6101da6105e3366004613332565b612014565b3480156105f457600080fd5b506102256040518060400160405280601c81526020017f4d61726b6574706c6163653a3a61736b2069732072657365727665640000000081525081565b6101da61063f366004613585565b612146565b34801561065057600080fd5b506101da61065f3660046134a4565b612834565b34801561067057600080fd5b506106bf61067f3660046133c0565b6001602081815260009384526040808520909152918352912080549181015460029091015460ff8316926001600160a01b03610100909104811692911684565b6040805194151585526001600160a01b039384166020860152840191909152166060820152608001610232565b3480156106f857600080fd5b506102256128ba565b6101da61070f366004613585565b6128d6565b34801561072057600080fd5b50610225612b19565b6001600160a01b0383166000908152600360208181526040808420858552909152909120015483906107c85760405162461bcd60e51b815260206004820152602360248201527f7265616d61696e20616d6f756e74206d7573742067726561746572207468616e60448201527f203020000000000000000000000000000000000000000000000000000000000060648201526084015b60405180910390fd5b60006107de6001600160a01b0386163386612b35565b1160405180606001604052806025815260200161385960259139906108165760405162461bcd60e51b81526004016107bf91906133ad565b50600061082d6001600160a01b0386163086612cde565b90508061087c5760405162461bcd60e51b815260206004820152601360248201527f4e4654206973206e6f7420617070726f7665640000000000000000000000000060448201526064016107bf565b6001600160a01b038281166000908152600360209081526040808320878452825280832060010154815184815292830190915291926108c79289821692339291909116908990612e0d565b9050806040518060400160405280601981526020017f4d61726b6574706c6163653a3a4e4654206e6f742073656e74000000000000008152509061091e5760405162461bcd60e51b81526004016107bf91906133ad565b506001600160a01b038316600090815260016020908152604080832088845290915290205460ff1615610995576001600160a01b0383166000908152600160208181526040808420898552909152822080546001600160a81b03191681559081019190915560020180546001600160a01b03191690555b6001600160a01b03831660009081526003602090815260408083208884529091529020600201546109cb90849087903390612f89565b6001600160a01b038316600090815260036020818152604080842089855290915290912001546109fd90600190613635565b6001600160a01b0384811660009081526003602081815260408084208b85529091528083209091018490558782528120600181015460029091015489835292169290819003610a88576001600160a01b03861660009081526003602081815260408084208b855290915282208281556001810180546001600160a01b03191690556002810183905501555b604080518881526001600160a01b0385166020820152908101839052606081018290527f16b57cd263616de422ff341d570beceb7ad39f6a1c3d6b545734497e9b4f85fe9060800160405180910390a1505050505050505050565b6006546001600160a01b03163314610b175760405162461bcd60e51b815260206004820152600060248201526044016107bf565b600680546001600160a01b0319169055565b6040518060600160405280602481526020016138086024913981565b6040518060600160405280602581526020016137c16025913981565b6001600160a01b038083166000908152600360209081526040808320858452825291829020600101548251606081019093526025808452869491909116331492916137c19083013990610bc75760405162461bcd60e51b81526004016107bf91906133ad565b506001600160a01b038116600090815260036020818152604080842086855290915282206002810154910154610bfd9190613648565b33600090815260046020526040812080549293508392909190610c2190849061365f565b90915550506001600160a01b0382166000908152600360208181526040808420878552825292839020600281015492015483518781523392810192909252928101919091526060810191909152608081018290527fd0e925362e975194ae5995a6362be193a363f97859b1e1b06752721d6c2c1ea49060a00160405180910390a1506001600160a01b031660009081526003602081815260408084209484529390529181208181556001810180546001600160a01b0319169055600281018290559091015550565b6000805b84811015611443576000868683818110610d0957610d09613672565b9050602002016020810190610d1e91906134a4565b6001600160a01b0381166000908152600160205260408120919250868685818110610d4b57610d4b613672565b90506020020135815260200190815260200160002060000160009054906101000a900460ff166040518060400160405280601f81526020017f4d61726b6574706c6163653a3a61736b20646f6573206e6f742065786973740081525090610dc55760405162461bcd60e51b81526004016107bf91906133ad565b506001600160a01b03811660009081526001602052604081203391878786818110610df257610df2613672565b90506020020135815260200190815260200160002060000160019054906101000a90046001600160a01b03166001600160a01b031614156040518060400160405280602081526020017f4d61726b6574706c6163653a3a63616e7420616363657074206f776e2061736b81525090610e7d5760405162461bcd60e51b81526004016107bf91906133ad565b506001600160a01b038116600090815260016020526040812081878786818110610ea957610ea9613672565b60209081029290920135835250810191909152604001600020600201546001600160a01b031614610f8c576001600160a01b03811660009081526001602052604081203391878786818110610f0057610f00613672565b90506020020135815260200190815260200160002060020160009054906101000a90046001600160a01b03166001600160a01b0316146040518060400160405280601c81526020017f4d61726b6574706c6163653a3a61736b2069732072657365727665640000000081525090610f8a5760405162461bcd60e51b81526004016107bf91906133ad565b505b6001600160a01b03811660009081526001602052604081206110379082888887818110610fbb57610fbb613672565b90506020020135815260200190815260200160002060000160019054906101000a90046001600160a01b0316878786818110610ff957610ff9613672565b905060200201358a8a8781811061101257611012613672565b905060200201602081019061102791906134a4565b6001600160a01b03169190612b35565b116040518060600160405280602281526020016137e6602291399061106f5760405162461bcd60e51b81526004016107bf91906133ad565b506001600160a01b03811660009081526001602052604081209086868581811061109b5761109b613672565b90506020020135815260200190815260200160002060010154836110bf919061365f565b925061119a818686858181106110d7576110d7613672565b9050602002013560016000856001600160a01b03166001600160a01b03168152602001908152602001600020600089898881811061111757611117613672565b90506020020135815260200190815260200160002060000160019054906101000a90046001600160a01b031660016000866001600160a01b03166001600160a01b0316815260200190815260200160002060008a8a8981811061117c5761117c613672565b90506020020135815260200190815260200160002060010154612f89565b338585848181106111ad576111ad613672565b90506020020135826001600160a01b03167fb091ff9056a2c0d53cb2036724ee1772de8f404d7d476d5968722166c0fd2e7b60016000866001600160a01b03166001600160a01b0316815260200190815260200160002060008a8a8981811061121857611218613672565b9050602002013581526020019081526020016000206001015460016000876001600160a01b03166001600160a01b0316815260200190815260200160002060008b8b8a81811061126a5761126a613672565b602090810292909201358352508181019290925260409081016000206002015481519384526001600160a01b0316918301919091520160405180910390a46001600160a01b038116600090815260016020526040812061136990828888878181106112d7576112d7613672565b90506020020135815260200190815260200160002060000160019054906101000a90046001600160a01b03163388888781811061131657611316613672565b60408051600081526020808201909252910292909201359190508c8c8981811061134257611342613672565b905060200201602081019061135791906134a4565b6001600160a01b031693929190612e0d565b9050806040518060400160405280601981526020017f4d61726b6574706c6163653a3a4e4654206e6f742073656e7400000000000000815250906113c05760405162461bcd60e51b81526004016107bf91906133ad565b506001600160a01b0382166000908152600160205260408120908787868181106113ec576113ec613672565b60209081029290920135835250810191909152604001600090812080546001600160a81b0319168155600181019190915560020180546001600160a01b03191690555081905061143b81613688565b915050610ced565b503481146040518060600160405280602d815260200161382c602d91399061147e5760405162461bcd60e51b81526004016107bf91906133ad565b505050505050565b6040518060600160405280602281526020016137e66022913981565b33600090815260046020526040902054806114ff5760405162461bcd60e51b815260206004820152601d60248201527f4e6f7420656e6f75676820616d6f756e7420746f20776974686472617700000060448201526064016107bf565b33600081815260046020526040808220829055519091829184908381818185875af1925050503d8060008114611551576040519150601f19603f3d011682016040523d82523d6000602084013e611556565b606091505b5091509150816115a85760405162461bcd60e51b815260206004820152601460248201527f4661696c656420746f2073656e6420457468657200000000000000000000000060448201526064016107bf565b60408051338152602081018590527f5dba113b49cfa7c90315e8e604e6b506f7abcb909b01dcb19ec39005086e68fc91015b60405180910390a1505050565b60005b878110156119965760006116233389898581811061160a5761160a613672565b905060200201358c8c8681811061101257611012613672565b11604051806060016040528060258152602001613859602591399061165b5760405162461bcd60e51b81526004016107bf91906133ad565b5061271085858381811061167157611671613672565b90506020020135116116c55760405162461bcd60e51b815260206004820152600d60248201527f707269636520746f6f206c6f770000000000000000000000000000000000000060448201526064016107bf565b600061171b308989858181106116dd576116dd613672565b905060200201358c8c868181106116f6576116f6613672565b905060200201602081019061170b91906134a4565b6001600160a01b03169190612cde565b90508061176a5760405162461bcd60e51b815260206004820152601360248201527f4e4654206973206e6f7420617070726f7665640000000000000000000000000060448201526064016107bf565b604080516080810182526001815233602082015290810187878581811061179357611793613672565b9050602002013581526020018585858181106117b1576117b1613672565b90506020020160208101906117c691906134a4565b6001600160a01b03169052600160008c8c868181106117e7576117e7613672565b90506020020160208101906117fc91906134a4565b6001600160a01b03166001600160a01b0316815260200190815260200160002060008a8a8681811061183057611830613672565b6020908102929092013583525081810192909252604090810160002083518154938501516001600160a81b031990941690151574ffffffffffffffffffffffffffffffffffffffff001916176101006001600160a01b0394851602178155908301516001820155606090920151600290920180546001600160a01b031916929091169190911790558787838181106118ca576118ca613672565b905060200201358a8a848181106118e3576118e3613672565b90506020020160208101906118f891906134a4565b6001600160a01b0316337fa11d5827cf84bec195af5ef315a898693f8633b4c246f5e91c1d0fff29f58a3489898781811061193557611935613672565b9050602002013588888881811061194e5761194e613672565b905060200201602081019061196391906134a4565b604080519283526001600160a01b0390911660208301520160405180910390a4508061198e81613688565b9150506115ea565b505050505050505050565b60005b83811015611bf35760008585838181106119c0576119c0613672565b90506020020160208101906119d591906134a4565b6001600160a01b0381166000908152600160205260408120919250339190868686818110611a0557611a05613672565b90506020020135815260200190815260200160002060000160019054906101000a90046001600160a01b03166001600160a01b0316146040518060600160405280602581526020016137c16025913990611a725760405162461bcd60e51b81526004016107bf91906133ad565b506000611ac930868686818110611a8b57611a8b613672565b90506020020135898987818110611aa457611aa4613672565b9050602002016020810190611ab991906134a4565b6001600160a01b03169190613085565b905080611b185760405162461bcd60e51b815260206004820152601360248201527f4e4654206973206e6f74207265766f6b6564210000000000000000000000000060448201526064016107bf565b6001600160a01b038216600090815260016020526040812090868686818110611b4357611b43613672565b60209081029290920135835250810191909152604001600090812080546001600160a81b0319168155600181019190915560020180546001600160a01b0319169055848484818110611b9757611b97613672565b90506020020135826001600160a01b0316336001600160a01b03167f4d7cdcd7d8e1e150c4c5703fb12c932a0683bc890e601471c754e8e43b1de18c60405160405180910390a450508080611beb90613688565b9150506119a4565b5050505050565b6040518060600160405280602581526020016138596025913981565b60005b85811015611ec7576000878783818110611c3557611c35613672565b9050602002016020810190611c4a91906134a4565b6001600160a01b0381166000908152600260205260408120919250339190888886818110611c7a57611c7a613672565b9050602002013581526020019081526020016000206000868686818110611ca357611ca3613672565b90506020020135815260200190815260200160002060010160019054906101000a90046001600160a01b03166001600160a01b03161460405180606001604052806025815260200161379c6025913990611d105760405162461bcd60e51b81526004016107bf91906133ad565b506001600160a01b038116600090815260026020526040812090878785818110611d3c57611d3c613672565b9050602002013581526020019081526020016000206000858585818110611d6557611d65613672565b9050602002013581526020019081526020016000206002015460046000336001600160a01b03166001600160a01b031681526020019081526020016000206000828254611db2919061365f565b90915550506001600160a01b038116600090815260026020526040812090878785818110611de257611de2613672565b9050602002013581526020019081526020016000206000858585818110611e0b57611e0b613672565b6020908102929092013583525081019190915260400160009081208181556001810180546001600160a81b03191690556002015533868684818110611e5257611e52613672565b90506020020135826001600160a01b03167f887dc05d3b632d032620de6116a12ec3b9febaccde6fd31195972c655d7161fe878787818110611e9657611e96613672565b90506020020135604051611eac91815260200190565b60405180910390a45080611ebf81613688565b915050611c19565b50505050505050565b600054610100900460ff1615808015611ef05750600054600160ff909116105b80611f0a5750303b158015611f0a575060005460ff166001145b611f7c5760405162461bcd60e51b815260206004820152602e60248201527f496e697469616c697a61626c653a20636f6e747261637420697320616c72656160448201527f647920696e697469616c697a656400000000000000000000000000000000000060648201526084016107bf565b6000805460ff191660011790558015611f9f576000805461ff0019166101001790555b600580546001600160a01b0385166001600160a01b03199182161790915560068054909116331790556007829055801561200f576000805461ff0019169055604051600181527f7f26b83ff96e1f2b6a682f133852f6798a09c465da95921460cefb3847402498906020016115da565b505050565b60006120208383613648565b90503481146120715760405162461bcd60e51b815260206004820152600f60248201527f494e56414c49442042414c414e4345000000000000000000000000000000000060448201526064016107bf565b60006009546001612082919061365f565b60408051608080820183528382523360208084018281528486018b815260608087018c81526001600160a01b038f8116600090815260038088528b82208d83528852908b902099518a55945160018a0180546001600160a01b03191691909216179055915160028801559051959091019490945584518681529081019190915292830188905290820186905291925086917f06e0dbc683ef60581fed8ddd261dc286deeafceec28e36434d0e02026c8f3c5d910160405180910390a1505050505050565b6000805b868110156127ef5760006121833388888581811061216a5761216a613672565b905060200201358b8b8681811061101257611012613672565b1160405180606001604052806025815260200161385960259139906121bb5760405162461bcd60e51b81526004016107bf91906133ad565b5060008888838181106121d0576121d0613672565b90506020020160208101906121e591906134a4565b6001600160a01b038116600090815260026020526040812091925088888581811061221257612212613672565b905060200201358152602001908152602001600020600086868581811061223b5761223b613672565b905060200201358152602001908152602001600020600201548361225f919061365f565b92506122ff8188888581811061227757612277613672565b905060200201353360026000866001600160a01b03166001600160a01b0316815260200190815260200160002060008c8c898181106122b8576122b8613672565b90506020020135815260200190815260200160002060008a8a898181106122e1576122e1613672565b90506020020135815260200190815260200160002060020154612f89565b60006123303089898681811061231757612317613672565b905060200201358c8c878181106116f6576116f6613672565b90508061237f5760405162461bcd60e51b815260206004820152601360248201527f4e4654206973206e6f7420617070726f7665640000000000000000000000000060448201526064016107bf565b3388888581811061239257612392613672565b90506020020135836001600160a01b03167fc9827422dbb5e685186f9d060d161538c8998d44888e66d5d28062aeddc2593e60026000876001600160a01b03166001600160a01b0316815260200190815260200160002060008d8d8a8181106123fd576123fd613672565b90506020020135815260200190815260200160002060008b8b8a81811061242657612426613672565b9050602002013581526020019081526020016000206000015460026000886001600160a01b03166001600160a01b0316815260200190815260200160002060008e8e8b81811061247857612478613672565b90506020020135815260200190815260200160002060008c8c8b8181106124a1576124a1613672565b90506020020135815260200190815260200160002060010160019054906101000a90046001600160a01b031660026000896001600160a01b03166001600160a01b0316815260200190815260200160002060008f8f8c81811061250657612506613672565b90506020020135815260200190815260200160002060008d8d8c81811061252f5761252f613672565b90506020020135815260200190815260200160002060020154604051612571939291909283526001600160a01b03919091166020830152604082015260600190565b60405180910390a46001600160a01b038216600090815260026020526040812061263d903390838c8c898181106125aa576125aa613672565b90506020020135815260200190815260200160002060008a8a898181106125d3576125d3613672565b90506020020135815260200190815260200160002060010160019054906101000a90046001600160a01b03168b8b8881811061261157612611613672565b60408051600081526020808201909252910292909201359190508f8f8a81811061134257611342613672565b9050806040518060400160405280601981526020017f4d61726b6574706c6163653a3a4e4654206e6f742073656e7400000000000000815250906126945760405162461bcd60e51b81526004016107bf91906133ad565b506001600160a01b0383166000908152600160205260408120908a8a878181106126c0576126c0613672565b602090810292909201358352508101919091526040016000205460ff1615612750576001600160a01b0383166000908152600160205260408120908a8a8781811061270d5761270d613672565b60209081029290920135835250810191909152604001600090812080546001600160a81b0319168155600181019190915560020180546001600160a01b03191690555b6001600160a01b0383166000908152600260205260408120908a8a8781811061277b5761277b613672565b90506020020135815260200190815260200160002060008888878181106127a4576127a4613672565b6020908102929092013583525081019190915260400160009081208181556001810180546001600160a81b031916905560020155508291506127e7905081613688565b91505061214a565b503481146040518060600160405280602d815260200161382c602d91399061282a5760405162461bcd60e51b81526004016107bf91906133ad565b5050505050505050565b6006546001600160a01b031633146128685760405162461bcd60e51b815260206004820152600060248201526044016107bf565b6001600160a01b0381166128985760405162461bcd60e51b815260206004820152600060248201526044016107bf565b600580546001600160a01b0319166001600160a01b0392909216919091179055565b6040518060600160405280602d815260200161382c602d913981565b6000805b86811015612ade5760008888838181106128f6576128f6613672565b905060200201602081019061290b91906134a4565b90506000600854600161291e919061365f565b90506040518060800160405280828152602001600115158152602001336001600160a01b0316815260200187878681811061295b5761295b613672565b9050602002013581525060026000846001600160a01b03166001600160a01b0316815260200190815260200160002060008a8a8781811061299e5761299e613672565b60209081029290920135835250818101929092526040908101600090812085825283528190208351815591830151600183018054928501516001600160a01b03166101000274ffffffffffffffffffffffffffffffffffffffff0019921515929092166001600160a81b03199093169290921717905560609091015160029091015533888885818110612a3357612a33613672565b90506020020135836001600160a01b03167fb6f01cf086c6aafcbf84635bd5cad3fa1064d5877595330a8ea85625ea31d22f848a8a89818110612a7857612a78613672565b90506020020135604051612a96929190918252602082015260400190565b60405180910390a46008819055858584818110612ab557612ab5613672565b9050602002013584612ac7919061365f565b935050508080612ad690613688565b9150506128da565b50348114604051806060016040528060248152602001613808602491399061282a5760405162461bcd60e51b81526004016107bf91906133ad565b60405180606001604052806025815260200161379c6025913981565b6040517f6352211e000000000000000000000000000000000000000000000000000000008152600481018290526000906001600160a01b03851690636352211e90602401602060405180830381865afa925050508015612bb2575060408051601f3d908101601f19168201909252612baf918101906136a1565b60015b612cae573d808015612be0576040519150601f19603f3d011682016040523d82523d6000602084013e612be5565b606091505b506040517efdd58e0000000000000000000000000000000000000000000000000000000081526001600160a01b0385811660048301526024820185905286169062fdd58e90604401602060405180830381865afa925050508015612c66575060408051601f3d908101601f19168201909252612c63918101906136be565b60015b612ca5573d808015612c94576040519150601f19603f3d011682016040523d82523d6000602084013e612c99565b606091505b50600092505050612cd7565b9150612cd79050565b836001600160a01b0316816001600160a01b031603612cd1576001915050612cd7565b60009150505b9392505050565b60405163095ea7b360e01b81526001600160a01b038381166004830152602482018390526000919085169063095ea7b390604401600060405180830381600087803b158015612d2c57600080fd5b505af1925050508015612d3d575060015b612e05573d808015612d6b576040519150601f19603f3d011682016040523d82523d6000602084013e612d70565b606091505b5060405163a22cb46560e01b81526001600160a01b0385811660048301526001602483015286169063a22cb465906044015b600060405180830381600087803b158015612dbc57600080fd5b505af1925050508015612dcd575060015b612dfb573d808015612c94576040519150601f19603f3d011682016040523d82523d6000602084013e612c99565b6001915050612cd7565b506001612cd7565b6040517fb88d4fde0000000000000000000000000000000000000000000000000000000081526000906001600160a01b0387169063b88d4fde90612e5b9088908890889088906004016136d7565b600060405180830381600087803b158015612e7557600080fd5b505af1925050508015612e86575060015b612f7c573d808015612eb4576040519150601f19603f3d011682016040523d82523d6000602084013e612eb9565b606091505b506040517ff242432a0000000000000000000000000000000000000000000000000000000081526001600160a01b0388169063f242432a90612f08908990899089906001908a90600401613713565b600060405180830381600087803b158015612f2257600080fd5b505af1925050508015612f33575060015b612f72573d808015612f61576040519150601f19603f3d011682016040523d82523d6000602084013e612f66565b606091505b50600092505050612f80565b6001915050612f80565b5060015b95945050505050565b600061271060075483612f9c9190613648565b612fa6919061374b565b9050600080612fb687878661314b565b9092509050600081612fc88587613635565b612fd29190613635565b9050600082118015612fec57506001600160a01b03831615155b1561301f576001600160a01b0383166000908152600460205260408120805484929061301990849061365f565b90915550505b6005546001600160a01b03166000908152600460205260408120805486929061304990849061365f565b90915550506001600160a01b0386166000908152600460205260408120805483929061307690849061365f565b90915550505050505050505050565b60405163095ea7b360e01b815260006004820181905260248201839052906001600160a01b0385169063095ea7b390604401600060405180830381600087803b1580156130d157600080fd5b505af19250505080156130e2575060015b612e05573d808015613110576040519150601f19603f3d011682016040523d82523d6000602084013e613115565b606091505b5060405163a22cb46560e01b81526001600160a01b0385811660048301526000602483015286169063a22cb46590604401612da2565b60008061315f8563152a902d60e11b6131f4565b156131e55760405163152a902d60e11b8152600481018590526024810184905260009081906001600160a01b03881690632a55205a906044016040805180830381865afa1580156131b4573d6000803e3d6000fd5b505050506040513d601f19601f820116820180604052508101906131d8919061376d565b90945092506131ec915050565b5060009050805b935093915050565b60006131ff83613219565b801561321057506132108383613264565b90505b92915050565b600061322c826301ffc9a760e01b613264565b8015613213575061325d827fffffffff00000000000000000000000000000000000000000000000000000000613264565b1592915050565b604080517fffffffff000000000000000000000000000000000000000000000000000000008316602480830191909152825180830390910181526044909101909152602080820180517bffffffffffffffffffffffffffffffffffffffffffffffffffffffff166301ffc9a760e01b178152825160009392849283928392918391908a617530fa92503d91506000519050828015613303575060208210155b801561330f5750600081115b979650505050505050565b6001600160a01b038116811461332f57600080fd5b50565b60008060006060848603121561334757600080fd5b83356133528161331a565b95602085013595506040909401359392505050565b6000815180845260005b8181101561338d57602081850181015186830182015201613371565b506000602082860101526020601f19601f83011685010191505092915050565b6020815260006132106020830184613367565b600080604083850312156133d357600080fd5b82356133de8161331a565b946020939093013593505050565b60008083601f8401126133fe57600080fd5b50813567ffffffffffffffff81111561341657600080fd5b6020830191508360208260051b850101111561343157600080fd5b9250929050565b6000806000806040858703121561344e57600080fd5b843567ffffffffffffffff8082111561346657600080fd5b613472888389016133ec565b9096509450602087013591508082111561348b57600080fd5b50613498878288016133ec565b95989497509550505050565b6000602082840312156134b657600080fd5b8135612cd78161331a565b6000806000806000806000806080898b0312156134dd57600080fd5b883567ffffffffffffffff808211156134f557600080fd5b6135018c838d016133ec565b909a50985060208b013591508082111561351a57600080fd5b6135268c838d016133ec565b909850965060408b013591508082111561353f57600080fd5b61354b8c838d016133ec565b909650945060608b013591508082111561356457600080fd5b506135718b828c016133ec565b999c989b5096995094979396929594505050565b6000806000806000806060878903121561359e57600080fd5b863567ffffffffffffffff808211156135b657600080fd5b6135c28a838b016133ec565b909850965060208901359150808211156135db57600080fd5b6135e78a838b016133ec565b9096509450604089013591508082111561360057600080fd5b5061360d89828a016133ec565b979a9699509497509295939492505050565b634e487b7160e01b600052601160045260246000fd5b818103818111156132135761321361361f565b80820281158282048414176132135761321361361f565b808201808211156132135761321361361f565b634e487b7160e01b600052603260045260246000fd5b60006001820161369a5761369a61361f565b5060010190565b6000602082840312156136b357600080fd5b8151612cd78161331a565b6000602082840312156136d057600080fd5b5051919050565b60006001600160a01b038087168352808616602084015250836040830152608060608301526137096080830184613367565b9695505050505050565b60006001600160a01b03808816835280871660208401525084604083015283606083015260a0608083015261330f60a0830184613367565b60008261376857634e487b7160e01b600052601260045260246000fd5b500490565b6000806040838503121561378057600080fd5b825161378b8161331a565b602093909301519294929350505056fe4d61726b6574706c6163653a3a6e6f7420612063726561746f72206f6620746865206269644d61726b6574706c6163653a3a6e6f7420612063726561746f72206f66207468652061736b4d61726b6574706c6163653a3a61736b2063726561746f72206e6f74206f776e65724d61726b6574706c6163653a3a696e73756666696369656e742065746865722073656e744d61726b6574706c6163653a3a61736b20707269636520686967686572207468616e2073656e742076616c75654d61726b6574706c6163653a3a6e6f7420616e206f776e6572206f6620746f6b656e204944a26469706673582212201154b6441f84a4f0f20867642d76bf4bb15e937689347afe6fc35fce15b69c8c64736f6c63430008130033","opcodes":"PUSH1 0x80 PUSH1 0x40 MSTORE PUSH1 0x0 PUSH1 0x8 SSTORE PUSH1 0x0 PUSH1 0x9 SSTORE CALLVALUE DUP1 ISZERO PUSH3 0x1B JUMPI PUSH1 0x0 DUP1 REVERT JUMPDEST POP PUSH1 0x0 SLOAD PUSH2 0x100 SWAP1 DIV PUSH1 0xFF AND ISZERO DUP1 DUP1 ISZERO PUSH3 0x3D JUMPI POP PUSH1 0x0 SLOAD PUSH1 0x1 PUSH1 0xFF SWAP1 SWAP2 AND LT JUMPDEST DUP1 PUSH3 0x59 JUMPI POP ADDRESS EXTCODESIZE ISZERO DUP1 ISZERO PUSH3 0x59 JUMPI POP PUSH1 0x0 SLOAD PUSH1 0xFF AND PUSH1 0x1 EQ JUMPDEST PUSH3 0xC1 JUMPI PUSH1 0x40 MLOAD PUSH3 0x461BCD PUSH1 0xE5 SHL DUP2 MSTORE PUSH1 0x20 PUSH1 0x4 DUP3 ADD MSTORE PUSH1 0x2E PUSH1 0x24 DUP3 ADD MSTORE PUSH32 0x496E697469616C697A61626C653A20636F6E747261637420697320616C726561 PUSH1 0x44 DUP3 ADD MSTORE PUSH14 0x191E481A5B9A5D1A585B1A5E9959 PUSH1 0x92 SHL PUSH1 0x64 DUP3 ADD MSTORE PUSH1 0x84 ADD PUSH1 0x40 MLOAD DUP1 SWAP2 SUB SWAP1 REVERT JUMPDEST PUSH1 0x0 DUP1 SLOAD PUSH1 0xFF NOT AND PUSH1 0x1 OR SWAP1 SSTORE DUP1 ISZERO PUSH3 0xE5 JUMPI PUSH1 0x0 DUP1 SLOAD PUSH2 0xFF00 NOT AND PUSH2 0x100 OR SWAP1 SSTORE JUMPDEST DUP1 ISZERO PUSH3 0x12C JUMPI PUSH1 0x0 DUP1 SLOAD PUSH2 0xFF00 NOT AND SWAP1 SSTORE PUSH1 0x40 MLOAD PUSH1 0x1 DUP2 MSTORE PUSH32 0x7F26B83FF96E1F2B6A682F133852F6798A09C465DA95921460CEFB3847402498 SWAP1 PUSH1 0x20 ADD PUSH1 0x40 MLOAD DUP1 SWAP2 SUB SWAP1 LOG1 JUMPDEST POP PUSH2 0x38B3 DUP1 PUSH3 0x13D PUSH1 0x0 CODECOPY PUSH1 0x0 RETURN INVALID PUSH1 0x80 PUSH1 0x40 MSTORE PUSH1 0x4 CALLDATASIZE LT PUSH2 0x1C2 JUMPI PUSH1 0x0 CALLDATALOAD PUSH1 0xE0 SHR DUP1 PUSH4 0x7495C6AC GT PUSH2 0xF7 JUMPI DUP1 PUSH4 0xD8CFC775 GT PUSH2 0x95 JUMPI DUP1 PUSH4 0xE22D4F7D GT PUSH2 0x64 JUMPI DUP1 PUSH4 0xE22D4F7D EQ PUSH2 0x664 JUMPI DUP1 PUSH4 0xE2EA8B5F EQ PUSH2 0x6EC JUMPI DUP1 PUSH4 0xF778550E EQ PUSH2 0x701 JUMPI DUP1 PUSH4 0xFAF06888 EQ PUSH2 0x714 JUMPI PUSH1 0x0 DUP1 REVERT JUMPDEST DUP1 PUSH4 0xD8CFC775 EQ PUSH2 0x5D5 JUMPI DUP1 PUSH4 0xD9CFEEDF EQ PUSH2 0x5E8 JUMPI DUP1 PUSH4 0xDB9941F0 EQ PUSH2 0x631 JUMPI DUP1 PUSH4 0xDC070657 EQ PUSH2 0x644 JUMPI PUSH1 0x0 DUP1 REVERT JUMPDEST DUP1 PUSH4 0xA6774B7E GT PUSH2 0xD1 JUMPI DUP1 PUSH4 0xA6774B7E EQ PUSH2 0x537 JUMPI DUP1 PUSH4 0xA9FDB8A7 EQ PUSH2 0x580 JUMPI DUP1 PUSH4 0xAE25A412 EQ PUSH2 0x595 JUMPI DUP1 PUSH4 0xCD6DC687 EQ PUSH2 0x5B5 JUMPI PUSH1 0x0 DUP1 REVERT JUMPDEST DUP1 PUSH4 0x7495C6AC EQ PUSH2 0x47A JUMPI DUP1 PUSH4 0x835A55FF EQ PUSH2 0x4F7 JUMPI DUP1 PUSH4 0xA613B6A9 EQ PUSH2 0x517 JUMPI PUSH1 0x0 DUP1 REVERT JUMPDEST DUP1 PUSH4 0x3B3FACDA GT PUSH2 0x164 JUMPI DUP1 PUSH4 0x46D02934 GT PUSH2 0x13E JUMPI DUP1 PUSH4 0x46D02934 EQ PUSH2 0x320 JUMPI DUP1 PUSH4 0x4A30E50F EQ PUSH2 0x3AD JUMPI DUP1 PUSH4 0x57D3C7C3 EQ PUSH2 0x3F6 JUMPI DUP1 PUSH4 0x6F92EB3D EQ PUSH2 0x431 JUMPI PUSH1 0x0 DUP1 REVERT JUMPDEST DUP1 PUSH4 0x3B3FACDA EQ PUSH2 0x2E3 JUMPI DUP1 PUSH4 0x3BD36A82 EQ PUSH2 0x2F6 JUMPI DUP1 PUSH4 0x3CCFD60B EQ PUSH2 0x30B JUMPI PUSH1 0x0 DUP1 REVERT JUMPDEST DUP1 PUSH4 0x13CA384A GT PUSH2 0x1A0 JUMPI DUP1 PUSH4 0x13CA384A EQ PUSH2 0x250 JUMPI DUP1 PUSH4 0x2BCE9C56 EQ PUSH2 0x299 JUMPI DUP1 PUSH4 0x355823C3 EQ PUSH2 0x2AE JUMPI DUP1 PUSH4 0x386E88ED EQ PUSH2 0x2C3 JUMPI PUSH1 0x0 DUP1 REVERT JUMPDEST DUP1 PUSH4 0x8D73D13 EQ PUSH2 0x1C7 JUMPI DUP1 PUSH4 0x9E97095 EQ PUSH2 0x1DC JUMPI DUP1 PUSH4 0xD6AEF04 EQ PUSH2 0x23B JUMPI JUMPDEST PUSH1 0x0 DUP1 REVERT JUMPDEST PUSH2 0x1DA PUSH2 0x1D5 CALLDATASIZE PUSH1 0x4 PUSH2 0x3332 JUMP JUMPDEST PUSH2 0x729 JUMP JUMPDEST STOP JUMPDEST CALLVALUE DUP1 ISZERO PUSH2 0x1E8 JUMPI PUSH1 0x0 DUP1 REVERT JUMPDEST POP PUSH2 0x225 PUSH1 0x40 MLOAD DUP1 PUSH1 0x40 ADD PUSH1 0x40 MSTORE DUP1 PUSH1 0x19 DUP2 MSTORE PUSH1 0x20 ADD PUSH32 0x4D61726B6574706C6163653A3A4E4654206E6F742073656E7400000000000000 DUP2 MSTORE POP DUP2 JUMP JUMPDEST PUSH1 0x40 MLOAD PUSH2 0x232 SWAP2 SWAP1 PUSH2 0x33AD JUMP JUMPDEST PUSH1 0x40 MLOAD DUP1 SWAP2 SUB SWAP1 RETURN JUMPDEST CALLVALUE DUP1 ISZERO PUSH2 0x247 JUMPI PUSH1 0x0 DUP1 REVERT JUMPDEST POP PUSH2 0x1DA PUSH2 0xAE3 JUMP JUMPDEST CALLVALUE DUP1 ISZERO PUSH2 0x25C JUMPI PUSH1 0x0 DUP1 REVERT JUMPDEST POP PUSH2 0x225 PUSH1 0x40 MLOAD DUP1 PUSH1 0x40 ADD PUSH1 0x40 MSTORE DUP1 PUSH1 0x1F DUP2 MSTORE PUSH1 0x20 ADD PUSH32 0x4D61726B6574706C6163653A3A61736B20646F6573206E6F7420657869737400 DUP2 MSTORE POP DUP2 JUMP JUMPDEST CALLVALUE DUP1 ISZERO PUSH2 0x2A5 JUMPI PUSH1 0x0 DUP1 REVERT JUMPDEST POP PUSH2 0x225 PUSH2 0xB29 JUMP JUMPDEST CALLVALUE DUP1 ISZERO PUSH2 0x2BA JUMPI PUSH1 0x0 DUP1 REVERT JUMPDEST POP PUSH2 0x225 PUSH2 0xB45 JUMP JUMPDEST CALLVALUE DUP1 ISZERO PUSH2 0x2CF JUMPI PUSH1 0x0 DUP1 REVERT JUMPDEST POP PUSH2 0x1DA PUSH2 0x2DE CALLDATASIZE PUSH1 0x4 PUSH2 0x33C0 JUMP JUMPDEST PUSH2 0xB61 JUMP JUMPDEST PUSH2 0x1DA PUSH2 0x2F1 CALLDATASIZE PUSH1 0x4 PUSH2 0x3438 JUMP JUMPDEST PUSH2 0xCE9 JUMP JUMPDEST CALLVALUE DUP1 ISZERO PUSH2 0x302 JUMPI PUSH1 0x0 DUP1 REVERT JUMPDEST POP PUSH2 0x225 PUSH2 0x1486 JUMP JUMPDEST CALLVALUE DUP1 ISZERO PUSH2 0x317 JUMPI PUSH1 0x0 DUP1 REVERT JUMPDEST POP PUSH2 0x1DA PUSH2 0x14A2 JUMP JUMPDEST CALLVALUE DUP1 ISZERO PUSH2 0x32C JUMPI PUSH1 0x0 DUP1 REVERT JUMPDEST POP PUSH2 0x37E PUSH2 0x33B CALLDATASIZE PUSH1 0x4 PUSH2 0x3332 JUMP JUMPDEST PUSH1 0x2 PUSH1 0x20 DUP2 DUP2 MSTORE PUSH1 0x0 SWAP5 DUP6 MSTORE PUSH1 0x40 DUP1 DUP7 KECCAK256 DUP3 MSTORE SWAP4 DUP6 MSTORE DUP4 DUP6 KECCAK256 SWAP1 MSTORE SWAP1 DUP4 MSTORE SWAP2 KECCAK256 DUP1 SLOAD PUSH1 0x1 DUP3 ADD SLOAD SWAP2 SWAP1 SWAP3 ADD SLOAD PUSH1 0xFF DUP3 AND SWAP2 PUSH2 0x100 SWAP1 DIV PUSH1 0x1 PUSH1 0x1 PUSH1 0xA0 SHL SUB AND SWAP1 DUP5 JUMP JUMPDEST PUSH1 0x40 MLOAD PUSH2 0x232 SWAP5 SWAP4 SWAP3 SWAP2 SWAP1 SWAP4 DUP5 MSTORE SWAP2 ISZERO ISZERO PUSH1 0x20 DUP5 ADD MSTORE PUSH1 0x1 PUSH1 0x1 PUSH1 0xA0 SHL SUB AND PUSH1 0x40 DUP4 ADD MSTORE PUSH1 0x60 DUP3 ADD MSTORE PUSH1 0x80 ADD SWAP1 JUMP JUMPDEST CALLVALUE DUP1 ISZERO PUSH2 0x3B9 JUMPI PUSH1 0x0 DUP1 REVERT JUMPDEST POP PUSH2 0x225 PUSH1 0x40 MLOAD DUP1 PUSH1 0x40 ADD PUSH1 0x40 MSTORE DUP1 PUSH1 0x20 DUP2 MSTORE PUSH1 0x20 ADD PUSH32 0x4D61726B6574706C6163653A3A63616E7420616363657074206F776E2061736B DUP2 MSTORE POP DUP2 JUMP JUMPDEST CALLVALUE DUP1 ISZERO PUSH2 0x402 JUMPI PUSH1 0x0 DUP1 REVERT JUMPDEST POP PUSH2 0x423 PUSH2 0x411 CALLDATASIZE PUSH1 0x4 PUSH2 0x34A4 JUMP JUMPDEST PUSH1 0x4 PUSH1 0x20 MSTORE PUSH1 0x0 SWAP1 DUP2 MSTORE PUSH1 0x40 SWAP1 KECCAK256 SLOAD DUP2 JUMP JUMPDEST PUSH1 0x40 MLOAD SWAP1 DUP2 MSTORE PUSH1 0x20 ADD PUSH2 0x232 JUMP JUMPDEST CALLVALUE DUP1 ISZERO PUSH2 0x43D JUMPI PUSH1 0x0 DUP1 REVERT JUMPDEST POP PUSH2 0x225 PUSH1 0x40 MLOAD DUP1 PUSH1 0x40 ADD PUSH1 0x40 MSTORE DUP1 PUSH1 0x18 DUP2 MSTORE PUSH1 0x20 ADD PUSH32 0x4D61726B6574706C6163653A3A62696420746F6F206C6F770000000000000000 DUP2 MSTORE POP DUP2 JUMP JUMPDEST CALLVALUE DUP1 ISZERO PUSH2 0x486 JUMPI PUSH1 0x0 DUP1 REVERT JUMPDEST POP PUSH2 0x4CF PUSH2 0x495 CALLDATASIZE PUSH1 0x4 PUSH2 0x33C0 JUMP JUMPDEST PUSH1 0x3 PUSH1 0x20 DUP2 DUP2 MSTORE PUSH1 0x0 SWAP4 DUP5 MSTORE PUSH1 0x40 DUP1 DUP6 KECCAK256 SWAP1 SWAP2 MSTORE SWAP2 DUP4 MSTORE SWAP2 KECCAK256 DUP1 SLOAD PUSH1 0x1 DUP3 ADD SLOAD PUSH1 0x2 DUP4 ADD SLOAD SWAP3 SWAP1 SWAP4 ADD SLOAD SWAP1 SWAP3 PUSH1 0x1 PUSH1 0x1 PUSH1 0xA0 SHL SUB AND SWAP2 SWAP1 DUP5 JUMP JUMPDEST PUSH1 0x40 DUP1 MLOAD SWAP5 DUP6 MSTORE PUSH1 0x1 PUSH1 0x1 PUSH1 0xA0 SHL SUB SWAP1 SWAP4 AND PUSH1 0x20 DUP6 ADD MSTORE SWAP2 DUP4 ADD MSTORE PUSH1 0x60 DUP3 ADD MSTORE PUSH1 0x80 ADD PUSH2 0x232 JUMP JUMPDEST CALLVALUE DUP1 ISZERO PUSH2 0x503 JUMPI PUSH1 0x0 DUP1 REVERT JUMPDEST POP PUSH2 0x1DA PUSH2 0x512 CALLDATASIZE PUSH1 0x4 PUSH2 0x34C1 JUMP JUMPDEST PUSH2 0x15E7 JUMP JUMPDEST CALLVALUE DUP1 ISZERO PUSH2 0x523 JUMPI PUSH1 0x0 DUP1 REVERT JUMPDEST POP PUSH2 0x1DA PUSH2 0x532 CALLDATASIZE PUSH1 0x4 PUSH2 0x3438 JUMP JUMPDEST PUSH2 0x19A1 JUMP JUMPDEST CALLVALUE DUP1 ISZERO PUSH2 0x543 JUMPI PUSH1 0x0 DUP1 REVERT JUMPDEST POP PUSH2 0x225 PUSH1 0x40 MLOAD DUP1 PUSH1 0x40 ADD PUSH1 0x40 MSTORE DUP1 PUSH1 0x1E DUP2 MSTORE PUSH1 0x20 ADD PUSH32 0x4D61726B6574706C6163653A3A6F776E6572206F6620746F6B656E2049440000 DUP2 MSTORE POP DUP2 JUMP JUMPDEST CALLVALUE DUP1 ISZERO PUSH2 0x58C JUMPI PUSH1 0x0 DUP1 REVERT JUMPDEST POP PUSH2 0x225 PUSH2 0x1BFA JUMP JUMPDEST CALLVALUE DUP1 ISZERO PUSH2 0x5A1 JUMPI PUSH1 0x0 DUP1 REVERT JUMPDEST POP PUSH2 0x1DA PUSH2 0x5B0 CALLDATASIZE PUSH1 0x4 PUSH2 0x3585 JUMP JUMPDEST PUSH2 0x1C16 JUMP JUMPDEST CALLVALUE DUP1 ISZERO PUSH2 0x5C1 JUMPI PUSH1 0x0 DUP1 REVERT JUMPDEST POP PUSH2 0x1DA PUSH2 0x5D0 CALLDATASIZE PUSH1 0x4 PUSH2 0x33C0 JUMP JUMPDEST PUSH2 0x1ED0 JUMP JUMPDEST PUSH2 0x1DA PUSH2 0x5E3 CALLDATASIZE PUSH1 0x4 PUSH2 0x3332 JUMP JUMPDEST PUSH2 0x2014 JUMP JUMPDEST CALLVALUE DUP1 ISZERO PUSH2 0x5F4 JUMPI PUSH1 0x0 DUP1 REVERT JUMPDEST POP PUSH2 0x225 PUSH1 0x40 MLOAD DUP1 PUSH1 0x40 ADD PUSH1 0x40 MSTORE DUP1 PUSH1 0x1C DUP2 MSTORE PUSH1 0x20 ADD PUSH32 0x4D61726B6574706C6163653A3A61736B20697320726573657276656400000000 DUP2 MSTORE POP DUP2 JUMP JUMPDEST PUSH2 0x1DA PUSH2 0x63F CALLDATASIZE PUSH1 0x4 PUSH2 0x3585 JUMP JUMPDEST PUSH2 0x2146 JUMP JUMPDEST CALLVALUE DUP1 ISZERO PUSH2 0x650 JUMPI PUSH1 0x0 DUP1 REVERT JUMPDEST POP PUSH2 0x1DA PUSH2 0x65F CALLDATASIZE PUSH1 0x4 PUSH2 0x34A4 JUMP JUMPDEST PUSH2 0x2834 JUMP JUMPDEST CALLVALUE DUP1 ISZERO PUSH2 0x670 JUMPI PUSH1 0x0 DUP1 REVERT JUMPDEST POP PUSH2 0x6BF PUSH2 0x67F CALLDATASIZE PUSH1 0x4 PUSH2 0x33C0 JUMP JUMPDEST PUSH1 0x1 PUSH1 0x20 DUP2 DUP2 MSTORE PUSH1 0x0 SWAP4 DUP5 MSTORE PUSH1 0x40 DUP1 DUP6 KECCAK256 SWAP1 SWAP2 MSTORE SWAP2 DUP4 MSTORE SWAP2 KECCAK256 DUP1 SLOAD SWAP2 DUP2 ADD SLOAD PUSH1 0x2 SWAP1 SWAP2 ADD SLOAD PUSH1 0xFF DUP4 AND SWAP3 PUSH1 0x1 PUSH1 0x1 PUSH1 0xA0 SHL SUB PUSH2 0x100 SWAP1 SWAP2 DIV DUP2 AND SWAP3 SWAP2 AND DUP5 JUMP JUMPDEST PUSH1 0x40 DUP1 MLOAD SWAP5 ISZERO ISZERO DUP6 MSTORE PUSH1 0x1 PUSH1 0x1 PUSH1 0xA0 SHL SUB SWAP4 DUP5 AND PUSH1 0x20 DUP7 ADD MSTORE DUP5 ADD SWAP2 SWAP1 SWAP2 MSTORE AND PUSH1 0x60 DUP3 ADD MSTORE PUSH1 0x80 ADD PUSH2 0x232 JUMP JUMPDEST CALLVALUE DUP1 ISZERO PUSH2 0x6F8 JUMPI PUSH1 0x0 DUP1 REVERT JUMPDEST POP PUSH2 0x225 PUSH2 0x28BA JUMP JUMPDEST PUSH2 0x1DA PUSH2 0x70F CALLDATASIZE PUSH1 0x4 PUSH2 0x3585 JUMP JUMPDEST PUSH2 0x28D6 JUMP JUMPDEST CALLVALUE DUP1 ISZERO PUSH2 0x720 JUMPI PUSH1 0x0 DUP1 REVERT JUMPDEST POP PUSH2 0x225 PUSH2 0x2B19 JUMP JUMPDEST PUSH1 0x1 PUSH1 0x1 PUSH1 0xA0 SHL SUB DUP4 AND PUSH1 0x0 SWAP1 DUP2 MSTORE PUSH1 0x3 PUSH1 0x20 DUP2 DUP2 MSTORE PUSH1 0x40 DUP1 DUP5 KECCAK256 DUP6 DUP6 MSTORE SWAP1 SWAP2 MSTORE SWAP1 SWAP2 KECCAK256 ADD SLOAD DUP4 SWAP1 PUSH2 0x7C8 JUMPI PUSH1 0x40 MLOAD PUSH3 0x461BCD PUSH1 0xE5 SHL DUP2 MSTORE PUSH1 0x20 PUSH1 0x4 DUP3 ADD MSTORE PUSH1 0x23 PUSH1 0x24 DUP3 ADD MSTORE PUSH32 0x7265616D61696E20616D6F756E74206D7573742067726561746572207468616E PUSH1 0x44 DUP3 ADD MSTORE PUSH32 0x2030200000000000000000000000000000000000000000000000000000000000 PUSH1 0x64 DUP3 ADD MSTORE PUSH1 0x84 ADD JUMPDEST PUSH1 0x40 MLOAD DUP1 SWAP2 SUB SWAP1 REVERT JUMPDEST PUSH1 0x0 PUSH2 0x7DE PUSH1 0x1 PUSH1 0x1 PUSH1 0xA0 SHL SUB DUP7 AND CALLER DUP7 PUSH2 0x2B35 JUMP JUMPDEST GT PUSH1 0x40 MLOAD DUP1 PUSH1 0x60 ADD PUSH1 0x40 MSTORE DUP1 PUSH1 0x25 DUP2 MSTORE PUSH1 0x20 ADD PUSH2 0x3859 PUSH1 0x25 SWAP2 CODECOPY SWAP1 PUSH2 0x816 JUMPI PUSH1 0x40 MLOAD PUSH3 0x461BCD PUSH1 0xE5 SHL DUP2 MSTORE PUSH1 0x4 ADD PUSH2 0x7BF SWAP2 SWAP1 PUSH2 0x33AD JUMP JUMPDEST POP PUSH1 0x0 PUSH2 0x82D PUSH1 0x1 PUSH1 0x1 PUSH1 0xA0 SHL SUB DUP7 AND ADDRESS DUP7 PUSH2 0x2CDE JUMP JUMPDEST SWAP1 POP DUP1 PUSH2 0x87C JUMPI PUSH1 0x40 MLOAD PUSH3 0x461BCD PUSH1 0xE5 SHL DUP2 MSTORE PUSH1 0x20 PUSH1 0x4 DUP3 ADD MSTORE PUSH1 0x13 PUSH1 0x24 DUP3 ADD MSTORE PUSH32 0x4E4654206973206E6F7420617070726F76656400000000000000000000000000 PUSH1 0x44 DUP3 ADD MSTORE PUSH1 0x64 ADD PUSH2 0x7BF JUMP JUMPDEST PUSH1 0x1 PUSH1 0x1 PUSH1 0xA0 SHL SUB DUP3 DUP2 AND PUSH1 0x0 SWAP1 DUP2 MSTORE PUSH1 0x3 PUSH1 0x20 SWAP1 DUP2 MSTORE PUSH1 0x40 DUP1 DUP4 KECCAK256 DUP8 DUP5 MSTORE DUP3 MSTORE DUP1 DUP4 KECCAK256 PUSH1 0x1 ADD SLOAD DUP2 MLOAD DUP5 DUP2 MSTORE SWAP3 DUP4 ADD SWAP1 SWAP2 MSTORE SWAP2 SWAP3 PUSH2 0x8C7 SWAP3 DUP10 DUP3 AND SWAP3 CALLER SWAP3 SWAP2 SWAP1 SWAP2 AND SWAP1 DUP10 SWAP1 PUSH2 0x2E0D JUMP JUMPDEST SWAP1 POP DUP1 PUSH1 0x40 MLOAD DUP1 PUSH1 0x40 ADD PUSH1 0x40 MSTORE DUP1 PUSH1 0x19 DUP2 MSTORE PUSH1 0x20 ADD PUSH32 0x4D61726B6574706C6163653A3A4E4654206E6F742073656E7400000000000000 DUP2 MSTORE POP SWAP1 PUSH2 0x91E JUMPI PUSH1 0x40 MLOAD PUSH3 0x461BCD PUSH1 0xE5 SHL DUP2 MSTORE PUSH1 0x4 ADD PUSH2 0x7BF SWAP2 SWAP1 PUSH2 0x33AD JUMP JUMPDEST POP PUSH1 0x1 PUSH1 0x1 PUSH1 0xA0 SHL SUB DUP4 AND PUSH1 0x0 SWAP1 DUP2 MSTORE PUSH1 0x1 PUSH1 0x20 SWAP1 DUP2 MSTORE PUSH1 0x40 DUP1 DUP4 KECCAK256 DUP9 DUP5 MSTORE SWAP1 SWAP2 MSTORE SWAP1 KECCAK256 SLOAD PUSH1 0xFF AND ISZERO PUSH2 0x995 JUMPI PUSH1 0x1 PUSH1 0x1 PUSH1 0xA0 SHL SUB DUP4 AND PUSH1 0x0 SWAP1 DUP2 MSTORE PUSH1 0x1 PUSH1 0x20 DUP2 DUP2 MSTORE PUSH1 0x40 DUP1 DUP5 KECCAK256 DUP10 DUP6 MSTORE SWAP1 SWAP2 MSTORE DUP3 KECCAK256 DUP1 SLOAD PUSH1 0x1 PUSH1 0x1 PUSH1 0xA8 SHL SUB NOT AND DUP2 SSTORE SWAP1 DUP2 ADD SWAP2 SWAP1 SWAP2 SSTORE PUSH1 0x2 ADD DUP1 SLOAD PUSH1 0x1 PUSH1 0x1 PUSH1 0xA0 SHL SUB NOT AND SWAP1 SSTORE JUMPDEST PUSH1 0x1 PUSH1 0x1 PUSH1 0xA0 SHL SUB DUP4 AND PUSH1 0x0 SWAP1 DUP2 MSTORE PUSH1 0x3 PUSH1 0x20 SWAP1 DUP2 MSTORE PUSH1 0x40 DUP1 DUP4 KECCAK256 DUP9 DUP5 MSTORE SWAP1 SWAP2 MSTORE SWAP1 KECCAK256 PUSH1 0x2 ADD SLOAD PUSH2 0x9CB SWAP1 DUP5 SWAP1 DUP8 SWAP1 CALLER SWAP1 PUSH2 0x2F89 JUMP JUMPDEST PUSH1 0x1 PUSH1 0x1 PUSH1 0xA0 SHL SUB DUP4 AND PUSH1 0x0 SWAP1 DUP2 MSTORE PUSH1 0x3 PUSH1 0x20 DUP2 DUP2 MSTORE PUSH1 0x40 DUP1 DUP5 KECCAK256 DUP10 DUP6 MSTORE SWAP1 SWAP2 MSTORE SWAP1 SWAP2 KECCAK256 ADD SLOAD PUSH2 0x9FD SWAP1 PUSH1 0x1 SWAP1 PUSH2 0x3635 JUMP JUMPDEST PUSH1 0x1 PUSH1 0x1 PUSH1 0xA0 SHL SUB DUP5 DUP2 AND PUSH1 0x0 SWAP1 DUP2 MSTORE PUSH1 0x3 PUSH1 0x20 DUP2 DUP2 MSTORE PUSH1 0x40 DUP1 DUP5 KECCAK256 DUP12 DUP6 MSTORE SWAP1 SWAP2 MSTORE DUP1 DUP4 KECCAK256 SWAP1 SWAP2 ADD DUP5 SWAP1 SSTORE DUP8 DUP3 MSTORE DUP2 KECCAK256 PUSH1 0x1 DUP2 ADD SLOAD PUSH1 0x2 SWAP1 SWAP2 ADD SLOAD DUP10 DUP4 MSTORE SWAP3 AND SWAP3 SWAP1 DUP2 SWAP1 SUB PUSH2 0xA88 JUMPI PUSH1 0x1 PUSH1 0x1 PUSH1 0xA0 SHL SUB DUP7 AND PUSH1 0x0 SWAP1 DUP2 MSTORE PUSH1 0x3 PUSH1 0x20 DUP2 DUP2 MSTORE PUSH1 0x40 DUP1 DUP5 KECCAK256 DUP12 DUP6 MSTORE SWAP1 SWAP2 MSTORE DUP3 KECCAK256 DUP3 DUP2 SSTORE PUSH1 0x1 DUP2 ADD DUP1 SLOAD PUSH1 0x1 PUSH1 0x1 PUSH1 0xA0 SHL SUB NOT AND SWAP1 SSTORE PUSH1 0x2 DUP2 ADD DUP4 SWAP1 SSTORE ADD SSTORE JUMPDEST PUSH1 0x40 DUP1 MLOAD DUP9 DUP2 MSTORE PUSH1 0x1 PUSH1 0x1 PUSH1 0xA0 SHL SUB DUP6 AND PUSH1 0x20 DUP3 ADD MSTORE SWAP1 DUP2 ADD DUP4 SWAP1 MSTORE PUSH1 0x60 DUP2 ADD DUP3 SWAP1 MSTORE PUSH32 0x16B57CD263616DE422FF341D570BECEB7AD39F6A1C3D6B545734497E9B4F85FE SWAP1 PUSH1 0x80 ADD PUSH1 0x40 MLOAD DUP1 SWAP2 SUB SWAP1 LOG1 POP POP POP POP POP POP POP POP POP JUMP JUMPDEST PUSH1 0x6 SLOAD PUSH1 0x1 PUSH1 0x1 PUSH1 0xA0 SHL SUB AND CALLER EQ PUSH2 0xB17 JUMPI PUSH1 0x40 MLOAD PUSH3 0x461BCD PUSH1 0xE5 SHL DUP2 MSTORE PUSH1 0x20 PUSH1 0x4 DUP3 ADD MSTORE PUSH1 0x0 PUSH1 0x24 DUP3 ADD MSTORE PUSH1 0x44 ADD PUSH2 0x7BF JUMP JUMPDEST PUSH1 0x6 DUP1 SLOAD PUSH1 0x1 PUSH1 0x1 PUSH1 0xA0 SHL SUB NOT AND SWAP1 SSTORE JUMP JUMPDEST PUSH1 0x40 MLOAD DUP1 PUSH1 0x60 ADD PUSH1 0x40 MSTORE DUP1 PUSH1 0x24 DUP2 MSTORE PUSH1 0x20 ADD PUSH2 0x3808 PUSH1 0x24 SWAP2 CODECOPY DUP2 JUMP JUMPDEST PUSH1 0x40 MLOAD DUP1 PUSH1 0x60 ADD PUSH1 0x40 MSTORE DUP1 PUSH1 0x25 DUP2 MSTORE PUSH1 0x20 ADD PUSH2 0x37C1 PUSH1 0x25 SWAP2 CODECOPY DUP2 JUMP JUMPDEST PUSH1 0x1 PUSH1 0x1 PUSH1 0xA0 SHL SUB DUP1 DUP4 AND PUSH1 0x0 SWAP1 DUP2 MSTORE PUSH1 0x3 PUSH1 0x20 SWAP1 DUP2 MSTORE PUSH1 0x40 DUP1 DUP4 KECCAK256 DUP6 DUP5 MSTORE DUP3 MSTORE SWAP2 DUP3 SWAP1 KECCAK256 PUSH1 0x1 ADD SLOAD DUP3 MLOAD PUSH1 0x60 DUP2 ADD SWAP1 SWAP4 MSTORE PUSH1 0x25 DUP1 DUP5 MSTORE DUP7 SWAP5 SWAP2 SWAP1 SWAP2 AND CALLER EQ SWAP3 SWAP2 PUSH2 0x37C1 SWAP1 DUP4 ADD CODECOPY SWAP1 PUSH2 0xBC7 JUMPI PUSH1 0x40 MLOAD PUSH3 0x461BCD PUSH1 0xE5 SHL DUP2 MSTORE PUSH1 0x4 ADD PUSH2 0x7BF SWAP2 SWAP1 PUSH2 0x33AD JUMP JUMPDEST POP PUSH1 0x1 PUSH1 0x1 PUSH1 0xA0 SHL SUB DUP2 AND PUSH1 0x0 SWAP1 DUP2 MSTORE PUSH1 0x3 PUSH1 0x20 DUP2 DUP2 MSTORE PUSH1 0x40 DUP1 DUP5 KECCAK256 DUP7 DUP6 MSTORE SWAP1 SWAP2 MSTORE DUP3 KECCAK256 PUSH1 0x2 DUP2 ADD SLOAD SWAP2 ADD SLOAD PUSH2 0xBFD SWAP2 SWAP1 PUSH2 0x3648 JUMP JUMPDEST CALLER PUSH1 0x0 SWAP1 DUP2 MSTORE PUSH1 0x4 PUSH1 0x20 MSTORE PUSH1 0x40 DUP2 KECCAK256 DUP1 SLOAD SWAP3 SWAP4 POP DUP4 SWAP3 SWAP1 SWAP2 SWAP1 PUSH2 0xC21 SWAP1 DUP5 SWAP1 PUSH2 0x365F JUMP JUMPDEST SWAP1 SWAP2 SSTORE POP POP PUSH1 0x1 PUSH1 0x1 PUSH1 0xA0 SHL SUB DUP3 AND PUSH1 0x0 SWAP1 DUP2 MSTORE PUSH1 0x3 PUSH1 0x20 DUP2 DUP2 MSTORE PUSH1 0x40 DUP1 DUP5 KECCAK256 DUP8 DUP6 MSTORE DUP3 MSTORE SWAP3 DUP4 SWAP1 KECCAK256 PUSH1 0x2 DUP2 ADD SLOAD SWAP3 ADD SLOAD DUP4 MLOAD DUP8 DUP2 MSTORE CALLER SWAP3 DUP2 ADD SWAP3 SWAP1 SWAP3 MSTORE SWAP3 DUP2 ADD SWAP2 SWAP1 SWAP2 MSTORE PUSH1 0x60 DUP2 ADD SWAP2 SWAP1 SWAP2 MSTORE PUSH1 0x80 DUP2 ADD DUP3 SWAP1 MSTORE PUSH32 0xD0E925362E975194AE5995A6362BE193A363F97859B1E1B06752721D6C2C1EA4 SWAP1 PUSH1 0xA0 ADD PUSH1 0x40 MLOAD DUP1 SWAP2 SUB SWAP1 LOG1 POP PUSH1 0x1 PUSH1 0x1 PUSH1 0xA0 SHL SUB AND PUSH1 0x0 SWAP1 DUP2 MSTORE PUSH1 0x3 PUSH1 0x20 DUP2 DUP2 MSTORE PUSH1 0x40 DUP1 DUP5 KECCAK256 SWAP5 DUP5 MSTORE SWAP4 SWAP1 MSTORE SWAP2 DUP2 KECCAK256 DUP2 DUP2 SSTORE PUSH1 0x1 DUP2 ADD DUP1 SLOAD PUSH1 0x1 PUSH1 0x1 PUSH1 0xA0 SHL SUB NOT AND SWAP1 SSTORE PUSH1 0x2 DUP2 ADD DUP3 SWAP1 SSTORE SWAP1 SWAP2 ADD SSTORE POP JUMP JUMPDEST PUSH1 0x0 DUP1 JUMPDEST DUP5 DUP2 LT ISZERO PUSH2 0x1443 JUMPI PUSH1 0x0 DUP7 DUP7 DUP4 DUP2 DUP2 LT PUSH2 0xD09 JUMPI PUSH2 0xD09 PUSH2 0x3672 JUMP JUMPDEST SWAP1 POP PUSH1 0x20 MUL ADD PUSH1 0x20 DUP2 ADD SWAP1 PUSH2 0xD1E SWAP2 SWAP1 PUSH2 0x34A4 JUMP JUMPDEST PUSH1 0x1 PUSH1 0x1 PUSH1 0xA0 SHL SUB DUP2 AND PUSH1 0x0 SWAP1 DUP2 MSTORE PUSH1 0x1 PUSH1 0x20 MSTORE PUSH1 0x40 DUP2 KECCAK256 SWAP2 SWAP3 POP DUP7 DUP7 DUP6 DUP2 DUP2 LT PUSH2 0xD4B JUMPI PUSH2 0xD4B PUSH2 0x3672 JUMP JUMPDEST SWAP1 POP PUSH1 0x20 MUL ADD CALLDATALOAD DUP2 MSTORE PUSH1 0x20 ADD SWAP1 DUP2 MSTORE PUSH1 0x20 ADD PUSH1 0x0 KECCAK256 PUSH1 0x0 ADD PUSH1 0x0 SWAP1 SLOAD SWAP1 PUSH2 0x100 EXP SWAP1 DIV PUSH1 0xFF AND PUSH1 0x40 MLOAD DUP1 PUSH1 0x40 ADD PUSH1 0x40 MSTORE DUP1 PUSH1 0x1F DUP2 MSTORE PUSH1 0x20 ADD PUSH32 0x4D61726B6574706C6163653A3A61736B20646F6573206E6F7420657869737400 DUP2 MSTORE POP SWAP1 PUSH2 0xDC5 JUMPI PUSH1 0x40 MLOAD PUSH3 0x461BCD PUSH1 0xE5 SHL DUP2 MSTORE PUSH1 0x4 ADD PUSH2 0x7BF SWAP2 SWAP1 PUSH2 0x33AD JUMP JUMPDEST POP PUSH1 0x1 PUSH1 0x1 PUSH1 0xA0 SHL SUB DUP2 AND PUSH1 0x0 SWAP1 DUP2 MSTORE PUSH1 0x1 PUSH1 0x20 MSTORE PUSH1 0x40 DUP2 KECCAK256 CALLER SWAP2 DUP8 DUP8 DUP7 DUP2 DUP2 LT PUSH2 0xDF2 JUMPI PUSH2 0xDF2 PUSH2 0x3672 JUMP JUMPDEST SWAP1 POP PUSH1 0x20 MUL ADD CALLDATALOAD DUP2 MSTORE PUSH1 0x20 ADD SWAP1 DUP2 MSTORE PUSH1 0x20 ADD PUSH1 0x0 KECCAK256 PUSH1 0x0 ADD PUSH1 0x1 SWAP1 SLOAD SWAP1 PUSH2 0x100 EXP SWAP1 DIV PUSH1 0x1 PUSH1 0x1 PUSH1 0xA0 SHL SUB AND PUSH1 0x1 PUSH1 0x1 PUSH1 0xA0 SHL SUB AND EQ ISZERO PUSH1 0x40 MLOAD DUP1 PUSH1 0x40 ADD PUSH1 0x40 MSTORE DUP1 PUSH1 0x20 DUP2 MSTORE PUSH1 0x20 ADD PUSH32 0x4D61726B6574706C6163653A3A63616E7420616363657074206F776E2061736B DUP2 MSTORE POP SWAP1 PUSH2 0xE7D JUMPI PUSH1 0x40 MLOAD PUSH3 0x461BCD PUSH1 0xE5 SHL DUP2 MSTORE PUSH1 0x4 ADD PUSH2 0x7BF SWAP2 SWAP1 PUSH2 0x33AD JUMP JUMPDEST POP PUSH1 0x1 PUSH1 0x1 PUSH1 0xA0 SHL SUB DUP2 AND PUSH1 0x0 SWAP1 DUP2 MSTORE PUSH1 0x1 PUSH1 0x20 MSTORE PUSH1 0x40 DUP2 KECCAK256 DUP2 DUP8 DUP8 DUP7 DUP2 DUP2 LT PUSH2 0xEA9 JUMPI PUSH2 0xEA9 PUSH2 0x3672 JUMP JUMPDEST PUSH1 0x20 SWAP1 DUP2 MUL SWAP3 SWAP1 SWAP3 ADD CALLDATALOAD DUP4 MSTORE POP DUP2 ADD SWAP2 SWAP1 SWAP2 MSTORE PUSH1 0x40 ADD PUSH1 0x0 KECCAK256 PUSH1 0x2 ADD SLOAD PUSH1 0x1 PUSH1 0x1 PUSH1 0xA0 SHL SUB AND EQ PUSH2 0xF8C JUMPI PUSH1 0x1 PUSH1 0x1 PUSH1 0xA0 SHL SUB DUP2 AND PUSH1 0x0 SWAP1 DUP2 MSTORE PUSH1 0x1 PUSH1 0x20 MSTORE PUSH1 0x40 DUP2 KECCAK256 CALLER SWAP2 DUP8 DUP8 DUP7 DUP2 DUP2 LT PUSH2 0xF00 JUMPI PUSH2 0xF00 PUSH2 0x3672 JUMP JUMPDEST SWAP1 POP PUSH1 0x20 MUL ADD CALLDATALOAD DUP2 MSTORE PUSH1 0x20 ADD SWAP1 DUP2 MSTORE PUSH1 0x20 ADD PUSH1 0x0 KECCAK256 PUSH1 0x2 ADD PUSH1 0x0 SWAP1 SLOAD SWAP1 PUSH2 0x100 EXP SWAP1 DIV PUSH1 0x1 PUSH1 0x1 PUSH1 0xA0 SHL SUB AND PUSH1 0x1 PUSH1 0x1 PUSH1 0xA0 SHL SUB AND EQ PUSH1 0x40 MLOAD DUP1 PUSH1 0x40 ADD PUSH1 0x40 MSTORE DUP1 PUSH1 0x1C DUP2 MSTORE PUSH1 0x20 ADD PUSH32 0x4D61726B6574706C6163653A3A61736B20697320726573657276656400000000 DUP2 MSTORE POP SWAP1 PUSH2 0xF8A JUMPI PUSH1 0x40 MLOAD PUSH3 0x461BCD PUSH1 0xE5 SHL DUP2 MSTORE PUSH1 0x4 ADD PUSH2 0x7BF SWAP2 SWAP1 PUSH2 0x33AD JUMP JUMPDEST POP JUMPDEST PUSH1 0x1 PUSH1 0x1 PUSH1 0xA0 SHL SUB DUP2 AND PUSH1 0x0 SWAP1 DUP2 MSTORE PUSH1 0x1 PUSH1 0x20 MSTORE PUSH1 0x40 DUP2 KECCAK256 PUSH2 0x1037 SWAP1 DUP3 DUP9 DUP9 DUP8 DUP2 DUP2 LT PUSH2 0xFBB JUMPI PUSH2 0xFBB PUSH2 0x3672 JUMP JUMPDEST SWAP1 POP PUSH1 0x20 MUL ADD CALLDATALOAD DUP2 MSTORE PUSH1 0x20 ADD SWAP1 DUP2 MSTORE PUSH1 0x20 ADD PUSH1 0x0 KECCAK256 PUSH1 0x0 ADD PUSH1 0x1 SWAP1 SLOAD SWAP1 PUSH2 0x100 EXP SWAP1 DIV PUSH1 0x1 PUSH1 0x1 PUSH1 0xA0 SHL SUB AND DUP8 DUP8 DUP7 DUP2 DUP2 LT PUSH2 0xFF9 JUMPI PUSH2 0xFF9 PUSH2 0x3672 JUMP JUMPDEST SWAP1 POP PUSH1 0x20 MUL ADD CALLDATALOAD DUP11 DUP11 DUP8 DUP2 DUP2 LT PUSH2 0x1012 JUMPI PUSH2 0x1012 PUSH2 0x3672 JUMP JUMPDEST SWAP1 POP PUSH1 0x20 MUL ADD PUSH1 0x20 DUP2 ADD SWAP1 PUSH2 0x1027 SWAP2 SWAP1 PUSH2 0x34A4 JUMP JUMPDEST PUSH1 0x1 PUSH1 0x1 PUSH1 0xA0 SHL SUB AND SWAP2 SWAP1 PUSH2 0x2B35 JUMP JUMPDEST GT PUSH1 0x40 MLOAD DUP1 PUSH1 0x60 ADD PUSH1 0x40 MSTORE DUP1 PUSH1 0x22 DUP2 MSTORE PUSH1 0x20 ADD PUSH2 0x37E6 PUSH1 0x22 SWAP2 CODECOPY SWAP1 PUSH2 0x106F JUMPI PUSH1 0x40 MLOAD PUSH3 0x461BCD PUSH1 0xE5 SHL DUP2 MSTORE PUSH1 0x4 ADD PUSH2 0x7BF SWAP2 SWAP1 PUSH2 0x33AD JUMP JUMPDEST POP PUSH1 0x1 PUSH1 0x1 PUSH1 0xA0 SHL SUB DUP2 AND PUSH1 0x0 SWAP1 DUP2 MSTORE PUSH1 0x1 PUSH1 0x20 MSTORE PUSH1 0x40 DUP2 KECCAK256 SWAP1 DUP7 DUP7 DUP6 DUP2 DUP2 LT PUSH2 0x109B JUMPI PUSH2 0x109B PUSH2 0x3672 JUMP JUMPDEST SWAP1 POP PUSH1 0x20 MUL ADD CALLDATALOAD DUP2 MSTORE PUSH1 0x20 ADD SWAP1 DUP2 MSTORE PUSH1 0x20 ADD PUSH1 0x0 KECCAK256 PUSH1 0x1 ADD SLOAD DUP4 PUSH2 0x10BF SWAP2 SWAP1 PUSH2 0x365F JUMP JUMPDEST SWAP3 POP PUSH2 0x119A DUP2 DUP7 DUP7 DUP6 DUP2 DUP2 LT PUSH2 0x10D7 JUMPI PUSH2 0x10D7 PUSH2 0x3672 JUMP JUMPDEST SWAP1 POP PUSH1 0x20 MUL ADD CALLDATALOAD PUSH1 0x1 PUSH1 0x0 DUP6 PUSH1 0x1 PUSH1 0x1 PUSH1 0xA0 SHL SUB AND PUSH1 0x1 PUSH1 0x1 PUSH1 0xA0 SHL SUB AND DUP2 MSTORE PUSH1 0x20 ADD SWAP1 DUP2 MSTORE PUSH1 0x20 ADD PUSH1 0x0 KECCAK256 PUSH1 0x0 DUP10 DUP10 DUP9 DUP2 DUP2 LT PUSH2 0x1117 JUMPI PUSH2 0x1117 PUSH2 0x3672 JUMP JUMPDEST SWAP1 POP PUSH1 0x20 MUL ADD CALLDATALOAD DUP2 MSTORE PUSH1 0x20 ADD SWAP1 DUP2 MSTORE PUSH1 0x20 ADD PUSH1 0x0 KECCAK256 PUSH1 0x0 ADD PUSH1 0x1 SWAP1 SLOAD SWAP1 PUSH2 0x100 EXP SWAP1 DIV PUSH1 0x1 PUSH1 0x1 PUSH1 0xA0 SHL SUB AND PUSH1 0x1 PUSH1 0x0 DUP7 PUSH1 0x1 PUSH1 0x1 PUSH1 0xA0 SHL SUB AND PUSH1 0x1 PUSH1 0x1 PUSH1 0xA0 SHL SUB AND DUP2 MSTORE PUSH1 0x20 ADD SWAP1 DUP2 MSTORE PUSH1 0x20 ADD PUSH1 0x0 KECCAK256 PUSH1 0x0 DUP11 DUP11 DUP10 DUP2 DUP2 LT PUSH2 0x117C JUMPI PUSH2 0x117C PUSH2 0x3672 JUMP JUMPDEST SWAP1 POP PUSH1 0x20 MUL ADD CALLDATALOAD DUP2 MSTORE PUSH1 0x20 ADD SWAP1 DUP2 MSTORE PUSH1 0x20 ADD PUSH1 0x0 KECCAK256 PUSH1 0x1 ADD SLOAD PUSH2 0x2F89 JUMP JUMPDEST CALLER DUP6 DUP6 DUP5 DUP2 DUP2 LT PUSH2 0x11AD JUMPI PUSH2 0x11AD PUSH2 0x3672 JUMP JUMPDEST SWAP1 POP PUSH1 0x20 MUL ADD CALLDATALOAD DUP3 PUSH1 0x1 PUSH1 0x1 PUSH1 0xA0 SHL SUB AND PUSH32 0xB091FF9056A2C0D53CB2036724EE1772DE8F404D7D476D5968722166C0FD2E7B PUSH1 0x1 PUSH1 0x0 DUP7 PUSH1 0x1 PUSH1 0x1 PUSH1 0xA0 SHL SUB AND PUSH1 0x1 PUSH1 0x1 PUSH1 0xA0 SHL SUB AND DUP2 MSTORE PUSH1 0x20 ADD SWAP1 DUP2 MSTORE PUSH1 0x20 ADD PUSH1 0x0 KECCAK256 PUSH1 0x0 DUP11 DUP11 DUP10 DUP2 DUP2 LT PUSH2 0x1218 JUMPI PUSH2 0x1218 PUSH2 0x3672 JUMP JUMPDEST SWAP1 POP PUSH1 0x20 MUL ADD CALLDATALOAD DUP2 MSTORE PUSH1 0x20 ADD SWAP1 DUP2 MSTORE PUSH1 0x20 ADD PUSH1 0x0 KECCAK256 PUSH1 0x1 ADD SLOAD PUSH1 0x1 PUSH1 0x0 DUP8 PUSH1 0x1 PUSH1 0x1 PUSH1 0xA0 SHL SUB AND PUSH1 0x1 PUSH1 0x1 PUSH1 0xA0 SHL SUB AND DUP2 MSTORE PUSH1 0x20 ADD SWAP1 DUP2 MSTORE PUSH1 0x20 ADD PUSH1 0x0 KECCAK256 PUSH1 0x0 DUP12 DUP12 DUP11 DUP2 DUP2 LT PUSH2 0x126A JUMPI PUSH2 0x126A PUSH2 0x3672 JUMP JUMPDEST PUSH1 0x20 SWAP1 DUP2 MUL SWAP3 SWAP1 SWAP3 ADD CALLDATALOAD DUP4 MSTORE POP DUP2 DUP2 ADD SWAP3 SWAP1 SWAP3 MSTORE PUSH1 0x40 SWAP1 DUP2 ADD PUSH1 0x0 KECCAK256 PUSH1 0x2 ADD SLOAD DUP2 MLOAD SWAP4 DUP5 MSTORE PUSH1 0x1 PUSH1 0x1 PUSH1 0xA0 SHL SUB AND SWAP2 DUP4 ADD SWAP2 SWAP1 SWAP2 MSTORE ADD PUSH1 0x40 MLOAD DUP1 SWAP2 SUB SWAP1 LOG4 PUSH1 0x1 PUSH1 0x1 PUSH1 0xA0 SHL SUB DUP2 AND PUSH1 0x0 SWAP1 DUP2 MSTORE PUSH1 0x1 PUSH1 0x20 MSTORE PUSH1 0x40 DUP2 KECCAK256 PUSH2 0x1369 SWAP1 DUP3 DUP9 DUP9 DUP8 DUP2 DUP2 LT PUSH2 0x12D7 JUMPI PUSH2 0x12D7 PUSH2 0x3672 JUMP JUMPDEST SWAP1 POP PUSH1 0x20 MUL ADD CALLDATALOAD DUP2 MSTORE PUSH1 0x20 ADD SWAP1 DUP2 MSTORE PUSH1 0x20 ADD PUSH1 0x0 KECCAK256 PUSH1 0x0 ADD PUSH1 0x1 SWAP1 SLOAD SWAP1 PUSH2 0x100 EXP SWAP1 DIV PUSH1 0x1 PUSH1 0x1 PUSH1 0xA0 SHL SUB AND CALLER DUP9 DUP9 DUP8 DUP2 DUP2 LT PUSH2 0x1316 JUMPI PUSH2 0x1316 PUSH2 0x3672 JUMP JUMPDEST PUSH1 0x40 DUP1 MLOAD PUSH1 0x0 DUP2 MSTORE PUSH1 0x20 DUP1 DUP3 ADD SWAP1 SWAP3 MSTORE SWAP2 MUL SWAP3 SWAP1 SWAP3 ADD CALLDATALOAD SWAP2 SWAP1 POP DUP13 DUP13 DUP10 DUP2 DUP2 LT PUSH2 0x1342 JUMPI PUSH2 0x1342 PUSH2 0x3672 JUMP JUMPDEST SWAP1 POP PUSH1 0x20 MUL ADD PUSH1 0x20 DUP2 ADD SWAP1 PUSH2 0x1357 SWAP2 SWAP1 PUSH2 0x34A4 JUMP JUMPDEST PUSH1 0x1 PUSH1 0x1 PUSH1 0xA0 SHL SUB AND SWAP4 SWAP3 SWAP2 SWAP1 PUSH2 0x2E0D JUMP JUMPDEST SWAP1 POP DUP1 PUSH1 0x40 MLOAD DUP1 PUSH1 0x40 ADD PUSH1 0x40 MSTORE DUP1 PUSH1 0x19 DUP2 MSTORE PUSH1 0x20 ADD PUSH32 0x4D61726B6574706C6163653A3A4E4654206E6F742073656E7400000000000000 DUP2 MSTORE POP SWAP1 PUSH2 0x13C0 JUMPI PUSH1 0x40 MLOAD PUSH3 0x461BCD PUSH1 0xE5 SHL DUP2 MSTORE PUSH1 0x4 ADD PUSH2 0x7BF SWAP2 SWAP1 PUSH2 0x33AD JUMP JUMPDEST POP PUSH1 0x1 PUSH1 0x1 PUSH1 0xA0 SHL SUB DUP3 AND PUSH1 0x0 SWAP1 DUP2 MSTORE PUSH1 0x1 PUSH1 0x20 MSTORE PUSH1 0x40 DUP2 KECCAK256 SWAP1 DUP8 DUP8 DUP7 DUP2 DUP2 LT PUSH2 0x13EC JUMPI PUSH2 0x13EC PUSH2 0x3672 JUMP JUMPDEST PUSH1 0x20 SWAP1 DUP2 MUL SWAP3 SWAP1 SWAP3 ADD CALLDATALOAD DUP4 MSTORE POP DUP2 ADD SWAP2 SWAP1 SWAP2 MSTORE PUSH1 0x40 ADD PUSH1 0x0 SWAP1 DUP2 KECCAK256 DUP1 SLOAD PUSH1 0x1 PUSH1 0x1 PUSH1 0xA8 SHL SUB NOT AND DUP2 SSTORE PUSH1 0x1 DUP2 ADD SWAP2 SWAP1 SWAP2 SSTORE PUSH1 0x2 ADD DUP1 SLOAD PUSH1 0x1 PUSH1 0x1 PUSH1 0xA0 SHL SUB NOT AND SWAP1 SSTORE POP DUP2 SWAP1 POP PUSH2 0x143B DUP2 PUSH2 0x3688 JUMP JUMPDEST SWAP2 POP POP PUSH2 0xCED JUMP JUMPDEST POP CALLVALUE DUP2 EQ PUSH1 0x40 MLOAD DUP1 PUSH1 0x60 ADD PUSH1 0x40 MSTORE DUP1 PUSH1 0x2D DUP2 MSTORE PUSH1 0x20 ADD PUSH2 0x382C PUSH1 0x2D SWAP2 CODECOPY SWAP1 PUSH2 0x147E JUMPI PUSH1 0x40 MLOAD PUSH3 0x461BCD PUSH1 0xE5 SHL DUP2 MSTORE PUSH1 0x4 ADD PUSH2 0x7BF SWAP2 SWAP1 PUSH2 0x33AD JUMP JUMPDEST POP POP POP POP POP POP JUMP JUMPDEST PUSH1 0x40 MLOAD DUP1 PUSH1 0x60 ADD PUSH1 0x40 MSTORE DUP1 PUSH1 0x22 DUP2 MSTORE PUSH1 0x20 ADD PUSH2 0x37E6 PUSH1 0x22 SWAP2 CODECOPY DUP2 JUMP JUMPDEST CALLER PUSH1 0x0 SWAP1 DUP2 MSTORE PUSH1 0x4 PUSH1 0x20 MSTORE PUSH1 0x40 SWAP1 KECCAK256 SLOAD DUP1 PUSH2 0x14FF JUMPI PUSH1 0x40 MLOAD PUSH3 0x461BCD PUSH1 0xE5 SHL DUP2 MSTORE PUSH1 0x20 PUSH1 0x4 DUP3 ADD MSTORE PUSH1 0x1D PUSH1 0x24 DUP3 ADD MSTORE PUSH32 0x4E6F7420656E6F75676820616D6F756E7420746F207769746864726177000000 PUSH1 0x44 DUP3 ADD MSTORE PUSH1 0x64 ADD PUSH2 0x7BF JUMP JUMPDEST CALLER PUSH1 0x0 DUP2 DUP2 MSTORE PUSH1 0x4 PUSH1 0x20 MSTORE PUSH1 0x40 DUP1 DUP3 KECCAK256 DUP3 SWAP1 SSTORE MLOAD SWAP1 SWAP2 DUP3 SWAP2 DUP5 SWAP1 DUP4 DUP2 DUP2 DUP2 DUP6 DUP8 GAS CALL SWAP3 POP POP POP RETURNDATASIZE DUP1 PUSH1 0x0 DUP2 EQ PUSH2 0x1551 JUMPI PUSH1 0x40 MLOAD SWAP2 POP PUSH1 0x1F NOT PUSH1 0x3F RETURNDATASIZE ADD AND DUP3 ADD PUSH1 0x40 MSTORE RETURNDATASIZE DUP3 MSTORE RETURNDATASIZE PUSH1 0x0 PUSH1 0x20 DUP5 ADD RETURNDATACOPY PUSH2 0x1556 JUMP JUMPDEST PUSH1 0x60 SWAP2 POP JUMPDEST POP SWAP2 POP SWAP2 POP DUP2 PUSH2 0x15A8 JUMPI PUSH1 0x40 MLOAD PUSH3 0x461BCD PUSH1 0xE5 SHL DUP2 MSTORE PUSH1 0x20 PUSH1 0x4 DUP3 ADD MSTORE PUSH1 0x14 PUSH1 0x24 DUP3 ADD MSTORE PUSH32 0x4661696C656420746F2073656E64204574686572000000000000000000000000 PUSH1 0x44 DUP3 ADD MSTORE PUSH1 0x64 ADD PUSH2 0x7BF JUMP JUMPDEST PUSH1 0x40 DUP1 MLOAD CALLER DUP2 MSTORE PUSH1 0x20 DUP2 ADD DUP6 SWAP1 MSTORE PUSH32 0x5DBA113B49CFA7C90315E8E604E6B506F7ABCB909B01DCB19EC39005086E68FC SWAP2 ADD JUMPDEST PUSH1 0x40 MLOAD DUP1 SWAP2 SUB SWAP1 LOG1 POP POP POP JUMP JUMPDEST PUSH1 0x0 JUMPDEST DUP8 DUP2 LT ISZERO PUSH2 0x1996 JUMPI PUSH1 0x0 PUSH2 0x1623 CALLER DUP10 DUP10 DUP6 DUP2 DUP2 LT PUSH2 0x160A JUMPI PUSH2 0x160A PUSH2 0x3672 JUMP JUMPDEST SWAP1 POP PUSH1 0x20 MUL ADD CALLDATALOAD DUP13 DUP13 DUP7 DUP2 DUP2 LT PUSH2 0x1012 JUMPI PUSH2 0x1012 PUSH2 0x3672 JUMP JUMPDEST GT PUSH1 0x40 MLOAD DUP1 PUSH1 0x60 ADD PUSH1 0x40 MSTORE DUP1 PUSH1 0x25 DUP2 MSTORE PUSH1 0x20 ADD PUSH2 0x3859 PUSH1 0x25 SWAP2 CODECOPY SWAP1 PUSH2 0x165B JUMPI PUSH1 0x40 MLOAD PUSH3 0x461BCD PUSH1 0xE5 SHL DUP2 MSTORE PUSH1 0x4 ADD PUSH2 0x7BF SWAP2 SWAP1 PUSH2 0x33AD JUMP JUMPDEST POP PUSH2 0x2710 DUP6 DUP6 DUP4 DUP2 DUP2 LT PUSH2 0x1671 JUMPI PUSH2 0x1671 PUSH2 0x3672 JUMP JUMPDEST SWAP1 POP PUSH1 0x20 MUL ADD CALLDATALOAD GT PUSH2 0x16C5 JUMPI PUSH1 0x40 MLOAD PUSH3 0x461BCD PUSH1 0xE5 SHL DUP2 MSTORE PUSH1 0x20 PUSH1 0x4 DUP3 ADD MSTORE PUSH1 0xD PUSH1 0x24 DUP3 ADD MSTORE PUSH32 0x707269636520746F6F206C6F7700000000000000000000000000000000000000 PUSH1 0x44 DUP3 ADD MSTORE PUSH1 0x64 ADD PUSH2 0x7BF JUMP JUMPDEST PUSH1 0x0 PUSH2 0x171B ADDRESS DUP10 DUP10 DUP6 DUP2 DUP2 LT PUSH2 0x16DD JUMPI PUSH2 0x16DD PUSH2 0x3672 JUMP JUMPDEST SWAP1 POP PUSH1 0x20 MUL ADD CALLDATALOAD DUP13 DUP13 DUP7 DUP2 DUP2 LT PUSH2 0x16F6 JUMPI PUSH2 0x16F6 PUSH2 0x3672 JUMP JUMPDEST SWAP1 POP PUSH1 0x20 MUL ADD PUSH1 0x20 DUP2 ADD SWAP1 PUSH2 0x170B SWAP2 SWAP1 PUSH2 0x34A4 JUMP JUMPDEST PUSH1 0x1 PUSH1 0x1 PUSH1 0xA0 SHL SUB AND SWAP2 SWAP1 PUSH2 0x2CDE JUMP JUMPDEST SWAP1 POP DUP1 PUSH2 0x176A JUMPI PUSH1 0x40 MLOAD PUSH3 0x461BCD PUSH1 0xE5 SHL DUP2 MSTORE PUSH1 0x20 PUSH1 0x4 DUP3 ADD MSTORE PUSH1 0x13 PUSH1 0x24 DUP3 ADD MSTORE PUSH32 0x4E4654206973206E6F7420617070726F76656400000000000000000000000000 PUSH1 0x44 DUP3 ADD MSTORE PUSH1 0x64 ADD PUSH2 0x7BF JUMP JUMPDEST PUSH1 0x40 DUP1 MLOAD PUSH1 0x80 DUP2 ADD DUP3 MSTORE PUSH1 0x1 DUP2 MSTORE CALLER PUSH1 0x20 DUP3 ADD MSTORE SWAP1 DUP2 ADD DUP8 DUP8 DUP6 DUP2 DUP2 LT PUSH2 0x1793 JUMPI PUSH2 0x1793 PUSH2 0x3672 JUMP JUMPDEST SWAP1 POP PUSH1 0x20 MUL ADD CALLDATALOAD DUP2 MSTORE PUSH1 0x20 ADD DUP6 DUP6 DUP6 DUP2 DUP2 LT PUSH2 0x17B1 JUMPI PUSH2 0x17B1 PUSH2 0x3672 JUMP JUMPDEST SWAP1 POP PUSH1 0x20 MUL ADD PUSH1 0x20 DUP2 ADD SWAP1 PUSH2 0x17C6 SWAP2 SWAP1 PUSH2 0x34A4 JUMP JUMPDEST PUSH1 0x1 PUSH1 0x1 PUSH1 0xA0 SHL SUB AND SWAP1 MSTORE PUSH1 0x1 PUSH1 0x0 DUP13 DUP13 DUP7 DUP2 DUP2 LT PUSH2 0x17E7 JUMPI PUSH2 0x17E7 PUSH2 0x3672 JUMP JUMPDEST SWAP1 POP PUSH1 0x20 MUL ADD PUSH1 0x20 DUP2 ADD SWAP1 PUSH2 0x17FC SWAP2 SWAP1 PUSH2 0x34A4 JUMP JUMPDEST PUSH1 0x1 PUSH1 0x1 PUSH1 0xA0 SHL SUB AND PUSH1 0x1 PUSH1 0x1 PUSH1 0xA0 SHL SUB AND DUP2 MSTORE PUSH1 0x20 ADD SWAP1 DUP2 MSTORE PUSH1 0x20 ADD PUSH1 0x0 KECCAK256 PUSH1 0x0 DUP11 DUP11 DUP7 DUP2 DUP2 LT PUSH2 0x1830 JUMPI PUSH2 0x1830 PUSH2 0x3672 JUMP JUMPDEST PUSH1 0x20 SWAP1 DUP2 MUL SWAP3 SWAP1 SWAP3 ADD CALLDATALOAD DUP4 MSTORE POP DUP2 DUP2 ADD SWAP3 SWAP1 SWAP3 MSTORE PUSH1 0x40 SWAP1 DUP2 ADD PUSH1 0x0 KECCAK256 DUP4 MLOAD DUP2 SLOAD SWAP4 DUP6 ADD MLOAD PUSH1 0x1 PUSH1 0x1 PUSH1 0xA8 SHL SUB NOT SWAP1 SWAP5 AND SWAP1 ISZERO ISZERO PUSH21 0xFFFFFFFFFFFFFFFFFFFFFFFFFFFFFFFFFFFFFFFF00 NOT AND OR PUSH2 0x100 PUSH1 0x1 PUSH1 0x1 PUSH1 0xA0 SHL SUB SWAP5 DUP6 AND MUL OR DUP2 SSTORE SWAP1 DUP4 ADD MLOAD PUSH1 0x1 DUP3 ADD SSTORE PUSH1 0x60 SWAP1 SWAP3 ADD MLOAD PUSH1 0x2 SWAP1 SWAP3 ADD DUP1 SLOAD PUSH1 0x1 PUSH1 0x1 PUSH1 0xA0 SHL SUB NOT AND SWAP3 SWAP1 SWAP2 AND SWAP2 SWAP1 SWAP2 OR SWAP1 SSTORE DUP8 DUP8 DUP4 DUP2 DUP2 LT PUSH2 0x18CA JUMPI PUSH2 0x18CA PUSH2 0x3672 JUMP JUMPDEST SWAP1 POP PUSH1 0x20 MUL ADD CALLDATALOAD DUP11 DUP11 DUP5 DUP2 DUP2 LT PUSH2 0x18E3 JUMPI PUSH2 0x18E3 PUSH2 0x3672 JUMP JUMPDEST SWAP1 POP PUSH1 0x20 MUL ADD PUSH1 0x20 DUP2 ADD SWAP1 PUSH2 0x18F8 SWAP2 SWAP1 PUSH2 0x34A4 JUMP JUMPDEST PUSH1 0x1 PUSH1 0x1 PUSH1 0xA0 SHL SUB AND CALLER PUSH32 0xA11D5827CF84BEC195AF5EF315A898693F8633B4C246F5E91C1D0FFF29F58A34 DUP10 DUP10 DUP8 DUP2 DUP2 LT PUSH2 0x1935 JUMPI PUSH2 0x1935 PUSH2 0x3672 JUMP JUMPDEST SWAP1 POP PUSH1 0x20 MUL ADD CALLDATALOAD DUP9 DUP9 DUP9 DUP2 DUP2 LT PUSH2 0x194E JUMPI PUSH2 0x194E PUSH2 0x3672 JUMP JUMPDEST SWAP1 POP PUSH1 0x20 MUL ADD PUSH1 0x20 DUP2 ADD SWAP1 PUSH2 0x1963 SWAP2 SWAP1 PUSH2 0x34A4 JUMP JUMPDEST PUSH1 0x40 DUP1 MLOAD SWAP3 DUP4 MSTORE PUSH1 0x1 PUSH1 0x1 PUSH1 0xA0 SHL SUB SWAP1 SWAP2 AND PUSH1 0x20 DUP4 ADD MSTORE ADD PUSH1 0x40 MLOAD DUP1 SWAP2 SUB SWAP1 LOG4 POP DUP1 PUSH2 0x198E DUP2 PUSH2 0x3688 JUMP JUMPDEST SWAP2 POP POP PUSH2 0x15EA JUMP JUMPDEST POP POP POP POP POP POP POP POP POP JUMP JUMPDEST PUSH1 0x0 JUMPDEST DUP4 DUP2 LT ISZERO PUSH2 0x1BF3 JUMPI PUSH1 0x0 DUP6 DUP6 DUP4 DUP2 DUP2 LT PUSH2 0x19C0 JUMPI PUSH2 0x19C0 PUSH2 0x3672 JUMP JUMPDEST SWAP1 POP PUSH1 0x20 MUL ADD PUSH1 0x20 DUP2 ADD SWAP1 PUSH2 0x19D5 SWAP2 SWAP1 PUSH2 0x34A4 JUMP JUMPDEST PUSH1 0x1 PUSH1 0x1 PUSH1 0xA0 SHL SUB DUP2 AND PUSH1 0x0 SWAP1 DUP2 MSTORE PUSH1 0x1 PUSH1 0x20 MSTORE PUSH1 0x40 DUP2 KECCAK256 SWAP2 SWAP3 POP CALLER SWAP2 SWAP1 DUP7 DUP7 DUP7 DUP2 DUP2 LT PUSH2 0x1A05 JUMPI PUSH2 0x1A05 PUSH2 0x3672 JUMP JUMPDEST SWAP1 POP PUSH1 0x20 MUL ADD CALLDATALOAD DUP2 MSTORE PUSH1 0x20 ADD SWAP1 DUP2 MSTORE PUSH1 0x20 ADD PUSH1 0x0 KECCAK256 PUSH1 0x0 ADD PUSH1 0x1 SWAP1 SLOAD SWAP1 PUSH2 0x100 EXP SWAP1 DIV PUSH1 0x1 PUSH1 0x1 PUSH1 0xA0 SHL SUB AND PUSH1 0x1 PUSH1 0x1 PUSH1 0xA0 SHL SUB AND EQ PUSH1 0x40 MLOAD DUP1 PUSH1 0x60 ADD PUSH1 0x40 MSTORE DUP1 PUSH1 0x25 DUP2 MSTORE PUSH1 0x20 ADD PUSH2 0x37C1 PUSH1 0x25 SWAP2 CODECOPY SWAP1 PUSH2 0x1A72 JUMPI PUSH1 0x40 MLOAD PUSH3 0x461BCD PUSH1 0xE5 SHL DUP2 MSTORE PUSH1 0x4 ADD PUSH2 0x7BF SWAP2 SWAP1 PUSH2 0x33AD JUMP JUMPDEST POP PUSH1 0x0 PUSH2 0x1AC9 ADDRESS DUP7 DUP7 DUP7 DUP2 DUP2 LT PUSH2 0x1A8B JUMPI PUSH2 0x1A8B PUSH2 0x3672 JUMP JUMPDEST SWAP1 POP PUSH1 0x20 MUL ADD CALLDATALOAD DUP10 DUP10 DUP8 DUP2 DUP2 LT PUSH2 0x1AA4 JUMPI PUSH2 0x1AA4 PUSH2 0x3672 JUMP JUMPDEST SWAP1 POP PUSH1 0x20 MUL ADD PUSH1 0x20 DUP2 ADD SWAP1 PUSH2 0x1AB9 SWAP2 SWAP1 PUSH2 0x34A4 JUMP JUMPDEST PUSH1 0x1 PUSH1 0x1 PUSH1 0xA0 SHL SUB AND SWAP2 SWAP1 PUSH2 0x3085 JUMP JUMPDEST SWAP1 POP DUP1 PUSH2 0x1B18 JUMPI PUSH1 0x40 MLOAD PUSH3 0x461BCD PUSH1 0xE5 SHL DUP2 MSTORE PUSH1 0x20 PUSH1 0x4 DUP3 ADD MSTORE PUSH1 0x13 PUSH1 0x24 DUP3 ADD MSTORE PUSH32 0x4E4654206973206E6F74207265766F6B65642100000000000000000000000000 PUSH1 0x44 DUP3 ADD MSTORE PUSH1 0x64 ADD PUSH2 0x7BF JUMP JUMPDEST PUSH1 0x1 PUSH1 0x1 PUSH1 0xA0 SHL SUB DUP3 AND PUSH1 0x0 SWAP1 DUP2 MSTORE PUSH1 0x1 PUSH1 0x20 MSTORE PUSH1 0x40 DUP2 KECCAK256 SWAP1 DUP7 DUP7 DUP7 DUP2 DUP2 LT PUSH2 0x1B43 JUMPI PUSH2 0x1B43 PUSH2 0x3672 JUMP JUMPDEST PUSH1 0x20 SWAP1 DUP2 MUL SWAP3 SWAP1 SWAP3 ADD CALLDATALOAD DUP4 MSTORE POP DUP2 ADD SWAP2 SWAP1 SWAP2 MSTORE PUSH1 0x40 ADD PUSH1 0x0 SWAP1 DUP2 KECCAK256 DUP1 SLOAD PUSH1 0x1 PUSH1 0x1 PUSH1 0xA8 SHL SUB NOT AND DUP2 SSTORE PUSH1 0x1 DUP2 ADD SWAP2 SWAP1 SWAP2 SSTORE PUSH1 0x2 ADD DUP1 SLOAD PUSH1 0x1 PUSH1 0x1 PUSH1 0xA0 SHL SUB NOT AND SWAP1 SSTORE DUP5 DUP5 DUP5 DUP2 DUP2 LT PUSH2 0x1B97 JUMPI PUSH2 0x1B97 PUSH2 0x3672 JUMP JUMPDEST SWAP1 POP PUSH1 0x20 MUL ADD CALLDATALOAD DUP3 PUSH1 0x1 PUSH1 0x1 PUSH1 0xA0 SHL SUB AND CALLER PUSH1 0x1 PUSH1 0x1 PUSH1 0xA0 SHL SUB AND PUSH32 0x4D7CDCD7D8E1E150C4C5703FB12C932A0683BC890E601471C754E8E43B1DE18C PUSH1 0x40 MLOAD PUSH1 0x40 MLOAD DUP1 SWAP2 SUB SWAP1 LOG4 POP POP DUP1 DUP1 PUSH2 0x1BEB SWAP1 PUSH2 0x3688 JUMP JUMPDEST SWAP2 POP POP PUSH2 0x19A4 JUMP JUMPDEST POP POP POP POP POP JUMP JUMPDEST PUSH1 0x40 MLOAD DUP1 PUSH1 0x60 ADD PUSH1 0x40 MSTORE DUP1 PUSH1 0x25 DUP2 MSTORE PUSH1 0x20 ADD PUSH2 0x3859 PUSH1 0x25 SWAP2 CODECOPY DUP2 JUMP JUMPDEST PUSH1 0x0 JUMPDEST DUP6 DUP2 LT ISZERO PUSH2 0x1EC7 JUMPI PUSH1 0x0 DUP8 DUP8 DUP4 DUP2 DUP2 LT PUSH2 0x1C35 JUMPI PUSH2 0x1C35 PUSH2 0x3672 JUMP JUMPDEST SWAP1 POP PUSH1 0x20 MUL ADD PUSH1 0x20 DUP2 ADD SWAP1 PUSH2 0x1C4A SWAP2 SWAP1 PUSH2 0x34A4 JUMP JUMPDEST PUSH1 0x1 PUSH1 0x1 PUSH1 0xA0 SHL SUB DUP2 AND PUSH1 0x0 SWAP1 DUP2 MSTORE PUSH1 0x2 PUSH1 0x20 MSTORE PUSH1 0x40 DUP2 KECCAK256 SWAP2 SWAP3 POP CALLER SWAP2 SWAP1 DUP9 DUP9 DUP7 DUP2 DUP2 LT PUSH2 0x1C7A JUMPI PUSH2 0x1C7A PUSH2 0x3672 JUMP JUMPDEST SWAP1 POP PUSH1 0x20 MUL ADD CALLDATALOAD DUP2 MSTORE PUSH1 0x20 ADD SWAP1 DUP2 MSTORE PUSH1 0x20 ADD PUSH1 0x0 KECCAK256 PUSH1 0x0 DUP7 DUP7 DUP7 DUP2 DUP2 LT PUSH2 0x1CA3 JUMPI PUSH2 0x1CA3 PUSH2 0x3672 JUMP JUMPDEST SWAP1 POP PUSH1 0x20 MUL ADD CALLDATALOAD DUP2 MSTORE PUSH1 0x20 ADD SWAP1 DUP2 MSTORE PUSH1 0x20 ADD PUSH1 0x0 KECCAK256 PUSH1 0x1 ADD PUSH1 0x1 SWAP1 SLOAD SWAP1 PUSH2 0x100 EXP SWAP1 DIV PUSH1 0x1 PUSH1 0x1 PUSH1 0xA0 SHL SUB AND PUSH1 0x1 PUSH1 0x1 PUSH1 0xA0 SHL SUB AND EQ PUSH1 0x40 MLOAD DUP1 PUSH1 0x60 ADD PUSH1 0x40 MSTORE DUP1 PUSH1 0x25 DUP2 MSTORE PUSH1 0x20 ADD PUSH2 0x379C PUSH1 0x25 SWAP2 CODECOPY SWAP1 PUSH2 0x1D10 JUMPI PUSH1 0x40 MLOAD PUSH3 0x461BCD PUSH1 0xE5 SHL DUP2 MSTORE PUSH1 0x4 ADD PUSH2 0x7BF SWAP2 SWAP1 PUSH2 0x33AD JUMP JUMPDEST POP PUSH1 0x1 PUSH1 0x1 PUSH1 0xA0 SHL SUB DUP2 AND PUSH1 0x0 SWAP1 DUP2 MSTORE PUSH1 0x2 PUSH1 0x20 MSTORE PUSH1 0x40 DUP2 KECCAK256 SWAP1 DUP8 DUP8 DUP6 DUP2 DUP2 LT PUSH2 0x1D3C JUMPI PUSH2 0x1D3C PUSH2 0x3672 JUMP JUMPDEST SWAP1 POP PUSH1 0x20 MUL ADD CALLDATALOAD DUP2 MSTORE PUSH1 0x20 ADD SWAP1 DUP2 MSTORE PUSH1 0x20 ADD PUSH1 0x0 KECCAK256 PUSH1 0x0 DUP6 DUP6 DUP6 DUP2 DUP2 LT PUSH2 0x1D65 JUMPI PUSH2 0x1D65 PUSH2 0x3672 JUMP JUMPDEST SWAP1 POP PUSH1 0x20 MUL ADD CALLDATALOAD DUP2 MSTORE PUSH1 0x20 ADD SWAP1 DUP2 MSTORE PUSH1 0x20 ADD PUSH1 0x0 KECCAK256 PUSH1 0x2 ADD SLOAD PUSH1 0x4 PUSH1 0x0 CALLER PUSH1 0x1 PUSH1 0x1 PUSH1 0xA0 SHL SUB AND PUSH1 0x1 PUSH1 0x1 PUSH1 0xA0 SHL SUB AND DUP2 MSTORE PUSH1 0x20 ADD SWAP1 DUP2 MSTORE PUSH1 0x20 ADD PUSH1 0x0 KECCAK256 PUSH1 0x0 DUP3 DUP3 SLOAD PUSH2 0x1DB2 SWAP2 SWAP1 PUSH2 0x365F JUMP JUMPDEST SWAP1 SWAP2 SSTORE POP POP PUSH1 0x1 PUSH1 0x1 PUSH1 0xA0 SHL SUB DUP2 AND PUSH1 0x0 SWAP1 DUP2 MSTORE PUSH1 0x2 PUSH1 0x20 MSTORE PUSH1 0x40 DUP2 KECCAK256 SWAP1 DUP8 DUP8 DUP6 DUP2 DUP2 LT PUSH2 0x1DE2 JUMPI PUSH2 0x1DE2 PUSH2 0x3672 JUMP JUMPDEST SWAP1 POP PUSH1 0x20 MUL ADD CALLDATALOAD DUP2 MSTORE PUSH1 0x20 ADD SWAP1 DUP2 MSTORE PUSH1 0x20 ADD PUSH1 0x0 KECCAK256 PUSH1 0x0 DUP6 DUP6 DUP6 DUP2 DUP2 LT PUSH2 0x1E0B JUMPI PUSH2 0x1E0B PUSH2 0x3672 JUMP JUMPDEST PUSH1 0x20 SWAP1 DUP2 MUL SWAP3 SWAP1 SWAP3 ADD CALLDATALOAD DUP4 MSTORE POP DUP2 ADD SWAP2 SWAP1 SWAP2 MSTORE PUSH1 0x40 ADD PUSH1 0x0 SWAP1 DUP2 KECCAK256 DUP2 DUP2 SSTORE PUSH1 0x1 DUP2 ADD DUP1 SLOAD PUSH1 0x1 PUSH1 0x1 PUSH1 0xA8 SHL SUB NOT AND SWAP1 SSTORE PUSH1 0x2 ADD SSTORE CALLER DUP7 DUP7 DUP5 DUP2 DUP2 LT PUSH2 0x1E52 JUMPI PUSH2 0x1E52 PUSH2 0x3672 JUMP JUMPDEST SWAP1 POP PUSH1 0x20 MUL ADD CALLDATALOAD DUP3 PUSH1 0x1 PUSH1 0x1 PUSH1 0xA0 SHL SUB AND PUSH32 0x887DC05D3B632D032620DE6116A12EC3B9FEBACCDE6FD31195972C655D7161FE DUP8 DUP8 DUP8 DUP2 DUP2 LT PUSH2 0x1E96 JUMPI PUSH2 0x1E96 PUSH2 0x3672 JUMP JUMPDEST SWAP1 POP PUSH1 0x20 MUL ADD CALLDATALOAD PUSH1 0x40 MLOAD PUSH2 0x1EAC SWAP2 DUP2 MSTORE PUSH1 0x20 ADD SWAP1 JUMP JUMPDEST PUSH1 0x40 MLOAD DUP1 SWAP2 SUB SWAP1 LOG4 POP DUP1 PUSH2 0x1EBF DUP2 PUSH2 0x3688 JUMP JUMPDEST SWAP2 POP POP PUSH2 0x1C19 JUMP JUMPDEST POP POP POP POP POP POP POP JUMP JUMPDEST PUSH1 0x0 SLOAD PUSH2 0x100 SWAP1 DIV PUSH1 0xFF AND ISZERO DUP1 DUP1 ISZERO PUSH2 0x1EF0 JUMPI POP PUSH1 0x0 SLOAD PUSH1 0x1 PUSH1 0xFF SWAP1 SWAP2 AND LT JUMPDEST DUP1 PUSH2 0x1F0A JUMPI POP ADDRESS EXTCODESIZE ISZERO DUP1 ISZERO PUSH2 0x1F0A JUMPI POP PUSH1 0x0 SLOAD PUSH1 0xFF AND PUSH1 0x1 EQ JUMPDEST PUSH2 0x1F7C JUMPI PUSH1 0x40 MLOAD PUSH3 0x461BCD PUSH1 0xE5 SHL DUP2 MSTORE PUSH1 0x20 PUSH1 0x4 DUP3 ADD MSTORE PUSH1 0x2E PUSH1 0x24 DUP3 ADD MSTORE PUSH32 0x496E697469616C697A61626C653A20636F6E747261637420697320616C726561 PUSH1 0x44 DUP3 ADD MSTORE PUSH32 0x647920696E697469616C697A6564000000000000000000000000000000000000 PUSH1 0x64 DUP3 ADD MSTORE PUSH1 0x84 ADD PUSH2 0x7BF JUMP JUMPDEST PUSH1 0x0 DUP1 SLOAD PUSH1 0xFF NOT AND PUSH1 0x1 OR SWAP1 SSTORE DUP1 ISZERO PUSH2 0x1F9F JUMPI PUSH1 0x0 DUP1 SLOAD PUSH2 0xFF00 NOT AND PUSH2 0x100 OR SWAP1 SSTORE JUMPDEST PUSH1 0x5 DUP1 SLOAD PUSH1 0x1 PUSH1 0x1 PUSH1 0xA0 SHL SUB DUP6 AND PUSH1 0x1 PUSH1 0x1 PUSH1 0xA0 SHL SUB NOT SWAP2 DUP3 AND OR SWAP1 SWAP2 SSTORE PUSH1 0x6 DUP1 SLOAD SWAP1 SWAP2 AND CALLER OR SWAP1 SSTORE PUSH1 0x7 DUP3 SWAP1 SSTORE DUP1 ISZERO PUSH2 0x200F JUMPI PUSH1 0x0 DUP1 SLOAD PUSH2 0xFF00 NOT AND SWAP1 SSTORE PUSH1 0x40 MLOAD PUSH1 0x1 DUP2 MSTORE PUSH32 0x7F26B83FF96E1F2B6A682F133852F6798A09C465DA95921460CEFB3847402498 SWAP1 PUSH1 0x20 ADD PUSH2 0x15DA JUMP JUMPDEST POP POP POP JUMP JUMPDEST PUSH1 0x0 PUSH2 0x2020 DUP4 DUP4 PUSH2 0x3648 JUMP JUMPDEST SWAP1 POP CALLVALUE DUP2 EQ PUSH2 0x2071 JUMPI PUSH1 0x40 MLOAD PUSH3 0x461BCD PUSH1 0xE5 SHL DUP2 MSTORE PUSH1 0x20 PUSH1 0x4 DUP3 ADD MSTORE PUSH1 0xF PUSH1 0x24 DUP3 ADD MSTORE PUSH32 0x494E56414C49442042414C414E43450000000000000000000000000000000000 PUSH1 0x44 DUP3 ADD MSTORE PUSH1 0x64 ADD PUSH2 0x7BF JUMP JUMPDEST PUSH1 0x0 PUSH1 0x9 SLOAD PUSH1 0x1 PUSH2 0x2082 SWAP2 SWAP1 PUSH2 0x365F JUMP JUMPDEST PUSH1 0x40 DUP1 MLOAD PUSH1 0x80 DUP1 DUP3 ADD DUP4 MSTORE DUP4 DUP3 MSTORE CALLER PUSH1 0x20 DUP1 DUP5 ADD DUP3 DUP2 MSTORE DUP5 DUP7 ADD DUP12 DUP2 MSTORE PUSH1 0x60 DUP1 DUP8 ADD DUP13 DUP2 MSTORE PUSH1 0x1 PUSH1 0x1 PUSH1 0xA0 SHL SUB DUP16 DUP2 AND PUSH1 0x0 SWAP1 DUP2 MSTORE PUSH1 0x3 DUP1 DUP9 MSTORE DUP12 DUP3 KECCAK256 DUP14 DUP4 MSTORE DUP9 MSTORE SWAP1 DUP12 SWAP1 KECCAK256 SWAP10 MLOAD DUP11 SSTORE SWAP5 MLOAD PUSH1 0x1 DUP11 ADD DUP1 SLOAD PUSH1 0x1 PUSH1 0x1 PUSH1 0xA0 SHL SUB NOT AND SWAP2 SWAP1 SWAP3 AND OR SWAP1 SSTORE SWAP2 MLOAD PUSH1 0x2 DUP9 ADD SSTORE SWAP1 MLOAD SWAP6 SWAP1 SWAP2 ADD SWAP5 SWAP1 SWAP5 SSTORE DUP5 MLOAD DUP7 DUP2 MSTORE SWAP1 DUP2 ADD SWAP2 SWAP1 SWAP2 MSTORE SWAP3 DUP4 ADD DUP9 SWAP1 MSTORE SWAP1 DUP3 ADD DUP7 SWAP1 MSTORE SWAP2 SWAP3 POP DUP7 SWAP2 PUSH32 0x6E0DBC683EF60581FED8DDD261DC286DEEAFCEEC28E36434D0E02026C8F3C5D SWAP2 ADD PUSH1 0x40 MLOAD DUP1 SWAP2 SUB SWAP1 LOG1 POP POP POP POP POP POP JUMP JUMPDEST PUSH1 0x0 DUP1 JUMPDEST DUP7 DUP2 LT ISZERO PUSH2 0x27EF JUMPI PUSH1 0x0 PUSH2 0x2183 CALLER DUP9 DUP9 DUP6 DUP2 DUP2 LT PUSH2 0x216A JUMPI PUSH2 0x216A PUSH2 0x3672 JUMP JUMPDEST SWAP1 POP PUSH1 0x20 MUL ADD CALLDATALOAD DUP12 DUP12 DUP7 DUP2 DUP2 LT PUSH2 0x1012 JUMPI PUSH2 0x1012 PUSH2 0x3672 JUMP JUMPDEST GT PUSH1 0x40 MLOAD DUP1 PUSH1 0x60 ADD PUSH1 0x40 MSTORE DUP1 PUSH1 0x25 DUP2 MSTORE PUSH1 0x20 ADD PUSH2 0x3859 PUSH1 0x25 SWAP2 CODECOPY SWAP1 PUSH2 0x21BB JUMPI PUSH1 0x40 MLOAD PUSH3 0x461BCD PUSH1 0xE5 SHL DUP2 MSTORE PUSH1 0x4 ADD PUSH2 0x7BF SWAP2 SWAP1 PUSH2 0x33AD JUMP JUMPDEST POP PUSH1 0x0 DUP9 DUP9 DUP4 DUP2 DUP2 LT PUSH2 0x21D0 JUMPI PUSH2 0x21D0 PUSH2 0x3672 JUMP JUMPDEST SWAP1 POP PUSH1 0x20 MUL ADD PUSH1 0x20 DUP2 ADD SWAP1 PUSH2 0x21E5 SWAP2 SWAP1 PUSH2 0x34A4 JUMP JUMPDEST PUSH1 0x1 PUSH1 0x1 PUSH1 0xA0 SHL SUB DUP2 AND PUSH1 0x0 SWAP1 DUP2 MSTORE PUSH1 0x2 PUSH1 0x20 MSTORE PUSH1 0x40 DUP2 KECCAK256 SWAP2 SWAP3 POP DUP9 DUP9 DUP6 DUP2 DUP2 LT PUSH2 0x2212 JUMPI PUSH2 0x2212 PUSH2 0x3672 JUMP JUMPDEST SWAP1 POP PUSH1 0x20 MUL ADD CALLDATALOAD DUP2 MSTORE PUSH1 0x20 ADD SWAP1 DUP2 MSTORE PUSH1 0x20 ADD PUSH1 0x0 KECCAK256 PUSH1 0x0 DUP7 DUP7 DUP6 DUP2 DUP2 LT PUSH2 0x223B JUMPI PUSH2 0x223B PUSH2 0x3672 JUMP JUMPDEST SWAP1 POP PUSH1 0x20 MUL ADD CALLDATALOAD DUP2 MSTORE PUSH1 0x20 ADD SWAP1 DUP2 MSTORE PUSH1 0x20 ADD PUSH1 0x0 KECCAK256 PUSH1 0x2 ADD SLOAD DUP4 PUSH2 0x225F SWAP2 SWAP1 PUSH2 0x365F JUMP JUMPDEST SWAP3 POP PUSH2 0x22FF DUP2 DUP9 DUP9 DUP6 DUP2 DUP2 LT PUSH2 0x2277 JUMPI PUSH2 0x2277 PUSH2 0x3672 JUMP JUMPDEST SWAP1 POP PUSH1 0x20 MUL ADD CALLDATALOAD CALLER PUSH1 0x2 PUSH1 0x0 DUP7 PUSH1 0x1 PUSH1 0x1 PUSH1 0xA0 SHL SUB AND PUSH1 0x1 PUSH1 0x1 PUSH1 0xA0 SHL SUB AND DUP2 MSTORE PUSH1 0x20 ADD SWAP1 DUP2 MSTORE PUSH1 0x20 ADD PUSH1 0x0 KECCAK256 PUSH1 0x0 DUP13 DUP13 DUP10 DUP2 DUP2 LT PUSH2 0x22B8 JUMPI PUSH2 0x22B8 PUSH2 0x3672 JUMP JUMPDEST SWAP1 POP PUSH1 0x20 MUL ADD CALLDATALOAD DUP2 MSTORE PUSH1 0x20 ADD SWAP1 DUP2 MSTORE PUSH1 0x20 ADD PUSH1 0x0 KECCAK256 PUSH1 0x0 DUP11 DUP11 DUP10 DUP2 DUP2 LT PUSH2 0x22E1 JUMPI PUSH2 0x22E1 PUSH2 0x3672 JUMP JUMPDEST SWAP1 POP PUSH1 0x20 MUL ADD CALLDATALOAD DUP2 MSTORE PUSH1 0x20 ADD SWAP1 DUP2 MSTORE PUSH1 0x20 ADD PUSH1 0x0 KECCAK256 PUSH1 0x2 ADD SLOAD PUSH2 0x2F89 JUMP JUMPDEST PUSH1 0x0 PUSH2 0x2330 ADDRESS DUP10 DUP10 DUP7 DUP2 DUP2 LT PUSH2 0x2317 JUMPI PUSH2 0x2317 PUSH2 0x3672 JUMP JUMPDEST SWAP1 POP PUSH1 0x20 MUL ADD CALLDATALOAD DUP13 DUP13 DUP8 DUP2 DUP2 LT PUSH2 0x16F6 JUMPI PUSH2 0x16F6 PUSH2 0x3672 JUMP JUMPDEST SWAP1 POP DUP1 PUSH2 0x237F JUMPI PUSH1 0x40 MLOAD PUSH3 0x461BCD PUSH1 0xE5 SHL DUP2 MSTORE PUSH1 0x20 PUSH1 0x4 DUP3 ADD MSTORE PUSH1 0x13 PUSH1 0x24 DUP3 ADD MSTORE PUSH32 0x4E4654206973206E6F7420617070726F76656400000000000000000000000000 PUSH1 0x44 DUP3 ADD MSTORE PUSH1 0x64 ADD PUSH2 0x7BF JUMP JUMPDEST CALLER DUP9 DUP9 DUP6 DUP2 DUP2 LT PUSH2 0x2392 JUMPI PUSH2 0x2392 PUSH2 0x3672 JUMP JUMPDEST SWAP1 POP PUSH1 0x20 MUL ADD CALLDATALOAD DUP4 PUSH1 0x1 PUSH1 0x1 PUSH1 0xA0 SHL SUB AND PUSH32 0xC9827422DBB5E685186F9D060D161538C8998D44888E66D5D28062AEDDC2593E PUSH1 0x2 PUSH1 0x0 DUP8 PUSH1 0x1 PUSH1 0x1 PUSH1 0xA0 SHL SUB AND PUSH1 0x1 PUSH1 0x1 PUSH1 0xA0 SHL SUB AND DUP2 MSTORE PUSH1 0x20 ADD SWAP1 DUP2 MSTORE PUSH1 0x20 ADD PUSH1 0x0 KECCAK256 PUSH1 0x0 DUP14 DUP14 DUP11 DUP2 DUP2 LT PUSH2 0x23FD JUMPI PUSH2 0x23FD PUSH2 0x3672 JUMP JUMPDEST SWAP1 POP PUSH1 0x20 MUL ADD CALLDATALOAD DUP2 MSTORE PUSH1 0x20 ADD SWAP1 DUP2 MSTORE PUSH1 0x20 ADD PUSH1 0x0 KECCAK256 PUSH1 0x0 DUP12 DUP12 DUP11 DUP2 DUP2 LT PUSH2 0x2426 JUMPI PUSH2 0x2426 PUSH2 0x3672 JUMP JUMPDEST SWAP1 POP PUSH1 0x20 MUL ADD CALLDATALOAD DUP2 MSTORE PUSH1 0x20 ADD SWAP1 DUP2 MSTORE PUSH1 0x20 ADD PUSH1 0x0 KECCAK256 PUSH1 0x0 ADD SLOAD PUSH1 0x2 PUSH1 0x0 DUP9 PUSH1 0x1 PUSH1 0x1 PUSH1 0xA0 SHL SUB AND PUSH1 0x1 PUSH1 0x1 PUSH1 0xA0 SHL SUB AND DUP2 MSTORE PUSH1 0x20 ADD SWAP1 DUP2 MSTORE PUSH1 0x20 ADD PUSH1 0x0 KECCAK256 PUSH1 0x0 DUP15 DUP15 DUP12 DUP2 DUP2 LT PUSH2 0x2478 JUMPI PUSH2 0x2478 PUSH2 0x3672 JUMP JUMPDEST SWAP1 POP PUSH1 0x20 MUL ADD CALLDATALOAD DUP2 MSTORE PUSH1 0x20 ADD SWAP1 DUP2 MSTORE PUSH1 0x20 ADD PUSH1 0x0 KECCAK256 PUSH1 0x0 DUP13 DUP13 DUP12 DUP2 DUP2 LT PUSH2 0x24A1 JUMPI PUSH2 0x24A1 PUSH2 0x3672 JUMP JUMPDEST SWAP1 POP PUSH1 0x20 MUL ADD CALLDATALOAD DUP2 MSTORE PUSH1 0x20 ADD SWAP1 DUP2 MSTORE PUSH1 0x20 ADD PUSH1 0x0 KECCAK256 PUSH1 0x1 ADD PUSH1 0x1 SWAP1 SLOAD SWAP1 PUSH2 0x100 EXP SWAP1 DIV PUSH1 0x1 PUSH1 0x1 PUSH1 0xA0 SHL SUB AND PUSH1 0x2 PUSH1 0x0 DUP10 PUSH1 0x1 PUSH1 0x1 PUSH1 0xA0 SHL SUB AND PUSH1 0x1 PUSH1 0x1 PUSH1 0xA0 SHL SUB AND DUP2 MSTORE PUSH1 0x20 ADD SWAP1 DUP2 MSTORE PUSH1 0x20 ADD PUSH1 0x0 KECCAK256 PUSH1 0x0 DUP16 DUP16 DUP13 DUP2 DUP2 LT PUSH2 0x2506 JUMPI PUSH2 0x2506 PUSH2 0x3672 JUMP JUMPDEST SWAP1 POP PUSH1 0x20 MUL ADD CALLDATALOAD DUP2 MSTORE PUSH1 0x20 ADD SWAP1 DUP2 MSTORE PUSH1 0x20 ADD PUSH1 0x0 KECCAK256 PUSH1 0x0 DUP14 DUP14 DUP13 DUP2 DUP2 LT PUSH2 0x252F JUMPI PUSH2 0x252F PUSH2 0x3672 JUMP JUMPDEST SWAP1 POP PUSH1 0x20 MUL ADD CALLDATALOAD DUP2 MSTORE PUSH1 0x20 ADD SWAP1 DUP2 MSTORE PUSH1 0x20 ADD PUSH1 0x0 KECCAK256 PUSH1 0x2 ADD SLOAD PUSH1 0x40 MLOAD PUSH2 0x2571 SWAP4 SWAP3 SWAP2 SWAP1 SWAP3 DUP4 MSTORE PUSH1 0x1 PUSH1 0x1 PUSH1 0xA0 SHL SUB SWAP2 SWAP1 SWAP2 AND PUSH1 0x20 DUP4 ADD MSTORE PUSH1 0x40 DUP3 ADD MSTORE PUSH1 0x60 ADD SWAP1 JUMP JUMPDEST PUSH1 0x40 MLOAD DUP1 SWAP2 SUB SWAP1 LOG4 PUSH1 0x1 PUSH1 0x1 PUSH1 0xA0 SHL SUB DUP3 AND PUSH1 0x0 SWAP1 DUP2 MSTORE PUSH1 0x2 PUSH1 0x20 MSTORE PUSH1 0x40 DUP2 KECCAK256 PUSH2 0x263D SWAP1 CALLER SWAP1 DUP4 DUP13 DUP13 DUP10 DUP2 DUP2 LT PUSH2 0x25AA JUMPI PUSH2 0x25AA PUSH2 0x3672 JUMP JUMPDEST SWAP1 POP PUSH1 0x20 MUL ADD CALLDATALOAD DUP2 MSTORE PUSH1 0x20 ADD SWAP1 DUP2 MSTORE PUSH1 0x20 ADD PUSH1 0x0 KECCAK256 PUSH1 0x0 DUP11 DUP11 DUP10 DUP2 DUP2 LT PUSH2 0x25D3 JUMPI PUSH2 0x25D3 PUSH2 0x3672 JUMP JUMPDEST SWAP1 POP PUSH1 0x20 MUL ADD CALLDATALOAD DUP2 MSTORE PUSH1 0x20 ADD SWAP1 DUP2 MSTORE PUSH1 0x20 ADD PUSH1 0x0 KECCAK256 PUSH1 0x1 ADD PUSH1 0x1 SWAP1 SLOAD SWAP1 PUSH2 0x100 EXP SWAP1 DIV PUSH1 0x1 PUSH1 0x1 PUSH1 0xA0 SHL SUB AND DUP12 DUP12 DUP9 DUP2 DUP2 LT PUSH2 0x2611 JUMPI PUSH2 0x2611 PUSH2 0x3672 JUMP JUMPDEST PUSH1 0x40 DUP1 MLOAD PUSH1 0x0 DUP2 MSTORE PUSH1 0x20 DUP1 DUP3 ADD SWAP1 SWAP3 MSTORE SWAP2 MUL SWAP3 SWAP1 SWAP3 ADD CALLDATALOAD SWAP2 SWAP1 POP DUP16 DUP16 DUP11 DUP2 DUP2 LT PUSH2 0x1342 JUMPI PUSH2 0x1342 PUSH2 0x3672 JUMP JUMPDEST SWAP1 POP DUP1 PUSH1 0x40 MLOAD DUP1 PUSH1 0x40 ADD PUSH1 0x40 MSTORE DUP1 PUSH1 0x19 DUP2 MSTORE PUSH1 0x20 ADD PUSH32 0x4D61726B6574706C6163653A3A4E4654206E6F742073656E7400000000000000 DUP2 MSTORE POP SWAP1 PUSH2 0x2694 JUMPI PUSH1 0x40 MLOAD PUSH3 0x461BCD PUSH1 0xE5 SHL DUP2 MSTORE PUSH1 0x4 ADD PUSH2 0x7BF SWAP2 SWAP1 PUSH2 0x33AD JUMP JUMPDEST POP PUSH1 0x1 PUSH1 0x1 PUSH1 0xA0 SHL SUB DUP4 AND PUSH1 0x0 SWAP1 DUP2 MSTORE PUSH1 0x1 PUSH1 0x20 MSTORE PUSH1 0x40 DUP2 KECCAK256 SWAP1 DUP11 DUP11 DUP8 DUP2 DUP2 LT PUSH2 0x26C0 JUMPI PUSH2 0x26C0 PUSH2 0x3672 JUMP JUMPDEST PUSH1 0x20 SWAP1 DUP2 MUL SWAP3 SWAP1 SWAP3 ADD CALLDATALOAD DUP4 MSTORE POP DUP2 ADD SWAP2 SWAP1 SWAP2 MSTORE PUSH1 0x40 ADD PUSH1 0x0 KECCAK256 SLOAD PUSH1 0xFF AND ISZERO PUSH2 0x2750 JUMPI PUSH1 0x1 PUSH1 0x1 PUSH1 0xA0 SHL SUB DUP4 AND PUSH1 0x0 SWAP1 DUP2 MSTORE PUSH1 0x1 PUSH1 0x20 MSTORE PUSH1 0x40 DUP2 KECCAK256 SWAP1 DUP11 DUP11 DUP8 DUP2 DUP2 LT PUSH2 0x270D JUMPI PUSH2 0x270D PUSH2 0x3672 JUMP JUMPDEST PUSH1 0x20 SWAP1 DUP2 MUL SWAP3 SWAP1 SWAP3 ADD CALLDATALOAD DUP4 MSTORE POP DUP2 ADD SWAP2 SWAP1 SWAP2 MSTORE PUSH1 0x40 ADD PUSH1 0x0 SWAP1 DUP2 KECCAK256 DUP1 SLOAD PUSH1 0x1 PUSH1 0x1 PUSH1 0xA8 SHL SUB NOT AND DUP2 SSTORE PUSH1 0x1 DUP2 ADD SWAP2 SWAP1 SWAP2 SSTORE PUSH1 0x2 ADD DUP1 SLOAD PUSH1 0x1 PUSH1 0x1 PUSH1 0xA0 SHL SUB NOT AND SWAP1 SSTORE JUMPDEST PUSH1 0x1 PUSH1 0x1 PUSH1 0xA0 SHL SUB DUP4 AND PUSH1 0x0 SWAP1 DUP2 MSTORE PUSH1 0x2 PUSH1 0x20 MSTORE PUSH1 0x40 DUP2 KECCAK256 SWAP1 DUP11 DUP11 DUP8 DUP2 DUP2 LT PUSH2 0x277B JUMPI PUSH2 0x277B PUSH2 0x3672 JUMP JUMPDEST SWAP1 POP PUSH1 0x20 MUL ADD CALLDATALOAD DUP2 MSTORE PUSH1 0x20 ADD SWAP1 DUP2 MSTORE PUSH1 0x20 ADD PUSH1 0x0 KECCAK256 PUSH1 0x0 DUP9 DUP9 DUP8 DUP2 DUP2 LT PUSH2 0x27A4 JUMPI PUSH2 0x27A4 PUSH2 0x3672 JUMP JUMPDEST PUSH1 0x20 SWAP1 DUP2 MUL SWAP3 SWAP1 SWAP3 ADD CALLDATALOAD DUP4 MSTORE POP DUP2 ADD SWAP2 SWAP1 SWAP2 MSTORE PUSH1 0x40 ADD PUSH1 0x0 SWAP1 DUP2 KECCAK256 DUP2 DUP2 SSTORE PUSH1 0x1 DUP2 ADD DUP1 SLOAD PUSH1 0x1 PUSH1 0x1 PUSH1 0xA8 SHL SUB NOT AND SWAP1 SSTORE PUSH1 0x2 ADD SSTORE POP DUP3 SWAP2 POP PUSH2 0x27E7 SWAP1 POP DUP2 PUSH2 0x3688 JUMP JUMPDEST SWAP2 POP POP PUSH2 0x214A JUMP JUMPDEST POP CALLVALUE DUP2 EQ PUSH1 0x40 MLOAD DUP1 PUSH1 0x60 ADD PUSH1 0x40 MSTORE DUP1 PUSH1 0x2D DUP2 MSTORE PUSH1 0x20 ADD PUSH2 0x382C PUSH1 0x2D SWAP2 CODECOPY SWAP1 PUSH2 0x282A JUMPI PUSH1 0x40 MLOAD PUSH3 0x461BCD PUSH1 0xE5 SHL DUP2 MSTORE PUSH1 0x4 ADD PUSH2 0x7BF SWAP2 SWAP1 PUSH2 0x33AD JUMP JUMPDEST POP POP POP POP POP POP POP POP JUMP JUMPDEST PUSH1 0x6 SLOAD PUSH1 0x1 PUSH1 0x1 PUSH1 0xA0 SHL SUB AND CALLER EQ PUSH2 0x2868 JUMPI PUSH1 0x40 MLOAD PUSH3 0x461BCD PUSH1 0xE5 SHL DUP2 MSTORE PUSH1 0x20 PUSH1 0x4 DUP3 ADD MSTORE PUSH1 0x0 PUSH1 0x24 DUP3 ADD MSTORE PUSH1 0x44 ADD PUSH2 0x7BF JUMP JUMPDEST PUSH1 0x1 PUSH1 0x1 PUSH1 0xA0 SHL SUB DUP2 AND PUSH2 0x2898 JUMPI PUSH1 0x40 MLOAD PUSH3 0x461BCD PUSH1 0xE5 SHL DUP2 MSTORE PUSH1 0x20 PUSH1 0x4 DUP3 ADD MSTORE PUSH1 0x0 PUSH1 0x24 DUP3 ADD MSTORE PUSH1 0x44 ADD PUSH2 0x7BF JUMP JUMPDEST PUSH1 0x5 DUP1 SLOAD PUSH1 0x1 PUSH1 0x1 PUSH1 0xA0 SHL SUB NOT AND PUSH1 0x1 PUSH1 0x1 PUSH1 0xA0 SHL SUB SWAP3 SWAP1 SWAP3 AND SWAP2 SWAP1 SWAP2 OR SWAP1 SSTORE JUMP JUMPDEST PUSH1 0x40 MLOAD DUP1 PUSH1 0x60 ADD PUSH1 0x40 MSTORE DUP1 PUSH1 0x2D DUP2 MSTORE PUSH1 0x20 ADD PUSH2 0x382C PUSH1 0x2D SWAP2 CODECOPY DUP2 JUMP JUMPDEST PUSH1 0x0 DUP1 JUMPDEST DUP7 DUP2 LT ISZERO PUSH2 0x2ADE JUMPI PUSH1 0x0 DUP9 DUP9 DUP4 DUP2 DUP2 LT PUSH2 0x28F6 JUMPI PUSH2 0x28F6 PUSH2 0x3672 JUMP JUMPDEST SWAP1 POP PUSH1 0x20 MUL ADD PUSH1 0x20 DUP2 ADD SWAP1 PUSH2 0x290B SWAP2 SWAP1 PUSH2 0x34A4 JUMP JUMPDEST SWAP1 POP PUSH1 0x0 PUSH1 0x8 SLOAD PUSH1 0x1 PUSH2 0x291E SWAP2 SWAP1 PUSH2 0x365F JUMP JUMPDEST SWAP1 POP PUSH1 0x40 MLOAD DUP1 PUSH1 0x80 ADD PUSH1 0x40 MSTORE DUP1 DUP3 DUP2 MSTORE PUSH1 0x20 ADD PUSH1 0x1 ISZERO ISZERO DUP2 MSTORE PUSH1 0x20 ADD CALLER PUSH1 0x1 PUSH1 0x1 PUSH1 0xA0 SHL SUB AND DUP2 MSTORE PUSH1 0x20 ADD DUP8 DUP8 DUP7 DUP2 DUP2 LT PUSH2 0x295B JUMPI PUSH2 0x295B PUSH2 0x3672 JUMP JUMPDEST SWAP1 POP PUSH1 0x20 MUL ADD CALLDATALOAD DUP2 MSTORE POP PUSH1 0x2 PUSH1 0x0 DUP5 PUSH1 0x1 PUSH1 0x1 PUSH1 0xA0 SHL SUB AND PUSH1 0x1 PUSH1 0x1 PUSH1 0xA0 SHL SUB AND DUP2 MSTORE PUSH1 0x20 ADD SWAP1 DUP2 MSTORE PUSH1 0x20 ADD PUSH1 0x0 KECCAK256 PUSH1 0x0 DUP11 DUP11 DUP8 DUP2 DUP2 LT PUSH2 0x299E JUMPI PUSH2 0x299E PUSH2 0x3672 JUMP JUMPDEST PUSH1 0x20 SWAP1 DUP2 MUL SWAP3 SWAP1 SWAP3 ADD CALLDATALOAD DUP4 MSTORE POP DUP2 DUP2 ADD SWAP3 SWAP1 SWAP3 MSTORE PUSH1 0x40 SWAP1 DUP2 ADD PUSH1 0x0 SWAP1 DUP2 KECCAK256 DUP6 DUP3 MSTORE DUP4 MSTORE DUP2 SWAP1 KECCAK256 DUP4 MLOAD DUP2 SSTORE SWAP2 DUP4 ADD MLOAD PUSH1 0x1 DUP4 ADD DUP1 SLOAD SWAP3 DUP6 ADD MLOAD PUSH1 0x1 PUSH1 0x1 PUSH1 0xA0 SHL SUB AND PUSH2 0x100 MUL PUSH21 0xFFFFFFFFFFFFFFFFFFFFFFFFFFFFFFFFFFFFFFFF00 NOT SWAP3 ISZERO ISZERO SWAP3 SWAP1 SWAP3 AND PUSH1 0x1 PUSH1 0x1 PUSH1 0xA8 SHL SUB NOT SWAP1 SWAP4 AND SWAP3 SWAP1 SWAP3 OR OR SWAP1 SSTORE PUSH1 0x60 SWAP1 SWAP2 ADD MLOAD PUSH1 0x2 SWAP1 SWAP2 ADD SSTORE CALLER DUP9 DUP9 DUP6 DUP2 DUP2 LT PUSH2 0x2A33 JUMPI PUSH2 0x2A33 PUSH2 0x3672 JUMP JUMPDEST SWAP1 POP PUSH1 0x20 MUL ADD CALLDATALOAD DUP4 PUSH1 0x1 PUSH1 0x1 PUSH1 0xA0 SHL SUB AND PUSH32 0xB6F01CF086C6AAFCBF84635BD5CAD3FA1064D5877595330A8EA85625EA31D22F DUP5 DUP11 DUP11 DUP10 DUP2 DUP2 LT PUSH2 0x2A78 JUMPI PUSH2 0x2A78 PUSH2 0x3672 JUMP JUMPDEST SWAP1 POP PUSH1 0x20 MUL ADD CALLDATALOAD PUSH1 0x40 MLOAD PUSH2 0x2A96 SWAP3 SWAP2 SWAP1 SWAP2 DUP3 MSTORE PUSH1 0x20 DUP3 ADD MSTORE PUSH1 0x40 ADD SWAP1 JUMP JUMPDEST PUSH1 0x40 MLOAD DUP1 SWAP2 SUB SWAP1 LOG4 PUSH1 0x8 DUP2 SWAP1 SSTORE DUP6 DUP6 DUP5 DUP2 DUP2 LT PUSH2 0x2AB5 JUMPI PUSH2 0x2AB5 PUSH2 0x3672 JUMP JUMPDEST SWAP1 POP PUSH1 0x20 MUL ADD CALLDATALOAD DUP5 PUSH2 0x2AC7 SWAP2 SWAP1 PUSH2 0x365F JUMP JUMPDEST SWAP4 POP POP POP DUP1 DUP1 PUSH2 0x2AD6 SWAP1 PUSH2 0x3688 JUMP JUMPDEST SWAP2 POP POP PUSH2 0x28DA JUMP JUMPDEST POP CALLVALUE DUP2 EQ PUSH1 0x40 MLOAD DUP1 PUSH1 0x60 ADD PUSH1 0x40 MSTORE DUP1 PUSH1 0x24 DUP2 MSTORE PUSH1 0x20 ADD PUSH2 0x3808 PUSH1 0x24 SWAP2 CODECOPY SWAP1 PUSH2 0x282A JUMPI PUSH1 0x40 MLOAD PUSH3 0x461BCD PUSH1 0xE5 SHL DUP2 MSTORE PUSH1 0x4 ADD PUSH2 0x7BF SWAP2 SWAP1 PUSH2 0x33AD JUMP JUMPDEST PUSH1 0x40 MLOAD DUP1 PUSH1 0x60 ADD PUSH1 0x40 MSTORE DUP1 PUSH1 0x25 DUP2 MSTORE PUSH1 0x20 ADD PUSH2 0x379C PUSH1 0x25 SWAP2 CODECOPY DUP2 JUMP JUMPDEST PUSH1 0x40 MLOAD PUSH32 0x6352211E00000000000000000000000000000000000000000000000000000000 DUP2 MSTORE PUSH1 0x4 DUP2 ADD DUP3 SWAP1 MSTORE PUSH1 0x0 SWAP1 PUSH1 0x1 PUSH1 0x1 PUSH1 0xA0 SHL SUB DUP6 AND SWAP1 PUSH4 0x6352211E SWAP1 PUSH1 0x24 ADD PUSH1 0x20 PUSH1 0x40 MLOAD DUP1 DUP4 SUB DUP2 DUP7 GAS STATICCALL SWAP3 POP POP POP DUP1 ISZERO PUSH2 0x2BB2 JUMPI POP PUSH1 0x40 DUP1 MLOAD PUSH1 0x1F RETURNDATASIZE SWAP1 DUP2 ADD PUSH1 0x1F NOT AND DUP3 ADD SWAP1 SWAP3 MSTORE PUSH2 0x2BAF SWAP2 DUP2 ADD SWAP1 PUSH2 0x36A1 JUMP JUMPDEST PUSH1 0x1 JUMPDEST PUSH2 0x2CAE JUMPI RETURNDATASIZE DUP1 DUP1 ISZERO PUSH2 0x2BE0 JUMPI PUSH1 0x40 MLOAD SWAP2 POP PUSH1 0x1F NOT PUSH1 0x3F RETURNDATASIZE ADD AND DUP3 ADD PUSH1 0x40 MSTORE RETURNDATASIZE DUP3 MSTORE RETURNDATASIZE PUSH1 0x0 PUSH1 0x20 DUP5 ADD RETURNDATACOPY PUSH2 0x2BE5 JUMP JUMPDEST PUSH1 0x60 SWAP2 POP JUMPDEST POP PUSH1 0x40 MLOAD PUSH31 0xFDD58E00000000000000000000000000000000000000000000000000000000 DUP2 MSTORE PUSH1 0x1 PUSH1 0x1 PUSH1 0xA0 SHL SUB DUP6 DUP2 AND PUSH1 0x4 DUP4 ADD MSTORE PUSH1 0x24 DUP3 ADD DUP6 SWAP1 MSTORE DUP7 AND SWAP1 PUSH3 0xFDD58E SWAP1 PUSH1 0x44 ADD PUSH1 0x20 PUSH1 0x40 MLOAD DUP1 DUP4 SUB DUP2 DUP7 GAS STATICCALL SWAP3 POP POP POP DUP1 ISZERO PUSH2 0x2C66 JUMPI POP PUSH1 0x40 DUP1 MLOAD PUSH1 0x1F RETURNDATASIZE SWAP1 DUP2 ADD PUSH1 0x1F NOT AND DUP3 ADD SWAP1 SWAP3 MSTORE PUSH2 0x2C63 SWAP2 DUP2 ADD SWAP1 PUSH2 0x36BE JUMP JUMPDEST PUSH1 0x1 JUMPDEST PUSH2 0x2CA5 JUMPI RETURNDATASIZE DUP1 DUP1 ISZERO PUSH2 0x2C94 JUMPI PUSH1 0x40 MLOAD SWAP2 POP PUSH1 0x1F NOT PUSH1 0x3F RETURNDATASIZE ADD AND DUP3 ADD PUSH1 0x40 MSTORE RETURNDATASIZE DUP3 MSTORE RETURNDATASIZE PUSH1 0x0 PUSH1 0x20 DUP5 ADD RETURNDATACOPY PUSH2 0x2C99 JUMP JUMPDEST PUSH1 0x60 SWAP2 POP JUMPDEST POP PUSH1 0x0 SWAP3 POP POP POP PUSH2 0x2CD7 JUMP JUMPDEST SWAP2 POP PUSH2 0x2CD7 SWAP1 POP JUMP JUMPDEST DUP4 PUSH1 0x1 PUSH1 0x1 PUSH1 0xA0 SHL SUB AND DUP2 PUSH1 0x1 PUSH1 0x1 PUSH1 0xA0 SHL SUB AND SUB PUSH2 0x2CD1 JUMPI PUSH1 0x1 SWAP2 POP POP PUSH2 0x2CD7 JUMP JUMPDEST PUSH1 0x0 SWAP2 POP POP JUMPDEST SWAP4 SWAP3 POP POP POP JUMP JUMPDEST PUSH1 0x40 MLOAD PUSH4 0x95EA7B3 PUSH1 0xE0 SHL DUP2 MSTORE PUSH1 0x1 PUSH1 0x1 PUSH1 0xA0 SHL SUB DUP4 DUP2 AND PUSH1 0x4 DUP4 ADD MSTORE PUSH1 0x24 DUP3 ADD DUP4 SWAP1 MSTORE PUSH1 0x0 SWAP2 SWAP1 DUP6 AND SWAP1 PUSH4 0x95EA7B3 SWAP1 PUSH1 0x44 ADD PUSH1 0x0 PUSH1 0x40 MLOAD DUP1 DUP4 SUB DUP2 PUSH1 0x0 DUP8 DUP1 EXTCODESIZE ISZERO DUP1 ISZERO PUSH2 0x2D2C JUMPI PUSH1 0x0 DUP1 REVERT JUMPDEST POP GAS CALL SWAP3 POP POP POP DUP1 ISZERO PUSH2 0x2D3D JUMPI POP PUSH1 0x1 JUMPDEST PUSH2 0x2E05 JUMPI RETURNDATASIZE DUP1 DUP1 ISZERO PUSH2 0x2D6B JUMPI PUSH1 0x40 MLOAD SWAP2 POP PUSH1 0x1F NOT PUSH1 0x3F RETURNDATASIZE ADD AND DUP3 ADD PUSH1 0x40 MSTORE RETURNDATASIZE DUP3 MSTORE RETURNDATASIZE PUSH1 0x0 PUSH1 0x20 DUP5 ADD RETURNDATACOPY PUSH2 0x2D70 JUMP JUMPDEST PUSH1 0x60 SWAP2 POP JUMPDEST POP PUSH1 0x40 MLOAD PUSH4 0xA22CB465 PUSH1 0xE0 SHL DUP2 MSTORE PUSH1 0x1 PUSH1 0x1 PUSH1 0xA0 SHL SUB DUP6 DUP2 AND PUSH1 0x4 DUP4 ADD MSTORE PUSH1 0x1 PUSH1 0x24 DUP4 ADD MSTORE DUP7 AND SWAP1 PUSH4 0xA22CB465 SWAP1 PUSH1 0x44 ADD JUMPDEST PUSH1 0x0 PUSH1 0x40 MLOAD DUP1 DUP4 SUB DUP2 PUSH1 0x0 DUP8 DUP1 EXTCODESIZE ISZERO DUP1 ISZERO PUSH2 0x2DBC JUMPI PUSH1 0x0 DUP1 REVERT JUMPDEST POP GAS CALL SWAP3 POP POP POP DUP1 ISZERO PUSH2 0x2DCD JUMPI POP PUSH1 0x1 JUMPDEST PUSH2 0x2DFB JUMPI RETURNDATASIZE DUP1 DUP1 ISZERO PUSH2 0x2C94 JUMPI PUSH1 0x40 MLOAD SWAP2 POP PUSH1 0x1F NOT PUSH1 0x3F RETURNDATASIZE ADD AND DUP3 ADD PUSH1 0x40 MSTORE RETURNDATASIZE DUP3 MSTORE RETURNDATASIZE PUSH1 0x0 PUSH1 0x20 DUP5 ADD RETURNDATACOPY PUSH2 0x2C99 JUMP JUMPDEST PUSH1 0x1 SWAP2 POP POP PUSH2 0x2CD7 JUMP JUMPDEST POP PUSH1 0x1 PUSH2 0x2CD7 JUMP JUMPDEST PUSH1 0x40 MLOAD PUSH32 0xB88D4FDE00000000000000000000000000000000000000000000000000000000 DUP2 MSTORE PUSH1 0x0 SWAP1 PUSH1 0x1 PUSH1 0x1 PUSH1 0xA0 SHL SUB DUP8 AND SWAP1 PUSH4 0xB88D4FDE SWAP1 PUSH2 0x2E5B SWAP1 DUP9 SWAP1 DUP9 SWAP1 DUP9 SWAP1 DUP9 SWAP1 PUSH1 0x4 ADD PUSH2 0x36D7 JUMP JUMPDEST PUSH1 0x0 PUSH1 0x40 MLOAD DUP1 DUP4 SUB DUP2 PUSH1 0x0 DUP8 DUP1 EXTCODESIZE ISZERO DUP1 ISZERO PUSH2 0x2E75 JUMPI PUSH1 0x0 DUP1 REVERT JUMPDEST POP GAS CALL SWAP3 POP POP POP DUP1 ISZERO PUSH2 0x2E86 JUMPI POP PUSH1 0x1 JUMPDEST PUSH2 0x2F7C JUMPI RETURNDATASIZE DUP1 DUP1 ISZERO PUSH2 0x2EB4 JUMPI PUSH1 0x40 MLOAD SWAP2 POP PUSH1 0x1F NOT PUSH1 0x3F RETURNDATASIZE ADD AND DUP3 ADD PUSH1 0x40 MSTORE RETURNDATASIZE DUP3 MSTORE RETURNDATASIZE PUSH1 0x0 PUSH1 0x20 DUP5 ADD RETURNDATACOPY PUSH2 0x2EB9 JUMP JUMPDEST PUSH1 0x60 SWAP2 POP JUMPDEST POP PUSH1 0x40 MLOAD PUSH32 0xF242432A00000000000000000000000000000000000000000000000000000000 DUP2 MSTORE PUSH1 0x1 PUSH1 0x1 PUSH1 0xA0 SHL SUB DUP9 AND SWAP1 PUSH4 0xF242432A SWAP1 PUSH2 0x2F08 SWAP1 DUP10 SWAP1 DUP10 SWAP1 DUP10 SWAP1 PUSH1 0x1 SWAP1 DUP11 SWAP1 PUSH1 0x4 ADD PUSH2 0x3713 JUMP JUMPDEST PUSH1 0x0 PUSH1 0x40 MLOAD DUP1 DUP4 SUB DUP2 PUSH1 0x0 DUP8 DUP1 EXTCODESIZE ISZERO DUP1 ISZERO PUSH2 0x2F22 JUMPI PUSH1 0x0 DUP1 REVERT JUMPDEST POP GAS CALL SWAP3 POP POP POP DUP1 ISZERO PUSH2 0x2F33 JUMPI POP PUSH1 0x1 JUMPDEST PUSH2 0x2F72 JUMPI RETURNDATASIZE DUP1 DUP1 ISZERO PUSH2 0x2F61 JUMPI PUSH1 0x40 MLOAD SWAP2 POP PUSH1 0x1F NOT PUSH1 0x3F RETURNDATASIZE ADD AND DUP3 ADD PUSH1 0x40 MSTORE RETURNDATASIZE DUP3 MSTORE RETURNDATASIZE PUSH1 0x0 PUSH1 0x20 DUP5 ADD RETURNDATACOPY PUSH2 0x2F66 JUMP JUMPDEST PUSH1 0x60 SWAP2 POP JUMPDEST POP PUSH1 0x0 SWAP3 POP POP POP PUSH2 0x2F80 JUMP JUMPDEST PUSH1 0x1 SWAP2 POP POP PUSH2 0x2F80 JUMP JUMPDEST POP PUSH1 0x1 JUMPDEST SWAP6 SWAP5 POP POP POP POP POP JUMP JUMPDEST PUSH1 0x0 PUSH2 0x2710 PUSH1 0x7 SLOAD DUP4 PUSH2 0x2F9C SWAP2 SWAP1 PUSH2 0x3648 JUMP JUMPDEST PUSH2 0x2FA6 SWAP2 SWAP1 PUSH2 0x374B JUMP JUMPDEST SWAP1 POP PUSH1 0x0 DUP1 PUSH2 0x2FB6 DUP8 DUP8 DUP7 PUSH2 0x314B JUMP JUMPDEST SWAP1 SWAP3 POP SWAP1 POP PUSH1 0x0 DUP2 PUSH2 0x2FC8 DUP6 DUP8 PUSH2 0x3635 JUMP JUMPDEST PUSH2 0x2FD2 SWAP2 SWAP1 PUSH2 0x3635 JUMP JUMPDEST SWAP1 POP PUSH1 0x0 DUP3 GT DUP1 ISZERO PUSH2 0x2FEC JUMPI POP PUSH1 0x1 PUSH1 0x1 PUSH1 0xA0 SHL SUB DUP4 AND ISZERO ISZERO JUMPDEST ISZERO PUSH2 0x301F JUMPI PUSH1 0x1 PUSH1 0x1 PUSH1 0xA0 SHL SUB DUP4 AND PUSH1 0x0 SWAP1 DUP2 MSTORE PUSH1 0x4 PUSH1 0x20 MSTORE PUSH1 0x40 DUP2 KECCAK256 DUP1 SLOAD DUP5 SWAP3 SWAP1 PUSH2 0x3019 SWAP1 DUP5 SWAP1 PUSH2 0x365F JUMP JUMPDEST SWAP1 SWAP2 SSTORE POP POP JUMPDEST PUSH1 0x5 SLOAD PUSH1 0x1 PUSH1 0x1 PUSH1 0xA0 SHL SUB AND PUSH1 0x0 SWAP1 DUP2 MSTORE PUSH1 0x4 PUSH1 0x20 MSTORE PUSH1 0x40 DUP2 KECCAK256 DUP1 SLOAD DUP7 SWAP3 SWAP1 PUSH2 0x3049 SWAP1 DUP5 SWAP1 PUSH2 0x365F JUMP JUMPDEST SWAP1 SWAP2 SSTORE POP POP PUSH1 0x1 PUSH1 0x1 PUSH1 0xA0 SHL SUB DUP7 AND PUSH1 0x0 SWAP1 DUP2 MSTORE PUSH1 0x4 PUSH1 0x20 MSTORE PUSH1 0x40 DUP2 KECCAK256 DUP1 SLOAD DUP4 SWAP3 SWAP1 PUSH2 0x3076 SWAP1 DUP5 SWAP1 PUSH2 0x365F JUMP JUMPDEST SWAP1 SWAP2 SSTORE POP POP POP POP POP POP POP POP POP POP JUMP JUMPDEST PUSH1 0x40 MLOAD PUSH4 0x95EA7B3 PUSH1 0xE0 SHL DUP2 MSTORE PUSH1 0x0 PUSH1 0x4 DUP3 ADD DUP2 SWAP1 MSTORE PUSH1 0x24 DUP3 ADD DUP4 SWAP1 MSTORE SWAP1 PUSH1 0x1 PUSH1 0x1 PUSH1 0xA0 SHL SUB DUP6 AND SWAP1 PUSH4 0x95EA7B3 SWAP1 PUSH1 0x44 ADD PUSH1 0x0 PUSH1 0x40 MLOAD DUP1 DUP4 SUB DUP2 PUSH1 0x0 DUP8 DUP1 EXTCODESIZE ISZERO DUP1 ISZERO PUSH2 0x30D1 JUMPI PUSH1 0x0 DUP1 REVERT JUMPDEST POP GAS CALL SWAP3 POP POP POP DUP1 ISZERO PUSH2 0x30E2 JUMPI POP PUSH1 0x1 JUMPDEST PUSH2 0x2E05 JUMPI RETURNDATASIZE DUP1 DUP1 ISZERO PUSH2 0x3110 JUMPI PUSH1 0x40 MLOAD SWAP2 POP PUSH1 0x1F NOT PUSH1 0x3F RETURNDATASIZE ADD AND DUP3 ADD PUSH1 0x40 MSTORE RETURNDATASIZE DUP3 MSTORE RETURNDATASIZE PUSH1 0x0 PUSH1 0x20 DUP5 ADD RETURNDATACOPY PUSH2 0x3115 JUMP JUMPDEST PUSH1 0x60 SWAP2 POP JUMPDEST POP PUSH1 0x40 MLOAD PUSH4 0xA22CB465 PUSH1 0xE0 SHL DUP2 MSTORE PUSH1 0x1 PUSH1 0x1 PUSH1 0xA0 SHL SUB DUP6 DUP2 AND PUSH1 0x4 DUP4 ADD MSTORE PUSH1 0x0 PUSH1 0x24 DUP4 ADD MSTORE DUP7 AND SWAP1 PUSH4 0xA22CB465 SWAP1 PUSH1 0x44 ADD PUSH2 0x2DA2 JUMP JUMPDEST PUSH1 0x0 DUP1 PUSH2 0x315F DUP6 PUSH4 0x152A902D PUSH1 0xE1 SHL PUSH2 0x31F4 JUMP JUMPDEST ISZERO PUSH2 0x31E5 JUMPI PUSH1 0x40 MLOAD PUSH4 0x152A902D PUSH1 0xE1 SHL DUP2 MSTORE PUSH1 0x4 DUP2 ADD DUP6 SWAP1 MSTORE PUSH1 0x24 DUP2 ADD DUP5 SWAP1 MSTORE PUSH1 0x0 SWAP1 DUP2 SWAP1 PUSH1 0x1 PUSH1 0x1 PUSH1 0xA0 SHL SUB DUP9 AND SWAP1 PUSH4 0x2A55205A SWAP1 PUSH1 0x44 ADD PUSH1 0x40 DUP1 MLOAD DUP1 DUP4 SUB DUP2 DUP7 GAS STATICCALL ISZERO DUP1 ISZERO PUSH2 0x31B4 JUMPI RETURNDATASIZE PUSH1 0x0 DUP1 RETURNDATACOPY RETURNDATASIZE PUSH1 0x0 REVERT JUMPDEST POP POP POP POP PUSH1 0x40 MLOAD RETURNDATASIZE PUSH1 0x1F NOT PUSH1 0x1F DUP3 ADD AND DUP3 ADD DUP1 PUSH1 0x40 MSTORE POP DUP2 ADD SWAP1 PUSH2 0x31D8 SWAP2 SWAP1 PUSH2 0x376D JUMP JUMPDEST SWAP1 SWAP5 POP SWAP3 POP PUSH2 0x31EC SWAP2 POP POP JUMP JUMPDEST POP PUSH1 0x0 SWAP1 POP DUP1 JUMPDEST SWAP4 POP SWAP4 SWAP2 POP POP JUMP JUMPDEST PUSH1 0x0 PUSH2 0x31FF DUP4 PUSH2 0x3219 JUMP JUMPDEST DUP1 ISZERO PUSH2 0x3210 JUMPI POP PUSH2 0x3210 DUP4 DUP4 PUSH2 0x3264 JUMP JUMPDEST SWAP1 POP JUMPDEST SWAP3 SWAP2 POP POP JUMP JUMPDEST PUSH1 0x0 PUSH2 0x322C DUP3 PUSH4 0x1FFC9A7 PUSH1 0xE0 SHL PUSH2 0x3264 JUMP JUMPDEST DUP1 ISZERO PUSH2 0x3213 JUMPI POP PUSH2 0x325D DUP3 PUSH32 0xFFFFFFFF00000000000000000000000000000000000000000000000000000000 PUSH2 0x3264 JUMP JUMPDEST ISZERO SWAP3 SWAP2 POP POP JUMP JUMPDEST PUSH1 0x40 DUP1 MLOAD PUSH32 0xFFFFFFFF00000000000000000000000000000000000000000000000000000000 DUP4 AND PUSH1 0x24 DUP1 DUP4 ADD SWAP2 SWAP1 SWAP2 MSTORE DUP3 MLOAD DUP1 DUP4 SUB SWAP1 SWAP2 ADD DUP2 MSTORE PUSH1 0x44 SWAP1 SWAP2 ADD SWAP1 SWAP2 MSTORE PUSH1 0x20 DUP1 DUP3 ADD DUP1 MLOAD PUSH28 0xFFFFFFFFFFFFFFFFFFFFFFFFFFFFFFFFFFFFFFFFFFFFFFFFFFFFFFFF AND PUSH4 0x1FFC9A7 PUSH1 0xE0 SHL OR DUP2 MSTORE DUP3 MLOAD PUSH1 0x0 SWAP4 SWAP3 DUP5 SWAP3 DUP4 SWAP3 DUP4 SWAP3 SWAP2 DUP4 SWAP2 SWAP1 DUP11 PUSH2 0x7530 STATICCALL SWAP3 POP RETURNDATASIZE SWAP2 POP PUSH1 0x0 MLOAD SWAP1 POP DUP3 DUP1 ISZERO PUSH2 0x3303 JUMPI POP PUSH1 0x20 DUP3 LT ISZERO JUMPDEST DUP1 ISZERO PUSH2 0x330F JUMPI POP PUSH1 0x0 DUP2 GT JUMPDEST SWAP8 SWAP7 POP POP POP POP POP POP POP JUMP JUMPDEST PUSH1 0x1 PUSH1 0x1 PUSH1 0xA0 SHL SUB DUP2 AND DUP2 EQ PUSH2 0x332F JUMPI PUSH1 0x0 DUP1 REVERT JUMPDEST POP JUMP JUMPDEST PUSH1 0x0 DUP1 PUSH1 0x0 PUSH1 0x60 DUP5 DUP7 SUB SLT ISZERO PUSH2 0x3347 JUMPI PUSH1 0x0 DUP1 REVERT JUMPDEST DUP4 CALLDATALOAD PUSH2 0x3352 DUP2 PUSH2 0x331A JUMP JUMPDEST SWAP6 PUSH1 0x20 DUP6 ADD CALLDATALOAD SWAP6 POP PUSH1 0x40 SWAP1 SWAP5 ADD CALLDATALOAD SWAP4 SWAP3 POP POP POP JUMP JUMPDEST PUSH1 0x0 DUP2 MLOAD DUP1 DUP5 MSTORE PUSH1 0x0 JUMPDEST DUP2 DUP2 LT ISZERO PUSH2 0x338D JUMPI PUSH1 0x20 DUP2 DUP6 ADD DUP2 ADD MLOAD DUP7 DUP4 ADD DUP3 ADD MSTORE ADD PUSH2 0x3371 JUMP JUMPDEST POP PUSH1 0x0 PUSH1 0x20 DUP3 DUP7 ADD ADD MSTORE PUSH1 0x20 PUSH1 0x1F NOT PUSH1 0x1F DUP4 ADD AND DUP6 ADD ADD SWAP2 POP POP SWAP3 SWAP2 POP POP JUMP JUMPDEST PUSH1 0x20 DUP2 MSTORE PUSH1 0x0 PUSH2 0x3210 PUSH1 0x20 DUP4 ADD DUP5 PUSH2 0x3367 JUMP JUMPDEST PUSH1 0x0 DUP1 PUSH1 0x40 DUP4 DUP6 SUB SLT ISZERO PUSH2 0x33D3 JUMPI PUSH1 0x0 DUP1 REVERT JUMPDEST DUP3 CALLDATALOAD PUSH2 0x33DE DUP2 PUSH2 0x331A JUMP JUMPDEST SWAP5 PUSH1 0x20 SWAP4 SWAP1 SWAP4 ADD CALLDATALOAD SWAP4 POP POP POP JUMP JUMPDEST PUSH1 0x0 DUP1 DUP4 PUSH1 0x1F DUP5 ADD SLT PUSH2 0x33FE JUMPI PUSH1 0x0 DUP1 REVERT JUMPDEST POP DUP2 CALLDATALOAD PUSH8 0xFFFFFFFFFFFFFFFF DUP2 GT ISZERO PUSH2 0x3416 JUMPI PUSH1 0x0 DUP1 REVERT JUMPDEST PUSH1 0x20 DUP4 ADD SWAP2 POP DUP4 PUSH1 0x20 DUP3 PUSH1 0x5 SHL DUP6 ADD ADD GT ISZERO PUSH2 0x3431 JUMPI PUSH1 0x0 DUP1 REVERT JUMPDEST SWAP3 POP SWAP3 SWAP1 POP JUMP JUMPDEST PUSH1 0x0 DUP1 PUSH1 0x0 DUP1 PUSH1 0x40 DUP6 DUP8 SUB SLT ISZERO PUSH2 0x344E JUMPI PUSH1 0x0 DUP1 REVERT JUMPDEST DUP5 CALLDATALOAD PUSH8 0xFFFFFFFFFFFFFFFF DUP1 DUP3 GT ISZERO PUSH2 0x3466 JUMPI PUSH1 0x0 DUP1 REVERT JUMPDEST PUSH2 0x3472 DUP9 DUP4 DUP10 ADD PUSH2 0x33EC JUMP JUMPDEST SWAP1 SWAP7 POP SWAP5 POP PUSH1 0x20 DUP8 ADD CALLDATALOAD SWAP2 POP DUP1 DUP3 GT ISZERO PUSH2 0x348B JUMPI PUSH1 0x0 DUP1 REVERT JUMPDEST POP PUSH2 0x3498 DUP8 DUP3 DUP9 ADD PUSH2 0x33EC JUMP JUMPDEST SWAP6 SWAP9 SWAP5 SWAP8 POP SWAP6 POP POP POP POP JUMP JUMPDEST PUSH1 0x0 PUSH1 0x20 DUP3 DUP5 SUB SLT ISZERO PUSH2 0x34B6 JUMPI PUSH1 0x0 DUP1 REVERT JUMPDEST DUP2 CALLDATALOAD PUSH2 0x2CD7 DUP2 PUSH2 0x331A JUMP JUMPDEST PUSH1 0x0 DUP1 PUSH1 0x0 DUP1 PUSH1 0x0 DUP1 PUSH1 0x0 DUP1 PUSH1 0x80 DUP10 DUP12 SUB SLT ISZERO PUSH2 0x34DD JUMPI PUSH1 0x0 DUP1 REVERT JUMPDEST DUP9 CALLDATALOAD PUSH8 0xFFFFFFFFFFFFFFFF DUP1 DUP3 GT ISZERO PUSH2 0x34F5 JUMPI PUSH1 0x0 DUP1 REVERT JUMPDEST PUSH2 0x3501 DUP13 DUP4 DUP14 ADD PUSH2 0x33EC JUMP JUMPDEST SWAP1 SWAP11 POP SWAP9 POP PUSH1 0x20 DUP12 ADD CALLDATALOAD SWAP2 POP DUP1 DUP3 GT ISZERO PUSH2 0x351A JUMPI PUSH1 0x0 DUP1 REVERT JUMPDEST PUSH2 0x3526 DUP13 DUP4 DUP14 ADD PUSH2 0x33EC JUMP JUMPDEST SWAP1 SWAP9 POP SWAP7 POP PUSH1 0x40 DUP12 ADD CALLDATALOAD SWAP2 POP DUP1 DUP3 GT ISZERO PUSH2 0x353F JUMPI PUSH1 0x0 DUP1 REVERT JUMPDEST PUSH2 0x354B DUP13 DUP4 DUP14 ADD PUSH2 0x33EC JUMP JUMPDEST SWAP1 SWAP7 POP SWAP5 POP PUSH1 0x60 DUP12 ADD CALLDATALOAD SWAP2 POP DUP1 DUP3 GT ISZERO PUSH2 0x3564 JUMPI PUSH1 0x0 DUP1 REVERT JUMPDEST POP PUSH2 0x3571 DUP12 DUP3 DUP13 ADD PUSH2 0x33EC JUMP JUMPDEST SWAP10 SWAP13 SWAP9 SWAP12 POP SWAP7 SWAP10 POP SWAP5 SWAP8 SWAP4 SWAP7 SWAP3 SWAP6 SWAP5 POP POP POP JUMP JUMPDEST PUSH1 0x0 DUP1 PUSH1 0x0 DUP1 PUSH1 0x0 DUP1 PUSH1 0x60 DUP8 DUP10 SUB SLT ISZERO PUSH2 0x359E JUMPI PUSH1 0x0 DUP1 REVERT JUMPDEST DUP7 CALLDATALOAD PUSH8 0xFFFFFFFFFFFFFFFF DUP1 DUP3 GT ISZERO PUSH2 0x35B6 JUMPI PUSH1 0x0 DUP1 REVERT JUMPDEST PUSH2 0x35C2 DUP11 DUP4 DUP12 ADD PUSH2 0x33EC JUMP JUMPDEST SWAP1 SWAP9 POP SWAP7 POP PUSH1 0x20 DUP10 ADD CALLDATALOAD SWAP2 POP DUP1 DUP3 GT ISZERO PUSH2 0x35DB JUMPI PUSH1 0x0 DUP1 REVERT JUMPDEST PUSH2 0x35E7 DUP11 DUP4 DUP12 ADD PUSH2 0x33EC JUMP JUMPDEST SWAP1 SWAP7 POP SWAP5 POP PUSH1 0x40 DUP10 ADD CALLDATALOAD SWAP2 POP DUP1 DUP3 GT ISZERO PUSH2 0x3600 JUMPI PUSH1 0x0 DUP1 REVERT JUMPDEST POP PUSH2 0x360D DUP10 DUP3 DUP11 ADD PUSH2 0x33EC JUMP JUMPDEST SWAP8 SWAP11 SWAP7 SWAP10 POP SWAP5 SWAP8 POP SWAP3 SWAP6 SWAP4 SWAP5 SWAP3 POP POP POP JUMP JUMPDEST PUSH4 0x4E487B71 PUSH1 0xE0 SHL PUSH1 0x0 MSTORE PUSH1 0x11 PUSH1 0x4 MSTORE PUSH1 0x24 PUSH1 0x0 REVERT JUMPDEST DUP2 DUP2 SUB DUP2 DUP2 GT ISZERO PUSH2 0x3213 JUMPI PUSH2 0x3213 PUSH2 0x361F JUMP JUMPDEST DUP1 DUP3 MUL DUP2 ISZERO DUP3 DUP3 DIV DUP5 EQ OR PUSH2 0x3213 JUMPI PUSH2 0x3213 PUSH2 0x361F JUMP JUMPDEST DUP1 DUP3 ADD DUP1 DUP3 GT ISZERO PUSH2 0x3213 JUMPI PUSH2 0x3213 PUSH2 0x361F JUMP JUMPDEST PUSH4 0x4E487B71 PUSH1 0xE0 SHL PUSH1 0x0 MSTORE PUSH1 0x32 PUSH1 0x4 MSTORE PUSH1 0x24 PUSH1 0x0 REVERT JUMPDEST PUSH1 0x0 PUSH1 0x1 DUP3 ADD PUSH2 0x369A JUMPI PUSH2 0x369A PUSH2 0x361F JUMP JUMPDEST POP PUSH1 0x1 ADD SWAP1 JUMP JUMPDEST PUSH1 0x0 PUSH1 0x20 DUP3 DUP5 SUB SLT ISZERO PUSH2 0x36B3 JUMPI PUSH1 0x0 DUP1 REVERT JUMPDEST DUP2 MLOAD PUSH2 0x2CD7 DUP2 PUSH2 0x331A JUMP JUMPDEST PUSH1 0x0 PUSH1 0x20 DUP3 DUP5 SUB SLT ISZERO PUSH2 0x36D0 JUMPI PUSH1 0x0 DUP1 REVERT JUMPDEST POP MLOAD SWAP2 SWAP1 POP JUMP JUMPDEST PUSH1 0x0 PUSH1 0x1 PUSH1 0x1 PUSH1 0xA0 SHL SUB DUP1 DUP8 AND DUP4 MSTORE DUP1 DUP7 AND PUSH1 0x20 DUP5 ADD MSTORE POP DUP4 PUSH1 0x40 DUP4 ADD MSTORE PUSH1 0x80 PUSH1 0x60 DUP4 ADD MSTORE PUSH2 0x3709 PUSH1 0x80 DUP4 ADD DUP5 PUSH2 0x3367 JUMP JUMPDEST SWAP7 SWAP6 POP POP POP POP POP POP JUMP JUMPDEST PUSH1 0x0 PUSH1 0x1 PUSH1 0x1 PUSH1 0xA0 SHL SUB DUP1 DUP9 AND DUP4 MSTORE DUP1 DUP8 AND PUSH1 0x20 DUP5 ADD MSTORE POP DUP5 PUSH1 0x40 DUP4 ADD MSTORE DUP4 PUSH1 0x60 DUP4 ADD MSTORE PUSH1 0xA0 PUSH1 0x80 DUP4 ADD MSTORE PUSH2 0x330F PUSH1 0xA0 DUP4 ADD DUP5 PUSH2 0x3367 JUMP JUMPDEST PUSH1 0x0 DUP3 PUSH2 0x3768 JUMPI PUSH4 0x4E487B71 PUSH1 0xE0 SHL PUSH1 0x0 MSTORE PUSH1 0x12 PUSH1 0x4 MSTORE PUSH1 0x24 PUSH1 0x0 REVERT JUMPDEST POP DIV SWAP1 JUMP JUMPDEST PUSH1 0x0 DUP1 PUSH1 0x40 DUP4 DUP6 SUB SLT ISZERO PUSH2 0x3780 JUMPI PUSH1 0x0 DUP1 REVERT JUMPDEST DUP3 MLOAD PUSH2 0x378B DUP2 PUSH2 0x331A JUMP JUMPDEST PUSH1 0x20 SWAP4 SWAP1 SWAP4 ADD MLOAD SWAP3 SWAP5 SWAP3 SWAP4 POP POP POP JUMP INVALID 0x4D PUSH2 0x726B PUSH6 0x74706C616365 GASPRICE GASPRICE PUSH15 0x6F7420612063726561746F72206F66 KECCAK256 PUSH21 0x6865206269644D61726B6574706C6163653A3A6E6F PUSH21 0x20612063726561746F72206F66207468652061736B 0x4D PUSH2 0x726B PUSH6 0x74706C616365 GASPRICE GASPRICE PUSH2 0x736B KECCAK256 PUSH4 0x72656174 PUSH16 0x72206E6F74206F776E65724D61726B65 PUSH21 0x706C6163653A3A696E73756666696369656E742065 PUSH21 0x6865722073656E744D61726B6574706C6163653A3A PUSH2 0x736B KECCAK256 PUSH17 0x7269636520686967686572207468616E20 PUSH20 0x656E742076616C75654D61726B6574706C616365 GASPRICE GASPRICE PUSH15 0x6F7420616E206F776E6572206F6620 PUSH21 0x6F6B656E204944A26469706673582212201154B644 0x1F DUP5 LOG4 CREATE CALLCODE ADDMOD PUSH8 0x642D76BF4BB15E93 PUSH23 0x89347AFE6FC35FCE15B69C8C64736F6C63430008130033 "},"methodIdentifiers":{"REVERT_ASK_DOES_NOT_EXIST()":"13ca384a","REVERT_ASK_INSUFFICIENT_VALUE()":"e2ea8b5f","REVERT_ASK_IS_RESERVED()":"d9cfeedf","REVERT_ASK_SELLER_NOT_OWNER()":"3bd36a82","REVERT_BID_TOO_LOW()":"6f92eb3d","REVERT_CANT_ACCEPT_OWN_ASK()":"4a30e50f","REVERT_INSUFFICIENT_ETHER()":"2bce9c56","REVERT_NFT_NOT_SENT()":"09e97095","REVERT_NOT_A_CREATOR_OF_ASK()":"355823c3","REVERT_NOT_A_CREATOR_OF_BID()":"faf06888","REVERT_NOT_OWNER_OF_TOKEN_ID()":"a9fdb8a7","REVERT_OWNER_OF_TOKEN_ID()":"a6774b7e","acceptAsk(address[],uint256[])":"3b3facda","acceptBid(address[],uint256[],uint256[])":"db9941f0","acceptCollectionOffer(address,uint256,uint256)":"08d73d13","asks(address,uint256)":"e22d4f7d","bids(address,uint256,uint256)":"46d02934","cancelAsk(address[],uint256[])":"a613b6a9","cancelBid(address[],uint256[],uint256[])":"ae25a412","cancelCollectionOffer(address,uint256)":"386e88ed","changeBeneficiary(address)":"dc070657","collectionOffers(address,uint256)":"7495c6ac","createAsk(address[],uint256[],uint256[],address[])":"835a55ff","createBid(address[],uint256[],uint256[])":"f778550e","createCollectionOffer(address,uint256,uint256)":"d8cfc775","escrow(address)":"57d3c7c3","initialize(address,uint256)":"cd6dc687","revokeAdmin()":"0d6aef04","withdraw()":"3ccfd60b"}},"storageLayout":{"storage":[{"astId":6,"contract":"contracts/Marketplace.sol:Marketplace","label":"_initialized","offset":0,"slot":"0","type":"t_uint8"},{"astId":9,"contract":"contracts/Marketplace.sol:Marketplace","label":"_initializing","offset":1,"slot":"0","type":"t_bool"},{"astId":1302,"contract":"contracts/Marketplace.sol:Marketplace","label":"asks","offset":0,"slot":"1","type":"t_mapping(t_address,t_mapping(t_uint256,t_struct(Ask)3286_storage))"},{"astId":1311,"contract":"contracts/Marketplace.sol:Marketplace","label":"bids","offset":0,"slot":"2","type":"t_mapping(t_address,t_mapping(t_uint256,t_mapping(t_uint256,t_struct(Bid)3295_storage)))"},{"astId":1318,"contract":"contracts/Marketplace.sol:Marketplace","label":"collectionOffers","offset":0,"slot":"3","type":"t_mapping(t_address,t_mapping(t_uint256,t_struct(CollectionOffer)3304_storage))"},{"astId":1322,"contract":"contracts/Marketplace.sol:Marketplace","label":"escrow","offset":0,"slot":"4","type":"t_mapping(t_address,t_uint256)"},{"astId":1324,"contract":"contracts/Marketplace.sol:Marketplace","label":"beneficiary","offset":0,"slot":"5","type":"t_address_payable"},{"astId":1326,"contract":"contracts/Marketplace.sol:Marketplace","label":"admin","offset":0,"slot":"6","type":"t_address"},{"astId":1328,"contract":"contracts/Marketplace.sol:Marketplace","label":"marketFee","offset":0,"slot":"7","type":"t_uint256"},{"astId":1331,"contract":"contracts/Marketplace.sol:Marketplace","label":"current_bid_id","offset":0,"slot":"8","type":"t_uint256"},{"astId":1334,"contract":"contracts/Marketplace.sol:Marketplace","label":"current_collection_offer_id","offset":0,"slot":"9","type":"t_uint256"}],"types":{"t_address":{"encoding":"inplace","label":"address","numberOfBytes":"20"},"t_address_payable":{"encoding":"inplace","label":"address payable","numberOfBytes":"20"},"t_bool":{"encoding":"inplace","label":"bool","numberOfBytes":"1"},"t_mapping(t_address,t_mapping(t_uint256,t_mapping(t_uint256,t_struct(Bid)3295_storage)))":{"encoding":"mapping","key":"t_address","label":"mapping(address => mapping(uint256 => mapping(uint256 => struct IMarketplace.Bid)))","numberOfBytes":"32","value":"t_mapping(t_uint256,t_mapping(t_uint256,t_struct(Bid)3295_storage))"},"t_mapping(t_address,t_mapping(t_uint256,t_struct(Ask)3286_storage))":{"encoding":"mapping","key":"t_address","label":"mapping(address => mapping(uint256 => struct IMarketplace.Ask))","numberOfBytes":"32","value":"t_mapping(t_uint256,t_struct(Ask)3286_storage)"},"t_mapping(t_address,t_mapping(t_uint256,t_struct(CollectionOffer)3304_storage))":{"encoding":"mapping","key":"t_address","label":"mapping(address => mapping(uint256 => struct IMarketplace.CollectionOffer))","numberOfBytes":"32","value":"t_mapping(t_uint256,t_struct(CollectionOffer)3304_storage)"},"t_mapping(t_address,t_uint256)":{"encoding":"mapping","key":"t_address","label":"mapping(address => uint256)","numberOfBytes":"32","value":"t_uint256"},"t_mapping(t_uint256,t_mapping(t_uint256,t_struct(Bid)3295_storage))":{"encoding":"mapping","key":"t_uint256","label":"mapping(uint256 => mapping(uint256 => struct IMarketplace.Bid))","numberOfBytes":"32","value":"t_mapping(t_uint256,t_struct(Bid)3295_storage)"},"t_mapping(t_uint256,t_struct(Ask)3286_storage)":{"encoding":"mapping","key":"t_uint256","label":"mapping(uint256 => struct IMarketplace.Ask)","numberOfBytes":"32","value":"t_struct(Ask)3286_storage"},"t_mapping(t_uint256,t_struct(Bid)3295_storage)":{"encoding":"mapping","key":"t_uint256","label":"mapping(uint256 => struct IMarketplace.Bid)","numberOfBytes":"32","value":"t_struct(Bid)3295_storage"},"t_mapping(t_uint256,t_struct(CollectionOffer)3304_storage)":{"encoding":"mapping","key":"t_uint256","label":"mapping(uint256 => struct IMarketplace.CollectionOffer)","numberOfBytes":"32","value":"t_struct(CollectionOffer)3304_storage"},"t_struct(Ask)3286_storage":{"encoding":"inplace","label":"struct IMarketplace.Ask","members":[{"astId":3279,"contract":"contracts/Marketplace.sol:Marketplace","label":"exists","offset":0,"slot":"0","type":"t_bool"},{"astId":3281,"contract":"contracts/Marketplace.sol:Marketplace","label":"seller","offset":1,"slot":"0","type":"t_address"},{"astId":3283,"contract":"contracts/Marketplace.sol:Marketplace","label":"price","offset":0,"slot":"1","type":"t_uint256"},{"astId":3285,"contract":"contracts/Marketplace.sol:Marketplace","label":"to","offset":0,"slot":"2","type":"t_address"}],"numberOfBytes":"96"},"t_struct(Bid)3295_storage":{"encoding":"inplace","label":"struct IMarketplace.Bid","members":[{"astId":3288,"contract":"contracts/Marketplace.sol:Marketplace","label":"bid_id","offset":0,"slot":"0","type":"t_uint256"},{"astId":3290,"contract":"contracts/Marketplace.sol:Marketplace","label":"exists","offset":0,"slot":"1","type":"t_bool"},{"astId":3292,"contract":"contracts/Marketplace.sol:Marketplace","label":"buyer","offset":1,"slot":"1","type":"t_address"},{"astId":3294,"contract":"contracts/Marketplace.sol:Marketplace","label":"price","offset":0,"slot":"2","type":"t_uint256"}],"numberOfBytes":"96"},"t_struct(CollectionOffer)3304_storage":{"encoding":"inplace","label":"struct IMarketplace.CollectionOffer","members":[{"astId":3297,"contract":"contracts/Marketplace.sol:Marketplace","label":"collection_offer_id","offset":0,"slot":"0","type":"t_uint256"},{"astId":3299,"contract":"contracts/Marketplace.sol:Marketplace","label":"bidder","offset":0,"slot":"1","type":"t_address"},{"astId":3301,"contract":"contracts/Marketplace.sol:Marketplace","label":"price_per_item","offset":0,"slot":"2","type":"t_uint256"},{"astId":3303,"contract":"contracts/Marketplace.sol:Marketplace","label":"amount","offset":0,"slot":"3","type":"t_uint256"}],"numberOfBytes":"128"},"t_uint256":{"encoding":"inplace","label":"uint256","numberOfBytes":"32"},"t_uint8":{"encoding":"inplace","label":"uint8","numberOfBytes":"1"}}}}}}