{"contracts/Marketplace.sol":{"Marketplace":{"abi":[{"anonymous":false,"inputs":[{"indexed":true,"internalType":"address","name":"nft","type":"address"},{"indexed":true,"internalType":"uint256","name":"tokenID","type":"uint256"},{"indexed":false,"internalType":"uint256","name":"price","type":"uint256"},{"indexed":true,"internalType":"address","name":"buyer","type":"address"},{"indexed":false,"internalType":"address","name":"to","type":"address"}],"name":"AcceptAsk","type":"event"},{"anonymous":false,"inputs":[{"indexed":false,"internalType":"uint256","name":"bid_id","type":"uint256"},{"indexed":true,"internalType":"address","name":"nft","type":"address"},{"indexed":true,"internalType":"uint256","name":"tokenID","type":"uint256"},{"indexed":false,"internalType":"address","name":"bidder","type":"address"},{"indexed":true,"internalType":"address","name":"accepter","type":"address"},{"indexed":false,"internalType":"uint256","name":"price","type":"uint256"}],"name":"AcceptBid","type":"event"},{"anonymous":false,"inputs":[{"indexed":false,"internalType":"uint256","name":"collection_offer_id","type":"uint256"},{"indexed":false,"internalType":"address","name":"bidder","type":"address"},{"indexed":false,"internalType":"uint256","name":"price_per_item","type":"uint256"},{"indexed":false,"internalType":"uint256","name":"remaining_quantity","type":"uint256"}],"name":"AcceptCollectionOffer","type":"event"},{"anonymous":false,"inputs":[{"indexed":true,"internalType":"address","name":"seller","type":"address"},{"indexed":true,"internalType":"address","name":"nft","type":"address"},{"indexed":true,"internalType":"uint256","name":"tokenID","type":"uint256"}],"name":"CancelAsk","type":"event"},{"anonymous":false,"inputs":[{"indexed":false,"internalType":"uint256","name":"bid_id","type":"uint256"},{"indexed":true,"internalType":"address","name":"nft","type":"address"},{"indexed":true,"internalType":"uint256","name":"tokenID","type":"uint256"},{"indexed":true,"internalType":"address","name":"bidder","type":"address"}],"name":"CancelBid","type":"event"},{"anonymous":false,"inputs":[{"indexed":false,"internalType":"uint256","name":"collection_offer_id","type":"uint256"},{"indexed":false,"internalType":"address","name":"bidder","type":"address"},{"indexed":false,"internalType":"uint256","name":"price_per_item","type":"uint256"},{"indexed":false,"internalType":"uint256","name":"quantity","type":"uint256"},{"indexed":false,"internalType":"uint256","name":"recived_amount","type":"uint256"}],"name":"CancleCollectionOffer","type":"event"},{"anonymous":false,"inputs":[{"indexed":true,"internalType":"address","name":"seller","type":"address"},{"indexed":true,"internalType":"address","name":"nft","type":"address"},{"indexed":true,"internalType":"uint256","name":"tokenID","type":"uint256"},{"indexed":false,"internalType":"uint256","name":"price","type":"uint256"},{"indexed":false,"internalType":"address","name":"to","type":"address"}],"name":"CreateAsk","type":"event"},{"anonymous":false,"inputs":[{"indexed":false,"internalType":"uint256","name":"bid_id","type":"uint256"},{"indexed":true,"internalType":"address","name":"nft","type":"address"},{"indexed":true,"internalType":"uint256","name":"tokenID","type":"uint256"},{"indexed":true,"internalType":"address","name":"bidder","type":"address"},{"indexed":false,"internalType":"uint256","name":"price","type":"uint256"}],"name":"CreateBid","type":"event"},{"anonymous":false,"inputs":[{"indexed":false,"internalType":"uint256","name":"collection_offer_id","type":"uint256"},{"indexed":false,"internalType":"address","name":"bidder","type":"address"},{"indexed":false,"internalType":"uint256","name":"price_per_item","type":"uint256"},{"indexed":false,"internalType":"uint256","name":"quantity","type":"uint256"}],"name":"CreateCollectionOffer","type":"event"},{"anonymous":false,"inputs":[{"indexed":false,"internalType":"uint8","name":"version","type":"uint8"}],"name":"Initialized","type":"event"},{"anonymous":false,"inputs":[{"indexed":false,"internalType":"address","name":"sender","type":"address"},{"indexed":false,"internalType":"uint256","name":"amount","type":"uint256"}],"name":"WithdrawEvent","type":"event"},{"inputs":[{"internalType":"contract INFTContract[]","name":"nft","type":"address[]"},{"internalType":"uint256[]","name":"tokenID","type":"uint256[]"}],"name":"acceptAsk","outputs":[],"stateMutability":"payable","type":"function"},{"inputs":[{"internalType":"contract INFTContract[]","name":"nft","type":"address[]"},{"internalType":"uint256[]","name":"tokenID","type":"uint256[]"},{"internalType":"uint256[]","name":"bidID","type":"uint256[]"}],"name":"acceptBid","outputs":[],"stateMutability":"payable","type":"function"},{"inputs":[{"internalType":"contract INFTContract","name":"nft","type":"address"},{"internalType":"uint256","name":"tokenID","type":"uint256"},{"internalType":"uint256","name":"collectionOfferId","type":"uint256"}],"name":"acceptCollectionOffer","outputs":[],"stateMutability":"payable","type":"function"},{"inputs":[{"internalType":"address","name":"","type":"address"},{"internalType":"uint256","name":"","type":"uint256"}],"name":"asks","outputs":[{"internalType":"bool","name":"exists","type":"bool"},{"internalType":"address","name":"seller","type":"address"},{"internalType":"uint256","name":"price","type":"uint256"},{"internalType":"address","name":"to","type":"address"}],"stateMutability":"view","type":"function"},{"inputs":[{"internalType":"address","name":"","type":"address"},{"internalType":"uint256","name":"","type":"uint256"},{"internalType":"uint256","name":"","type":"uint256"}],"name":"bids","outputs":[{"internalType":"uint256","name":"bid_id","type":"uint256"},{"internalType":"bool","name":"exists","type":"bool"},{"internalType":"address","name":"buyer","type":"address"},{"internalType":"uint256","name":"price","type":"uint256"}],"stateMutability":"view","type":"function"},{"inputs":[{"internalType":"contract INFTContract[]","name":"nft","type":"address[]"},{"internalType":"uint256[]","name":"tokenID","type":"uint256[]"}],"name":"cancelAsk","outputs":[],"stateMutability":"nonpayable","type":"function"},{"inputs":[{"internalType":"contract INFTContract[]","name":"nft","type":"address[]"},{"internalType":"uint256[]","name":"tokenID","type":"uint256[]"},{"internalType":"uint256[]","name":"bidID","type":"uint256[]"}],"name":"cancelBid","outputs":[],"stateMutability":"nonpayable","type":"function"},{"inputs":[{"internalType":"contract INFTContract","name":"nft","type":"address"},{"internalType":"uint256","name":"collectionOfferId","type":"uint256"}],"name":"cancelCollectionOffer","outputs":[],"stateMutability":"nonpayable","type":"function"},{"inputs":[{"internalType":"address payable","name":"newBeneficiary","type":"address"}],"name":"changeBeneficiary","outputs":[],"stateMutability":"nonpayable","type":"function"},{"inputs":[{"internalType":"address","name":"","type":"address"},{"internalType":"uint256","name":"","type":"uint256"}],"name":"collectionOffers","outputs":[{"internalType":"uint256","name":"collection_offer_id","type":"uint256"},{"internalType":"address","name":"bidder","type":"address"},{"internalType":"uint256","name":"price_per_item","type":"uint256"},{"internalType":"uint256","name":"amount","type":"uint256"}],"stateMutability":"view","type":"function"},{"inputs":[{"internalType":"contract INFTContract[]","name":"nft","type":"address[]"},{"internalType":"uint256[]","name":"tokenID","type":"uint256[]"},{"internalType":"uint256[]","name":"price","type":"uint256[]"},{"internalType":"address[]","name":"to","type":"address[]"}],"name":"createAsk","outputs":[],"stateMutability":"nonpayable","type":"function"},{"inputs":[{"internalType":"contract INFTContract[]","name":"nft","type":"address[]"},{"internalType":"uint256[]","name":"tokenID","type":"uint256[]"},{"internalType":"uint256[]","name":"price","type":"uint256[]"}],"name":"createBid","outputs":[],"stateMutability":"payable","type":"function"},{"inputs":[{"internalType":"contract INFTContract","name":"nft","type":"address"},{"internalType":"uint256","name":"pricePerItem","type":"uint256"},{"internalType":"uint256","name":"quantity","type":"uint256"}],"name":"createCollectionOffer","outputs":[],"stateMutability":"payable","type":"function"},{"inputs":[{"internalType":"address","name":"","type":"address"}],"name":"escrow","outputs":[{"internalType":"uint256","name":"","type":"uint256"}],"stateMutability":"view","type":"function"},{"inputs":[{"internalType":"address payable","name":"newBeneficiary","type":"address"},{"internalType":"uint256","name":"_marketFee","type":"uint256"}],"name":"initialize","outputs":[],"stateMutability":"nonpayable","type":"function"},{"inputs":[],"name":"revokeAdmin","outputs":[],"stateMutability":"nonpayable","type":"function"},{"inputs":[{"internalType":"address payable","name":"_newFund","type":"address"}],"name":"updateFundAddress","outputs":[],"stateMutability":"nonpayable","type":"function"},{"inputs":[{"internalType":"uint256","name":"_newFee","type":"uint256"}],"name":"updateMarketFee","outputs":[],"stateMutability":"nonpayable","type":"function"},{"inputs":[],"name":"withdraw","outputs":[],"stateMutability":"nonpayable","type":"function"}],"evm":{"bytecode":{"linkReferences":{},"object":"608060405234801561001057600080fd5b50613648806100206000396000f3fe6080604052600436106101445760003560e01c8063835a55ff116100c0578063d8cfc77511610074578063dc07065711610059578063dc070657146103ef578063e22d4f7d1461040f578063f778550e1461049757600080fd5b8063d8cfc775146103c9578063db9941f0146103dc57600080fd5b8063a613b6a9116100a5578063a613b6a914610369578063ae25a41214610389578063cd6dc687146103a957600080fd5b8063835a55ff146103295780639b4843791461034957600080fd5b80633b3facda1161011757806346d02934116100fc57806346d02934146101db57806357d3c7c3146102715780637495c6ac146102ac57600080fd5b80633b3facda146101b35780633ccfd60b146101c657600080fd5b806308d73d13146101495780630d6aef041461015e5780631d5459f714610173578063386e88ed14610193575b600080fd5b61015c6101573660046130ae565b6104aa565b005b34801561016a57600080fd5b5061015c610864565b34801561017f57600080fd5b5061015c61018e3660046130e3565b6108aa565b34801561019f57600080fd5b5061015c6101ae366004613100565b610916565b61015c6101c1366004613178565b610a9e565b3480156101d257600080fd5b5061015c61123b565b3480156101e757600080fd5b506102396101f63660046130ae565b600260208181526000948552604080862082529385528385209052908352912080546001820154919092015460ff82169161010090046001600160a01b03169084565b604051610268949392919093845291151560208401526001600160a01b03166040830152606082015260800190565b60405180910390f35b34801561027d57600080fd5b5061029e61028c3660046130e3565b60046020526000908152604090205481565b604051908152602001610268565b3480156102b857600080fd5b506103016102c7366004613100565b60036020818152600093845260408085209091529183529120805460018201546002830154929093015490926001600160a01b0316919084565b604080519485526001600160a01b039093166020850152918301526060820152608001610268565b34801561033557600080fd5b5061015c6103443660046131e4565b611380565b34801561035557600080fd5b5061015c6103643660046132a8565b61173a565b34801561037557600080fd5b5061015c610384366004613178565b611789565b34801561039557600080fd5b5061015c6103a43660046132c1565b6119e2565b3480156103b557600080fd5b5061015c6103c4366004613100565b611c9c565b61015c6103d73660046130ae565b611dea565b61015c6103ea3660046132c1565b611f1c565b3480156103fb57600080fd5b5061015c61040a3660046130e3565b61260a565b34801561041b57600080fd5b5061046a61042a366004613100565b6001602081815260009384526040808520909152918352912080549181015460029091015460ff8316926001600160a01b03610100909104811692911684565b6040805194151585526001600160a01b039384166020860152840191909152166060820152608001610268565b61015c6104a53660046132c1565b61266e565b6001600160a01b0383166000908152600360208181526040808420858552909152909120015483906105495760405162461bcd60e51b815260206004820152602360248201527f7265616d61696e20616d6f756e74206d7573742067726561746572207468616e60448201527f203020000000000000000000000000000000000000000000000000000000000060648201526084015b60405180910390fd5b600061055f6001600160a01b03861633866128b1565b116040518060600160405280602581526020016135ee60259139906105975760405162461bcd60e51b815260040161054091906133a1565b5060006105ae6001600160a01b0386163086612a5a565b9050806105fd5760405162461bcd60e51b815260206004820152601360248201527f4e4654206973206e6f7420617070726f766564000000000000000000000000006044820152606401610540565b6001600160a01b038281166000908152600360209081526040808320878452825280832060010154815184815292830190915291926106489289821692339291909116908990612b89565b9050806040518060400160405280601981526020017f4d61726b6574706c6163653a3a4e4654206e6f742073656e74000000000000008152509061069f5760405162461bcd60e51b815260040161054091906133a1565b506001600160a01b038316600090815260016020908152604080832088845290915290205460ff1615610716576001600160a01b0383166000908152600160208181526040808420898552909152822080546001600160a81b03191681559081019190915560020180546001600160a01b03191690555b6001600160a01b038316600090815260036020908152604080832088845290915290206002015461074c90849087903390612d05565b6001600160a01b0383166000908152600360208181526040808420898552909152909120015461077e906001906133ca565b6001600160a01b0384811660009081526003602081815260408084208b85529091528083209091018490558782528120600181015460029091015489835292169290819003610809576001600160a01b03861660009081526003602081815260408084208b855290915282208281556001810180546001600160a01b03191690556002810183905501555b604080518881526001600160a01b0385166020820152908101839052606081018290527f16b57cd263616de422ff341d570beceb7ad39f6a1c3d6b545734497e9b4f85fe9060800160405180910390a1505050505050505050565b6006546001600160a01b031633146108985760405162461bcd60e51b81526020600482015260006024820152604401610540565b600680546001600160a01b0319169055565b6006546001600160a01b031633146108f45760405162461bcd60e51b815260206004820152600d60248201526c24b73b30b634b21020b236b4b760991b6044820152606401610540565b600580546001600160a01b0319166001600160a01b0392909216919091179055565b6001600160a01b03808316600090815260036020908152604080832085845282529182902060010154825160608101909352602580845286949190911633149291613556908301399061097c5760405162461bcd60e51b815260040161054091906133a1565b506001600160a01b0381166000908152600360208181526040808420868552909152822060028101549101546109b291906133dd565b336000908152600460205260408120805492935083929091906109d69084906133f4565b90915550506001600160a01b0382166000908152600360208181526040808420878552825292839020600281015492015483518781523392810192909252928101919091526060810191909152608081018290527fd0e925362e975194ae5995a6362be193a363f97859b1e1b06752721d6c2c1ea49060a00160405180910390a1506001600160a01b031660009081526003602081815260408084209484529390529181208181556001810180546001600160a01b0319169055600281018290559091015550565b6000805b848110156111f8576000868683818110610abe57610abe613407565b9050602002016020810190610ad391906130e3565b6001600160a01b0381166000908152600160205260408120919250868685818110610b0057610b00613407565b90506020020135815260200190815260200160002060000160009054906101000a900460ff166040518060400160405280601f81526020017f4d61726b6574706c6163653a3a61736b20646f6573206e6f742065786973740081525090610b7a5760405162461bcd60e51b815260040161054091906133a1565b506001600160a01b03811660009081526001602052604081203391878786818110610ba757610ba7613407565b90506020020135815260200190815260200160002060000160019054906101000a90046001600160a01b03166001600160a01b031614156040518060400160405280602081526020017f4d61726b6574706c6163653a3a63616e7420616363657074206f776e2061736b81525090610c325760405162461bcd60e51b815260040161054091906133a1565b506001600160a01b038116600090815260016020526040812081878786818110610c5e57610c5e613407565b60209081029290920135835250810191909152604001600020600201546001600160a01b031614610d41576001600160a01b03811660009081526001602052604081203391878786818110610cb557610cb5613407565b90506020020135815260200190815260200160002060020160009054906101000a90046001600160a01b03166001600160a01b0316146040518060400160405280601c81526020017f4d61726b6574706c6163653a3a61736b2069732072657365727665640000000081525090610d3f5760405162461bcd60e51b815260040161054091906133a1565b505b6001600160a01b0381166000908152600160205260408120610dec9082888887818110610d7057610d70613407565b90506020020135815260200190815260200160002060000160019054906101000a90046001600160a01b0316878786818110610dae57610dae613407565b905060200201358a8a87818110610dc757610dc7613407565b9050602002016020810190610ddc91906130e3565b6001600160a01b031691906128b1565b1160405180606001604052806022815260200161357b6022913990610e245760405162461bcd60e51b815260040161054091906133a1565b506001600160a01b038116600090815260016020526040812090868685818110610e5057610e50613407565b9050602002013581526020019081526020016000206001015483610e7491906133f4565b9250610f4f81868685818110610e8c57610e8c613407565b9050602002013560016000856001600160a01b03166001600160a01b031681526020019081526020016000206000898988818110610ecc57610ecc613407565b90506020020135815260200190815260200160002060000160019054906101000a90046001600160a01b031660016000866001600160a01b03166001600160a01b0316815260200190815260200160002060008a8a89818110610f3157610f31613407565b90506020020135815260200190815260200160002060010154612d05565b33858584818110610f6257610f62613407565b90506020020135826001600160a01b03167fb091ff9056a2c0d53cb2036724ee1772de8f404d7d476d5968722166c0fd2e7b60016000866001600160a01b03166001600160a01b0316815260200190815260200160002060008a8a89818110610fcd57610fcd613407565b9050602002013581526020019081526020016000206001015460016000876001600160a01b03166001600160a01b0316815260200190815260200160002060008b8b8a81811061101f5761101f613407565b602090810292909201358352508181019290925260409081016000206002015481519384526001600160a01b0316918301919091520160405180910390a46001600160a01b038116600090815260016020526040812061111e908288888781811061108c5761108c613407565b90506020020135815260200190815260200160002060000160019054906101000a90046001600160a01b0316338888878181106110cb576110cb613407565b60408051600081526020808201909252910292909201359190508c8c898181106110f7576110f7613407565b905060200201602081019061110c91906130e3565b6001600160a01b031693929190612b89565b9050806040518060400160405280601981526020017f4d61726b6574706c6163653a3a4e4654206e6f742073656e7400000000000000815250906111755760405162461bcd60e51b815260040161054091906133a1565b506001600160a01b0382166000908152600160205260408120908787868181106111a1576111a1613407565b60209081029290920135835250810191909152604001600090812080546001600160a81b0319168155600181019190915560020180546001600160a01b0319169055508190506111f08161341d565b915050610aa2565b503481146040518060600160405280602d81526020016135c1602d9139906112335760405162461bcd60e51b815260040161054091906133a1565b505050505050565b33600090815260046020526040902054806112985760405162461bcd60e51b815260206004820152601d60248201527f4e6f7420656e6f75676820616d6f756e7420746f2077697468647261770000006044820152606401610540565b33600081815260046020526040808220829055519091829184908381818185875af1925050503d80600081146112ea576040519150601f19603f3d011682016040523d82523d6000602084013e6112ef565b606091505b5091509150816113415760405162461bcd60e51b815260206004820152601460248201527f4661696c656420746f2073656e642045746865720000000000000000000000006044820152606401610540565b60408051338152602081018590527f5dba113b49cfa7c90315e8e604e6b506f7abcb909b01dcb19ec39005086e68fc91015b60405180910390a1505050565b60005b8781101561172f5760006113bc338989858181106113a3576113a3613407565b905060200201358c8c86818110610dc757610dc7613407565b116040518060600160405280602581526020016135ee60259139906113f45760405162461bcd60e51b815260040161054091906133a1565b5061271085858381811061140a5761140a613407565b905060200201351161145e5760405162461bcd60e51b815260206004820152600d60248201527f707269636520746f6f206c6f77000000000000000000000000000000000000006044820152606401610540565b60006114b43089898581811061147657611476613407565b905060200201358c8c8681811061148f5761148f613407565b90506020020160208101906114a491906130e3565b6001600160a01b03169190612a5a565b9050806115035760405162461bcd60e51b815260206004820152601360248201527f4e4654206973206e6f7420617070726f766564000000000000000000000000006044820152606401610540565b604080516080810182526001815233602082015290810187878581811061152c5761152c613407565b90506020020135815260200185858581811061154a5761154a613407565b905060200201602081019061155f91906130e3565b6001600160a01b03169052600160008c8c8681811061158057611580613407565b905060200201602081019061159591906130e3565b6001600160a01b03166001600160a01b0316815260200190815260200160002060008a8a868181106115c9576115c9613407565b6020908102929092013583525081810192909252604090810160002083518154938501516001600160a81b031990941690151574ffffffffffffffffffffffffffffffffffffffff001916176101006001600160a01b0394851602178155908301516001820155606090920151600290920180546001600160a01b0319169290911691909117905587878381811061166357611663613407565b905060200201358a8a8481811061167c5761167c613407565b905060200201602081019061169191906130e3565b6001600160a01b0316337fa11d5827cf84bec195af5ef315a898693f8633b4c246f5e91c1d0fff29f58a348989878181106116ce576116ce613407565b905060200201358888888181106116e7576116e7613407565b90506020020160208101906116fc91906130e3565b604080519283526001600160a01b0390911660208301520160405180910390a450806117278161341d565b915050611383565b505050505050505050565b6006546001600160a01b031633146117845760405162461bcd60e51b815260206004820152600d60248201526c24b73b30b634b21020b236b4b760991b6044820152606401610540565b600755565b60005b838110156119db5760008585838181106117a8576117a8613407565b90506020020160208101906117bd91906130e3565b6001600160a01b03811660009081526001602052604081209192503391908686868181106117ed576117ed613407565b90506020020135815260200190815260200160002060000160019054906101000a90046001600160a01b03166001600160a01b031614604051806060016040528060258152602001613556602591399061185a5760405162461bcd60e51b815260040161054091906133a1565b5060006118b13086868681811061187357611873613407565b9050602002013589898781811061188c5761188c613407565b90506020020160208101906118a191906130e3565b6001600160a01b03169190612e01565b9050806119005760405162461bcd60e51b815260206004820152601360248201527f4e4654206973206e6f74207265766f6b656421000000000000000000000000006044820152606401610540565b6001600160a01b03821660009081526001602052604081209086868681811061192b5761192b613407565b60209081029290920135835250810191909152604001600090812080546001600160a81b0319168155600181019190915560020180546001600160a01b031916905584848481811061197f5761197f613407565b90506020020135826001600160a01b0316336001600160a01b03167f4d7cdcd7d8e1e150c4c5703fb12c932a0683bc890e601471c754e8e43b1de18c60405160405180910390a4505080806119d39061341d565b91505061178c565b5050505050565b60005b85811015611c93576000878783818110611a0157611a01613407565b9050602002016020810190611a1691906130e3565b6001600160a01b0381166000908152600260205260408120919250339190888886818110611a4657611a46613407565b9050602002013581526020019081526020016000206000868686818110611a6f57611a6f613407565b90506020020135815260200190815260200160002060010160019054906101000a90046001600160a01b03166001600160a01b0316146040518060600160405280602581526020016135316025913990611adc5760405162461bcd60e51b815260040161054091906133a1565b506001600160a01b038116600090815260026020526040812090878785818110611b0857611b08613407565b9050602002013581526020019081526020016000206000858585818110611b3157611b31613407565b9050602002013581526020019081526020016000206002015460046000336001600160a01b03166001600160a01b031681526020019081526020016000206000828254611b7e91906133f4565b90915550506001600160a01b038116600090815260026020526040812090878785818110611bae57611bae613407565b9050602002013581526020019081526020016000206000858585818110611bd757611bd7613407565b6020908102929092013583525081019190915260400160009081208181556001810180546001600160a81b03191690556002015533868684818110611c1e57611c1e613407565b90506020020135826001600160a01b03167f887dc05d3b632d032620de6116a12ec3b9febaccde6fd31195972c655d7161fe878787818110611c6257611c62613407565b90506020020135604051611c7891815260200190565b60405180910390a45080611c8b8161341d565b9150506119e5565b50505050505050565b600054610100900460ff1615808015611cbc5750600054600160ff909116105b80611cd65750303b158015611cd6575060005460ff166001145b611d485760405162461bcd60e51b815260206004820152602e60248201527f496e697469616c697a61626c653a20636f6e747261637420697320616c72656160448201527f647920696e697469616c697a65640000000000000000000000000000000000006064820152608401610540565b6000805460ff191660011790558015611d6b576000805461ff0019166101001790555b600580546001600160a01b0385166001600160a01b03199182161790915560068054909116331790556007829055600060088190556009558015611de5576000805461ff0019169055604051600181527f7f26b83ff96e1f2b6a682f133852f6798a09c465da95921460cefb384740249890602001611373565b505050565b6000611df683836133dd565b9050348114611e475760405162461bcd60e51b815260206004820152600f60248201527f494e56414c49442042414c414e434500000000000000000000000000000000006044820152606401610540565b60006009546001611e5891906133f4565b60408051608080820183528382523360208084018281528486018b815260608087018c81526001600160a01b038f8116600090815260038088528b82208d83528852908b902099518a55945160018a0180546001600160a01b03191691909216179055915160028801559051959091019490945584518681529081019190915292830188905290820186905291925086917f06e0dbc683ef60581fed8ddd261dc286deeafceec28e36434d0e02026c8f3c5d910160405180910390a1505050505050565b6000805b868110156125c5576000611f5933888885818110611f4057611f40613407565b905060200201358b8b86818110610dc757610dc7613407565b116040518060600160405280602581526020016135ee6025913990611f915760405162461bcd60e51b815260040161054091906133a1565b506000888883818110611fa657611fa6613407565b9050602002016020810190611fbb91906130e3565b6001600160a01b0381166000908152600260205260408120919250888885818110611fe857611fe8613407565b905060200201358152602001908152602001600020600086868581811061201157612011613407565b905060200201358152602001908152602001600020600201548361203591906133f4565b92506120d58188888581811061204d5761204d613407565b905060200201353360026000866001600160a01b03166001600160a01b0316815260200190815260200160002060008c8c8981811061208e5761208e613407565b90506020020135815260200190815260200160002060008a8a898181106120b7576120b7613407565b90506020020135815260200190815260200160002060020154612d05565b6000612106308989868181106120ed576120ed613407565b905060200201358c8c8781811061148f5761148f613407565b9050806121555760405162461bcd60e51b815260206004820152601360248201527f4e4654206973206e6f7420617070726f766564000000000000000000000000006044820152606401610540565b3388888581811061216857612168613407565b90506020020135836001600160a01b03167fc9827422dbb5e685186f9d060d161538c8998d44888e66d5d28062aeddc2593e60026000876001600160a01b03166001600160a01b0316815260200190815260200160002060008d8d8a8181106121d3576121d3613407565b90506020020135815260200190815260200160002060008b8b8a8181106121fc576121fc613407565b9050602002013581526020019081526020016000206000015460026000886001600160a01b03166001600160a01b0316815260200190815260200160002060008e8e8b81811061224e5761224e613407565b90506020020135815260200190815260200160002060008c8c8b81811061227757612277613407565b90506020020135815260200190815260200160002060010160019054906101000a90046001600160a01b031660026000896001600160a01b03166001600160a01b0316815260200190815260200160002060008f8f8c8181106122dc576122dc613407565b90506020020135815260200190815260200160002060008d8d8c81811061230557612305613407565b90506020020135815260200190815260200160002060020154604051612347939291909283526001600160a01b03919091166020830152604082015260600190565b60405180910390a46001600160a01b0382166000908152600260205260408120612413903390838c8c8981811061238057612380613407565b90506020020135815260200190815260200160002060008a8a898181106123a9576123a9613407565b90506020020135815260200190815260200160002060010160019054906101000a90046001600160a01b03168b8b888181106123e7576123e7613407565b60408051600081526020808201909252910292909201359190508f8f8a8181106110f7576110f7613407565b9050806040518060400160405280601981526020017f4d61726b6574706c6163653a3a4e4654206e6f742073656e74000000000000008152509061246a5760405162461bcd60e51b815260040161054091906133a1565b506001600160a01b0383166000908152600160205260408120908a8a8781811061249657612496613407565b602090810292909201358352508101919091526040016000205460ff1615612526576001600160a01b0383166000908152600160205260408120908a8a878181106124e3576124e3613407565b60209081029290920135835250810191909152604001600090812080546001600160a81b0319168155600181019190915560020180546001600160a01b03191690555b6001600160a01b0383166000908152600260205260408120908a8a8781811061255157612551613407565b905060200201358152602001908152602001600020600088888781811061257a5761257a613407565b6020908102929092013583525081019190915260400160009081208181556001810180546001600160a81b031916905560020155508291506125bd90508161341d565b915050611f20565b503481146040518060600160405280602d81526020016135c1602d9139906126005760405162461bcd60e51b815260040161054091906133a1565b5050505050505050565b6006546001600160a01b0316331461263e5760405162461bcd60e51b81526020600482015260006024820152604401610540565b6001600160a01b0381166108f45760405162461bcd60e51b81526020600482015260006024820152604401610540565b6000805b8681101561287657600088888381811061268e5761268e613407565b90506020020160208101906126a391906130e3565b9050600060085460016126b691906133f4565b90506040518060800160405280828152602001600115158152602001336001600160a01b031681526020018787868181106126f3576126f3613407565b9050602002013581525060026000846001600160a01b03166001600160a01b0316815260200190815260200160002060008a8a8781811061273657612736613407565b60209081029290920135835250818101929092526040908101600090812085825283528190208351815591830151600183018054928501516001600160a01b03166101000274ffffffffffffffffffffffffffffffffffffffff0019921515929092166001600160a81b031990931692909217179055606090910151600290910155338888858181106127cb576127cb613407565b90506020020135836001600160a01b03167fb6f01cf086c6aafcbf84635bd5cad3fa1064d5877595330a8ea85625ea31d22f848a8a8981811061281057612810613407565b9050602002013560405161282e929190918252602082015260400190565b60405180910390a4600881905585858481811061284d5761284d613407565b905060200201358461285f91906133f4565b93505050808061286e9061341d565b915050612672565b5034811460405180606001604052806024815260200161359d60249139906126005760405162461bcd60e51b815260040161054091906133a1565b6040517f6352211e000000000000000000000000000000000000000000000000000000008152600481018290526000906001600160a01b03851690636352211e90602401602060405180830381865afa92505050801561292e575060408051601f3d908101601f1916820190925261292b91810190613436565b60015b612a2a573d80801561295c576040519150601f19603f3d011682016040523d82523d6000602084013e612961565b606091505b506040517efdd58e0000000000000000000000000000000000000000000000000000000081526001600160a01b0385811660048301526024820185905286169062fdd58e90604401602060405180830381865afa9250505080156129e2575060408051601f3d908101601f191682019092526129df91810190613453565b60015b612a21573d808015612a10576040519150601f19603f3d011682016040523d82523d6000602084013e612a15565b606091505b50600092505050612a53565b9150612a539050565b836001600160a01b0316816001600160a01b031603612a4d576001915050612a53565b60009150505b9392505050565b60405163095ea7b360e01b81526001600160a01b038381166004830152602482018390526000919085169063095ea7b390604401600060405180830381600087803b158015612aa857600080fd5b505af1925050508015612ab9575060015b612b81573d808015612ae7576040519150601f19603f3d011682016040523d82523d6000602084013e612aec565b606091505b5060405163a22cb46560e01b81526001600160a01b0385811660048301526001602483015286169063a22cb465906044015b600060405180830381600087803b158015612b3857600080fd5b505af1925050508015612b49575060015b612b77573d808015612a10576040519150601f19603f3d011682016040523d82523d6000602084013e612a15565b6001915050612a53565b506001612a53565b6040517fb88d4fde0000000000000000000000000000000000000000000000000000000081526000906001600160a01b0387169063b88d4fde90612bd790889088908890889060040161346c565b600060405180830381600087803b158015612bf157600080fd5b505af1925050508015612c02575060015b612cf8573d808015612c30576040519150601f19603f3d011682016040523d82523d6000602084013e612c35565b606091505b506040517ff242432a0000000000000000000000000000000000000000000000000000000081526001600160a01b0388169063f242432a90612c84908990899089906001908a906004016134a8565b600060405180830381600087803b158015612c9e57600080fd5b505af1925050508015612caf575060015b612cee573d808015612cdd576040519150601f19603f3d011682016040523d82523d6000602084013e612ce2565b606091505b50600092505050612cfc565b6001915050612cfc565b5060015b95945050505050565b600061271060075483612d1891906133dd565b612d2291906134e0565b9050600080612d32878786612ec7565b9092509050600081612d4485876133ca565b612d4e91906133ca565b9050600082118015612d6857506001600160a01b03831615155b15612d9b576001600160a01b03831660009081526004602052604081208054849290612d959084906133f4565b90915550505b6005546001600160a01b031660009081526004602052604081208054869290612dc59084906133f4565b90915550506001600160a01b03861660009081526004602052604081208054839290612df29084906133f4565b90915550505050505050505050565b60405163095ea7b360e01b815260006004820181905260248201839052906001600160a01b0385169063095ea7b390604401600060405180830381600087803b158015612e4d57600080fd5b505af1925050508015612e5e575060015b612b81573d808015612e8c576040519150601f19603f3d011682016040523d82523d6000602084013e612e91565b606091505b5060405163a22cb46560e01b81526001600160a01b0385811660048301526000602483015286169063a22cb46590604401612b1e565b600080612edb8563152a902d60e11b612f70565b15612f615760405163152a902d60e11b8152600481018590526024810184905260009081906001600160a01b03881690632a55205a906044016040805180830381865afa158015612f30573d6000803e3d6000fd5b505050506040513d601f19601f82011682018060405250810190612f549190613502565b9094509250612f68915050565b5060009050805b935093915050565b6000612f7b83612f95565b8015612f8c5750612f8c8383612fe0565b90505b92915050565b6000612fa8826301ffc9a760e01b612fe0565b8015612f8f5750612fd9827fffffffff00000000000000000000000000000000000000000000000000000000612fe0565b1592915050565b604080517fffffffff000000000000000000000000000000000000000000000000000000008316602480830191909152825180830390910181526044909101909152602080820180517bffffffffffffffffffffffffffffffffffffffffffffffffffffffff166301ffc9a760e01b178152825160009392849283928392918391908a617530fa92503d9150600051905082801561307f575060208210155b801561308b5750600081115b979650505050505050565b6001600160a01b03811681146130ab57600080fd5b50565b6000806000606084860312156130c357600080fd5b83356130ce81613096565b95602085013595506040909401359392505050565b6000602082840312156130f557600080fd5b8135612a5381613096565b6000806040838503121561311357600080fd5b823561311e81613096565b946020939093013593505050565b60008083601f84011261313e57600080fd5b50813567ffffffffffffffff81111561315657600080fd5b6020830191508360208260051b850101111561317157600080fd5b9250929050565b6000806000806040858703121561318e57600080fd5b843567ffffffffffffffff808211156131a657600080fd5b6131b28883890161312c565b909650945060208701359150808211156131cb57600080fd5b506131d88782880161312c565b95989497509550505050565b6000806000806000806000806080898b03121561320057600080fd5b883567ffffffffffffffff8082111561321857600080fd5b6132248c838d0161312c565b909a50985060208b013591508082111561323d57600080fd5b6132498c838d0161312c565b909850965060408b013591508082111561326257600080fd5b61326e8c838d0161312c565b909650945060608b013591508082111561328757600080fd5b506132948b828c0161312c565b999c989b5096995094979396929594505050565b6000602082840312156132ba57600080fd5b5035919050565b600080600080600080606087890312156132da57600080fd5b863567ffffffffffffffff808211156132f257600080fd5b6132fe8a838b0161312c565b9098509650602089013591508082111561331757600080fd5b6133238a838b0161312c565b9096509450604089013591508082111561333c57600080fd5b5061334989828a0161312c565b979a9699509497509295939492505050565b6000815180845260005b8181101561338157602081850181015186830182015201613365565b506000602082860101526020601f19601f83011685010191505092915050565b602081526000612f8c602083018461335b565b634e487b7160e01b600052601160045260246000fd5b81810381811115612f8f57612f8f6133b4565b8082028115828204841417612f8f57612f8f6133b4565b80820180821115612f8f57612f8f6133b4565b634e487b7160e01b600052603260045260246000fd5b60006001820161342f5761342f6133b4565b5060010190565b60006020828403121561344857600080fd5b8151612a5381613096565b60006020828403121561346557600080fd5b5051919050565b60006001600160a01b0380871683528086166020840152508360408301526080606083015261349e608083018461335b565b9695505050505050565b60006001600160a01b03808816835280871660208401525084604083015283606083015260a0608083015261308b60a083018461335b565b6000826134fd57634e487b7160e01b600052601260045260246000fd5b500490565b6000806040838503121561351557600080fd5b825161352081613096565b602093909301519294929350505056fe4d61726b6574706c6163653a3a6e6f7420612063726561746f72206f6620746865206269644d61726b6574706c6163653a3a6e6f7420612063726561746f72206f66207468652061736b4d61726b6574706c6163653a3a61736b2063726561746f72206e6f74206f776e65724d61726b6574706c6163653a3a696e73756666696369656e742065746865722073656e744d61726b6574706c6163653a3a61736b20707269636520686967686572207468616e2073656e742076616c75654d61726b6574706c6163653a3a6e6f7420616e206f776e6572206f6620746f6b656e204944a2646970667358221220280a41cf5c717d1cd266d4c16291e18bdac72149c144cfc2020d4db5b3e4a92064736f6c63430008130033","opcodes":"PUSH1 0x80 PUSH1 0x40 MSTORE CALLVALUE DUP1 ISZERO PUSH2 0x10 JUMPI PUSH1 0x0 DUP1 REVERT JUMPDEST POP PUSH2 0x3648 DUP1 PUSH2 0x20 PUSH1 0x0 CODECOPY PUSH1 0x0 RETURN INVALID PUSH1 0x80 PUSH1 0x40 MSTORE PUSH1 0x4 CALLDATASIZE LT PUSH2 0x144 JUMPI PUSH1 0x0 CALLDATALOAD PUSH1 0xE0 SHR DUP1 PUSH4 0x835A55FF GT PUSH2 0xC0 JUMPI DUP1 PUSH4 0xD8CFC775 GT PUSH2 0x74 JUMPI DUP1 PUSH4 0xDC070657 GT PUSH2 0x59 JUMPI DUP1 PUSH4 0xDC070657 EQ PUSH2 0x3EF JUMPI DUP1 PUSH4 0xE22D4F7D EQ PUSH2 0x40F JUMPI DUP1 PUSH4 0xF778550E EQ PUSH2 0x497 JUMPI PUSH1 0x0 DUP1 REVERT JUMPDEST DUP1 PUSH4 0xD8CFC775 EQ PUSH2 0x3C9 JUMPI DUP1 PUSH4 0xDB9941F0 EQ PUSH2 0x3DC JUMPI PUSH1 0x0 DUP1 REVERT JUMPDEST DUP1 PUSH4 0xA613B6A9 GT PUSH2 0xA5 JUMPI DUP1 PUSH4 0xA613B6A9 EQ PUSH2 0x369 JUMPI DUP1 PUSH4 0xAE25A412 EQ PUSH2 0x389 JUMPI DUP1 PUSH4 0xCD6DC687 EQ PUSH2 0x3A9 JUMPI PUSH1 0x0 DUP1 REVERT JUMPDEST DUP1 PUSH4 0x835A55FF EQ PUSH2 0x329 JUMPI DUP1 PUSH4 0x9B484379 EQ PUSH2 0x349 JUMPI PUSH1 0x0 DUP1 REVERT JUMPDEST DUP1 PUSH4 0x3B3FACDA GT PUSH2 0x117 JUMPI DUP1 PUSH4 0x46D02934 GT PUSH2 0xFC JUMPI DUP1 PUSH4 0x46D02934 EQ PUSH2 0x1DB JUMPI DUP1 PUSH4 0x57D3C7C3 EQ PUSH2 0x271 JUMPI DUP1 PUSH4 0x7495C6AC EQ PUSH2 0x2AC JUMPI PUSH1 0x0 DUP1 REVERT JUMPDEST DUP1 PUSH4 0x3B3FACDA EQ PUSH2 0x1B3 JUMPI DUP1 PUSH4 0x3CCFD60B EQ PUSH2 0x1C6 JUMPI PUSH1 0x0 DUP1 REVERT JUMPDEST DUP1 PUSH4 0x8D73D13 EQ PUSH2 0x149 JUMPI DUP1 PUSH4 0xD6AEF04 EQ PUSH2 0x15E JUMPI DUP1 PUSH4 0x1D5459F7 EQ PUSH2 0x173 JUMPI DUP1 PUSH4 0x386E88ED EQ PUSH2 0x193 JUMPI JUMPDEST PUSH1 0x0 DUP1 REVERT JUMPDEST PUSH2 0x15C PUSH2 0x157 CALLDATASIZE PUSH1 0x4 PUSH2 0x30AE JUMP JUMPDEST PUSH2 0x4AA JUMP JUMPDEST STOP JUMPDEST CALLVALUE DUP1 ISZERO PUSH2 0x16A JUMPI PUSH1 0x0 DUP1 REVERT JUMPDEST POP PUSH2 0x15C PUSH2 0x864 JUMP JUMPDEST CALLVALUE DUP1 ISZERO PUSH2 0x17F JUMPI PUSH1 0x0 DUP1 REVERT JUMPDEST POP PUSH2 0x15C PUSH2 0x18E CALLDATASIZE PUSH1 0x4 PUSH2 0x30E3 JUMP JUMPDEST PUSH2 0x8AA JUMP JUMPDEST CALLVALUE DUP1 ISZERO PUSH2 0x19F JUMPI PUSH1 0x0 DUP1 REVERT JUMPDEST POP PUSH2 0x15C PUSH2 0x1AE CALLDATASIZE PUSH1 0x4 PUSH2 0x3100 JUMP JUMPDEST PUSH2 0x916 JUMP JUMPDEST PUSH2 0x15C PUSH2 0x1C1 CALLDATASIZE PUSH1 0x4 PUSH2 0x3178 JUMP JUMPDEST PUSH2 0xA9E JUMP JUMPDEST CALLVALUE DUP1 ISZERO PUSH2 0x1D2 JUMPI PUSH1 0x0 DUP1 REVERT JUMPDEST POP PUSH2 0x15C PUSH2 0x123B JUMP JUMPDEST CALLVALUE DUP1 ISZERO PUSH2 0x1E7 JUMPI PUSH1 0x0 DUP1 REVERT JUMPDEST POP PUSH2 0x239 PUSH2 0x1F6 CALLDATASIZE PUSH1 0x4 PUSH2 0x30AE JUMP JUMPDEST PUSH1 0x2 PUSH1 0x20 DUP2 DUP2 MSTORE PUSH1 0x0 SWAP5 DUP6 MSTORE PUSH1 0x40 DUP1 DUP7 KECCAK256 DUP3 MSTORE SWAP4 DUP6 MSTORE DUP4 DUP6 KECCAK256 SWAP1 MSTORE SWAP1 DUP4 MSTORE SWAP2 KECCAK256 DUP1 SLOAD PUSH1 0x1 DUP3 ADD SLOAD SWAP2 SWAP1 SWAP3 ADD SLOAD PUSH1 0xFF DUP3 AND SWAP2 PUSH2 0x100 SWAP1 DIV PUSH1 0x1 PUSH1 0x1 PUSH1 0xA0 SHL SUB AND SWAP1 DUP5 JUMP JUMPDEST PUSH1 0x40 MLOAD PUSH2 0x268 SWAP5 SWAP4 SWAP3 SWAP2 SWAP1 SWAP4 DUP5 MSTORE SWAP2 ISZERO ISZERO PUSH1 0x20 DUP5 ADD MSTORE PUSH1 0x1 PUSH1 0x1 PUSH1 0xA0 SHL SUB AND PUSH1 0x40 DUP4 ADD MSTORE PUSH1 0x60 DUP3 ADD MSTORE PUSH1 0x80 ADD SWAP1 JUMP JUMPDEST PUSH1 0x40 MLOAD DUP1 SWAP2 SUB SWAP1 RETURN JUMPDEST CALLVALUE DUP1 ISZERO PUSH2 0x27D JUMPI PUSH1 0x0 DUP1 REVERT JUMPDEST POP PUSH2 0x29E PUSH2 0x28C CALLDATASIZE PUSH1 0x4 PUSH2 0x30E3 JUMP JUMPDEST PUSH1 0x4 PUSH1 0x20 MSTORE PUSH1 0x0 SWAP1 DUP2 MSTORE PUSH1 0x40 SWAP1 KECCAK256 SLOAD DUP2 JUMP JUMPDEST PUSH1 0x40 MLOAD SWAP1 DUP2 MSTORE PUSH1 0x20 ADD PUSH2 0x268 JUMP JUMPDEST CALLVALUE DUP1 ISZERO PUSH2 0x2B8 JUMPI PUSH1 0x0 DUP1 REVERT JUMPDEST POP PUSH2 0x301 PUSH2 0x2C7 CALLDATASIZE PUSH1 0x4 PUSH2 0x3100 JUMP JUMPDEST PUSH1 0x3 PUSH1 0x20 DUP2 DUP2 MSTORE PUSH1 0x0 SWAP4 DUP5 MSTORE PUSH1 0x40 DUP1 DUP6 KECCAK256 SWAP1 SWAP2 MSTORE SWAP2 DUP4 MSTORE SWAP2 KECCAK256 DUP1 SLOAD PUSH1 0x1 DUP3 ADD SLOAD PUSH1 0x2 DUP4 ADD SLOAD SWAP3 SWAP1 SWAP4 ADD SLOAD SWAP1 SWAP3 PUSH1 0x1 PUSH1 0x1 PUSH1 0xA0 SHL SUB AND SWAP2 SWAP1 DUP5 JUMP JUMPDEST PUSH1 0x40 DUP1 MLOAD SWAP5 DUP6 MSTORE PUSH1 0x1 PUSH1 0x1 PUSH1 0xA0 SHL SUB SWAP1 SWAP4 AND PUSH1 0x20 DUP6 ADD MSTORE SWAP2 DUP4 ADD MSTORE PUSH1 0x60 DUP3 ADD MSTORE PUSH1 0x80 ADD PUSH2 0x268 JUMP JUMPDEST CALLVALUE DUP1 ISZERO PUSH2 0x335 JUMPI PUSH1 0x0 DUP1 REVERT JUMPDEST POP PUSH2 0x15C PUSH2 0x344 CALLDATASIZE PUSH1 0x4 PUSH2 0x31E4 JUMP JUMPDEST PUSH2 0x1380 JUMP JUMPDEST CALLVALUE DUP1 ISZERO PUSH2 0x355 JUMPI PUSH1 0x0 DUP1 REVERT JUMPDEST POP PUSH2 0x15C PUSH2 0x364 CALLDATASIZE PUSH1 0x4 PUSH2 0x32A8 JUMP JUMPDEST PUSH2 0x173A JUMP JUMPDEST CALLVALUE DUP1 ISZERO PUSH2 0x375 JUMPI PUSH1 0x0 DUP1 REVERT JUMPDEST POP PUSH2 0x15C PUSH2 0x384 CALLDATASIZE PUSH1 0x4 PUSH2 0x3178 JUMP JUMPDEST PUSH2 0x1789 JUMP JUMPDEST CALLVALUE DUP1 ISZERO PUSH2 0x395 JUMPI PUSH1 0x0 DUP1 REVERT JUMPDEST POP PUSH2 0x15C PUSH2 0x3A4 CALLDATASIZE PUSH1 0x4 PUSH2 0x32C1 JUMP JUMPDEST PUSH2 0x19E2 JUMP JUMPDEST CALLVALUE DUP1 ISZERO PUSH2 0x3B5 JUMPI PUSH1 0x0 DUP1 REVERT JUMPDEST POP PUSH2 0x15C PUSH2 0x3C4 CALLDATASIZE PUSH1 0x4 PUSH2 0x3100 JUMP JUMPDEST PUSH2 0x1C9C JUMP JUMPDEST PUSH2 0x15C PUSH2 0x3D7 CALLDATASIZE PUSH1 0x4 PUSH2 0x30AE JUMP JUMPDEST PUSH2 0x1DEA JUMP JUMPDEST PUSH2 0x15C PUSH2 0x3EA CALLDATASIZE PUSH1 0x4 PUSH2 0x32C1 JUMP JUMPDEST PUSH2 0x1F1C JUMP JUMPDEST CALLVALUE DUP1 ISZERO PUSH2 0x3FB JUMPI PUSH1 0x0 DUP1 REVERT JUMPDEST POP PUSH2 0x15C PUSH2 0x40A CALLDATASIZE PUSH1 0x4 PUSH2 0x30E3 JUMP JUMPDEST PUSH2 0x260A JUMP JUMPDEST CALLVALUE DUP1 ISZERO PUSH2 0x41B JUMPI PUSH1 0x0 DUP1 REVERT JUMPDEST POP PUSH2 0x46A PUSH2 0x42A CALLDATASIZE PUSH1 0x4 PUSH2 0x3100 JUMP JUMPDEST PUSH1 0x1 PUSH1 0x20 DUP2 DUP2 MSTORE PUSH1 0x0 SWAP4 DUP5 MSTORE PUSH1 0x40 DUP1 DUP6 KECCAK256 SWAP1 SWAP2 MSTORE SWAP2 DUP4 MSTORE SWAP2 KECCAK256 DUP1 SLOAD SWAP2 DUP2 ADD SLOAD PUSH1 0x2 SWAP1 SWAP2 ADD SLOAD PUSH1 0xFF DUP4 AND SWAP3 PUSH1 0x1 PUSH1 0x1 PUSH1 0xA0 SHL SUB PUSH2 0x100 SWAP1 SWAP2 DIV DUP2 AND SWAP3 SWAP2 AND DUP5 JUMP JUMPDEST PUSH1 0x40 DUP1 MLOAD SWAP5 ISZERO ISZERO DUP6 MSTORE PUSH1 0x1 PUSH1 0x1 PUSH1 0xA0 SHL SUB SWAP4 DUP5 AND PUSH1 0x20 DUP7 ADD MSTORE DUP5 ADD SWAP2 SWAP1 SWAP2 MSTORE AND PUSH1 0x60 DUP3 ADD MSTORE PUSH1 0x80 ADD PUSH2 0x268 JUMP JUMPDEST PUSH2 0x15C PUSH2 0x4A5 CALLDATASIZE PUSH1 0x4 PUSH2 0x32C1 JUMP JUMPDEST PUSH2 0x266E JUMP JUMPDEST PUSH1 0x1 PUSH1 0x1 PUSH1 0xA0 SHL SUB DUP4 AND PUSH1 0x0 SWAP1 DUP2 MSTORE PUSH1 0x3 PUSH1 0x20 DUP2 DUP2 MSTORE PUSH1 0x40 DUP1 DUP5 KECCAK256 DUP6 DUP6 MSTORE SWAP1 SWAP2 MSTORE SWAP1 SWAP2 KECCAK256 ADD SLOAD DUP4 SWAP1 PUSH2 0x549 JUMPI PUSH1 0x40 MLOAD PUSH3 0x461BCD PUSH1 0xE5 SHL DUP2 MSTORE PUSH1 0x20 PUSH1 0x4 DUP3 ADD MSTORE PUSH1 0x23 PUSH1 0x24 DUP3 ADD MSTORE PUSH32 0x7265616D61696E20616D6F756E74206D7573742067726561746572207468616E PUSH1 0x44 DUP3 ADD MSTORE PUSH32 0x2030200000000000000000000000000000000000000000000000000000000000 PUSH1 0x64 DUP3 ADD MSTORE PUSH1 0x84 ADD JUMPDEST PUSH1 0x40 MLOAD DUP1 SWAP2 SUB SWAP1 REVERT JUMPDEST PUSH1 0x0 PUSH2 0x55F PUSH1 0x1 PUSH1 0x1 PUSH1 0xA0 SHL SUB DUP7 AND CALLER DUP7 PUSH2 0x28B1 JUMP JUMPDEST GT PUSH1 0x40 MLOAD DUP1 PUSH1 0x60 ADD PUSH1 0x40 MSTORE DUP1 PUSH1 0x25 DUP2 MSTORE PUSH1 0x20 ADD PUSH2 0x35EE PUSH1 0x25 SWAP2 CODECOPY SWAP1 PUSH2 0x597 JUMPI PUSH1 0x40 MLOAD PUSH3 0x461BCD PUSH1 0xE5 SHL DUP2 MSTORE PUSH1 0x4 ADD PUSH2 0x540 SWAP2 SWAP1 PUSH2 0x33A1 JUMP JUMPDEST POP PUSH1 0x0 PUSH2 0x5AE PUSH1 0x1 PUSH1 0x1 PUSH1 0xA0 SHL SUB DUP7 AND ADDRESS DUP7 PUSH2 0x2A5A JUMP JUMPDEST SWAP1 POP DUP1 PUSH2 0x5FD JUMPI PUSH1 0x40 MLOAD PUSH3 0x461BCD PUSH1 0xE5 SHL DUP2 MSTORE PUSH1 0x20 PUSH1 0x4 DUP3 ADD MSTORE PUSH1 0x13 PUSH1 0x24 DUP3 ADD MSTORE PUSH32 0x4E4654206973206E6F7420617070726F76656400000000000000000000000000 PUSH1 0x44 DUP3 ADD MSTORE PUSH1 0x64 ADD PUSH2 0x540 JUMP JUMPDEST PUSH1 0x1 PUSH1 0x1 PUSH1 0xA0 SHL SUB DUP3 DUP2 AND PUSH1 0x0 SWAP1 DUP2 MSTORE PUSH1 0x3 PUSH1 0x20 SWAP1 DUP2 MSTORE PUSH1 0x40 DUP1 DUP4 KECCAK256 DUP8 DUP5 MSTORE DUP3 MSTORE DUP1 DUP4 KECCAK256 PUSH1 0x1 ADD SLOAD DUP2 MLOAD DUP5 DUP2 MSTORE SWAP3 DUP4 ADD SWAP1 SWAP2 MSTORE SWAP2 SWAP3 PUSH2 0x648 SWAP3 DUP10 DUP3 AND SWAP3 CALLER SWAP3 SWAP2 SWAP1 SWAP2 AND SWAP1 DUP10 SWAP1 PUSH2 0x2B89 JUMP JUMPDEST SWAP1 POP DUP1 PUSH1 0x40 MLOAD DUP1 PUSH1 0x40 ADD PUSH1 0x40 MSTORE DUP1 PUSH1 0x19 DUP2 MSTORE PUSH1 0x20 ADD PUSH32 0x4D61726B6574706C6163653A3A4E4654206E6F742073656E7400000000000000 DUP2 MSTORE POP SWAP1 PUSH2 0x69F JUMPI PUSH1 0x40 MLOAD PUSH3 0x461BCD PUSH1 0xE5 SHL DUP2 MSTORE PUSH1 0x4 ADD PUSH2 0x540 SWAP2 SWAP1 PUSH2 0x33A1 JUMP JUMPDEST POP PUSH1 0x1 PUSH1 0x1 PUSH1 0xA0 SHL SUB DUP4 AND PUSH1 0x0 SWAP1 DUP2 MSTORE PUSH1 0x1 PUSH1 0x20 SWAP1 DUP2 MSTORE PUSH1 0x40 DUP1 DUP4 KECCAK256 DUP9 DUP5 MSTORE SWAP1 SWAP2 MSTORE SWAP1 KECCAK256 SLOAD PUSH1 0xFF AND ISZERO PUSH2 0x716 JUMPI PUSH1 0x1 PUSH1 0x1 PUSH1 0xA0 SHL SUB DUP4 AND PUSH1 0x0 SWAP1 DUP2 MSTORE PUSH1 0x1 PUSH1 0x20 DUP2 DUP2 MSTORE PUSH1 0x40 DUP1 DUP5 KECCAK256 DUP10 DUP6 MSTORE SWAP1 SWAP2 MSTORE DUP3 KECCAK256 DUP1 SLOAD PUSH1 0x1 PUSH1 0x1 PUSH1 0xA8 SHL SUB NOT AND DUP2 SSTORE SWAP1 DUP2 ADD SWAP2 SWAP1 SWAP2 SSTORE PUSH1 0x2 ADD DUP1 SLOAD PUSH1 0x1 PUSH1 0x1 PUSH1 0xA0 SHL SUB NOT AND SWAP1 SSTORE JUMPDEST PUSH1 0x1 PUSH1 0x1 PUSH1 0xA0 SHL SUB DUP4 AND PUSH1 0x0 SWAP1 DUP2 MSTORE PUSH1 0x3 PUSH1 0x20 SWAP1 DUP2 MSTORE PUSH1 0x40 DUP1 DUP4 KECCAK256 DUP9 DUP5 MSTORE SWAP1 SWAP2 MSTORE SWAP1 KECCAK256 PUSH1 0x2 ADD SLOAD PUSH2 0x74C SWAP1 DUP5 SWAP1 DUP8 SWAP1 CALLER SWAP1 PUSH2 0x2D05 JUMP JUMPDEST PUSH1 0x1 PUSH1 0x1 PUSH1 0xA0 SHL SUB DUP4 AND PUSH1 0x0 SWAP1 DUP2 MSTORE PUSH1 0x3 PUSH1 0x20 DUP2 DUP2 MSTORE PUSH1 0x40 DUP1 DUP5 KECCAK256 DUP10 DUP6 MSTORE SWAP1 SWAP2 MSTORE SWAP1 SWAP2 KECCAK256 ADD SLOAD PUSH2 0x77E SWAP1 PUSH1 0x1 SWAP1 PUSH2 0x33CA JUMP JUMPDEST PUSH1 0x1 PUSH1 0x1 PUSH1 0xA0 SHL SUB DUP5 DUP2 AND PUSH1 0x0 SWAP1 DUP2 MSTORE PUSH1 0x3 PUSH1 0x20 DUP2 DUP2 MSTORE PUSH1 0x40 DUP1 DUP5 KECCAK256 DUP12 DUP6 MSTORE SWAP1 SWAP2 MSTORE DUP1 DUP4 KECCAK256 SWAP1 SWAP2 ADD DUP5 SWAP1 SSTORE DUP8 DUP3 MSTORE DUP2 KECCAK256 PUSH1 0x1 DUP2 ADD SLOAD PUSH1 0x2 SWAP1 SWAP2 ADD SLOAD DUP10 DUP4 MSTORE SWAP3 AND SWAP3 SWAP1 DUP2 SWAP1 SUB PUSH2 0x809 JUMPI PUSH1 0x1 PUSH1 0x1 PUSH1 0xA0 SHL SUB DUP7 AND PUSH1 0x0 SWAP1 DUP2 MSTORE PUSH1 0x3 PUSH1 0x20 DUP2 DUP2 MSTORE PUSH1 0x40 DUP1 DUP5 KECCAK256 DUP12 DUP6 MSTORE SWAP1 SWAP2 MSTORE DUP3 KECCAK256 DUP3 DUP2 SSTORE PUSH1 0x1 DUP2 ADD DUP1 SLOAD PUSH1 0x1 PUSH1 0x1 PUSH1 0xA0 SHL SUB NOT AND SWAP1 SSTORE PUSH1 0x2 DUP2 ADD DUP4 SWAP1 SSTORE ADD SSTORE JUMPDEST PUSH1 0x40 DUP1 MLOAD DUP9 DUP2 MSTORE PUSH1 0x1 PUSH1 0x1 PUSH1 0xA0 SHL SUB DUP6 AND PUSH1 0x20 DUP3 ADD MSTORE SWAP1 DUP2 ADD DUP4 SWAP1 MSTORE PUSH1 0x60 DUP2 ADD DUP3 SWAP1 MSTORE PUSH32 0x16B57CD263616DE422FF341D570BECEB7AD39F6A1C3D6B545734497E9B4F85FE SWAP1 PUSH1 0x80 ADD PUSH1 0x40 MLOAD DUP1 SWAP2 SUB SWAP1 LOG1 POP POP POP POP POP POP POP POP POP JUMP JUMPDEST PUSH1 0x6 SLOAD PUSH1 0x1 PUSH1 0x1 PUSH1 0xA0 SHL SUB AND CALLER EQ PUSH2 0x898 JUMPI PUSH1 0x40 MLOAD PUSH3 0x461BCD PUSH1 0xE5 SHL DUP2 MSTORE PUSH1 0x20 PUSH1 0x4 DUP3 ADD MSTORE PUSH1 0x0 PUSH1 0x24 DUP3 ADD MSTORE PUSH1 0x44 ADD PUSH2 0x540 JUMP JUMPDEST PUSH1 0x6 DUP1 SLOAD PUSH1 0x1 PUSH1 0x1 PUSH1 0xA0 SHL SUB NOT AND SWAP1 SSTORE JUMP JUMPDEST PUSH1 0x6 SLOAD PUSH1 0x1 PUSH1 0x1 PUSH1 0xA0 SHL SUB AND CALLER EQ PUSH2 0x8F4 JUMPI PUSH1 0x40 MLOAD PUSH3 0x461BCD PUSH1 0xE5 SHL DUP2 MSTORE PUSH1 0x20 PUSH1 0x4 DUP3 ADD MSTORE PUSH1 0xD PUSH1 0x24 DUP3 ADD MSTORE PUSH13 0x24B73B30B634B21020B236B4B7 PUSH1 0x99 SHL PUSH1 0x44 DUP3 ADD MSTORE PUSH1 0x64 ADD PUSH2 0x540 JUMP JUMPDEST PUSH1 0x5 DUP1 SLOAD PUSH1 0x1 PUSH1 0x1 PUSH1 0xA0 SHL SUB NOT AND PUSH1 0x1 PUSH1 0x1 PUSH1 0xA0 SHL SUB SWAP3 SWAP1 SWAP3 AND SWAP2 SWAP1 SWAP2 OR SWAP1 SSTORE JUMP JUMPDEST PUSH1 0x1 PUSH1 0x1 PUSH1 0xA0 SHL SUB DUP1 DUP4 AND PUSH1 0x0 SWAP1 DUP2 MSTORE PUSH1 0x3 PUSH1 0x20 SWAP1 DUP2 MSTORE PUSH1 0x40 DUP1 DUP4 KECCAK256 DUP6 DUP5 MSTORE DUP3 MSTORE SWAP2 DUP3 SWAP1 KECCAK256 PUSH1 0x1 ADD SLOAD DUP3 MLOAD PUSH1 0x60 DUP2 ADD SWAP1 SWAP4 MSTORE PUSH1 0x25 DUP1 DUP5 MSTORE DUP7 SWAP5 SWAP2 SWAP1 SWAP2 AND CALLER EQ SWAP3 SWAP2 PUSH2 0x3556 SWAP1 DUP4 ADD CODECOPY SWAP1 PUSH2 0x97C JUMPI PUSH1 0x40 MLOAD PUSH3 0x461BCD PUSH1 0xE5 SHL DUP2 MSTORE PUSH1 0x4 ADD PUSH2 0x540 SWAP2 SWAP1 PUSH2 0x33A1 JUMP JUMPDEST POP PUSH1 0x1 PUSH1 0x1 PUSH1 0xA0 SHL SUB DUP2 AND PUSH1 0x0 SWAP1 DUP2 MSTORE PUSH1 0x3 PUSH1 0x20 DUP2 DUP2 MSTORE PUSH1 0x40 DUP1 DUP5 KECCAK256 DUP7 DUP6 MSTORE SWAP1 SWAP2 MSTORE DUP3 KECCAK256 PUSH1 0x2 DUP2 ADD SLOAD SWAP2 ADD SLOAD PUSH2 0x9B2 SWAP2 SWAP1 PUSH2 0x33DD JUMP JUMPDEST CALLER PUSH1 0x0 SWAP1 DUP2 MSTORE PUSH1 0x4 PUSH1 0x20 MSTORE PUSH1 0x40 DUP2 KECCAK256 DUP1 SLOAD SWAP3 SWAP4 POP DUP4 SWAP3 SWAP1 SWAP2 SWAP1 PUSH2 0x9D6 SWAP1 DUP5 SWAP1 PUSH2 0x33F4 JUMP JUMPDEST SWAP1 SWAP2 SSTORE POP POP PUSH1 0x1 PUSH1 0x1 PUSH1 0xA0 SHL SUB DUP3 AND PUSH1 0x0 SWAP1 DUP2 MSTORE PUSH1 0x3 PUSH1 0x20 DUP2 DUP2 MSTORE PUSH1 0x40 DUP1 DUP5 KECCAK256 DUP8 DUP6 MSTORE DUP3 MSTORE SWAP3 DUP4 SWAP1 KECCAK256 PUSH1 0x2 DUP2 ADD SLOAD SWAP3 ADD SLOAD DUP4 MLOAD DUP8 DUP2 MSTORE CALLER SWAP3 DUP2 ADD SWAP3 SWAP1 SWAP3 MSTORE SWAP3 DUP2 ADD SWAP2 SWAP1 SWAP2 MSTORE PUSH1 0x60 DUP2 ADD SWAP2 SWAP1 SWAP2 MSTORE PUSH1 0x80 DUP2 ADD DUP3 SWAP1 MSTORE PUSH32 0xD0E925362E975194AE5995A6362BE193A363F97859B1E1B06752721D6C2C1EA4 SWAP1 PUSH1 0xA0 ADD PUSH1 0x40 MLOAD DUP1 SWAP2 SUB SWAP1 LOG1 POP PUSH1 0x1 PUSH1 0x1 PUSH1 0xA0 SHL SUB AND PUSH1 0x0 SWAP1 DUP2 MSTORE PUSH1 0x3 PUSH1 0x20 DUP2 DUP2 MSTORE PUSH1 0x40 DUP1 DUP5 KECCAK256 SWAP5 DUP5 MSTORE SWAP4 SWAP1 MSTORE SWAP2 DUP2 KECCAK256 DUP2 DUP2 SSTORE PUSH1 0x1 DUP2 ADD DUP1 SLOAD PUSH1 0x1 PUSH1 0x1 PUSH1 0xA0 SHL SUB NOT AND SWAP1 SSTORE PUSH1 0x2 DUP2 ADD DUP3 SWAP1 SSTORE SWAP1 SWAP2 ADD SSTORE POP JUMP JUMPDEST PUSH1 0x0 DUP1 JUMPDEST DUP5 DUP2 LT ISZERO PUSH2 0x11F8 JUMPI PUSH1 0x0 DUP7 DUP7 DUP4 DUP2 DUP2 LT PUSH2 0xABE JUMPI PUSH2 0xABE PUSH2 0x3407 JUMP JUMPDEST SWAP1 POP PUSH1 0x20 MUL ADD PUSH1 0x20 DUP2 ADD SWAP1 PUSH2 0xAD3 SWAP2 SWAP1 PUSH2 0x30E3 JUMP JUMPDEST PUSH1 0x1 PUSH1 0x1 PUSH1 0xA0 SHL SUB DUP2 AND PUSH1 0x0 SWAP1 DUP2 MSTORE PUSH1 0x1 PUSH1 0x20 MSTORE PUSH1 0x40 DUP2 KECCAK256 SWAP2 SWAP3 POP DUP7 DUP7 DUP6 DUP2 DUP2 LT PUSH2 0xB00 JUMPI PUSH2 0xB00 PUSH2 0x3407 JUMP JUMPDEST SWAP1 POP PUSH1 0x20 MUL ADD CALLDATALOAD DUP2 MSTORE PUSH1 0x20 ADD SWAP1 DUP2 MSTORE PUSH1 0x20 ADD PUSH1 0x0 KECCAK256 PUSH1 0x0 ADD PUSH1 0x0 SWAP1 SLOAD SWAP1 PUSH2 0x100 EXP SWAP1 DIV PUSH1 0xFF AND PUSH1 0x40 MLOAD DUP1 PUSH1 0x40 ADD PUSH1 0x40 MSTORE DUP1 PUSH1 0x1F DUP2 MSTORE PUSH1 0x20 ADD PUSH32 0x4D61726B6574706C6163653A3A61736B20646F6573206E6F7420657869737400 DUP2 MSTORE POP SWAP1 PUSH2 0xB7A JUMPI PUSH1 0x40 MLOAD PUSH3 0x461BCD PUSH1 0xE5 SHL DUP2 MSTORE PUSH1 0x4 ADD PUSH2 0x540 SWAP2 SWAP1 PUSH2 0x33A1 JUMP JUMPDEST POP PUSH1 0x1 PUSH1 0x1 PUSH1 0xA0 SHL SUB DUP2 AND PUSH1 0x0 SWAP1 DUP2 MSTORE PUSH1 0x1 PUSH1 0x20 MSTORE PUSH1 0x40 DUP2 KECCAK256 CALLER SWAP2 DUP8 DUP8 DUP7 DUP2 DUP2 LT PUSH2 0xBA7 JUMPI PUSH2 0xBA7 PUSH2 0x3407 JUMP JUMPDEST SWAP1 POP PUSH1 0x20 MUL ADD CALLDATALOAD DUP2 MSTORE PUSH1 0x20 ADD SWAP1 DUP2 MSTORE PUSH1 0x20 ADD PUSH1 0x0 KECCAK256 PUSH1 0x0 ADD PUSH1 0x1 SWAP1 SLOAD SWAP1 PUSH2 0x100 EXP SWAP1 DIV PUSH1 0x1 PUSH1 0x1 PUSH1 0xA0 SHL SUB AND PUSH1 0x1 PUSH1 0x1 PUSH1 0xA0 SHL SUB AND EQ ISZERO PUSH1 0x40 MLOAD DUP1 PUSH1 0x40 ADD PUSH1 0x40 MSTORE DUP1 PUSH1 0x20 DUP2 MSTORE PUSH1 0x20 ADD PUSH32 0x4D61726B6574706C6163653A3A63616E7420616363657074206F776E2061736B DUP2 MSTORE POP SWAP1 PUSH2 0xC32 JUMPI PUSH1 0x40 MLOAD PUSH3 0x461BCD PUSH1 0xE5 SHL DUP2 MSTORE PUSH1 0x4 ADD PUSH2 0x540 SWAP2 SWAP1 PUSH2 0x33A1 JUMP JUMPDEST POP PUSH1 0x1 PUSH1 0x1 PUSH1 0xA0 SHL SUB DUP2 AND PUSH1 0x0 SWAP1 DUP2 MSTORE PUSH1 0x1 PUSH1 0x20 MSTORE PUSH1 0x40 DUP2 KECCAK256 DUP2 DUP8 DUP8 DUP7 DUP2 DUP2 LT PUSH2 0xC5E JUMPI PUSH2 0xC5E PUSH2 0x3407 JUMP JUMPDEST PUSH1 0x20 SWAP1 DUP2 MUL SWAP3 SWAP1 SWAP3 ADD CALLDATALOAD DUP4 MSTORE POP DUP2 ADD SWAP2 SWAP1 SWAP2 MSTORE PUSH1 0x40 ADD PUSH1 0x0 KECCAK256 PUSH1 0x2 ADD SLOAD PUSH1 0x1 PUSH1 0x1 PUSH1 0xA0 SHL SUB AND EQ PUSH2 0xD41 JUMPI PUSH1 0x1 PUSH1 0x1 PUSH1 0xA0 SHL SUB DUP2 AND PUSH1 0x0 SWAP1 DUP2 MSTORE PUSH1 0x1 PUSH1 0x20 MSTORE PUSH1 0x40 DUP2 KECCAK256 CALLER SWAP2 DUP8 DUP8 DUP7 DUP2 DUP2 LT PUSH2 0xCB5 JUMPI PUSH2 0xCB5 PUSH2 0x3407 JUMP JUMPDEST SWAP1 POP PUSH1 0x20 MUL ADD CALLDATALOAD DUP2 MSTORE PUSH1 0x20 ADD SWAP1 DUP2 MSTORE PUSH1 0x20 ADD PUSH1 0x0 KECCAK256 PUSH1 0x2 ADD PUSH1 0x0 SWAP1 SLOAD SWAP1 PUSH2 0x100 EXP SWAP1 DIV PUSH1 0x1 PUSH1 0x1 PUSH1 0xA0 SHL SUB AND PUSH1 0x1 PUSH1 0x1 PUSH1 0xA0 SHL SUB AND EQ PUSH1 0x40 MLOAD DUP1 PUSH1 0x40 ADD PUSH1 0x40 MSTORE DUP1 PUSH1 0x1C DUP2 MSTORE PUSH1 0x20 ADD PUSH32 0x4D61726B6574706C6163653A3A61736B20697320726573657276656400000000 DUP2 MSTORE POP SWAP1 PUSH2 0xD3F JUMPI PUSH1 0x40 MLOAD PUSH3 0x461BCD PUSH1 0xE5 SHL DUP2 MSTORE PUSH1 0x4 ADD PUSH2 0x540 SWAP2 SWAP1 PUSH2 0x33A1 JUMP JUMPDEST POP JUMPDEST PUSH1 0x1 PUSH1 0x1 PUSH1 0xA0 SHL SUB DUP2 AND PUSH1 0x0 SWAP1 DUP2 MSTORE PUSH1 0x1 PUSH1 0x20 MSTORE PUSH1 0x40 DUP2 KECCAK256 PUSH2 0xDEC SWAP1 DUP3 DUP9 DUP9 DUP8 DUP2 DUP2 LT PUSH2 0xD70 JUMPI PUSH2 0xD70 PUSH2 0x3407 JUMP JUMPDEST SWAP1 POP PUSH1 0x20 MUL ADD CALLDATALOAD DUP2 MSTORE PUSH1 0x20 ADD SWAP1 DUP2 MSTORE PUSH1 0x20 ADD PUSH1 0x0 KECCAK256 PUSH1 0x0 ADD PUSH1 0x1 SWAP1 SLOAD SWAP1 PUSH2 0x100 EXP SWAP1 DIV PUSH1 0x1 PUSH1 0x1 PUSH1 0xA0 SHL SUB AND DUP8 DUP8 DUP7 DUP2 DUP2 LT PUSH2 0xDAE JUMPI PUSH2 0xDAE PUSH2 0x3407 JUMP JUMPDEST SWAP1 POP PUSH1 0x20 MUL ADD CALLDATALOAD DUP11 DUP11 DUP8 DUP2 DUP2 LT PUSH2 0xDC7 JUMPI PUSH2 0xDC7 PUSH2 0x3407 JUMP JUMPDEST SWAP1 POP PUSH1 0x20 MUL ADD PUSH1 0x20 DUP2 ADD SWAP1 PUSH2 0xDDC SWAP2 SWAP1 PUSH2 0x30E3 JUMP JUMPDEST PUSH1 0x1 PUSH1 0x1 PUSH1 0xA0 SHL SUB AND SWAP2 SWAP1 PUSH2 0x28B1 JUMP JUMPDEST GT PUSH1 0x40 MLOAD DUP1 PUSH1 0x60 ADD PUSH1 0x40 MSTORE DUP1 PUSH1 0x22 DUP2 MSTORE PUSH1 0x20 ADD PUSH2 0x357B PUSH1 0x22 SWAP2 CODECOPY SWAP1 PUSH2 0xE24 JUMPI PUSH1 0x40 MLOAD PUSH3 0x461BCD PUSH1 0xE5 SHL DUP2 MSTORE PUSH1 0x4 ADD PUSH2 0x540 SWAP2 SWAP1 PUSH2 0x33A1 JUMP JUMPDEST POP PUSH1 0x1 PUSH1 0x1 PUSH1 0xA0 SHL SUB DUP2 AND PUSH1 0x0 SWAP1 DUP2 MSTORE PUSH1 0x1 PUSH1 0x20 MSTORE PUSH1 0x40 DUP2 KECCAK256 SWAP1 DUP7 DUP7 DUP6 DUP2 DUP2 LT PUSH2 0xE50 JUMPI PUSH2 0xE50 PUSH2 0x3407 JUMP JUMPDEST SWAP1 POP PUSH1 0x20 MUL ADD CALLDATALOAD DUP2 MSTORE PUSH1 0x20 ADD SWAP1 DUP2 MSTORE PUSH1 0x20 ADD PUSH1 0x0 KECCAK256 PUSH1 0x1 ADD SLOAD DUP4 PUSH2 0xE74 SWAP2 SWAP1 PUSH2 0x33F4 JUMP JUMPDEST SWAP3 POP PUSH2 0xF4F DUP2 DUP7 DUP7 DUP6 DUP2 DUP2 LT PUSH2 0xE8C JUMPI PUSH2 0xE8C PUSH2 0x3407 JUMP JUMPDEST SWAP1 POP PUSH1 0x20 MUL ADD CALLDATALOAD PUSH1 0x1 PUSH1 0x0 DUP6 PUSH1 0x1 PUSH1 0x1 PUSH1 0xA0 SHL SUB AND PUSH1 0x1 PUSH1 0x1 PUSH1 0xA0 SHL SUB AND DUP2 MSTORE PUSH1 0x20 ADD SWAP1 DUP2 MSTORE PUSH1 0x20 ADD PUSH1 0x0 KECCAK256 PUSH1 0x0 DUP10 DUP10 DUP9 DUP2 DUP2 LT PUSH2 0xECC JUMPI PUSH2 0xECC PUSH2 0x3407 JUMP JUMPDEST SWAP1 POP PUSH1 0x20 MUL ADD CALLDATALOAD DUP2 MSTORE PUSH1 0x20 ADD SWAP1 DUP2 MSTORE PUSH1 0x20 ADD PUSH1 0x0 KECCAK256 PUSH1 0x0 ADD PUSH1 0x1 SWAP1 SLOAD SWAP1 PUSH2 0x100 EXP SWAP1 DIV PUSH1 0x1 PUSH1 0x1 PUSH1 0xA0 SHL SUB AND PUSH1 0x1 PUSH1 0x0 DUP7 PUSH1 0x1 PUSH1 0x1 PUSH1 0xA0 SHL SUB AND PUSH1 0x1 PUSH1 0x1 PUSH1 0xA0 SHL SUB AND DUP2 MSTORE PUSH1 0x20 ADD SWAP1 DUP2 MSTORE PUSH1 0x20 ADD PUSH1 0x0 KECCAK256 PUSH1 0x0 DUP11 DUP11 DUP10 DUP2 DUP2 LT PUSH2 0xF31 JUMPI PUSH2 0xF31 PUSH2 0x3407 JUMP JUMPDEST SWAP1 POP PUSH1 0x20 MUL ADD CALLDATALOAD DUP2 MSTORE PUSH1 0x20 ADD SWAP1 DUP2 MSTORE PUSH1 0x20 ADD PUSH1 0x0 KECCAK256 PUSH1 0x1 ADD SLOAD PUSH2 0x2D05 JUMP JUMPDEST CALLER DUP6 DUP6 DUP5 DUP2 DUP2 LT PUSH2 0xF62 JUMPI PUSH2 0xF62 PUSH2 0x3407 JUMP JUMPDEST SWAP1 POP PUSH1 0x20 MUL ADD CALLDATALOAD DUP3 PUSH1 0x1 PUSH1 0x1 PUSH1 0xA0 SHL SUB AND PUSH32 0xB091FF9056A2C0D53CB2036724EE1772DE8F404D7D476D5968722166C0FD2E7B PUSH1 0x1 PUSH1 0x0 DUP7 PUSH1 0x1 PUSH1 0x1 PUSH1 0xA0 SHL SUB AND PUSH1 0x1 PUSH1 0x1 PUSH1 0xA0 SHL SUB AND DUP2 MSTORE PUSH1 0x20 ADD SWAP1 DUP2 MSTORE PUSH1 0x20 ADD PUSH1 0x0 KECCAK256 PUSH1 0x0 DUP11 DUP11 DUP10 DUP2 DUP2 LT PUSH2 0xFCD JUMPI PUSH2 0xFCD PUSH2 0x3407 JUMP JUMPDEST SWAP1 POP PUSH1 0x20 MUL ADD CALLDATALOAD DUP2 MSTORE PUSH1 0x20 ADD SWAP1 DUP2 MSTORE PUSH1 0x20 ADD PUSH1 0x0 KECCAK256 PUSH1 0x1 ADD SLOAD PUSH1 0x1 PUSH1 0x0 DUP8 PUSH1 0x1 PUSH1 0x1 PUSH1 0xA0 SHL SUB AND PUSH1 0x1 PUSH1 0x1 PUSH1 0xA0 SHL SUB AND DUP2 MSTORE PUSH1 0x20 ADD SWAP1 DUP2 MSTORE PUSH1 0x20 ADD PUSH1 0x0 KECCAK256 PUSH1 0x0 DUP12 DUP12 DUP11 DUP2 DUP2 LT PUSH2 0x101F JUMPI PUSH2 0x101F PUSH2 0x3407 JUMP JUMPDEST PUSH1 0x20 SWAP1 DUP2 MUL SWAP3 SWAP1 SWAP3 ADD CALLDATALOAD DUP4 MSTORE POP DUP2 DUP2 ADD SWAP3 SWAP1 SWAP3 MSTORE PUSH1 0x40 SWAP1 DUP2 ADD PUSH1 0x0 KECCAK256 PUSH1 0x2 ADD SLOAD DUP2 MLOAD SWAP4 DUP5 MSTORE PUSH1 0x1 PUSH1 0x1 PUSH1 0xA0 SHL SUB AND SWAP2 DUP4 ADD SWAP2 SWAP1 SWAP2 MSTORE ADD PUSH1 0x40 MLOAD DUP1 SWAP2 SUB SWAP1 LOG4 PUSH1 0x1 PUSH1 0x1 PUSH1 0xA0 SHL SUB DUP2 AND PUSH1 0x0 SWAP1 DUP2 MSTORE PUSH1 0x1 PUSH1 0x20 MSTORE PUSH1 0x40 DUP2 KECCAK256 PUSH2 0x111E SWAP1 DUP3 DUP9 DUP9 DUP8 DUP2 DUP2 LT PUSH2 0x108C JUMPI PUSH2 0x108C PUSH2 0x3407 JUMP JUMPDEST SWAP1 POP PUSH1 0x20 MUL ADD CALLDATALOAD DUP2 MSTORE PUSH1 0x20 ADD SWAP1 DUP2 MSTORE PUSH1 0x20 ADD PUSH1 0x0 KECCAK256 PUSH1 0x0 ADD PUSH1 0x1 SWAP1 SLOAD SWAP1 PUSH2 0x100 EXP SWAP1 DIV PUSH1 0x1 PUSH1 0x1 PUSH1 0xA0 SHL SUB AND CALLER DUP9 DUP9 DUP8 DUP2 DUP2 LT PUSH2 0x10CB JUMPI PUSH2 0x10CB PUSH2 0x3407 JUMP JUMPDEST PUSH1 0x40 DUP1 MLOAD PUSH1 0x0 DUP2 MSTORE PUSH1 0x20 DUP1 DUP3 ADD SWAP1 SWAP3 MSTORE SWAP2 MUL SWAP3 SWAP1 SWAP3 ADD CALLDATALOAD SWAP2 SWAP1 POP DUP13 DUP13 DUP10 DUP2 DUP2 LT PUSH2 0x10F7 JUMPI PUSH2 0x10F7 PUSH2 0x3407 JUMP JUMPDEST SWAP1 POP PUSH1 0x20 MUL ADD PUSH1 0x20 DUP2 ADD SWAP1 PUSH2 0x110C SWAP2 SWAP1 PUSH2 0x30E3 JUMP JUMPDEST PUSH1 0x1 PUSH1 0x1 PUSH1 0xA0 SHL SUB AND SWAP4 SWAP3 SWAP2 SWAP1 PUSH2 0x2B89 JUMP JUMPDEST SWAP1 POP DUP1 PUSH1 0x40 MLOAD DUP1 PUSH1 0x40 ADD PUSH1 0x40 MSTORE DUP1 PUSH1 0x19 DUP2 MSTORE PUSH1 0x20 ADD PUSH32 0x4D61726B6574706C6163653A3A4E4654206E6F742073656E7400000000000000 DUP2 MSTORE POP SWAP1 PUSH2 0x1175 JUMPI PUSH1 0x40 MLOAD PUSH3 0x461BCD PUSH1 0xE5 SHL DUP2 MSTORE PUSH1 0x4 ADD PUSH2 0x540 SWAP2 SWAP1 PUSH2 0x33A1 JUMP JUMPDEST POP PUSH1 0x1 PUSH1 0x1 PUSH1 0xA0 SHL SUB DUP3 AND PUSH1 0x0 SWAP1 DUP2 MSTORE PUSH1 0x1 PUSH1 0x20 MSTORE PUSH1 0x40 DUP2 KECCAK256 SWAP1 DUP8 DUP8 DUP7 DUP2 DUP2 LT PUSH2 0x11A1 JUMPI PUSH2 0x11A1 PUSH2 0x3407 JUMP JUMPDEST PUSH1 0x20 SWAP1 DUP2 MUL SWAP3 SWAP1 SWAP3 ADD CALLDATALOAD DUP4 MSTORE POP DUP2 ADD SWAP2 SWAP1 SWAP2 MSTORE PUSH1 0x40 ADD PUSH1 0x0 SWAP1 DUP2 KECCAK256 DUP1 SLOAD PUSH1 0x1 PUSH1 0x1 PUSH1 0xA8 SHL SUB NOT AND DUP2 SSTORE PUSH1 0x1 DUP2 ADD SWAP2 SWAP1 SWAP2 SSTORE PUSH1 0x2 ADD DUP1 SLOAD PUSH1 0x1 PUSH1 0x1 PUSH1 0xA0 SHL SUB NOT AND SWAP1 SSTORE POP DUP2 SWAP1 POP PUSH2 0x11F0 DUP2 PUSH2 0x341D JUMP JUMPDEST SWAP2 POP POP PUSH2 0xAA2 JUMP JUMPDEST POP CALLVALUE DUP2 EQ PUSH1 0x40 MLOAD DUP1 PUSH1 0x60 ADD PUSH1 0x40 MSTORE DUP1 PUSH1 0x2D DUP2 MSTORE PUSH1 0x20 ADD PUSH2 0x35C1 PUSH1 0x2D SWAP2 CODECOPY SWAP1 PUSH2 0x1233 JUMPI PUSH1 0x40 MLOAD PUSH3 0x461BCD PUSH1 0xE5 SHL DUP2 MSTORE PUSH1 0x4 ADD PUSH2 0x540 SWAP2 SWAP1 PUSH2 0x33A1 JUMP JUMPDEST POP POP POP POP POP POP JUMP JUMPDEST CALLER PUSH1 0x0 SWAP1 DUP2 MSTORE PUSH1 0x4 PUSH1 0x20 MSTORE PUSH1 0x40 SWAP1 KECCAK256 SLOAD DUP1 PUSH2 0x1298 JUMPI PUSH1 0x40 MLOAD PUSH3 0x461BCD PUSH1 0xE5 SHL DUP2 MSTORE PUSH1 0x20 PUSH1 0x4 DUP3 ADD MSTORE PUSH1 0x1D PUSH1 0x24 DUP3 ADD MSTORE PUSH32 0x4E6F7420656E6F75676820616D6F756E7420746F207769746864726177000000 PUSH1 0x44 DUP3 ADD MSTORE PUSH1 0x64 ADD PUSH2 0x540 JUMP JUMPDEST CALLER PUSH1 0x0 DUP2 DUP2 MSTORE PUSH1 0x4 PUSH1 0x20 MSTORE PUSH1 0x40 DUP1 DUP3 KECCAK256 DUP3 SWAP1 SSTORE MLOAD SWAP1 SWAP2 DUP3 SWAP2 DUP5 SWAP1 DUP4 DUP2 DUP2 DUP2 DUP6 DUP8 GAS CALL SWAP3 POP POP POP RETURNDATASIZE DUP1 PUSH1 0x0 DUP2 EQ PUSH2 0x12EA JUMPI PUSH1 0x40 MLOAD SWAP2 POP PUSH1 0x1F NOT PUSH1 0x3F RETURNDATASIZE ADD AND DUP3 ADD PUSH1 0x40 MSTORE RETURNDATASIZE DUP3 MSTORE RETURNDATASIZE PUSH1 0x0 PUSH1 0x20 DUP5 ADD RETURNDATACOPY PUSH2 0x12EF JUMP JUMPDEST PUSH1 0x60 SWAP2 POP JUMPDEST POP SWAP2 POP SWAP2 POP DUP2 PUSH2 0x1341 JUMPI PUSH1 0x40 MLOAD PUSH3 0x461BCD PUSH1 0xE5 SHL DUP2 MSTORE PUSH1 0x20 PUSH1 0x4 DUP3 ADD MSTORE PUSH1 0x14 PUSH1 0x24 DUP3 ADD MSTORE PUSH32 0x4661696C656420746F2073656E64204574686572000000000000000000000000 PUSH1 0x44 DUP3 ADD MSTORE PUSH1 0x64 ADD PUSH2 0x540 JUMP JUMPDEST PUSH1 0x40 DUP1 MLOAD CALLER DUP2 MSTORE PUSH1 0x20 DUP2 ADD DUP6 SWAP1 MSTORE PUSH32 0x5DBA113B49CFA7C90315E8E604E6B506F7ABCB909B01DCB19EC39005086E68FC SWAP2 ADD JUMPDEST PUSH1 0x40 MLOAD DUP1 SWAP2 SUB SWAP1 LOG1 POP POP POP JUMP JUMPDEST PUSH1 0x0 JUMPDEST DUP8 DUP2 LT ISZERO PUSH2 0x172F JUMPI PUSH1 0x0 PUSH2 0x13BC CALLER DUP10 DUP10 DUP6 DUP2 DUP2 LT PUSH2 0x13A3 JUMPI PUSH2 0x13A3 PUSH2 0x3407 JUMP JUMPDEST SWAP1 POP PUSH1 0x20 MUL ADD CALLDATALOAD DUP13 DUP13 DUP7 DUP2 DUP2 LT PUSH2 0xDC7 JUMPI PUSH2 0xDC7 PUSH2 0x3407 JUMP JUMPDEST GT PUSH1 0x40 MLOAD DUP1 PUSH1 0x60 ADD PUSH1 0x40 MSTORE DUP1 PUSH1 0x25 DUP2 MSTORE PUSH1 0x20 ADD PUSH2 0x35EE PUSH1 0x25 SWAP2 CODECOPY SWAP1 PUSH2 0x13F4 JUMPI PUSH1 0x40 MLOAD PUSH3 0x461BCD PUSH1 0xE5 SHL DUP2 MSTORE PUSH1 0x4 ADD PUSH2 0x540 SWAP2 SWAP1 PUSH2 0x33A1 JUMP JUMPDEST POP PUSH2 0x2710 DUP6 DUP6 DUP4 DUP2 DUP2 LT PUSH2 0x140A JUMPI PUSH2 0x140A PUSH2 0x3407 JUMP JUMPDEST SWAP1 POP PUSH1 0x20 MUL ADD CALLDATALOAD GT PUSH2 0x145E JUMPI PUSH1 0x40 MLOAD PUSH3 0x461BCD PUSH1 0xE5 SHL DUP2 MSTORE PUSH1 0x20 PUSH1 0x4 DUP3 ADD MSTORE PUSH1 0xD PUSH1 0x24 DUP3 ADD MSTORE PUSH32 0x707269636520746F6F206C6F7700000000000000000000000000000000000000 PUSH1 0x44 DUP3 ADD MSTORE PUSH1 0x64 ADD PUSH2 0x540 JUMP JUMPDEST PUSH1 0x0 PUSH2 0x14B4 ADDRESS DUP10 DUP10 DUP6 DUP2 DUP2 LT PUSH2 0x1476 JUMPI PUSH2 0x1476 PUSH2 0x3407 JUMP JUMPDEST SWAP1 POP PUSH1 0x20 MUL ADD CALLDATALOAD DUP13 DUP13 DUP7 DUP2 DUP2 LT PUSH2 0x148F JUMPI PUSH2 0x148F PUSH2 0x3407 JUMP JUMPDEST SWAP1 POP PUSH1 0x20 MUL ADD PUSH1 0x20 DUP2 ADD SWAP1 PUSH2 0x14A4 SWAP2 SWAP1 PUSH2 0x30E3 JUMP JUMPDEST PUSH1 0x1 PUSH1 0x1 PUSH1 0xA0 SHL SUB AND SWAP2 SWAP1 PUSH2 0x2A5A JUMP JUMPDEST SWAP1 POP DUP1 PUSH2 0x1503 JUMPI PUSH1 0x40 MLOAD PUSH3 0x461BCD PUSH1 0xE5 SHL DUP2 MSTORE PUSH1 0x20 PUSH1 0x4 DUP3 ADD MSTORE PUSH1 0x13 PUSH1 0x24 DUP3 ADD MSTORE PUSH32 0x4E4654206973206E6F7420617070726F76656400000000000000000000000000 PUSH1 0x44 DUP3 ADD MSTORE PUSH1 0x64 ADD PUSH2 0x540 JUMP JUMPDEST PUSH1 0x40 DUP1 MLOAD PUSH1 0x80 DUP2 ADD DUP3 MSTORE PUSH1 0x1 DUP2 MSTORE CALLER PUSH1 0x20 DUP3 ADD MSTORE SWAP1 DUP2 ADD DUP8 DUP8 DUP6 DUP2 DUP2 LT PUSH2 0x152C JUMPI PUSH2 0x152C PUSH2 0x3407 JUMP JUMPDEST SWAP1 POP PUSH1 0x20 MUL ADD CALLDATALOAD DUP2 MSTORE PUSH1 0x20 ADD DUP6 DUP6 DUP6 DUP2 DUP2 LT PUSH2 0x154A JUMPI PUSH2 0x154A PUSH2 0x3407 JUMP JUMPDEST SWAP1 POP PUSH1 0x20 MUL ADD PUSH1 0x20 DUP2 ADD SWAP1 PUSH2 0x155F SWAP2 SWAP1 PUSH2 0x30E3 JUMP JUMPDEST PUSH1 0x1 PUSH1 0x1 PUSH1 0xA0 SHL SUB AND SWAP1 MSTORE PUSH1 0x1 PUSH1 0x0 DUP13 DUP13 DUP7 DUP2 DUP2 LT PUSH2 0x1580 JUMPI PUSH2 0x1580 PUSH2 0x3407 JUMP JUMPDEST SWAP1 POP PUSH1 0x20 MUL ADD PUSH1 0x20 DUP2 ADD SWAP1 PUSH2 0x1595 SWAP2 SWAP1 PUSH2 0x30E3 JUMP JUMPDEST PUSH1 0x1 PUSH1 0x1 PUSH1 0xA0 SHL SUB AND PUSH1 0x1 PUSH1 0x1 PUSH1 0xA0 SHL SUB AND DUP2 MSTORE PUSH1 0x20 ADD SWAP1 DUP2 MSTORE PUSH1 0x20 ADD PUSH1 0x0 KECCAK256 PUSH1 0x0 DUP11 DUP11 DUP7 DUP2 DUP2 LT PUSH2 0x15C9 JUMPI PUSH2 0x15C9 PUSH2 0x3407 JUMP JUMPDEST PUSH1 0x20 SWAP1 DUP2 MUL SWAP3 SWAP1 SWAP3 ADD CALLDATALOAD DUP4 MSTORE POP DUP2 DUP2 ADD SWAP3 SWAP1 SWAP3 MSTORE PUSH1 0x40 SWAP1 DUP2 ADD PUSH1 0x0 KECCAK256 DUP4 MLOAD DUP2 SLOAD SWAP4 DUP6 ADD MLOAD PUSH1 0x1 PUSH1 0x1 PUSH1 0xA8 SHL SUB NOT SWAP1 SWAP5 AND SWAP1 ISZERO ISZERO PUSH21 0xFFFFFFFFFFFFFFFFFFFFFFFFFFFFFFFFFFFFFFFF00 NOT AND OR PUSH2 0x100 PUSH1 0x1 PUSH1 0x1 PUSH1 0xA0 SHL SUB SWAP5 DUP6 AND MUL OR DUP2 SSTORE SWAP1 DUP4 ADD MLOAD PUSH1 0x1 DUP3 ADD SSTORE PUSH1 0x60 SWAP1 SWAP3 ADD MLOAD PUSH1 0x2 SWAP1 SWAP3 ADD DUP1 SLOAD PUSH1 0x1 PUSH1 0x1 PUSH1 0xA0 SHL SUB NOT AND SWAP3 SWAP1 SWAP2 AND SWAP2 SWAP1 SWAP2 OR SWAP1 SSTORE DUP8 DUP8 DUP4 DUP2 DUP2 LT PUSH2 0x1663 JUMPI PUSH2 0x1663 PUSH2 0x3407 JUMP JUMPDEST SWAP1 POP PUSH1 0x20 MUL ADD CALLDATALOAD DUP11 DUP11 DUP5 DUP2 DUP2 LT PUSH2 0x167C JUMPI PUSH2 0x167C PUSH2 0x3407 JUMP JUMPDEST SWAP1 POP PUSH1 0x20 MUL ADD PUSH1 0x20 DUP2 ADD SWAP1 PUSH2 0x1691 SWAP2 SWAP1 PUSH2 0x30E3 JUMP JUMPDEST PUSH1 0x1 PUSH1 0x1 PUSH1 0xA0 SHL SUB AND CALLER PUSH32 0xA11D5827CF84BEC195AF5EF315A898693F8633B4C246F5E91C1D0FFF29F58A34 DUP10 DUP10 DUP8 DUP2 DUP2 LT PUSH2 0x16CE JUMPI PUSH2 0x16CE PUSH2 0x3407 JUMP JUMPDEST SWAP1 POP PUSH1 0x20 MUL ADD CALLDATALOAD DUP9 DUP9 DUP9 DUP2 DUP2 LT PUSH2 0x16E7 JUMPI PUSH2 0x16E7 PUSH2 0x3407 JUMP JUMPDEST SWAP1 POP PUSH1 0x20 MUL ADD PUSH1 0x20 DUP2 ADD SWAP1 PUSH2 0x16FC SWAP2 SWAP1 PUSH2 0x30E3 JUMP JUMPDEST PUSH1 0x40 DUP1 MLOAD SWAP3 DUP4 MSTORE PUSH1 0x1 PUSH1 0x1 PUSH1 0xA0 SHL SUB SWAP1 SWAP2 AND PUSH1 0x20 DUP4 ADD MSTORE ADD PUSH1 0x40 MLOAD DUP1 SWAP2 SUB SWAP1 LOG4 POP DUP1 PUSH2 0x1727 DUP2 PUSH2 0x341D JUMP JUMPDEST SWAP2 POP POP PUSH2 0x1383 JUMP JUMPDEST POP POP POP POP POP POP POP POP POP JUMP JUMPDEST PUSH1 0x6 SLOAD PUSH1 0x1 PUSH1 0x1 PUSH1 0xA0 SHL SUB AND CALLER EQ PUSH2 0x1784 JUMPI PUSH1 0x40 MLOAD PUSH3 0x461BCD PUSH1 0xE5 SHL DUP2 MSTORE PUSH1 0x20 PUSH1 0x4 DUP3 ADD MSTORE PUSH1 0xD PUSH1 0x24 DUP3 ADD MSTORE PUSH13 0x24B73B30B634B21020B236B4B7 PUSH1 0x99 SHL PUSH1 0x44 DUP3 ADD MSTORE PUSH1 0x64 ADD PUSH2 0x540 JUMP JUMPDEST PUSH1 0x7 SSTORE JUMP JUMPDEST PUSH1 0x0 JUMPDEST DUP4 DUP2 LT ISZERO PUSH2 0x19DB JUMPI PUSH1 0x0 DUP6 DUP6 DUP4 DUP2 DUP2 LT PUSH2 0x17A8 JUMPI PUSH2 0x17A8 PUSH2 0x3407 JUMP JUMPDEST SWAP1 POP PUSH1 0x20 MUL ADD PUSH1 0x20 DUP2 ADD SWAP1 PUSH2 0x17BD SWAP2 SWAP1 PUSH2 0x30E3 JUMP JUMPDEST PUSH1 0x1 PUSH1 0x1 PUSH1 0xA0 SHL SUB DUP2 AND PUSH1 0x0 SWAP1 DUP2 MSTORE PUSH1 0x1 PUSH1 0x20 MSTORE PUSH1 0x40 DUP2 KECCAK256 SWAP2 SWAP3 POP CALLER SWAP2 SWAP1 DUP7 DUP7 DUP7 DUP2 DUP2 LT PUSH2 0x17ED JUMPI PUSH2 0x17ED PUSH2 0x3407 JUMP JUMPDEST SWAP1 POP PUSH1 0x20 MUL ADD CALLDATALOAD DUP2 MSTORE PUSH1 0x20 ADD SWAP1 DUP2 MSTORE PUSH1 0x20 ADD PUSH1 0x0 KECCAK256 PUSH1 0x0 ADD PUSH1 0x1 SWAP1 SLOAD SWAP1 PUSH2 0x100 EXP SWAP1 DIV PUSH1 0x1 PUSH1 0x1 PUSH1 0xA0 SHL SUB AND PUSH1 0x1 PUSH1 0x1 PUSH1 0xA0 SHL SUB AND EQ PUSH1 0x40 MLOAD DUP1 PUSH1 0x60 ADD PUSH1 0x40 MSTORE DUP1 PUSH1 0x25 DUP2 MSTORE PUSH1 0x20 ADD PUSH2 0x3556 PUSH1 0x25 SWAP2 CODECOPY SWAP1 PUSH2 0x185A JUMPI PUSH1 0x40 MLOAD PUSH3 0x461BCD PUSH1 0xE5 SHL DUP2 MSTORE PUSH1 0x4 ADD PUSH2 0x540 SWAP2 SWAP1 PUSH2 0x33A1 JUMP JUMPDEST POP PUSH1 0x0 PUSH2 0x18B1 ADDRESS DUP7 DUP7 DUP7 DUP2 DUP2 LT PUSH2 0x1873 JUMPI PUSH2 0x1873 PUSH2 0x3407 JUMP JUMPDEST SWAP1 POP PUSH1 0x20 MUL ADD CALLDATALOAD DUP10 DUP10 DUP8 DUP2 DUP2 LT PUSH2 0x188C JUMPI PUSH2 0x188C PUSH2 0x3407 JUMP JUMPDEST SWAP1 POP PUSH1 0x20 MUL ADD PUSH1 0x20 DUP2 ADD SWAP1 PUSH2 0x18A1 SWAP2 SWAP1 PUSH2 0x30E3 JUMP JUMPDEST PUSH1 0x1 PUSH1 0x1 PUSH1 0xA0 SHL SUB AND SWAP2 SWAP1 PUSH2 0x2E01 JUMP JUMPDEST SWAP1 POP DUP1 PUSH2 0x1900 JUMPI PUSH1 0x40 MLOAD PUSH3 0x461BCD PUSH1 0xE5 SHL DUP2 MSTORE PUSH1 0x20 PUSH1 0x4 DUP3 ADD MSTORE PUSH1 0x13 PUSH1 0x24 DUP3 ADD MSTORE PUSH32 0x4E4654206973206E6F74207265766F6B65642100000000000000000000000000 PUSH1 0x44 DUP3 ADD MSTORE PUSH1 0x64 ADD PUSH2 0x540 JUMP JUMPDEST PUSH1 0x1 PUSH1 0x1 PUSH1 0xA0 SHL SUB DUP3 AND PUSH1 0x0 SWAP1 DUP2 MSTORE PUSH1 0x1 PUSH1 0x20 MSTORE PUSH1 0x40 DUP2 KECCAK256 SWAP1 DUP7 DUP7 DUP7 DUP2 DUP2 LT PUSH2 0x192B JUMPI PUSH2 0x192B PUSH2 0x3407 JUMP JUMPDEST PUSH1 0x20 SWAP1 DUP2 MUL SWAP3 SWAP1 SWAP3 ADD CALLDATALOAD DUP4 MSTORE POP DUP2 ADD SWAP2 SWAP1 SWAP2 MSTORE PUSH1 0x40 ADD PUSH1 0x0 SWAP1 DUP2 KECCAK256 DUP1 SLOAD PUSH1 0x1 PUSH1 0x1 PUSH1 0xA8 SHL SUB NOT AND DUP2 SSTORE PUSH1 0x1 DUP2 ADD SWAP2 SWAP1 SWAP2 SSTORE PUSH1 0x2 ADD DUP1 SLOAD PUSH1 0x1 PUSH1 0x1 PUSH1 0xA0 SHL SUB NOT AND SWAP1 SSTORE DUP5 DUP5 DUP5 DUP2 DUP2 LT PUSH2 0x197F JUMPI PUSH2 0x197F PUSH2 0x3407 JUMP JUMPDEST SWAP1 POP PUSH1 0x20 MUL ADD CALLDATALOAD DUP3 PUSH1 0x1 PUSH1 0x1 PUSH1 0xA0 SHL SUB AND CALLER PUSH1 0x1 PUSH1 0x1 PUSH1 0xA0 SHL SUB AND PUSH32 0x4D7CDCD7D8E1E150C4C5703FB12C932A0683BC890E601471C754E8E43B1DE18C PUSH1 0x40 MLOAD PUSH1 0x40 MLOAD DUP1 SWAP2 SUB SWAP1 LOG4 POP POP DUP1 DUP1 PUSH2 0x19D3 SWAP1 PUSH2 0x341D JUMP JUMPDEST SWAP2 POP POP PUSH2 0x178C JUMP JUMPDEST POP POP POP POP POP JUMP JUMPDEST PUSH1 0x0 JUMPDEST DUP6 DUP2 LT ISZERO PUSH2 0x1C93 JUMPI PUSH1 0x0 DUP8 DUP8 DUP4 DUP2 DUP2 LT PUSH2 0x1A01 JUMPI PUSH2 0x1A01 PUSH2 0x3407 JUMP JUMPDEST SWAP1 POP PUSH1 0x20 MUL ADD PUSH1 0x20 DUP2 ADD SWAP1 PUSH2 0x1A16 SWAP2 SWAP1 PUSH2 0x30E3 JUMP JUMPDEST PUSH1 0x1 PUSH1 0x1 PUSH1 0xA0 SHL SUB DUP2 AND PUSH1 0x0 SWAP1 DUP2 MSTORE PUSH1 0x2 PUSH1 0x20 MSTORE PUSH1 0x40 DUP2 KECCAK256 SWAP2 SWAP3 POP CALLER SWAP2 SWAP1 DUP9 DUP9 DUP7 DUP2 DUP2 LT PUSH2 0x1A46 JUMPI PUSH2 0x1A46 PUSH2 0x3407 JUMP JUMPDEST SWAP1 POP PUSH1 0x20 MUL ADD CALLDATALOAD DUP2 MSTORE PUSH1 0x20 ADD SWAP1 DUP2 MSTORE PUSH1 0x20 ADD PUSH1 0x0 KECCAK256 PUSH1 0x0 DUP7 DUP7 DUP7 DUP2 DUP2 LT PUSH2 0x1A6F JUMPI PUSH2 0x1A6F PUSH2 0x3407 JUMP JUMPDEST SWAP1 POP PUSH1 0x20 MUL ADD CALLDATALOAD DUP2 MSTORE PUSH1 0x20 ADD SWAP1 DUP2 MSTORE PUSH1 0x20 ADD PUSH1 0x0 KECCAK256 PUSH1 0x1 ADD PUSH1 0x1 SWAP1 SLOAD SWAP1 PUSH2 0x100 EXP SWAP1 DIV PUSH1 0x1 PUSH1 0x1 PUSH1 0xA0 SHL SUB AND PUSH1 0x1 PUSH1 0x1 PUSH1 0xA0 SHL SUB AND EQ PUSH1 0x40 MLOAD DUP1 PUSH1 0x60 ADD PUSH1 0x40 MSTORE DUP1 PUSH1 0x25 DUP2 MSTORE PUSH1 0x20 ADD PUSH2 0x3531 PUSH1 0x25 SWAP2 CODECOPY SWAP1 PUSH2 0x1ADC JUMPI PUSH1 0x40 MLOAD PUSH3 0x461BCD PUSH1 0xE5 SHL DUP2 MSTORE PUSH1 0x4 ADD PUSH2 0x540 SWAP2 SWAP1 PUSH2 0x33A1 JUMP JUMPDEST POP PUSH1 0x1 PUSH1 0x1 PUSH1 0xA0 SHL SUB DUP2 AND PUSH1 0x0 SWAP1 DUP2 MSTORE PUSH1 0x2 PUSH1 0x20 MSTORE PUSH1 0x40 DUP2 KECCAK256 SWAP1 DUP8 DUP8 DUP6 DUP2 DUP2 LT PUSH2 0x1B08 JUMPI PUSH2 0x1B08 PUSH2 0x3407 JUMP JUMPDEST SWAP1 POP PUSH1 0x20 MUL ADD CALLDATALOAD DUP2 MSTORE PUSH1 0x20 ADD SWAP1 DUP2 MSTORE PUSH1 0x20 ADD PUSH1 0x0 KECCAK256 PUSH1 0x0 DUP6 DUP6 DUP6 DUP2 DUP2 LT PUSH2 0x1B31 JUMPI PUSH2 0x1B31 PUSH2 0x3407 JUMP JUMPDEST SWAP1 POP PUSH1 0x20 MUL ADD CALLDATALOAD DUP2 MSTORE PUSH1 0x20 ADD SWAP1 DUP2 MSTORE PUSH1 0x20 ADD PUSH1 0x0 KECCAK256 PUSH1 0x2 ADD SLOAD PUSH1 0x4 PUSH1 0x0 CALLER PUSH1 0x1 PUSH1 0x1 PUSH1 0xA0 SHL SUB AND PUSH1 0x1 PUSH1 0x1 PUSH1 0xA0 SHL SUB AND DUP2 MSTORE PUSH1 0x20 ADD SWAP1 DUP2 MSTORE PUSH1 0x20 ADD PUSH1 0x0 KECCAK256 PUSH1 0x0 DUP3 DUP3 SLOAD PUSH2 0x1B7E SWAP2 SWAP1 PUSH2 0x33F4 JUMP JUMPDEST SWAP1 SWAP2 SSTORE POP POP PUSH1 0x1 PUSH1 0x1 PUSH1 0xA0 SHL SUB DUP2 AND PUSH1 0x0 SWAP1 DUP2 MSTORE PUSH1 0x2 PUSH1 0x20 MSTORE PUSH1 0x40 DUP2 KECCAK256 SWAP1 DUP8 DUP8 DUP6 DUP2 DUP2 LT PUSH2 0x1BAE JUMPI PUSH2 0x1BAE PUSH2 0x3407 JUMP JUMPDEST SWAP1 POP PUSH1 0x20 MUL ADD CALLDATALOAD DUP2 MSTORE PUSH1 0x20 ADD SWAP1 DUP2 MSTORE PUSH1 0x20 ADD PUSH1 0x0 KECCAK256 PUSH1 0x0 DUP6 DUP6 DUP6 DUP2 DUP2 LT PUSH2 0x1BD7 JUMPI PUSH2 0x1BD7 PUSH2 0x3407 JUMP JUMPDEST PUSH1 0x20 SWAP1 DUP2 MUL SWAP3 SWAP1 SWAP3 ADD CALLDATALOAD DUP4 MSTORE POP DUP2 ADD SWAP2 SWAP1 SWAP2 MSTORE PUSH1 0x40 ADD PUSH1 0x0 SWAP1 DUP2 KECCAK256 DUP2 DUP2 SSTORE PUSH1 0x1 DUP2 ADD DUP1 SLOAD PUSH1 0x1 PUSH1 0x1 PUSH1 0xA8 SHL SUB NOT AND SWAP1 SSTORE PUSH1 0x2 ADD SSTORE CALLER DUP7 DUP7 DUP5 DUP2 DUP2 LT PUSH2 0x1C1E JUMPI PUSH2 0x1C1E PUSH2 0x3407 JUMP JUMPDEST SWAP1 POP PUSH1 0x20 MUL ADD CALLDATALOAD DUP3 PUSH1 0x1 PUSH1 0x1 PUSH1 0xA0 SHL SUB AND PUSH32 0x887DC05D3B632D032620DE6116A12EC3B9FEBACCDE6FD31195972C655D7161FE DUP8 DUP8 DUP8 DUP2 DUP2 LT PUSH2 0x1C62 JUMPI PUSH2 0x1C62 PUSH2 0x3407 JUMP JUMPDEST SWAP1 POP PUSH1 0x20 MUL ADD CALLDATALOAD PUSH1 0x40 MLOAD PUSH2 0x1C78 SWAP2 DUP2 MSTORE PUSH1 0x20 ADD SWAP1 JUMP JUMPDEST PUSH1 0x40 MLOAD DUP1 SWAP2 SUB SWAP1 LOG4 POP DUP1 PUSH2 0x1C8B DUP2 PUSH2 0x341D JUMP JUMPDEST SWAP2 POP POP PUSH2 0x19E5 JUMP JUMPDEST POP POP POP POP POP POP POP JUMP JUMPDEST PUSH1 0x0 SLOAD PUSH2 0x100 SWAP1 DIV PUSH1 0xFF AND ISZERO DUP1 DUP1 ISZERO PUSH2 0x1CBC JUMPI POP PUSH1 0x0 SLOAD PUSH1 0x1 PUSH1 0xFF SWAP1 SWAP2 AND LT JUMPDEST DUP1 PUSH2 0x1CD6 JUMPI POP ADDRESS EXTCODESIZE ISZERO DUP1 ISZERO PUSH2 0x1CD6 JUMPI POP PUSH1 0x0 SLOAD PUSH1 0xFF AND PUSH1 0x1 EQ JUMPDEST PUSH2 0x1D48 JUMPI PUSH1 0x40 MLOAD PUSH3 0x461BCD PUSH1 0xE5 SHL DUP2 MSTORE PUSH1 0x20 PUSH1 0x4 DUP3 ADD MSTORE PUSH1 0x2E PUSH1 0x24 DUP3 ADD MSTORE PUSH32 0x496E697469616C697A61626C653A20636F6E747261637420697320616C726561 PUSH1 0x44 DUP3 ADD MSTORE PUSH32 0x647920696E697469616C697A6564000000000000000000000000000000000000 PUSH1 0x64 DUP3 ADD MSTORE PUSH1 0x84 ADD PUSH2 0x540 JUMP JUMPDEST PUSH1 0x0 DUP1 SLOAD PUSH1 0xFF NOT AND PUSH1 0x1 OR SWAP1 SSTORE DUP1 ISZERO PUSH2 0x1D6B JUMPI PUSH1 0x0 DUP1 SLOAD PUSH2 0xFF00 NOT AND PUSH2 0x100 OR SWAP1 SSTORE JUMPDEST PUSH1 0x5 DUP1 SLOAD PUSH1 0x1 PUSH1 0x1 PUSH1 0xA0 SHL SUB DUP6 AND PUSH1 0x1 PUSH1 0x1 PUSH1 0xA0 SHL SUB NOT SWAP2 DUP3 AND OR SWAP1 SWAP2 SSTORE PUSH1 0x6 DUP1 SLOAD SWAP1 SWAP2 AND CALLER OR SWAP1 SSTORE PUSH1 0x7 DUP3 SWAP1 SSTORE PUSH1 0x0 PUSH1 0x8 DUP2 SWAP1 SSTORE PUSH1 0x9 SSTORE DUP1 ISZERO PUSH2 0x1DE5 JUMPI PUSH1 0x0 DUP1 SLOAD PUSH2 0xFF00 NOT AND SWAP1 SSTORE PUSH1 0x40 MLOAD PUSH1 0x1 DUP2 MSTORE PUSH32 0x7F26B83FF96E1F2B6A682F133852F6798A09C465DA95921460CEFB3847402498 SWAP1 PUSH1 0x20 ADD PUSH2 0x1373 JUMP JUMPDEST POP POP POP JUMP JUMPDEST PUSH1 0x0 PUSH2 0x1DF6 DUP4 DUP4 PUSH2 0x33DD JUMP JUMPDEST SWAP1 POP CALLVALUE DUP2 EQ PUSH2 0x1E47 JUMPI PUSH1 0x40 MLOAD PUSH3 0x461BCD PUSH1 0xE5 SHL DUP2 MSTORE PUSH1 0x20 PUSH1 0x4 DUP3 ADD MSTORE PUSH1 0xF PUSH1 0x24 DUP3 ADD MSTORE PUSH32 0x494E56414C49442042414C414E43450000000000000000000000000000000000 PUSH1 0x44 DUP3 ADD MSTORE PUSH1 0x64 ADD PUSH2 0x540 JUMP JUMPDEST PUSH1 0x0 PUSH1 0x9 SLOAD PUSH1 0x1 PUSH2 0x1E58 SWAP2 SWAP1 PUSH2 0x33F4 JUMP JUMPDEST PUSH1 0x40 DUP1 MLOAD PUSH1 0x80 DUP1 DUP3 ADD DUP4 MSTORE DUP4 DUP3 MSTORE CALLER PUSH1 0x20 DUP1 DUP5 ADD DUP3 DUP2 MSTORE DUP5 DUP7 ADD DUP12 DUP2 MSTORE PUSH1 0x60 DUP1 DUP8 ADD DUP13 DUP2 MSTORE PUSH1 0x1 PUSH1 0x1 PUSH1 0xA0 SHL SUB DUP16 DUP2 AND PUSH1 0x0 SWAP1 DUP2 MSTORE PUSH1 0x3 DUP1 DUP9 MSTORE DUP12 DUP3 KECCAK256 DUP14 DUP4 MSTORE DUP9 MSTORE SWAP1 DUP12 SWAP1 KECCAK256 SWAP10 MLOAD DUP11 SSTORE SWAP5 MLOAD PUSH1 0x1 DUP11 ADD DUP1 SLOAD PUSH1 0x1 PUSH1 0x1 PUSH1 0xA0 SHL SUB NOT AND SWAP2 SWAP1 SWAP3 AND OR SWAP1 SSTORE SWAP2 MLOAD PUSH1 0x2 DUP9 ADD SSTORE SWAP1 MLOAD SWAP6 SWAP1 SWAP2 ADD SWAP5 SWAP1 SWAP5 SSTORE DUP5 MLOAD DUP7 DUP2 MSTORE SWAP1 DUP2 ADD SWAP2 SWAP1 SWAP2 MSTORE SWAP3 DUP4 ADD DUP9 SWAP1 MSTORE SWAP1 DUP3 ADD DUP7 SWAP1 MSTORE SWAP2 SWAP3 POP DUP7 SWAP2 PUSH32 0x6E0DBC683EF60581FED8DDD261DC286DEEAFCEEC28E36434D0E02026C8F3C5D SWAP2 ADD PUSH1 0x40 MLOAD DUP1 SWAP2 SUB SWAP1 LOG1 POP POP POP POP POP POP JUMP JUMPDEST PUSH1 0x0 DUP1 JUMPDEST DUP7 DUP2 LT ISZERO PUSH2 0x25C5 JUMPI PUSH1 0x0 PUSH2 0x1F59 CALLER DUP9 DUP9 DUP6 DUP2 DUP2 LT PUSH2 0x1F40 JUMPI PUSH2 0x1F40 PUSH2 0x3407 JUMP JUMPDEST SWAP1 POP PUSH1 0x20 MUL ADD CALLDATALOAD DUP12 DUP12 DUP7 DUP2 DUP2 LT PUSH2 0xDC7 JUMPI PUSH2 0xDC7 PUSH2 0x3407 JUMP JUMPDEST GT PUSH1 0x40 MLOAD DUP1 PUSH1 0x60 ADD PUSH1 0x40 MSTORE DUP1 PUSH1 0x25 DUP2 MSTORE PUSH1 0x20 ADD PUSH2 0x35EE PUSH1 0x25 SWAP2 CODECOPY SWAP1 PUSH2 0x1F91 JUMPI PUSH1 0x40 MLOAD PUSH3 0x461BCD PUSH1 0xE5 SHL DUP2 MSTORE PUSH1 0x4 ADD PUSH2 0x540 SWAP2 SWAP1 PUSH2 0x33A1 JUMP JUMPDEST POP PUSH1 0x0 DUP9 DUP9 DUP4 DUP2 DUP2 LT PUSH2 0x1FA6 JUMPI PUSH2 0x1FA6 PUSH2 0x3407 JUMP JUMPDEST SWAP1 POP PUSH1 0x20 MUL ADD PUSH1 0x20 DUP2 ADD SWAP1 PUSH2 0x1FBB SWAP2 SWAP1 PUSH2 0x30E3 JUMP JUMPDEST PUSH1 0x1 PUSH1 0x1 PUSH1 0xA0 SHL SUB DUP2 AND PUSH1 0x0 SWAP1 DUP2 MSTORE PUSH1 0x2 PUSH1 0x20 MSTORE PUSH1 0x40 DUP2 KECCAK256 SWAP2 SWAP3 POP DUP9 DUP9 DUP6 DUP2 DUP2 LT PUSH2 0x1FE8 JUMPI PUSH2 0x1FE8 PUSH2 0x3407 JUMP JUMPDEST SWAP1 POP PUSH1 0x20 MUL ADD CALLDATALOAD DUP2 MSTORE PUSH1 0x20 ADD SWAP1 DUP2 MSTORE PUSH1 0x20 ADD PUSH1 0x0 KECCAK256 PUSH1 0x0 DUP7 DUP7 DUP6 DUP2 DUP2 LT PUSH2 0x2011 JUMPI PUSH2 0x2011 PUSH2 0x3407 JUMP JUMPDEST SWAP1 POP PUSH1 0x20 MUL ADD CALLDATALOAD DUP2 MSTORE PUSH1 0x20 ADD SWAP1 DUP2 MSTORE PUSH1 0x20 ADD PUSH1 0x0 KECCAK256 PUSH1 0x2 ADD SLOAD DUP4 PUSH2 0x2035 SWAP2 SWAP1 PUSH2 0x33F4 JUMP JUMPDEST SWAP3 POP PUSH2 0x20D5 DUP2 DUP9 DUP9 DUP6 DUP2 DUP2 LT PUSH2 0x204D JUMPI PUSH2 0x204D PUSH2 0x3407 JUMP JUMPDEST SWAP1 POP PUSH1 0x20 MUL ADD CALLDATALOAD CALLER PUSH1 0x2 PUSH1 0x0 DUP7 PUSH1 0x1 PUSH1 0x1 PUSH1 0xA0 SHL SUB AND PUSH1 0x1 PUSH1 0x1 PUSH1 0xA0 SHL SUB AND DUP2 MSTORE PUSH1 0x20 ADD SWAP1 DUP2 MSTORE PUSH1 0x20 ADD PUSH1 0x0 KECCAK256 PUSH1 0x0 DUP13 DUP13 DUP10 DUP2 DUP2 LT PUSH2 0x208E JUMPI PUSH2 0x208E PUSH2 0x3407 JUMP JUMPDEST SWAP1 POP PUSH1 0x20 MUL ADD CALLDATALOAD DUP2 MSTORE PUSH1 0x20 ADD SWAP1 DUP2 MSTORE PUSH1 0x20 ADD PUSH1 0x0 KECCAK256 PUSH1 0x0 DUP11 DUP11 DUP10 DUP2 DUP2 LT PUSH2 0x20B7 JUMPI PUSH2 0x20B7 PUSH2 0x3407 JUMP JUMPDEST SWAP1 POP PUSH1 0x20 MUL ADD CALLDATALOAD DUP2 MSTORE PUSH1 0x20 ADD SWAP1 DUP2 MSTORE PUSH1 0x20 ADD PUSH1 0x0 KECCAK256 PUSH1 0x2 ADD SLOAD PUSH2 0x2D05 JUMP JUMPDEST PUSH1 0x0 PUSH2 0x2106 ADDRESS DUP10 DUP10 DUP7 DUP2 DUP2 LT PUSH2 0x20ED JUMPI PUSH2 0x20ED PUSH2 0x3407 JUMP JUMPDEST SWAP1 POP PUSH1 0x20 MUL ADD CALLDATALOAD DUP13 DUP13 DUP8 DUP2 DUP2 LT PUSH2 0x148F JUMPI PUSH2 0x148F PUSH2 0x3407 JUMP JUMPDEST SWAP1 POP DUP1 PUSH2 0x2155 JUMPI PUSH1 0x40 MLOAD PUSH3 0x461BCD PUSH1 0xE5 SHL DUP2 MSTORE PUSH1 0x20 PUSH1 0x4 DUP3 ADD MSTORE PUSH1 0x13 PUSH1 0x24 DUP3 ADD MSTORE PUSH32 0x4E4654206973206E6F7420617070726F76656400000000000000000000000000 PUSH1 0x44 DUP3 ADD MSTORE PUSH1 0x64 ADD PUSH2 0x540 JUMP JUMPDEST CALLER DUP9 DUP9 DUP6 DUP2 DUP2 LT PUSH2 0x2168 JUMPI PUSH2 0x2168 PUSH2 0x3407 JUMP JUMPDEST SWAP1 POP PUSH1 0x20 MUL ADD CALLDATALOAD DUP4 PUSH1 0x1 PUSH1 0x1 PUSH1 0xA0 SHL SUB AND PUSH32 0xC9827422DBB5E685186F9D060D161538C8998D44888E66D5D28062AEDDC2593E PUSH1 0x2 PUSH1 0x0 DUP8 PUSH1 0x1 PUSH1 0x1 PUSH1 0xA0 SHL SUB AND PUSH1 0x1 PUSH1 0x1 PUSH1 0xA0 SHL SUB AND DUP2 MSTORE PUSH1 0x20 ADD SWAP1 DUP2 MSTORE PUSH1 0x20 ADD PUSH1 0x0 KECCAK256 PUSH1 0x0 DUP14 DUP14 DUP11 DUP2 DUP2 LT PUSH2 0x21D3 JUMPI PUSH2 0x21D3 PUSH2 0x3407 JUMP JUMPDEST SWAP1 POP PUSH1 0x20 MUL ADD CALLDATALOAD DUP2 MSTORE PUSH1 0x20 ADD SWAP1 DUP2 MSTORE PUSH1 0x20 ADD PUSH1 0x0 KECCAK256 PUSH1 0x0 DUP12 DUP12 DUP11 DUP2 DUP2 LT PUSH2 0x21FC JUMPI PUSH2 0x21FC PUSH2 0x3407 JUMP JUMPDEST SWAP1 POP PUSH1 0x20 MUL ADD CALLDATALOAD DUP2 MSTORE PUSH1 0x20 ADD SWAP1 DUP2 MSTORE PUSH1 0x20 ADD PUSH1 0x0 KECCAK256 PUSH1 0x0 ADD SLOAD PUSH1 0x2 PUSH1 0x0 DUP9 PUSH1 0x1 PUSH1 0x1 PUSH1 0xA0 SHL SUB AND PUSH1 0x1 PUSH1 0x1 PUSH1 0xA0 SHL SUB AND DUP2 MSTORE PUSH1 0x20 ADD SWAP1 DUP2 MSTORE PUSH1 0x20 ADD PUSH1 0x0 KECCAK256 PUSH1 0x0 DUP15 DUP15 DUP12 DUP2 DUP2 LT PUSH2 0x224E JUMPI PUSH2 0x224E PUSH2 0x3407 JUMP JUMPDEST SWAP1 POP PUSH1 0x20 MUL ADD CALLDATALOAD DUP2 MSTORE PUSH1 0x20 ADD SWAP1 DUP2 MSTORE PUSH1 0x20 ADD PUSH1 0x0 KECCAK256 PUSH1 0x0 DUP13 DUP13 DUP12 DUP2 DUP2 LT PUSH2 0x2277 JUMPI PUSH2 0x2277 PUSH2 0x3407 JUMP JUMPDEST SWAP1 POP PUSH1 0x20 MUL ADD CALLDATALOAD DUP2 MSTORE PUSH1 0x20 ADD SWAP1 DUP2 MSTORE PUSH1 0x20 ADD PUSH1 0x0 KECCAK256 PUSH1 0x1 ADD PUSH1 0x1 SWAP1 SLOAD SWAP1 PUSH2 0x100 EXP SWAP1 DIV PUSH1 0x1 PUSH1 0x1 PUSH1 0xA0 SHL SUB AND PUSH1 0x2 PUSH1 0x0 DUP10 PUSH1 0x1 PUSH1 0x1 PUSH1 0xA0 SHL SUB AND PUSH1 0x1 PUSH1 0x1 PUSH1 0xA0 SHL SUB AND DUP2 MSTORE PUSH1 0x20 ADD SWAP1 DUP2 MSTORE PUSH1 0x20 ADD PUSH1 0x0 KECCAK256 PUSH1 0x0 DUP16 DUP16 DUP13 DUP2 DUP2 LT PUSH2 0x22DC JUMPI PUSH2 0x22DC PUSH2 0x3407 JUMP JUMPDEST SWAP1 POP PUSH1 0x20 MUL ADD CALLDATALOAD DUP2 MSTORE PUSH1 0x20 ADD SWAP1 DUP2 MSTORE PUSH1 0x20 ADD PUSH1 0x0 KECCAK256 PUSH1 0x0 DUP14 DUP14 DUP13 DUP2 DUP2 LT PUSH2 0x2305 JUMPI PUSH2 0x2305 PUSH2 0x3407 JUMP JUMPDEST SWAP1 POP PUSH1 0x20 MUL ADD CALLDATALOAD DUP2 MSTORE PUSH1 0x20 ADD SWAP1 DUP2 MSTORE PUSH1 0x20 ADD PUSH1 0x0 KECCAK256 PUSH1 0x2 ADD SLOAD PUSH1 0x40 MLOAD PUSH2 0x2347 SWAP4 SWAP3 SWAP2 SWAP1 SWAP3 DUP4 MSTORE PUSH1 0x1 PUSH1 0x1 PUSH1 0xA0 SHL SUB SWAP2 SWAP1 SWAP2 AND PUSH1 0x20 DUP4 ADD MSTORE PUSH1 0x40 DUP3 ADD MSTORE PUSH1 0x60 ADD SWAP1 JUMP JUMPDEST PUSH1 0x40 MLOAD DUP1 SWAP2 SUB SWAP1 LOG4 PUSH1 0x1 PUSH1 0x1 PUSH1 0xA0 SHL SUB DUP3 AND PUSH1 0x0 SWAP1 DUP2 MSTORE PUSH1 0x2 PUSH1 0x20 MSTORE PUSH1 0x40 DUP2 KECCAK256 PUSH2 0x2413 SWAP1 CALLER SWAP1 DUP4 DUP13 DUP13 DUP10 DUP2 DUP2 LT PUSH2 0x2380 JUMPI PUSH2 0x2380 PUSH2 0x3407 JUMP JUMPDEST SWAP1 POP PUSH1 0x20 MUL ADD CALLDATALOAD DUP2 MSTORE PUSH1 0x20 ADD SWAP1 DUP2 MSTORE PUSH1 0x20 ADD PUSH1 0x0 KECCAK256 PUSH1 0x0 DUP11 DUP11 DUP10 DUP2 DUP2 LT PUSH2 0x23A9 JUMPI PUSH2 0x23A9 PUSH2 0x3407 JUMP JUMPDEST SWAP1 POP PUSH1 0x20 MUL ADD CALLDATALOAD DUP2 MSTORE PUSH1 0x20 ADD SWAP1 DUP2 MSTORE PUSH1 0x20 ADD PUSH1 0x0 KECCAK256 PUSH1 0x1 ADD PUSH1 0x1 SWAP1 SLOAD SWAP1 PUSH2 0x100 EXP SWAP1 DIV PUSH1 0x1 PUSH1 0x1 PUSH1 0xA0 SHL SUB AND DUP12 DUP12 DUP9 DUP2 DUP2 LT PUSH2 0x23E7 JUMPI PUSH2 0x23E7 PUSH2 0x3407 JUMP JUMPDEST PUSH1 0x40 DUP1 MLOAD PUSH1 0x0 DUP2 MSTORE PUSH1 0x20 DUP1 DUP3 ADD SWAP1 SWAP3 MSTORE SWAP2 MUL SWAP3 SWAP1 SWAP3 ADD CALLDATALOAD SWAP2 SWAP1 POP DUP16 DUP16 DUP11 DUP2 DUP2 LT PUSH2 0x10F7 JUMPI PUSH2 0x10F7 PUSH2 0x3407 JUMP JUMPDEST SWAP1 POP DUP1 PUSH1 0x40 MLOAD DUP1 PUSH1 0x40 ADD PUSH1 0x40 MSTORE DUP1 PUSH1 0x19 DUP2 MSTORE PUSH1 0x20 ADD PUSH32 0x4D61726B6574706C6163653A3A4E4654206E6F742073656E7400000000000000 DUP2 MSTORE POP SWAP1 PUSH2 0x246A JUMPI PUSH1 0x40 MLOAD PUSH3 0x461BCD PUSH1 0xE5 SHL DUP2 MSTORE PUSH1 0x4 ADD PUSH2 0x540 SWAP2 SWAP1 PUSH2 0x33A1 JUMP JUMPDEST POP PUSH1 0x1 PUSH1 0x1 PUSH1 0xA0 SHL SUB DUP4 AND PUSH1 0x0 SWAP1 DUP2 MSTORE PUSH1 0x1 PUSH1 0x20 MSTORE PUSH1 0x40 DUP2 KECCAK256 SWAP1 DUP11 DUP11 DUP8 DUP2 DUP2 LT PUSH2 0x2496 JUMPI PUSH2 0x2496 PUSH2 0x3407 JUMP JUMPDEST PUSH1 0x20 SWAP1 DUP2 MUL SWAP3 SWAP1 SWAP3 ADD CALLDATALOAD DUP4 MSTORE POP DUP2 ADD SWAP2 SWAP1 SWAP2 MSTORE PUSH1 0x40 ADD PUSH1 0x0 KECCAK256 SLOAD PUSH1 0xFF AND ISZERO PUSH2 0x2526 JUMPI PUSH1 0x1 PUSH1 0x1 PUSH1 0xA0 SHL SUB DUP4 AND PUSH1 0x0 SWAP1 DUP2 MSTORE PUSH1 0x1 PUSH1 0x20 MSTORE PUSH1 0x40 DUP2 KECCAK256 SWAP1 DUP11 DUP11 DUP8 DUP2 DUP2 LT PUSH2 0x24E3 JUMPI PUSH2 0x24E3 PUSH2 0x3407 JUMP JUMPDEST PUSH1 0x20 SWAP1 DUP2 MUL SWAP3 SWAP1 SWAP3 ADD CALLDATALOAD DUP4 MSTORE POP DUP2 ADD SWAP2 SWAP1 SWAP2 MSTORE PUSH1 0x40 ADD PUSH1 0x0 SWAP1 DUP2 KECCAK256 DUP1 SLOAD PUSH1 0x1 PUSH1 0x1 PUSH1 0xA8 SHL SUB NOT AND DUP2 SSTORE PUSH1 0x1 DUP2 ADD SWAP2 SWAP1 SWAP2 SSTORE PUSH1 0x2 ADD DUP1 SLOAD PUSH1 0x1 PUSH1 0x1 PUSH1 0xA0 SHL SUB NOT AND SWAP1 SSTORE JUMPDEST PUSH1 0x1 PUSH1 0x1 PUSH1 0xA0 SHL SUB DUP4 AND PUSH1 0x0 SWAP1 DUP2 MSTORE PUSH1 0x2 PUSH1 0x20 MSTORE PUSH1 0x40 DUP2 KECCAK256 SWAP1 DUP11 DUP11 DUP8 DUP2 DUP2 LT PUSH2 0x2551 JUMPI PUSH2 0x2551 PUSH2 0x3407 JUMP JUMPDEST SWAP1 POP PUSH1 0x20 MUL ADD CALLDATALOAD DUP2 MSTORE PUSH1 0x20 ADD SWAP1 DUP2 MSTORE PUSH1 0x20 ADD PUSH1 0x0 KECCAK256 PUSH1 0x0 DUP9 DUP9 DUP8 DUP2 DUP2 LT PUSH2 0x257A JUMPI PUSH2 0x257A PUSH2 0x3407 JUMP JUMPDEST PUSH1 0x20 SWAP1 DUP2 MUL SWAP3 SWAP1 SWAP3 ADD CALLDATALOAD DUP4 MSTORE POP DUP2 ADD SWAP2 SWAP1 SWAP2 MSTORE PUSH1 0x40 ADD PUSH1 0x0 SWAP1 DUP2 KECCAK256 DUP2 DUP2 SSTORE PUSH1 0x1 DUP2 ADD DUP1 SLOAD PUSH1 0x1 PUSH1 0x1 PUSH1 0xA8 SHL SUB NOT AND SWAP1 SSTORE PUSH1 0x2 ADD SSTORE POP DUP3 SWAP2 POP PUSH2 0x25BD SWAP1 POP DUP2 PUSH2 0x341D JUMP JUMPDEST SWAP2 POP POP PUSH2 0x1F20 JUMP JUMPDEST POP CALLVALUE DUP2 EQ PUSH1 0x40 MLOAD DUP1 PUSH1 0x60 ADD PUSH1 0x40 MSTORE DUP1 PUSH1 0x2D DUP2 MSTORE PUSH1 0x20 ADD PUSH2 0x35C1 PUSH1 0x2D SWAP2 CODECOPY SWAP1 PUSH2 0x2600 JUMPI PUSH1 0x40 MLOAD PUSH3 0x461BCD PUSH1 0xE5 SHL DUP2 MSTORE PUSH1 0x4 ADD PUSH2 0x540 SWAP2 SWAP1 PUSH2 0x33A1 JUMP JUMPDEST POP POP POP POP POP POP POP POP JUMP JUMPDEST PUSH1 0x6 SLOAD PUSH1 0x1 PUSH1 0x1 PUSH1 0xA0 SHL SUB AND CALLER EQ PUSH2 0x263E JUMPI PUSH1 0x40 MLOAD PUSH3 0x461BCD PUSH1 0xE5 SHL DUP2 MSTORE PUSH1 0x20 PUSH1 0x4 DUP3 ADD MSTORE PUSH1 0x0 PUSH1 0x24 DUP3 ADD MSTORE PUSH1 0x44 ADD PUSH2 0x540 JUMP JUMPDEST PUSH1 0x1 PUSH1 0x1 PUSH1 0xA0 SHL SUB DUP2 AND PUSH2 0x8F4 JUMPI PUSH1 0x40 MLOAD PUSH3 0x461BCD PUSH1 0xE5 SHL DUP2 MSTORE PUSH1 0x20 PUSH1 0x4 DUP3 ADD MSTORE PUSH1 0x0 PUSH1 0x24 DUP3 ADD MSTORE PUSH1 0x44 ADD PUSH2 0x540 JUMP JUMPDEST PUSH1 0x0 DUP1 JUMPDEST DUP7 DUP2 LT ISZERO PUSH2 0x2876 JUMPI PUSH1 0x0 DUP9 DUP9 DUP4 DUP2 DUP2 LT PUSH2 0x268E JUMPI PUSH2 0x268E PUSH2 0x3407 JUMP JUMPDEST SWAP1 POP PUSH1 0x20 MUL ADD PUSH1 0x20 DUP2 ADD SWAP1 PUSH2 0x26A3 SWAP2 SWAP1 PUSH2 0x30E3 JUMP JUMPDEST SWAP1 POP PUSH1 0x0 PUSH1 0x8 SLOAD PUSH1 0x1 PUSH2 0x26B6 SWAP2 SWAP1 PUSH2 0x33F4 JUMP JUMPDEST SWAP1 POP PUSH1 0x40 MLOAD DUP1 PUSH1 0x80 ADD PUSH1 0x40 MSTORE DUP1 DUP3 DUP2 MSTORE PUSH1 0x20 ADD PUSH1 0x1 ISZERO ISZERO DUP2 MSTORE PUSH1 0x20 ADD CALLER PUSH1 0x1 PUSH1 0x1 PUSH1 0xA0 SHL SUB AND DUP2 MSTORE PUSH1 0x20 ADD DUP8 DUP8 DUP7 DUP2 DUP2 LT PUSH2 0x26F3 JUMPI PUSH2 0x26F3 PUSH2 0x3407 JUMP JUMPDEST SWAP1 POP PUSH1 0x20 MUL ADD CALLDATALOAD DUP2 MSTORE POP PUSH1 0x2 PUSH1 0x0 DUP5 PUSH1 0x1 PUSH1 0x1 PUSH1 0xA0 SHL SUB AND PUSH1 0x1 PUSH1 0x1 PUSH1 0xA0 SHL SUB AND DUP2 MSTORE PUSH1 0x20 ADD SWAP1 DUP2 MSTORE PUSH1 0x20 ADD PUSH1 0x0 KECCAK256 PUSH1 0x0 DUP11 DUP11 DUP8 DUP2 DUP2 LT PUSH2 0x2736 JUMPI PUSH2 0x2736 PUSH2 0x3407 JUMP JUMPDEST PUSH1 0x20 SWAP1 DUP2 MUL SWAP3 SWAP1 SWAP3 ADD CALLDATALOAD DUP4 MSTORE POP DUP2 DUP2 ADD SWAP3 SWAP1 SWAP3 MSTORE PUSH1 0x40 SWAP1 DUP2 ADD PUSH1 0x0 SWAP1 DUP2 KECCAK256 DUP6 DUP3 MSTORE DUP4 MSTORE DUP2 SWAP1 KECCAK256 DUP4 MLOAD DUP2 SSTORE SWAP2 DUP4 ADD MLOAD PUSH1 0x1 DUP4 ADD DUP1 SLOAD SWAP3 DUP6 ADD MLOAD PUSH1 0x1 PUSH1 0x1 PUSH1 0xA0 SHL SUB AND PUSH2 0x100 MUL PUSH21 0xFFFFFFFFFFFFFFFFFFFFFFFFFFFFFFFFFFFFFFFF00 NOT SWAP3 ISZERO ISZERO SWAP3 SWAP1 SWAP3 AND PUSH1 0x1 PUSH1 0x1 PUSH1 0xA8 SHL SUB NOT SWAP1 SWAP4 AND SWAP3 SWAP1 SWAP3 OR OR SWAP1 SSTORE PUSH1 0x60 SWAP1 SWAP2 ADD MLOAD PUSH1 0x2 SWAP1 SWAP2 ADD SSTORE CALLER DUP9 DUP9 DUP6 DUP2 DUP2 LT PUSH2 0x27CB JUMPI PUSH2 0x27CB PUSH2 0x3407 JUMP JUMPDEST SWAP1 POP PUSH1 0x20 MUL ADD CALLDATALOAD DUP4 PUSH1 0x1 PUSH1 0x1 PUSH1 0xA0 SHL SUB AND PUSH32 0xB6F01CF086C6AAFCBF84635BD5CAD3FA1064D5877595330A8EA85625EA31D22F DUP5 DUP11 DUP11 DUP10 DUP2 DUP2 LT PUSH2 0x2810 JUMPI PUSH2 0x2810 PUSH2 0x3407 JUMP JUMPDEST SWAP1 POP PUSH1 0x20 MUL ADD CALLDATALOAD PUSH1 0x40 MLOAD PUSH2 0x282E SWAP3 SWAP2 SWAP1 SWAP2 DUP3 MSTORE PUSH1 0x20 DUP3 ADD MSTORE PUSH1 0x40 ADD SWAP1 JUMP JUMPDEST PUSH1 0x40 MLOAD DUP1 SWAP2 SUB SWAP1 LOG4 PUSH1 0x8 DUP2 SWAP1 SSTORE DUP6 DUP6 DUP5 DUP2 DUP2 LT PUSH2 0x284D JUMPI PUSH2 0x284D PUSH2 0x3407 JUMP JUMPDEST SWAP1 POP PUSH1 0x20 MUL ADD CALLDATALOAD DUP5 PUSH2 0x285F SWAP2 SWAP1 PUSH2 0x33F4 JUMP JUMPDEST SWAP4 POP POP POP DUP1 DUP1 PUSH2 0x286E SWAP1 PUSH2 0x341D JUMP JUMPDEST SWAP2 POP POP PUSH2 0x2672 JUMP JUMPDEST POP CALLVALUE DUP2 EQ PUSH1 0x40 MLOAD DUP1 PUSH1 0x60 ADD PUSH1 0x40 MSTORE DUP1 PUSH1 0x24 DUP2 MSTORE PUSH1 0x20 ADD PUSH2 0x359D PUSH1 0x24 SWAP2 CODECOPY SWAP1 PUSH2 0x2600 JUMPI PUSH1 0x40 MLOAD PUSH3 0x461BCD PUSH1 0xE5 SHL DUP2 MSTORE PUSH1 0x4 ADD PUSH2 0x540 SWAP2 SWAP1 PUSH2 0x33A1 JUMP JUMPDEST PUSH1 0x40 MLOAD PUSH32 0x6352211E00000000000000000000000000000000000000000000000000000000 DUP2 MSTORE PUSH1 0x4 DUP2 ADD DUP3 SWAP1 MSTORE PUSH1 0x0 SWAP1 PUSH1 0x1 PUSH1 0x1 PUSH1 0xA0 SHL SUB DUP6 AND SWAP1 PUSH4 0x6352211E SWAP1 PUSH1 0x24 ADD PUSH1 0x20 PUSH1 0x40 MLOAD DUP1 DUP4 SUB DUP2 DUP7 GAS STATICCALL SWAP3 POP POP POP DUP1 ISZERO PUSH2 0x292E JUMPI POP PUSH1 0x40 DUP1 MLOAD PUSH1 0x1F RETURNDATASIZE SWAP1 DUP2 ADD PUSH1 0x1F NOT AND DUP3 ADD SWAP1 SWAP3 MSTORE PUSH2 0x292B SWAP2 DUP2 ADD SWAP1 PUSH2 0x3436 JUMP JUMPDEST PUSH1 0x1 JUMPDEST PUSH2 0x2A2A JUMPI RETURNDATASIZE DUP1 DUP1 ISZERO PUSH2 0x295C JUMPI PUSH1 0x40 MLOAD SWAP2 POP PUSH1 0x1F NOT PUSH1 0x3F RETURNDATASIZE ADD AND DUP3 ADD PUSH1 0x40 MSTORE RETURNDATASIZE DUP3 MSTORE RETURNDATASIZE PUSH1 0x0 PUSH1 0x20 DUP5 ADD RETURNDATACOPY PUSH2 0x2961 JUMP JUMPDEST PUSH1 0x60 SWAP2 POP JUMPDEST POP PUSH1 0x40 MLOAD PUSH31 0xFDD58E00000000000000000000000000000000000000000000000000000000 DUP2 MSTORE PUSH1 0x1 PUSH1 0x1 PUSH1 0xA0 SHL SUB DUP6 DUP2 AND PUSH1 0x4 DUP4 ADD MSTORE PUSH1 0x24 DUP3 ADD DUP6 SWAP1 MSTORE DUP7 AND SWAP1 PUSH3 0xFDD58E SWAP1 PUSH1 0x44 ADD PUSH1 0x20 PUSH1 0x40 MLOAD DUP1 DUP4 SUB DUP2 DUP7 GAS STATICCALL SWAP3 POP POP POP DUP1 ISZERO PUSH2 0x29E2 JUMPI POP PUSH1 0x40 DUP1 MLOAD PUSH1 0x1F RETURNDATASIZE SWAP1 DUP2 ADD PUSH1 0x1F NOT AND DUP3 ADD SWAP1 SWAP3 MSTORE PUSH2 0x29DF SWAP2 DUP2 ADD SWAP1 PUSH2 0x3453 JUMP JUMPDEST PUSH1 0x1 JUMPDEST PUSH2 0x2A21 JUMPI RETURNDATASIZE DUP1 DUP1 ISZERO PUSH2 0x2A10 JUMPI PUSH1 0x40 MLOAD SWAP2 POP PUSH1 0x1F NOT PUSH1 0x3F RETURNDATASIZE ADD AND DUP3 ADD PUSH1 0x40 MSTORE RETURNDATASIZE DUP3 MSTORE RETURNDATASIZE PUSH1 0x0 PUSH1 0x20 DUP5 ADD RETURNDATACOPY PUSH2 0x2A15 JUMP JUMPDEST PUSH1 0x60 SWAP2 POP JUMPDEST POP PUSH1 0x0 SWAP3 POP POP POP PUSH2 0x2A53 JUMP JUMPDEST SWAP2 POP PUSH2 0x2A53 SWAP1 POP JUMP JUMPDEST DUP4 PUSH1 0x1 PUSH1 0x1 PUSH1 0xA0 SHL SUB AND DUP2 PUSH1 0x1 PUSH1 0x1 PUSH1 0xA0 SHL SUB AND SUB PUSH2 0x2A4D JUMPI PUSH1 0x1 SWAP2 POP POP PUSH2 0x2A53 JUMP JUMPDEST PUSH1 0x0 SWAP2 POP POP JUMPDEST SWAP4 SWAP3 POP POP POP JUMP JUMPDEST PUSH1 0x40 MLOAD PUSH4 0x95EA7B3 PUSH1 0xE0 SHL DUP2 MSTORE PUSH1 0x1 PUSH1 0x1 PUSH1 0xA0 SHL SUB DUP4 DUP2 AND PUSH1 0x4 DUP4 ADD MSTORE PUSH1 0x24 DUP3 ADD DUP4 SWAP1 MSTORE PUSH1 0x0 SWAP2 SWAP1 DUP6 AND SWAP1 PUSH4 0x95EA7B3 SWAP1 PUSH1 0x44 ADD PUSH1 0x0 PUSH1 0x40 MLOAD DUP1 DUP4 SUB DUP2 PUSH1 0x0 DUP8 DUP1 EXTCODESIZE ISZERO DUP1 ISZERO PUSH2 0x2AA8 JUMPI PUSH1 0x0 DUP1 REVERT JUMPDEST POP GAS CALL SWAP3 POP POP POP DUP1 ISZERO PUSH2 0x2AB9 JUMPI POP PUSH1 0x1 JUMPDEST PUSH2 0x2B81 JUMPI RETURNDATASIZE DUP1 DUP1 ISZERO PUSH2 0x2AE7 JUMPI PUSH1 0x40 MLOAD SWAP2 POP PUSH1 0x1F NOT PUSH1 0x3F RETURNDATASIZE ADD AND DUP3 ADD PUSH1 0x40 MSTORE RETURNDATASIZE DUP3 MSTORE RETURNDATASIZE PUSH1 0x0 PUSH1 0x20 DUP5 ADD RETURNDATACOPY PUSH2 0x2AEC JUMP JUMPDEST PUSH1 0x60 SWAP2 POP JUMPDEST POP PUSH1 0x40 MLOAD PUSH4 0xA22CB465 PUSH1 0xE0 SHL DUP2 MSTORE PUSH1 0x1 PUSH1 0x1 PUSH1 0xA0 SHL SUB DUP6 DUP2 AND PUSH1 0x4 DUP4 ADD MSTORE PUSH1 0x1 PUSH1 0x24 DUP4 ADD MSTORE DUP7 AND SWAP1 PUSH4 0xA22CB465 SWAP1 PUSH1 0x44 ADD JUMPDEST PUSH1 0x0 PUSH1 0x40 MLOAD DUP1 DUP4 SUB DUP2 PUSH1 0x0 DUP8 DUP1 EXTCODESIZE ISZERO DUP1 ISZERO PUSH2 0x2B38 JUMPI PUSH1 0x0 DUP1 REVERT JUMPDEST POP GAS CALL SWAP3 POP POP POP DUP1 ISZERO PUSH2 0x2B49 JUMPI POP PUSH1 0x1 JUMPDEST PUSH2 0x2B77 JUMPI RETURNDATASIZE DUP1 DUP1 ISZERO PUSH2 0x2A10 JUMPI PUSH1 0x40 MLOAD SWAP2 POP PUSH1 0x1F NOT PUSH1 0x3F RETURNDATASIZE ADD AND DUP3 ADD PUSH1 0x40 MSTORE RETURNDATASIZE DUP3 MSTORE RETURNDATASIZE PUSH1 0x0 PUSH1 0x20 DUP5 ADD RETURNDATACOPY PUSH2 0x2A15 JUMP JUMPDEST PUSH1 0x1 SWAP2 POP POP PUSH2 0x2A53 JUMP JUMPDEST POP PUSH1 0x1 PUSH2 0x2A53 JUMP JUMPDEST PUSH1 0x40 MLOAD PUSH32 0xB88D4FDE00000000000000000000000000000000000000000000000000000000 DUP2 MSTORE PUSH1 0x0 SWAP1 PUSH1 0x1 PUSH1 0x1 PUSH1 0xA0 SHL SUB DUP8 AND SWAP1 PUSH4 0xB88D4FDE SWAP1 PUSH2 0x2BD7 SWAP1 DUP9 SWAP1 DUP9 SWAP1 DUP9 SWAP1 DUP9 SWAP1 PUSH1 0x4 ADD PUSH2 0x346C JUMP JUMPDEST PUSH1 0x0 PUSH1 0x40 MLOAD DUP1 DUP4 SUB DUP2 PUSH1 0x0 DUP8 DUP1 EXTCODESIZE ISZERO DUP1 ISZERO PUSH2 0x2BF1 JUMPI PUSH1 0x0 DUP1 REVERT JUMPDEST POP GAS CALL SWAP3 POP POP POP DUP1 ISZERO PUSH2 0x2C02 JUMPI POP PUSH1 0x1 JUMPDEST PUSH2 0x2CF8 JUMPI RETURNDATASIZE DUP1 DUP1 ISZERO PUSH2 0x2C30 JUMPI PUSH1 0x40 MLOAD SWAP2 POP PUSH1 0x1F NOT PUSH1 0x3F RETURNDATASIZE ADD AND DUP3 ADD PUSH1 0x40 MSTORE RETURNDATASIZE DUP3 MSTORE RETURNDATASIZE PUSH1 0x0 PUSH1 0x20 DUP5 ADD RETURNDATACOPY PUSH2 0x2C35 JUMP JUMPDEST PUSH1 0x60 SWAP2 POP JUMPDEST POP PUSH1 0x40 MLOAD PUSH32 0xF242432A00000000000000000000000000000000000000000000000000000000 DUP2 MSTORE PUSH1 0x1 PUSH1 0x1 PUSH1 0xA0 SHL SUB DUP9 AND SWAP1 PUSH4 0xF242432A SWAP1 PUSH2 0x2C84 SWAP1 DUP10 SWAP1 DUP10 SWAP1 DUP10 SWAP1 PUSH1 0x1 SWAP1 DUP11 SWAP1 PUSH1 0x4 ADD PUSH2 0x34A8 JUMP JUMPDEST PUSH1 0x0 PUSH1 0x40 MLOAD DUP1 DUP4 SUB DUP2 PUSH1 0x0 DUP8 DUP1 EXTCODESIZE ISZERO DUP1 ISZERO PUSH2 0x2C9E JUMPI PUSH1 0x0 DUP1 REVERT JUMPDEST POP GAS CALL SWAP3 POP POP POP DUP1 ISZERO PUSH2 0x2CAF JUMPI POP PUSH1 0x1 JUMPDEST PUSH2 0x2CEE JUMPI RETURNDATASIZE DUP1 DUP1 ISZERO PUSH2 0x2CDD JUMPI PUSH1 0x40 MLOAD SWAP2 POP PUSH1 0x1F NOT PUSH1 0x3F RETURNDATASIZE ADD AND DUP3 ADD PUSH1 0x40 MSTORE RETURNDATASIZE DUP3 MSTORE RETURNDATASIZE PUSH1 0x0 PUSH1 0x20 DUP5 ADD RETURNDATACOPY PUSH2 0x2CE2 JUMP JUMPDEST PUSH1 0x60 SWAP2 POP JUMPDEST POP PUSH1 0x0 SWAP3 POP POP POP PUSH2 0x2CFC JUMP JUMPDEST PUSH1 0x1 SWAP2 POP POP PUSH2 0x2CFC JUMP JUMPDEST POP PUSH1 0x1 JUMPDEST SWAP6 SWAP5 POP POP POP POP POP JUMP JUMPDEST PUSH1 0x0 PUSH2 0x2710 PUSH1 0x7 SLOAD DUP4 PUSH2 0x2D18 SWAP2 SWAP1 PUSH2 0x33DD JUMP JUMPDEST PUSH2 0x2D22 SWAP2 SWAP1 PUSH2 0x34E0 JUMP JUMPDEST SWAP1 POP PUSH1 0x0 DUP1 PUSH2 0x2D32 DUP8 DUP8 DUP7 PUSH2 0x2EC7 JUMP JUMPDEST SWAP1 SWAP3 POP SWAP1 POP PUSH1 0x0 DUP2 PUSH2 0x2D44 DUP6 DUP8 PUSH2 0x33CA JUMP JUMPDEST PUSH2 0x2D4E SWAP2 SWAP1 PUSH2 0x33CA JUMP JUMPDEST SWAP1 POP PUSH1 0x0 DUP3 GT DUP1 ISZERO PUSH2 0x2D68 JUMPI POP PUSH1 0x1 PUSH1 0x1 PUSH1 0xA0 SHL SUB DUP4 AND ISZERO ISZERO JUMPDEST ISZERO PUSH2 0x2D9B JUMPI PUSH1 0x1 PUSH1 0x1 PUSH1 0xA0 SHL SUB DUP4 AND PUSH1 0x0 SWAP1 DUP2 MSTORE PUSH1 0x4 PUSH1 0x20 MSTORE PUSH1 0x40 DUP2 KECCAK256 DUP1 SLOAD DUP5 SWAP3 SWAP1 PUSH2 0x2D95 SWAP1 DUP5 SWAP1 PUSH2 0x33F4 JUMP JUMPDEST SWAP1 SWAP2 SSTORE POP POP JUMPDEST PUSH1 0x5 SLOAD PUSH1 0x1 PUSH1 0x1 PUSH1 0xA0 SHL SUB AND PUSH1 0x0 SWAP1 DUP2 MSTORE PUSH1 0x4 PUSH1 0x20 MSTORE PUSH1 0x40 DUP2 KECCAK256 DUP1 SLOAD DUP7 SWAP3 SWAP1 PUSH2 0x2DC5 SWAP1 DUP5 SWAP1 PUSH2 0x33F4 JUMP JUMPDEST SWAP1 SWAP2 SSTORE POP POP PUSH1 0x1 PUSH1 0x1 PUSH1 0xA0 SHL SUB DUP7 AND PUSH1 0x0 SWAP1 DUP2 MSTORE PUSH1 0x4 PUSH1 0x20 MSTORE PUSH1 0x40 DUP2 KECCAK256 DUP1 SLOAD DUP4 SWAP3 SWAP1 PUSH2 0x2DF2 SWAP1 DUP5 SWAP1 PUSH2 0x33F4 JUMP JUMPDEST SWAP1 SWAP2 SSTORE POP POP POP POP POP POP POP POP POP POP JUMP JUMPDEST PUSH1 0x40 MLOAD PUSH4 0x95EA7B3 PUSH1 0xE0 SHL DUP2 MSTORE PUSH1 0x0 PUSH1 0x4 DUP3 ADD DUP2 SWAP1 MSTORE PUSH1 0x24 DUP3 ADD DUP4 SWAP1 MSTORE SWAP1 PUSH1 0x1 PUSH1 0x1 PUSH1 0xA0 SHL SUB DUP6 AND SWAP1 PUSH4 0x95EA7B3 SWAP1 PUSH1 0x44 ADD PUSH1 0x0 PUSH1 0x40 MLOAD DUP1 DUP4 SUB DUP2 PUSH1 0x0 DUP8 DUP1 EXTCODESIZE ISZERO DUP1 ISZERO PUSH2 0x2E4D JUMPI PUSH1 0x0 DUP1 REVERT JUMPDEST POP GAS CALL SWAP3 POP POP POP DUP1 ISZERO PUSH2 0x2E5E JUMPI POP PUSH1 0x1 JUMPDEST PUSH2 0x2B81 JUMPI RETURNDATASIZE DUP1 DUP1 ISZERO PUSH2 0x2E8C JUMPI PUSH1 0x40 MLOAD SWAP2 POP PUSH1 0x1F NOT PUSH1 0x3F RETURNDATASIZE ADD AND DUP3 ADD PUSH1 0x40 MSTORE RETURNDATASIZE DUP3 MSTORE RETURNDATASIZE PUSH1 0x0 PUSH1 0x20 DUP5 ADD RETURNDATACOPY PUSH2 0x2E91 JUMP JUMPDEST PUSH1 0x60 SWAP2 POP JUMPDEST POP PUSH1 0x40 MLOAD PUSH4 0xA22CB465 PUSH1 0xE0 SHL DUP2 MSTORE PUSH1 0x1 PUSH1 0x1 PUSH1 0xA0 SHL SUB DUP6 DUP2 AND PUSH1 0x4 DUP4 ADD MSTORE PUSH1 0x0 PUSH1 0x24 DUP4 ADD MSTORE DUP7 AND SWAP1 PUSH4 0xA22CB465 SWAP1 PUSH1 0x44 ADD PUSH2 0x2B1E JUMP JUMPDEST PUSH1 0x0 DUP1 PUSH2 0x2EDB DUP6 PUSH4 0x152A902D PUSH1 0xE1 SHL PUSH2 0x2F70 JUMP JUMPDEST ISZERO PUSH2 0x2F61 JUMPI PUSH1 0x40 MLOAD PUSH4 0x152A902D PUSH1 0xE1 SHL DUP2 MSTORE PUSH1 0x4 DUP2 ADD DUP6 SWAP1 MSTORE PUSH1 0x24 DUP2 ADD DUP5 SWAP1 MSTORE PUSH1 0x0 SWAP1 DUP2 SWAP1 PUSH1 0x1 PUSH1 0x1 PUSH1 0xA0 SHL SUB DUP9 AND SWAP1 PUSH4 0x2A55205A SWAP1 PUSH1 0x44 ADD PUSH1 0x40 DUP1 MLOAD DUP1 DUP4 SUB DUP2 DUP7 GAS STATICCALL ISZERO DUP1 ISZERO PUSH2 0x2F30 JUMPI RETURNDATASIZE PUSH1 0x0 DUP1 RETURNDATACOPY RETURNDATASIZE PUSH1 0x0 REVERT JUMPDEST POP POP POP POP PUSH1 0x40 MLOAD RETURNDATASIZE PUSH1 0x1F NOT PUSH1 0x1F DUP3 ADD AND DUP3 ADD DUP1 PUSH1 0x40 MSTORE POP DUP2 ADD SWAP1 PUSH2 0x2F54 SWAP2 SWAP1 PUSH2 0x3502 JUMP JUMPDEST SWAP1 SWAP5 POP SWAP3 POP PUSH2 0x2F68 SWAP2 POP POP JUMP JUMPDEST POP PUSH1 0x0 SWAP1 POP DUP1 JUMPDEST SWAP4 POP SWAP4 SWAP2 POP POP JUMP JUMPDEST PUSH1 0x0 PUSH2 0x2F7B DUP4 PUSH2 0x2F95 JUMP JUMPDEST DUP1 ISZERO PUSH2 0x2F8C JUMPI POP PUSH2 0x2F8C DUP4 DUP4 PUSH2 0x2FE0 JUMP JUMPDEST SWAP1 POP JUMPDEST SWAP3 SWAP2 POP POP JUMP JUMPDEST PUSH1 0x0 PUSH2 0x2FA8 DUP3 PUSH4 0x1FFC9A7 PUSH1 0xE0 SHL PUSH2 0x2FE0 JUMP JUMPDEST DUP1 ISZERO PUSH2 0x2F8F JUMPI POP PUSH2 0x2FD9 DUP3 PUSH32 0xFFFFFFFF00000000000000000000000000000000000000000000000000000000 PUSH2 0x2FE0 JUMP JUMPDEST ISZERO SWAP3 SWAP2 POP POP JUMP JUMPDEST PUSH1 0x40 DUP1 MLOAD PUSH32 0xFFFFFFFF00000000000000000000000000000000000000000000000000000000 DUP4 AND PUSH1 0x24 DUP1 DUP4 ADD SWAP2 SWAP1 SWAP2 MSTORE DUP3 MLOAD DUP1 DUP4 SUB SWAP1 SWAP2 ADD DUP2 MSTORE PUSH1 0x44 SWAP1 SWAP2 ADD SWAP1 SWAP2 MSTORE PUSH1 0x20 DUP1 DUP3 ADD DUP1 MLOAD PUSH28 0xFFFFFFFFFFFFFFFFFFFFFFFFFFFFFFFFFFFFFFFFFFFFFFFFFFFFFFFF AND PUSH4 0x1FFC9A7 PUSH1 0xE0 SHL OR DUP2 MSTORE DUP3 MLOAD PUSH1 0x0 SWAP4 SWAP3 DUP5 SWAP3 DUP4 SWAP3 DUP4 SWAP3 SWAP2 DUP4 SWAP2 SWAP1 DUP11 PUSH2 0x7530 STATICCALL SWAP3 POP RETURNDATASIZE SWAP2 POP PUSH1 0x0 MLOAD SWAP1 POP DUP3 DUP1 ISZERO PUSH2 0x307F JUMPI POP PUSH1 0x20 DUP3 LT ISZERO JUMPDEST DUP1 ISZERO PUSH2 0x308B JUMPI POP PUSH1 0x0 DUP2 GT JUMPDEST SWAP8 SWAP7 POP POP POP POP POP POP POP JUMP JUMPDEST PUSH1 0x1 PUSH1 0x1 PUSH1 0xA0 SHL SUB DUP2 AND DUP2 EQ PUSH2 0x30AB JUMPI PUSH1 0x0 DUP1 REVERT JUMPDEST POP JUMP JUMPDEST PUSH1 0x0 DUP1 PUSH1 0x0 PUSH1 0x60 DUP5 DUP7 SUB SLT ISZERO PUSH2 0x30C3 JUMPI PUSH1 0x0 DUP1 REVERT JUMPDEST DUP4 CALLDATALOAD PUSH2 0x30CE DUP2 PUSH2 0x3096 JUMP JUMPDEST SWAP6 PUSH1 0x20 DUP6 ADD CALLDATALOAD SWAP6 POP PUSH1 0x40 SWAP1 SWAP5 ADD CALLDATALOAD SWAP4 SWAP3 POP POP POP JUMP JUMPDEST PUSH1 0x0 PUSH1 0x20 DUP3 DUP5 SUB SLT ISZERO PUSH2 0x30F5 JUMPI PUSH1 0x0 DUP1 REVERT JUMPDEST DUP2 CALLDATALOAD PUSH2 0x2A53 DUP2 PUSH2 0x3096 JUMP JUMPDEST PUSH1 0x0 DUP1 PUSH1 0x40 DUP4 DUP6 SUB SLT ISZERO PUSH2 0x3113 JUMPI PUSH1 0x0 DUP1 REVERT JUMPDEST DUP3 CALLDATALOAD PUSH2 0x311E DUP2 PUSH2 0x3096 JUMP JUMPDEST SWAP5 PUSH1 0x20 SWAP4 SWAP1 SWAP4 ADD CALLDATALOAD SWAP4 POP POP POP JUMP JUMPDEST PUSH1 0x0 DUP1 DUP4 PUSH1 0x1F DUP5 ADD SLT PUSH2 0x313E JUMPI PUSH1 0x0 DUP1 REVERT JUMPDEST POP DUP2 CALLDATALOAD PUSH8 0xFFFFFFFFFFFFFFFF DUP2 GT ISZERO PUSH2 0x3156 JUMPI PUSH1 0x0 DUP1 REVERT JUMPDEST PUSH1 0x20 DUP4 ADD SWAP2 POP DUP4 PUSH1 0x20 DUP3 PUSH1 0x5 SHL DUP6 ADD ADD GT ISZERO PUSH2 0x3171 JUMPI PUSH1 0x0 DUP1 REVERT JUMPDEST SWAP3 POP SWAP3 SWAP1 POP JUMP JUMPDEST PUSH1 0x0 DUP1 PUSH1 0x0 DUP1 PUSH1 0x40 DUP6 DUP8 SUB SLT ISZERO PUSH2 0x318E JUMPI PUSH1 0x0 DUP1 REVERT JUMPDEST DUP5 CALLDATALOAD PUSH8 0xFFFFFFFFFFFFFFFF DUP1 DUP3 GT ISZERO PUSH2 0x31A6 JUMPI PUSH1 0x0 DUP1 REVERT JUMPDEST PUSH2 0x31B2 DUP9 DUP4 DUP10 ADD PUSH2 0x312C JUMP JUMPDEST SWAP1 SWAP7 POP SWAP5 POP PUSH1 0x20 DUP8 ADD CALLDATALOAD SWAP2 POP DUP1 DUP3 GT ISZERO PUSH2 0x31CB JUMPI PUSH1 0x0 DUP1 REVERT JUMPDEST POP PUSH2 0x31D8 DUP8 DUP3 DUP9 ADD PUSH2 0x312C JUMP JUMPDEST SWAP6 SWAP9 SWAP5 SWAP8 POP SWAP6 POP POP POP POP JUMP JUMPDEST PUSH1 0x0 DUP1 PUSH1 0x0 DUP1 PUSH1 0x0 DUP1 PUSH1 0x0 DUP1 PUSH1 0x80 DUP10 DUP12 SUB SLT ISZERO PUSH2 0x3200 JUMPI PUSH1 0x0 DUP1 REVERT JUMPDEST DUP9 CALLDATALOAD PUSH8 0xFFFFFFFFFFFFFFFF DUP1 DUP3 GT ISZERO PUSH2 0x3218 JUMPI PUSH1 0x0 DUP1 REVERT JUMPDEST PUSH2 0x3224 DUP13 DUP4 DUP14 ADD PUSH2 0x312C JUMP JUMPDEST SWAP1 SWAP11 POP SWAP9 POP PUSH1 0x20 DUP12 ADD CALLDATALOAD SWAP2 POP DUP1 DUP3 GT ISZERO PUSH2 0x323D JUMPI PUSH1 0x0 DUP1 REVERT JUMPDEST PUSH2 0x3249 DUP13 DUP4 DUP14 ADD PUSH2 0x312C JUMP JUMPDEST SWAP1 SWAP9 POP SWAP7 POP PUSH1 0x40 DUP12 ADD CALLDATALOAD SWAP2 POP DUP1 DUP3 GT ISZERO PUSH2 0x3262 JUMPI PUSH1 0x0 DUP1 REVERT JUMPDEST PUSH2 0x326E DUP13 DUP4 DUP14 ADD PUSH2 0x312C JUMP JUMPDEST SWAP1 SWAP7 POP SWAP5 POP PUSH1 0x60 DUP12 ADD CALLDATALOAD SWAP2 POP DUP1 DUP3 GT ISZERO PUSH2 0x3287 JUMPI PUSH1 0x0 DUP1 REVERT JUMPDEST POP PUSH2 0x3294 DUP12 DUP3 DUP13 ADD PUSH2 0x312C JUMP JUMPDEST SWAP10 SWAP13 SWAP9 SWAP12 POP SWAP7 SWAP10 POP SWAP5 SWAP8 SWAP4 SWAP7 SWAP3 SWAP6 SWAP5 POP POP POP JUMP JUMPDEST PUSH1 0x0 PUSH1 0x20 DUP3 DUP5 SUB SLT ISZERO PUSH2 0x32BA JUMPI PUSH1 0x0 DUP1 REVERT JUMPDEST POP CALLDATALOAD SWAP2 SWAP1 POP JUMP JUMPDEST PUSH1 0x0 DUP1 PUSH1 0x0 DUP1 PUSH1 0x0 DUP1 PUSH1 0x60 DUP8 DUP10 SUB SLT ISZERO PUSH2 0x32DA JUMPI PUSH1 0x0 DUP1 REVERT JUMPDEST DUP7 CALLDATALOAD PUSH8 0xFFFFFFFFFFFFFFFF DUP1 DUP3 GT ISZERO PUSH2 0x32F2 JUMPI PUSH1 0x0 DUP1 REVERT JUMPDEST PUSH2 0x32FE DUP11 DUP4 DUP12 ADD PUSH2 0x312C JUMP JUMPDEST SWAP1 SWAP9 POP SWAP7 POP PUSH1 0x20 DUP10 ADD CALLDATALOAD SWAP2 POP DUP1 DUP3 GT ISZERO PUSH2 0x3317 JUMPI PUSH1 0x0 DUP1 REVERT JUMPDEST PUSH2 0x3323 DUP11 DUP4 DUP12 ADD PUSH2 0x312C JUMP JUMPDEST SWAP1 SWAP7 POP SWAP5 POP PUSH1 0x40 DUP10 ADD CALLDATALOAD SWAP2 POP DUP1 DUP3 GT ISZERO PUSH2 0x333C JUMPI PUSH1 0x0 DUP1 REVERT JUMPDEST POP PUSH2 0x3349 DUP10 DUP3 DUP11 ADD PUSH2 0x312C JUMP JUMPDEST SWAP8 SWAP11 SWAP7 SWAP10 POP SWAP5 SWAP8 POP SWAP3 SWAP6 SWAP4 SWAP5 SWAP3 POP POP POP JUMP JUMPDEST PUSH1 0x0 DUP2 MLOAD DUP1 DUP5 MSTORE PUSH1 0x0 JUMPDEST DUP2 DUP2 LT ISZERO PUSH2 0x3381 JUMPI PUSH1 0x20 DUP2 DUP6 ADD DUP2 ADD MLOAD DUP7 DUP4 ADD DUP3 ADD MSTORE ADD PUSH2 0x3365 JUMP JUMPDEST POP PUSH1 0x0 PUSH1 0x20 DUP3 DUP7 ADD ADD MSTORE PUSH1 0x20 PUSH1 0x1F NOT PUSH1 0x1F DUP4 ADD AND DUP6 ADD ADD SWAP2 POP POP SWAP3 SWAP2 POP POP JUMP JUMPDEST PUSH1 0x20 DUP2 MSTORE PUSH1 0x0 PUSH2 0x2F8C PUSH1 0x20 DUP4 ADD DUP5 PUSH2 0x335B JUMP JUMPDEST PUSH4 0x4E487B71 PUSH1 0xE0 SHL PUSH1 0x0 MSTORE PUSH1 0x11 PUSH1 0x4 MSTORE PUSH1 0x24 PUSH1 0x0 REVERT JUMPDEST DUP2 DUP2 SUB DUP2 DUP2 GT ISZERO PUSH2 0x2F8F JUMPI PUSH2 0x2F8F PUSH2 0x33B4 JUMP JUMPDEST DUP1 DUP3 MUL DUP2 ISZERO DUP3 DUP3 DIV DUP5 EQ OR PUSH2 0x2F8F JUMPI PUSH2 0x2F8F PUSH2 0x33B4 JUMP JUMPDEST DUP1 DUP3 ADD DUP1 DUP3 GT ISZERO PUSH2 0x2F8F JUMPI PUSH2 0x2F8F PUSH2 0x33B4 JUMP JUMPDEST PUSH4 0x4E487B71 PUSH1 0xE0 SHL PUSH1 0x0 MSTORE PUSH1 0x32 PUSH1 0x4 MSTORE PUSH1 0x24 PUSH1 0x0 REVERT JUMPDEST PUSH1 0x0 PUSH1 0x1 DUP3 ADD PUSH2 0x342F JUMPI PUSH2 0x342F PUSH2 0x33B4 JUMP JUMPDEST POP PUSH1 0x1 ADD SWAP1 JUMP JUMPDEST PUSH1 0x0 PUSH1 0x20 DUP3 DUP5 SUB SLT ISZERO PUSH2 0x3448 JUMPI PUSH1 0x0 DUP1 REVERT JUMPDEST DUP2 MLOAD PUSH2 0x2A53 DUP2 PUSH2 0x3096 JUMP JUMPDEST PUSH1 0x0 PUSH1 0x20 DUP3 DUP5 SUB SLT ISZERO PUSH2 0x3465 JUMPI PUSH1 0x0 DUP1 REVERT JUMPDEST POP MLOAD SWAP2 SWAP1 POP JUMP JUMPDEST PUSH1 0x0 PUSH1 0x1 PUSH1 0x1 PUSH1 0xA0 SHL SUB DUP1 DUP8 AND DUP4 MSTORE DUP1 DUP7 AND PUSH1 0x20 DUP5 ADD MSTORE POP DUP4 PUSH1 0x40 DUP4 ADD MSTORE PUSH1 0x80 PUSH1 0x60 DUP4 ADD MSTORE PUSH2 0x349E PUSH1 0x80 DUP4 ADD DUP5 PUSH2 0x335B JUMP JUMPDEST SWAP7 SWAP6 POP POP POP POP POP POP JUMP JUMPDEST PUSH1 0x0 PUSH1 0x1 PUSH1 0x1 PUSH1 0xA0 SHL SUB DUP1 DUP9 AND DUP4 MSTORE DUP1 DUP8 AND PUSH1 0x20 DUP5 ADD MSTORE POP DUP5 PUSH1 0x40 DUP4 ADD MSTORE DUP4 PUSH1 0x60 DUP4 ADD MSTORE PUSH1 0xA0 PUSH1 0x80 DUP4 ADD MSTORE PUSH2 0x308B PUSH1 0xA0 DUP4 ADD DUP5 PUSH2 0x335B JUMP JUMPDEST PUSH1 0x0 DUP3 PUSH2 0x34FD JUMPI PUSH4 0x4E487B71 PUSH1 0xE0 SHL PUSH1 0x0 MSTORE PUSH1 0x12 PUSH1 0x4 MSTORE PUSH1 0x24 PUSH1 0x0 REVERT JUMPDEST POP DIV SWAP1 JUMP JUMPDEST PUSH1 0x0 DUP1 PUSH1 0x40 DUP4 DUP6 SUB SLT ISZERO PUSH2 0x3515 JUMPI PUSH1 0x0 DUP1 REVERT JUMPDEST DUP3 MLOAD PUSH2 0x3520 DUP2 PUSH2 0x3096 JUMP JUMPDEST PUSH1 0x20 SWAP4 SWAP1 SWAP4 ADD MLOAD SWAP3 SWAP5 SWAP3 SWAP4 POP POP POP JUMP INVALID 0x4D PUSH2 0x726B PUSH6 0x74706C616365 GASPRICE GASPRICE PUSH15 0x6F7420612063726561746F72206F66 KECCAK256 PUSH21 0x6865206269644D61726B6574706C6163653A3A6E6F PUSH21 0x20612063726561746F72206F66207468652061736B 0x4D PUSH2 0x726B PUSH6 0x74706C616365 GASPRICE GASPRICE PUSH2 0x736B KECCAK256 PUSH4 0x72656174 PUSH16 0x72206E6F74206F776E65724D61726B65 PUSH21 0x706C6163653A3A696E73756666696369656E742065 PUSH21 0x6865722073656E744D61726B6574706C6163653A3A PUSH2 0x736B KECCAK256 PUSH17 0x7269636520686967686572207468616E20 PUSH20 0x656E742076616C75654D61726B6574706C616365 GASPRICE GASPRICE PUSH15 0x6F7420616E206F776E6572206F6620 PUSH21 0x6F6B656E204944A2646970667358221220280A41CF 0x5C PUSH18 0x7D1CD266D4C16291E18BDAC72149C144CFC2 MUL 0xD 0x4D 0xB5 0xB3 0xE4 0xA9 KECCAK256 PUSH5 0x736F6C6343 STOP ADDMOD SGT STOP CALLER "},"methodIdentifiers":{"acceptAsk(address[],uint256[])":"3b3facda","acceptBid(address[],uint256[],uint256[])":"db9941f0","acceptCollectionOffer(address,uint256,uint256)":"08d73d13","asks(address,uint256)":"e22d4f7d","bids(address,uint256,uint256)":"46d02934","cancelAsk(address[],uint256[])":"a613b6a9","cancelBid(address[],uint256[],uint256[])":"ae25a412","cancelCollectionOffer(address,uint256)":"386e88ed","changeBeneficiary(address)":"dc070657","collectionOffers(address,uint256)":"7495c6ac","createAsk(address[],uint256[],uint256[],address[])":"835a55ff","createBid(address[],uint256[],uint256[])":"f778550e","createCollectionOffer(address,uint256,uint256)":"d8cfc775","escrow(address)":"57d3c7c3","initialize(address,uint256)":"cd6dc687","revokeAdmin()":"0d6aef04","updateFundAddress(address)":"1d5459f7","updateMarketFee(uint256)":"9b484379","withdraw()":"3ccfd60b"}},"storageLayout":{"storage":[{"astId":6,"contract":"contracts/Marketplace.sol:Marketplace","label":"_initialized","offset":0,"slot":"0","type":"t_uint8"},{"astId":9,"contract":"contracts/Marketplace.sol:Marketplace","label":"_initializing","offset":1,"slot":"0","type":"t_bool"},{"astId":1302,"contract":"contracts/Marketplace.sol:Marketplace","label":"asks","offset":0,"slot":"1","type":"t_mapping(t_address,t_mapping(t_uint256,t_struct(Ask)3322_storage))"},{"astId":1311,"contract":"contracts/Marketplace.sol:Marketplace","label":"bids","offset":0,"slot":"2","type":"t_mapping(t_address,t_mapping(t_uint256,t_mapping(t_uint256,t_struct(Bid)3331_storage)))"},{"astId":1318,"contract":"contracts/Marketplace.sol:Marketplace","label":"collectionOffers","offset":0,"slot":"3","type":"t_mapping(t_address,t_mapping(t_uint256,t_struct(CollectionOffer)3340_storage))"},{"astId":1322,"contract":"contracts/Marketplace.sol:Marketplace","label":"escrow","offset":0,"slot":"4","type":"t_mapping(t_address,t_uint256)"},{"astId":1324,"contract":"contracts/Marketplace.sol:Marketplace","label":"beneficiary","offset":0,"slot":"5","type":"t_address_payable"},{"astId":1326,"contract":"contracts/Marketplace.sol:Marketplace","label":"admin","offset":0,"slot":"6","type":"t_address"},{"astId":1328,"contract":"contracts/Marketplace.sol:Marketplace","label":"marketFee","offset":0,"slot":"7","type":"t_uint256"},{"astId":1330,"contract":"contracts/Marketplace.sol:Marketplace","label":"current_bid_id","offset":0,"slot":"8","type":"t_uint256"},{"astId":1332,"contract":"contracts/Marketplace.sol:Marketplace","label":"current_collection_offer_id","offset":0,"slot":"9","type":"t_uint256"}],"types":{"t_address":{"encoding":"inplace","label":"address","numberOfBytes":"20"},"t_address_payable":{"encoding":"inplace","label":"address payable","numberOfBytes":"20"},"t_bool":{"encoding":"inplace","label":"bool","numberOfBytes":"1"},"t_mapping(t_address,t_mapping(t_uint256,t_mapping(t_uint256,t_struct(Bid)3331_storage)))":{"encoding":"mapping","key":"t_address","label":"mapping(address => mapping(uint256 => mapping(uint256 => struct IMarketplace.Bid)))","numberOfBytes":"32","value":"t_mapping(t_uint256,t_mapping(t_uint256,t_struct(Bid)3331_storage))"},"t_mapping(t_address,t_mapping(t_uint256,t_struct(Ask)3322_storage))":{"encoding":"mapping","key":"t_address","label":"mapping(address => mapping(uint256 => struct IMarketplace.Ask))","numberOfBytes":"32","value":"t_mapping(t_uint256,t_struct(Ask)3322_storage)"},"t_mapping(t_address,t_mapping(t_uint256,t_struct(CollectionOffer)3340_storage))":{"encoding":"mapping","key":"t_address","label":"mapping(address => mapping(uint256 => struct IMarketplace.CollectionOffer))","numberOfBytes":"32","value":"t_mapping(t_uint256,t_struct(CollectionOffer)3340_storage)"},"t_mapping(t_address,t_uint256)":{"encoding":"mapping","key":"t_address","label":"mapping(address => uint256)","numberOfBytes":"32","value":"t_uint256"},"t_mapping(t_uint256,t_mapping(t_uint256,t_struct(Bid)3331_storage))":{"encoding":"mapping","key":"t_uint256","label":"mapping(uint256 => mapping(uint256 => struct IMarketplace.Bid))","numberOfBytes":"32","value":"t_mapping(t_uint256,t_struct(Bid)3331_storage)"},"t_mapping(t_uint256,t_struct(Ask)3322_storage)":{"encoding":"mapping","key":"t_uint256","label":"mapping(uint256 => struct IMarketplace.Ask)","numberOfBytes":"32","value":"t_struct(Ask)3322_storage"},"t_mapping(t_uint256,t_struct(Bid)3331_storage)":{"encoding":"mapping","key":"t_uint256","label":"mapping(uint256 => struct IMarketplace.Bid)","numberOfBytes":"32","value":"t_struct(Bid)3331_storage"},"t_mapping(t_uint256,t_struct(CollectionOffer)3340_storage)":{"encoding":"mapping","key":"t_uint256","label":"mapping(uint256 => struct IMarketplace.CollectionOffer)","numberOfBytes":"32","value":"t_struct(CollectionOffer)3340_storage"},"t_struct(Ask)3322_storage":{"encoding":"inplace","label":"struct IMarketplace.Ask","members":[{"astId":3315,"contract":"contracts/Marketplace.sol:Marketplace","label":"exists","offset":0,"slot":"0","type":"t_bool"},{"astId":3317,"contract":"contracts/Marketplace.sol:Marketplace","label":"seller","offset":1,"slot":"0","type":"t_address"},{"astId":3319,"contract":"contracts/Marketplace.sol:Marketplace","label":"price","offset":0,"slot":"1","type":"t_uint256"},{"astId":3321,"contract":"contracts/Marketplace.sol:Marketplace","label":"to","offset":0,"slot":"2","type":"t_address"}],"numberOfBytes":"96"},"t_struct(Bid)3331_storage":{"encoding":"inplace","label":"struct IMarketplace.Bid","members":[{"astId":3324,"contract":"contracts/Marketplace.sol:Marketplace","label":"bid_id","offset":0,"slot":"0","type":"t_uint256"},{"astId":3326,"contract":"contracts/Marketplace.sol:Marketplace","label":"exists","offset":0,"slot":"1","type":"t_bool"},{"astId":3328,"contract":"contracts/Marketplace.sol:Marketplace","label":"buyer","offset":1,"slot":"1","type":"t_address"},{"astId":3330,"contract":"contracts/Marketplace.sol:Marketplace","label":"price","offset":0,"slot":"2","type":"t_uint256"}],"numberOfBytes":"96"},"t_struct(CollectionOffer)3340_storage":{"encoding":"inplace","label":"struct IMarketplace.CollectionOffer","members":[{"astId":3333,"contract":"contracts/Marketplace.sol:Marketplace","label":"collection_offer_id","offset":0,"slot":"0","type":"t_uint256"},{"astId":3335,"contract":"contracts/Marketplace.sol:Marketplace","label":"bidder","offset":0,"slot":"1","type":"t_address"},{"astId":3337,"contract":"contracts/Marketplace.sol:Marketplace","label":"price_per_item","offset":0,"slot":"2","type":"t_uint256"},{"astId":3339,"contract":"contracts/Marketplace.sol:Marketplace","label":"amount","offset":0,"slot":"3","type":"t_uint256"}],"numberOfBytes":"128"},"t_uint256":{"encoding":"inplace","label":"uint256","numberOfBytes":"32"},"t_uint8":{"encoding":"inplace","label":"uint8","numberOfBytes":"1"}}}}}}