{"contracts/Marketplace.sol":{"Marketplace":{"abi":[{"anonymous":false,"inputs":[{"indexed":false,"internalType":"uint256","name":"event_id","type":"uint256"},{"indexed":true,"internalType":"address","name":"nft","type":"address"},{"indexed":true,"internalType":"uint256","name":"tokenID","type":"uint256"},{"indexed":false,"internalType":"uint256","name":"price","type":"uint256"},{"indexed":true,"internalType":"address","name":"buyer","type":"address"},{"indexed":false,"internalType":"address","name":"to","type":"address"}],"name":"AcceptAsk","type":"event"},{"anonymous":false,"inputs":[{"indexed":false,"internalType":"uint256","name":"event_id","type":"uint256"},{"indexed":false,"internalType":"uint256","name":"bid_id","type":"uint256"},{"indexed":true,"internalType":"address","name":"nft","type":"address"},{"indexed":true,"internalType":"uint256","name":"tokenID","type":"uint256"},{"indexed":false,"internalType":"address","name":"bidder","type":"address"},{"indexed":true,"internalType":"address","name":"accepter","type":"address"},{"indexed":false,"internalType":"uint256","name":"price","type":"uint256"}],"name":"AcceptBid","type":"event"},{"anonymous":false,"inputs":[{"indexed":false,"internalType":"uint256","name":"event_id","type":"uint256"},{"indexed":false,"internalType":"uint256","name":"collection_offer_id","type":"uint256"},{"indexed":false,"internalType":"address","name":"bidder","type":"address"},{"indexed":false,"internalType":"uint256","name":"price_per_item","type":"uint256"},{"indexed":false,"internalType":"uint256","name":"remaining_quantity","type":"uint256"}],"name":"AcceptCollectionOffer","type":"event"},{"anonymous":false,"inputs":[{"indexed":false,"internalType":"uint256","name":"event_id","type":"uint256"},{"indexed":true,"internalType":"address","name":"seller","type":"address"},{"indexed":true,"internalType":"address","name":"nft","type":"address"},{"indexed":true,"internalType":"uint256","name":"tokenID","type":"uint256"}],"name":"CancelAsk","type":"event"},{"anonymous":false,"inputs":[{"indexed":false,"internalType":"uint256","name":"event_id","type":"uint256"},{"indexed":false,"internalType":"uint256","name":"bid_id","type":"uint256"},{"indexed":true,"internalType":"address","name":"nft","type":"address"},{"indexed":true,"internalType":"uint256","name":"tokenID","type":"uint256"},{"indexed":true,"internalType":"address","name":"bidder","type":"address"}],"name":"CancelBid","type":"event"},{"anonymous":false,"inputs":[{"indexed":false,"internalType":"uint256","name":"event_id","type":"uint256"},{"indexed":false,"internalType":"uint256","name":"collection_offer_id","type":"uint256"},{"indexed":false,"internalType":"address","name":"bidder","type":"address"},{"indexed":false,"internalType":"uint256","name":"price_per_item","type":"uint256"},{"indexed":false,"internalType":"uint256","name":"quantity","type":"uint256"},{"indexed":false,"internalType":"uint256","name":"recived_amount","type":"uint256"}],"name":"CancleCollectionOffer","type":"event"},{"anonymous":false,"inputs":[{"indexed":false,"internalType":"uint256","name":"event_id","type":"uint256"},{"indexed":true,"internalType":"address","name":"seller","type":"address"},{"indexed":true,"internalType":"address","name":"nft","type":"address"},{"indexed":true,"internalType":"uint256","name":"tokenID","type":"uint256"},{"indexed":false,"internalType":"uint256","name":"price","type":"uint256"},{"indexed":false,"internalType":"address","name":"to","type":"address"}],"name":"CreateAsk","type":"event"},{"anonymous":false,"inputs":[{"indexed":false,"internalType":"uint256","name":"event_id","type":"uint256"},{"indexed":false,"internalType":"uint256","name":"bid_id","type":"uint256"},{"indexed":true,"internalType":"address","name":"nft","type":"address"},{"indexed":true,"internalType":"uint256","name":"tokenID","type":"uint256"},{"indexed":true,"internalType":"address","name":"bidder","type":"address"},{"indexed":false,"internalType":"uint256","name":"price","type":"uint256"}],"name":"CreateBid","type":"event"},{"anonymous":false,"inputs":[{"indexed":false,"internalType":"uint256","name":"event_id","type":"uint256"},{"indexed":false,"internalType":"uint256","name":"collection_offer_id","type":"uint256"},{"indexed":false,"internalType":"address","name":"bidder","type":"address"},{"indexed":false,"internalType":"uint256","name":"price_per_item","type":"uint256"},{"indexed":false,"internalType":"uint256","name":"quantity","type":"uint256"}],"name":"CreateCollectionOffer","type":"event"},{"anonymous":false,"inputs":[{"indexed":false,"internalType":"uint8","name":"version","type":"uint8"}],"name":"Initialized","type":"event"},{"anonymous":false,"inputs":[{"indexed":false,"internalType":"uint256","name":"event_id","type":"uint256"},{"indexed":false,"internalType":"address","name":"sender","type":"address"},{"indexed":false,"internalType":"uint256","name":"amount","type":"uint256"}],"name":"WithdrawEvent","type":"event"},{"inputs":[{"internalType":"address[]","name":"nft","type":"address[]"},{"internalType":"uint256[]","name":"tokenID","type":"uint256[]"},{"internalType":"uint256[]","name":"prices","type":"uint256[]"}],"name":"acceptAsk","outputs":[],"stateMutability":"payable","type":"function"},{"inputs":[{"internalType":"address[]","name":"nft","type":"address[]"},{"internalType":"uint256[]","name":"tokenID","type":"uint256[]"},{"internalType":"uint256[]","name":"bidID","type":"uint256[]"},{"internalType":"uint256[]","name":"prices","type":"uint256[]"}],"name":"acceptBid","outputs":[],"stateMutability":"payable","type":"function"},{"inputs":[{"internalType":"address","name":"nft","type":"address"},{"internalType":"uint256","name":"tokenID","type":"uint256"},{"internalType":"uint256","name":"collectionOfferId","type":"uint256"},{"internalType":"uint256","name":"price","type":"uint256"}],"name":"acceptCollectionOffer","outputs":[],"stateMutability":"payable","type":"function"},{"inputs":[{"internalType":"address","name":"","type":"address"},{"internalType":"uint256","name":"","type":"uint256"}],"name":"asks","outputs":[{"internalType":"bool","name":"exists","type":"bool"},{"internalType":"address","name":"seller","type":"address"},{"internalType":"uint256","name":"price","type":"uint256"},{"internalType":"address","name":"to","type":"address"}],"stateMutability":"view","type":"function"},{"inputs":[{"internalType":"address","name":"","type":"address"},{"internalType":"uint256","name":"","type":"uint256"},{"internalType":"uint256","name":"","type":"uint256"}],"name":"bids","outputs":[{"internalType":"uint256","name":"bid_id","type":"uint256"},{"internalType":"bool","name":"exists","type":"bool"},{"internalType":"address","name":"buyer","type":"address"},{"internalType":"uint256","name":"price","type":"uint256"}],"stateMutability":"view","type":"function"},{"inputs":[{"internalType":"address[]","name":"nft","type":"address[]"},{"internalType":"uint256[]","name":"tokenID","type":"uint256[]"}],"name":"cancelAsk","outputs":[],"stateMutability":"nonpayable","type":"function"},{"inputs":[{"internalType":"address[]","name":"nft","type":"address[]"},{"internalType":"uint256[]","name":"tokenID","type":"uint256[]"},{"internalType":"uint256[]","name":"bidID","type":"uint256[]"}],"name":"cancelBid","outputs":[],"stateMutability":"nonpayable","type":"function"},{"inputs":[{"internalType":"address","name":"nft","type":"address"},{"internalType":"uint256","name":"collectionOfferId","type":"uint256"}],"name":"cancelCollectionOffer","outputs":[],"stateMutability":"nonpayable","type":"function"},{"inputs":[{"internalType":"address","name":"","type":"address"},{"internalType":"uint256","name":"","type":"uint256"}],"name":"collectionOffers","outputs":[{"internalType":"uint256","name":"collection_offer_id","type":"uint256"},{"internalType":"address","name":"bidder","type":"address"},{"internalType":"uint256","name":"price_per_item","type":"uint256"},{"internalType":"uint256","name":"amount","type":"uint256"}],"stateMutability":"view","type":"function"},{"inputs":[{"internalType":"address[]","name":"nft","type":"address[]"},{"internalType":"uint256[]","name":"tokenID","type":"uint256[]"},{"internalType":"uint256[]","name":"price","type":"uint256[]"},{"internalType":"address[]","name":"to","type":"address[]"}],"name":"createAsk","outputs":[],"stateMutability":"nonpayable","type":"function"},{"inputs":[{"internalType":"address[]","name":"nft","type":"address[]"},{"internalType":"uint256[]","name":"tokenID","type":"uint256[]"},{"internalType":"uint256[]","name":"price","type":"uint256[]"}],"name":"createBid","outputs":[],"stateMutability":"payable","type":"function"},{"inputs":[{"internalType":"address","name":"nft","type":"address"},{"internalType":"uint256","name":"pricePerItem","type":"uint256"},{"internalType":"uint256","name":"quantity","type":"uint256"}],"name":"createCollectionOffer","outputs":[],"stateMutability":"payable","type":"function"},{"inputs":[{"internalType":"address","name":"","type":"address"}],"name":"escrow","outputs":[{"internalType":"uint256","name":"","type":"uint256"}],"stateMutability":"view","type":"function"},{"inputs":[{"internalType":"address payable","name":"newBeneficiary","type":"address"},{"internalType":"uint256","name":"_marketFee","type":"uint256"}],"name":"initialize","outputs":[],"stateMutability":"nonpayable","type":"function"},{"inputs":[],"name":"revokeAdmin","outputs":[],"stateMutability":"nonpayable","type":"function"},{"inputs":[{"internalType":"address payable","name":"_newFund","type":"address"}],"name":"updateFundAddress","outputs":[],"stateMutability":"nonpayable","type":"function"},{"inputs":[{"internalType":"uint256","name":"_newFee","type":"uint256"}],"name":"updateMarketFee","outputs":[],"stateMutability":"nonpayable","type":"function"},{"inputs":[],"name":"withdraw","outputs":[],"stateMutability":"nonpayable","type":"function"}],"evm":{"bytecode":{"linkReferences":{},"object":"608060405234801561001057600080fd5b50613770806100206000396000f3fe6080604052600436106101295760003560e01c8063835a55ff116100a5578063ae25a41211610074578063d8cfc77511610059578063d8cfc775146103c1578063e22d4f7d146103d4578063f778550e1461045c57600080fd5b8063ae25a41214610381578063cd6dc687146103a157600080fd5b8063835a55ff1461030e5780639b4843791461032e578063a1d35c491461034e578063a613b6a91461036157600080fd5b80633ccfd60b116100fc578063477fd836116100e1578063477fd8361461024357806357d3c7c3146102565780637495c6ac1461029157600080fd5b80633ccfd60b1461019857806346d02934146101ad57600080fd5b80630d6aef041461012e5780630fe6a689146101455780631d5459f714610158578063386e88ed14610178575b600080fd5b34801561013a57600080fd5b5061014361046f565b005b6101436101533660046131c6565b6104ba565b34801561016457600080fd5b50610143610173366004613278565b610d1f565b34801561018457600080fd5b50610143610193366004613295565b610d8b565b3480156101a457600080fd5b50610143610f42565b3480156101b957600080fd5b5061020b6101c83660046132c1565b600260208181526000948552604080862082529385528385209052908352912080546001820154919092015460ff82169161010090046001600160a01b03169084565b60405161023a949392919093845291151560208401526001600160a01b03166040830152606082015260800190565b60405180910390f35b6101436102513660046132f6565b6110b9565b34801561026257600080fd5b50610283610271366004613278565b60046020526000908152604090205481565b60405190815260200161023a565b34801561029d57600080fd5b506102e66102ac366004613295565b60036020818152600093845260408085209091529183529120805460018201546002830154929093015490926001600160a01b0316919084565b604080519485526001600160a01b03909316602085015291830152606082015260800161023a565b34801561031a57600080fd5b50610143610329366004613331565b6114f0565b34801561033a57600080fd5b506101436103493660046133f5565b6118cd565b61014361035c366004613331565b61191c565b34801561036d57600080fd5b5061014361037c36600461340e565b611eb0565b34801561038d57600080fd5b5061014361039c3660046131c6565b612080565b3480156103ad57600080fd5b506101436103bc366004613295565b61235b565b6101436103cf3660046132c1565b6124b2565b3480156103e057600080fd5b5061042f6103ef366004613295565b6001602081815260009384526040808520909152918352912080549181015460029091015460ff8316926001600160a01b03610100909104811692911684565b6040805194151585526001600160a01b03938416602086015284019190915216606082015260800161023a565b61014361046a3660046131c6565b612615565b6006546001600160a01b031633146104a85760405162461bcd60e51b815260206004820152600060248201526044015b60405180910390fd5b600680546001600160a01b0319169055565b6000805b86811015610cda5760008888838181106104da576104da61347a565b90506020020160208101906104ef9190613278565b6001600160a01b038116600090815260016020526040812091925088888581811061051c5761051c61347a565b90506020020135815260200190815260200160002060000160009054906101000a900460ff166040518060400160405280601f81526020017f4d61726b6574706c6163653a3a61736b20646f6573206e6f7420657869737400815250906105965760405162461bcd60e51b815260040161049f91906134d6565b506001600160a01b038116600090815260016020526040812033918989868181106105c3576105c361347a565b90506020020135815260200190815260200160002060000160019054906101000a90046001600160a01b03166001600160a01b031614156040518060400160405280602081526020017f4d61726b6574706c6163653a3a63616e7420616363657074206f776e2061736b8152509061064e5760405162461bcd60e51b815260040161049f91906134d6565b506001600160a01b03811660009081526001602052604081208189898681811061067a5761067a61347a565b60209081029290920135835250810191909152604001600020600201546001600160a01b03161461075d576001600160a01b038116600090815260016020526040812033918989868181106106d1576106d161347a565b90506020020135815260200190815260200160002060020160009054906101000a90046001600160a01b03166001600160a01b0316146040518060400160405280601c81526020017f4d61726b6574706c6163653a3a61736b206973207265736572766564000000008152509061075b5760405162461bcd60e51b815260040161049f91906134d6565b505b6001600160a01b038116600090815260016020526040812061080890828a8a8781811061078c5761078c61347a565b90506020020135815260200190815260200160002060000160019054906101000a90046001600160a01b03168989868181106107ca576107ca61347a565b905060200201358c8c878181106107e3576107e361347a565b90506020020160208101906107f89190613278565b6001600160a01b0316919061287d565b116040518060600160405280602281526020016136a360229139906108405760405162461bcd60e51b815260040161049f91906134d6565b506001600160a01b03811660009081526001602052604081209088888581811061086c5761086c61347a565b905060200201358152602001908152602001600020600101548585848181106108975761089761347a565b90506020020135146108eb5760405162461bcd60e51b815260206004820152601f60248201527f4e6f7420656e6f7567682062616c616e636520666f7220707572636861736500604482015260640161049f565b6109c4818888858181106109015761090161347a565b9050602002013560016000856001600160a01b03166001600160a01b0316815260200190815260200160002060008b8b888181106109415761094161347a565b90506020020135815260200190815260200160002060000160019054906101000a90046001600160a01b031660016000866001600160a01b03166001600160a01b0316815260200190815260200160002060008c8c898181106109a6576109a661347a565b90506020020135815260200190815260200160002060010154612a26565b6000600a5460016109d591906134ff565b9050338888858181106109ea576109ea61347a565b90506020020135836001600160a01b03167f1893daa2088b7f003d8aa7be0230d3be7f84d937349fec2cfbee71e00e3fc7fa8460016000886001600160a01b03166001600160a01b0316815260200190815260200160002060008e8e8b818110610a5657610a5661347a565b9050602002013581526020019081526020016000206001015460016000896001600160a01b03166001600160a01b0316815260200190815260200160002060008f8f8c818110610aa857610aa861347a565b60209081029290920135835250818101929092526040908101600020600201548151948552918401929092526001600160a01b03169082015260600160405180910390a46001600160a01b0382166000908152600160205260408120610bad90828b8b88818110610b1b57610b1b61347a565b90506020020135815260200190815260200160002060000160019054906101000a90046001600160a01b0316338b8b88818110610b5a57610b5a61347a565b60408051600081526020808201909252910292909201359190508f8f8a818110610b8657610b8661347a565b9050602002016020810190610b9b9190613278565b6001600160a01b031693929190612b22565b9050806040518060400160405280601981526020017f4d61726b6574706c6163653a3a4e4654206e6f742073656e740000000000000081525090610c045760405162461bcd60e51b815260040161049f91906134d6565b506001600160a01b0383166000908152600160205260408120908a8a87818110610c3057610c3061347a565b9050602002013581526020019081526020016000206001015485610c5491906134ff565b6001600160a01b03841660009081526001602052604081209196508a8a87818110610c8157610c8161347a565b60209081029290920135835250810191909152604001600090812080546001600160a81b031916815560018082019290925560020180546001600160a01b0319169055600a8054820190559390930192506104be915050565b503481146040518060600160405280602d81526020016136e9602d913990610d155760405162461bcd60e51b815260040161049f91906134d6565b5050505050505050565b6006546001600160a01b03163314610d695760405162461bcd60e51b815260206004820152600d60248201526c24b73b30b634b21020b236b4b760991b604482015260640161049f565b600580546001600160a01b0319166001600160a01b0392909216919091179055565b6001600160a01b0380831660009081526003602090815260408083208584528252918290206001015482516060810190935260258084528694919091163314929161367e9083013990610df15760405162461bcd60e51b815260040161049f91906134d6565b506001600160a01b038116600090815260036020818152604080842086855290915282206002810154910154610e279190613512565b33600090815260046020526040812080549293508392909190610e4b9084906134ff565b9091555050600a54600090610e619060016134ff565b90506001600a6000828254610e7691906134ff565b90915550506001600160a01b03831660009081526003602081815260408084208885528252928390206002810154920154835185815291820188905233828501526060820192909252608081019190915260a0810184905290517f40ffe2ee66f82477e49a0b777198628020db35e648f0c4baae247ab025bd48fa9181900360c00190a150506001600160a01b031660009081526003602081815260408084209484529390529181208181556001810180546001600160a01b0319169055600281018290559091015550565b3360009081526004602052604090205480610f9f5760405162461bcd60e51b815260206004820152601d60248201527f4e6f7420656e6f75676820616d6f756e7420746f207769746864726177000000604482015260640161049f565b33600081815260046020526040808220829055519091829184908381818185875af1925050503d8060008114610ff1576040519150601f19603f3d011682016040523d82523d6000602084013e610ff6565b606091505b5091509150816110485760405162461bcd60e51b815260206004820152601460248201527f4661696c656420746f2073656e64204574686572000000000000000000000000604482015260640161049f565b6000600a54600161105991906134ff565b90506001600a600082825461106e91906134ff565b9091555050604080518281523360208201529081018590527f8cf1dfe3b4685982358f16fbcb1d9192f7945d25d503b15a39bd2bf5dfc6bf7a9060600160405180910390a150505050565b6001600160a01b0384166000908152600360208181526040808420868552909152909120015484906111535760405162461bcd60e51b815260206004820152602360248201527f7265616d61696e20616d6f756e74206d7573742067726561746572207468616e60448201527f2030200000000000000000000000000000000000000000000000000000000000606482015260840161049f565b60006111696001600160a01b038716338761287d565b1160405180606001604052806025815260200161371660259139906111a15760405162461bcd60e51b815260040161049f91906134d6565b503482146111f15760405162461bcd60e51b815260206004820152601260248201527f4e6f7420656e6f7567682062616c616e63650000000000000000000000000000604482015260640161049f565b60006112076001600160a01b0387163087612c9e565b9050806112565760405162461bcd60e51b815260206004820152601360248201527f4e4654206973206e6f7420617070726f76656400000000000000000000000000604482015260640161049f565b6001600160a01b038281166000908152600360209081526040808320888452825280832060010154815184815292830190915291926112a1928a821692339291909116908a90612b22565b9050806040518060400160405280601981526020017f4d61726b6574706c6163653a3a4e4654206e6f742073656e7400000000000000815250906112f85760405162461bcd60e51b815260040161049f91906134d6565b506001600160a01b038316600090815260016020908152604080832089845290915290205460ff161561136f576001600160a01b03831660009081526001602081815260408084208a8552909152822080546001600160a81b03191681559081019190915560020180546001600160a01b03191690555b6001600160a01b03831660009081526003602090815260408083208984529091529020600201546113a590849088903390612a26565b6001600160a01b03831660009081526003602081815260408084208a855290915290912001546113d790600190613529565b6001600160a01b0384811660009081526003602081815260408084208c8552909152808320909101849055888252812060018101546002909101548a835292169290819003611462576001600160a01b03861660009081526003602081815260408084208c855290915282208281556001810180546001600160a01b03191690556002810183905501555b6000600a54600161147391906134ff565b90506001600a600082825461148891906134ff565b909155505060408051828152602081018b90526001600160a01b03861681830152606081018590526080810184905290517f8c226753c392257d3e38e15fc2d951b2c4d2027faf9c2dbfe0f1cf901f540c319181900360a00190a15050505050505050505050565b60005b878110156118c257600061152c338989858181106115135761151361347a565b905060200201358c8c868181106107e3576107e361347a565b1160405180606001604052806025815260200161371660259139906115645760405162461bcd60e51b815260040161049f91906134d6565b5061271085858381811061157a5761157a61347a565b90506020020135116115ce5760405162461bcd60e51b815260206004820152600d60248201527f707269636520746f6f206c6f7700000000000000000000000000000000000000604482015260640161049f565b600061162633308a8a868181106115e7576115e761347a565b905060200201358d8d878181106116005761160061347a565b90506020020160208101906116159190613278565b6001600160a01b0316929190612dfe565b9050806116755760405162461bcd60e51b815260206004820152601360248201527f4e4654206973206e6f7420617070726f76656400000000000000000000000000604482015260640161049f565b604080516080810182526001815233602082015290810187878581811061169e5761169e61347a565b9050602002013581526020018585858181106116bc576116bc61347a565b90506020020160208101906116d19190613278565b6001600160a01b03169052600160008c8c868181106116f2576116f261347a565b90506020020160208101906117079190613278565b6001600160a01b03166001600160a01b0316815260200190815260200160002060008a8a8681811061173b5761173b61347a565b60209081029290920135835250818101929092526040908101600090812084518154948601516001600160a81b031990951690151574ffffffffffffffffffffffffffffffffffffffff001916176101006001600160a01b039586160217815591840151600180840191909155606090940151600290920180546001600160a01b0319169290931691909117909155600a5490916117d991906134ff565b90508888848181106117ed576117ed61347a565b905060200201358b8b858181106118065761180661347a565b905060200201602081019061181b9190613278565b6001600160a01b0316337f8e6899d2abc5e022b0c8250a7fb9e8a33a91eaea64ea09f450765154ef7b393e848b8b898181106118595761185961347a565b905060200201358a8a8a8181106118725761187261347a565b90506020020160208101906118879190613278565b6040805193845260208401929092526001600160a01b03169082015260600160405180910390a45050600a80546001908101909155016114f3565b505050505050505050565b6006546001600160a01b031633146119175760405162461bcd60e51b815260206004820152600d60248201526c24b73b30b634b21020b236b4b760991b604482015260640161049f565b600755565b6000805b88811015611e69576000611959338a8a858181106119405761194061347a565b905060200201358d8d868181106107e3576107e361347a565b1160405180606001604052806025815260200161371660259139906119915760405162461bcd60e51b815260040161049f91906134d6565b5060008a8a838181106119a6576119a661347a565b90506020020160208101906119bb9190613278565b6001600160a01b03811660009081526002602052604081209192508a8a858181106119e8576119e861347a565b9050602002013581526020019081526020016000206000888885818110611a1157611a1161347a565b90506020020135815260200190815260200160002060020154858584818110611a3c57611a3c61347a565b9050602002013514611a905760405162461bcd60e51b815260206004820152601460248201527f4e6f7420656e6f7567682062616c6163616e6521000000000000000000000000604482015260640161049f565b611b2e818a8a85818110611aa657611aa661347a565b905060200201353360026000866001600160a01b03166001600160a01b0316815260200190815260200160002060008e8e89818110611ae757611ae761347a565b90506020020135815260200190815260200160002060008c8c89818110611b1057611b1061347a565b90506020020135815260200190815260200160002060020154612a26565b6000611b84308b8b86818110611b4657611b4661347a565b905060200201358e8e87818110611b5f57611b5f61347a565b9050602002016020810190611b749190613278565b6001600160a01b03169190612c9e565b905080611bd35760405162461bcd60e51b815260206004820152601360248201527f4e4654206973206e6f7420617070726f76656400000000000000000000000000604482015260640161049f565b6000600a546001611be491906134ff565b905060008b8b86818110611bfa57611bfa61347a565b90506020020135905060008a8a87818110611c1757611c1761347a565b6001600160a01b0388811660008181526002602081815260408084208b85528252808420968202989098013580845295815291879020600181015491015487518b815292830186905261010090910490931681870152606081019290925293519194503393869350917fa54db49d60253c77a2aac1d378ac35ca6252fb7ac2dbd97d4ae67f4b14e60b4a9181900360800190a460008f8f88818110611cbe57611cbe61347a565b9050602002016020810190611cd39190613278565b6001600160a01b038781166000908152600260209081526040808320888452825280832087845282528083206001015481518481529283019091529394509092611d2d928581169233926101009004909116908890612b22565b9050806040518060400160405280601981526020017f4d61726b6574706c6163653a3a4e4654206e6f742073656e740000000000000081525090611d845760405162461bcd60e51b815260040161049f91906134d6565b506001600160a01b038716600090815260016020908152604080832087845290915290205460ff1615611dfb576001600160a01b0387166000908152600160208181526040808420888552909152822080546001600160a81b03191681559081019190915560020180546001600160a01b03191690555b6001600160a01b0387166000908152600260208181526040808420888552825280842087855290915282208281556001810180546001600160a81b031916905501819055611e49908a6134ff565b600a80546001908101909155909950909701965061192095505050505050565b503481146040518060600160405280602d81526020016136e9602d913990611ea45760405162461bcd60e51b815260040161049f91906134d6565b50505050505050505050565b60005b83811015612079576000858583818110611ecf57611ecf61347a565b9050602002016020810190611ee49190613278565b6001600160a01b0381166000908152600160205260408120919250339190868686818110611f1457611f1461347a565b90506020020135815260200190815260200160002060000160019054906101000a90046001600160a01b03166001600160a01b03161460405180606001604052806025815260200161367e6025913990611f815760405162461bcd60e51b815260040161049f91906134d6565b506001600160a01b038116600090815260016020526040812090858585818110611fad57611fad61347a565b60209081029290920135835250810191909152604001600090812080546001600160a81b03191681556001808201839055600290910180546001600160a01b0319169055600a54611ffd916134ff565b90508484848181106120115761201161347a565b90506020020135826001600160a01b0316336001600160a01b03167f0c4e050f50ff29963ea0dad3d9abdc08b57e991f503808a3bfd7bfc5eb555c338460405161205d91815260200190565b60405180910390a45050600a8054600190810190915501611eb3565b5050505050565b60005b8581101561235257600087878381811061209f5761209f61347a565b90506020020160208101906120b49190613278565b6001600160a01b03811660009081526002602052604081209192503391908888868181106120e4576120e461347a565b905060200201358152602001908152602001600020600086868681811061210d5761210d61347a565b90506020020135815260200190815260200160002060010160019054906101000a90046001600160a01b03166001600160a01b031614604051806060016040528060258152602001613659602591399061217a5760405162461bcd60e51b815260040161049f91906134d6565b506001600160a01b0381166000908152600260205260408120908787858181106121a6576121a661347a565b90506020020135815260200190815260200160002060008585858181106121cf576121cf61347a565b602090810292909201358352508101919091526040016000908120818155600180820180546001600160a81b03191690556002909101829055600a54612214916134ff565b9050338787858181106122295761222961347a565b90506020020135836001600160a01b03167fc3e3f180cc1ce25937c628a641269a6ae977735b15de256a3ed5c928a9d161cb8489898981811061226e5761226e61347a565b9050602002013560405161228c929190918252602082015260400190565b60405180910390a46001600160a01b0382166000908152600260205260408120908888868181106122bf576122bf61347a565b90506020020135815260200190815260200160002060008686868181106122e8576122e861347a565b9050602002013581526020019081526020016000206002015460046000336001600160a01b03166001600160a01b03168152602001908152602001600020600082825461233591906134ff565b9091555050600a8054600190810190915590920191506120839050565b50505050505050565b600054610100900460ff161580801561237b5750600054600160ff909116105b806123955750303b158015612395575060005460ff166001145b6124075760405162461bcd60e51b815260206004820152602e60248201527f496e697469616c697a61626c653a20636f6e747261637420697320616c72656160448201527f647920696e697469616c697a6564000000000000000000000000000000000000606482015260840161049f565b6000805460ff19166001179055801561242a576000805461ff0019166101001790555b600580546001600160a01b0385166001600160a01b03199182161790915560068054909116331790556007829055600060088190556009819055600a5580156124ad576000805461ff0019169055604051600181527f7f26b83ff96e1f2b6a682f133852f6798a09c465da95921460cefb38474024989060200160405180910390a15b505050565b60006124be8383613512565b905034811461250f5760405162461bcd60e51b815260206004820152600f60248201527f494e56414c49442042414c414e43450000000000000000000000000000000000604482015260640161049f565b6000600954600161252091906134ff565b60408051608081018252828152336020808301918252828401898152606084018981526001600160a01b038c8116600090815260038086528882208a8352909552968720955186559351600180870180546001600160a01b03191692909616919091179094559051600285015551920191909155600a5492935087926125a5916134ff565b90506001600a60008282546125ba91906134ff565b909155505060408051828152602081018590523381830152606081018890526080810187905290517f401067bd569adedb0a34a1dc69908c5bc0606f4d770d99a3c9350365be3515769181900360a00190a150505050505050565b6000805b868110156128425760008888838181106126355761263561347a565b905060200201602081019061264a9190613278565b90506000600854600161265d91906134ff565b90506040518060800160405280828152602001600115158152602001336001600160a01b0316815260200187878681811061269a5761269a61347a565b9050602002013581525060026000846001600160a01b03166001600160a01b0316815260200190815260200160002060008a8a878181106126dd576126dd61347a565b6020908102929092013583525081810192909252604090810160009081208582528352818120845181559284015160018085018054948701516001600160a01b03166101000274ffffffffffffffffffffffffffffffffffffffff0019931515939093166001600160a81b03199095169490941791909117909255606090930151600290920191909155600a54612773916134ff565b600883905590503389898681811061278d5761278d61347a565b90506020020135846001600160a01b03167fb1062e1ec779ae76009c60c88038cd4aac8e7b48634a31a802d41574bda1645e84868c8c8b8181106127d3576127d361347a565b905060200201356040516127fa939291909283526020830191909152604082015260600190565b60405180910390a48686858181106128145761281461347a565b905060200201358561282691906134ff565b600a805460019081019091559095509093019250612619915050565b503481146040518060600160405280602481526020016136c56024913990610d155760405162461bcd60e51b815260040161049f91906134d6565b6040517f6352211e000000000000000000000000000000000000000000000000000000008152600481018290526000906001600160a01b03851690636352211e90602401602060405180830381865afa9250505080156128fa575060408051601f3d908101601f191682019092526128f79181019061353c565b60015b6129f6573d808015612928576040519150601f19603f3d011682016040523d82523d6000602084013e61292d565b606091505b506040517efdd58e0000000000000000000000000000000000000000000000000000000081526001600160a01b0385811660048301526024820185905286169062fdd58e90604401602060405180830381865afa9250505080156129ae575060408051601f3d908101601f191682019092526129ab91810190613559565b60015b6129ed573d8080156129dc576040519150601f19603f3d011682016040523d82523d6000602084013e6129e1565b606091505b50600092505050612a1f565b9150612a1f9050565b836001600160a01b0316816001600160a01b031603612a19576001915050612a1f565b60009150505b9392505050565b600061271060075483612a399190613512565b612a439190613572565b9050600080612a53878786612fab565b9092509050600081612a658587613529565b612a6f9190613529565b9050600082118015612a8957506001600160a01b03831615155b15612abc576001600160a01b03831660009081526004602052604081208054849290612ab69084906134ff565b90915550505b6005546001600160a01b031660009081526004602052604081208054869290612ae69084906134ff565b90915550506001600160a01b03861660009081526004602052604081208054839290612b139084906134ff565b90915550505050505050505050565b6040517fb88d4fde0000000000000000000000000000000000000000000000000000000081526000906001600160a01b0387169063b88d4fde90612b70908890889088908890600401613594565b600060405180830381600087803b158015612b8a57600080fd5b505af1925050508015612b9b575060015b612c91573d808015612bc9576040519150601f19603f3d011682016040523d82523d6000602084013e612bce565b606091505b506040517ff242432a0000000000000000000000000000000000000000000000000000000081526001600160a01b0388169063f242432a90612c1d908990899089906001908a906004016135d0565b600060405180830381600087803b158015612c3757600080fd5b505af1925050508015612c48575060015b612c87573d808015612c76576040519150601f19603f3d011682016040523d82523d6000602084013e612c7b565b606091505b50600092505050612c95565b6001915050612c95565b5060015b95945050505050565b6040517f095ea7b30000000000000000000000000000000000000000000000000000000081526001600160a01b038381166004830152602482018390526000919085169063095ea7b390604401600060405180830381600087803b158015612d0557600080fd5b505af1925050508015612d16575060015b612df6573d808015612d44576040519150601f19603f3d011682016040523d82523d6000602084013e612d49565b606091505b506040517fa22cb4650000000000000000000000000000000000000000000000000000000081526001600160a01b0385811660048301526001602483015286169063a22cb46590604401600060405180830381600087803b158015612dad57600080fd5b505af1925050508015612dbe575060015b612dec573d8080156129dc576040519150601f19603f3d011682016040523d82523d6000602084013e6129e1565b6001915050612a1f565b506001612a1f565b6040517f081812fc000000000000000000000000000000000000000000000000000000008152600481018290526000906001600160a01b0386169063081812fc90602401602060405180830381865afa925050508015612e7b575060408051601f3d908101601f19168201909252612e789181019061353c565b60015b612f7a573d808015612ea9576040519150601f19603f3d011682016040523d82523d6000602084013e612eae565b606091505b506040517fe985e9c50000000000000000000000000000000000000000000000000000000081526001600160a01b038681166004830152858116602483015287169063e985e9c590604401602060405180830381865afa925050508015612f32575060408051601f3d908101601f19168201909252612f2f91810190613608565b60015b612f71573d808015612f60576040519150601f19603f3d011682016040523d82523d6000602084013e612f65565b606091505b50600092505050612fa3565b9150612fa39050565b836001600160a01b0316816001600160a01b031603612f9d576001915050612fa3565b60009150505b949350505050565b600080612fbf8563152a902d60e11b613054565b156130455760405163152a902d60e11b8152600481018590526024810184905260009081906001600160a01b03881690632a55205a906044016040805180830381865afa158015613014573d6000803e3d6000fd5b505050506040513d601f19601f82011682018060405250810190613038919061362a565b909450925061304c915050565b5060009050805b935093915050565b600061305f83613079565b8015613070575061307083836130c4565b90505b92915050565b600061308c826301ffc9a760e01b6130c4565b801561307357506130bd827fffffffff000000000000000000000000000000000000000000000000000000006130c4565b1592915050565b604080517fffffffff000000000000000000000000000000000000000000000000000000008316602480830191909152825180830390910181526044909101909152602080820180517bffffffffffffffffffffffffffffffffffffffffffffffffffffffff166301ffc9a760e01b178152825160009392849283928392918391908a617530fa92503d91506000519050828015613163575060208210155b801561316f5750600081115b979650505050505050565b60008083601f84011261318c57600080fd5b50813567ffffffffffffffff8111156131a457600080fd5b6020830191508360208260051b85010111156131bf57600080fd5b9250929050565b600080600080600080606087890312156131df57600080fd5b863567ffffffffffffffff808211156131f757600080fd5b6132038a838b0161317a565b9098509650602089013591508082111561321c57600080fd5b6132288a838b0161317a565b9096509450604089013591508082111561324157600080fd5b5061324e89828a0161317a565b979a9699509497509295939492505050565b6001600160a01b038116811461327557600080fd5b50565b60006020828403121561328a57600080fd5b8135612a1f81613260565b600080604083850312156132a857600080fd5b82356132b381613260565b946020939093013593505050565b6000806000606084860312156132d657600080fd5b83356132e181613260565b95602085013595506040909401359392505050565b6000806000806080858703121561330c57600080fd5b843561331781613260565b966020860135965060408601359560600135945092505050565b6000806000806000806000806080898b03121561334d57600080fd5b883567ffffffffffffffff8082111561336557600080fd5b6133718c838d0161317a565b909a50985060208b013591508082111561338a57600080fd5b6133968c838d0161317a565b909850965060408b01359150808211156133af57600080fd5b6133bb8c838d0161317a565b909650945060608b01359150808211156133d457600080fd5b506133e18b828c0161317a565b999c989b5096995094979396929594505050565b60006020828403121561340757600080fd5b5035919050565b6000806000806040858703121561342457600080fd5b843567ffffffffffffffff8082111561343c57600080fd5b6134488883890161317a565b9096509450602087013591508082111561346157600080fd5b5061346e8782880161317a565b95989497509550505050565b634e487b7160e01b600052603260045260246000fd5b6000815180845260005b818110156134b65760208185018101518683018201520161349a565b506000602082860101526020601f19601f83011685010191505092915050565b6020815260006130706020830184613490565b634e487b7160e01b600052601160045260246000fd5b80820180821115613073576130736134e9565b8082028115828204841417613073576130736134e9565b81810381811115613073576130736134e9565b60006020828403121561354e57600080fd5b8151612a1f81613260565b60006020828403121561356b57600080fd5b5051919050565b60008261358f57634e487b7160e01b600052601260045260246000fd5b500490565b60006001600160a01b038087168352808616602084015250836040830152608060608301526135c66080830184613490565b9695505050505050565b60006001600160a01b03808816835280871660208401525084604083015283606083015260a0608083015261316f60a0830184613490565b60006020828403121561361a57600080fd5b81518015158114612a1f57600080fd5b6000806040838503121561363d57600080fd5b825161364881613260565b602093909301519294929350505056fe4d61726b6574706c6163653a3a6e6f7420612063726561746f72206f6620746865206269644d61726b6574706c6163653a3a6e6f7420612063726561746f72206f66207468652061736b4d61726b6574706c6163653a3a61736b2063726561746f72206e6f74206f776e65724d61726b6574706c6163653a3a696e73756666696369656e742065746865722073656e744d61726b6574706c6163653a3a61736b20707269636520686967686572207468616e2073656e742076616c75654d61726b6574706c6163653a3a6e6f7420616e206f776e6572206f6620746f6b656e204944a26469706673582212208832891f9c38f81d542d526126283db8b9eee1bd72932c161c6714bd309f7d4464736f6c63430008130033","opcodes":"PUSH1 0x80 PUSH1 0x40 MSTORE CALLVALUE DUP1 ISZERO PUSH2 0x10 JUMPI PUSH1 0x0 DUP1 REVERT JUMPDEST POP PUSH2 0x3770 DUP1 PUSH2 0x20 PUSH1 0x0 CODECOPY PUSH1 0x0 RETURN INVALID PUSH1 0x80 PUSH1 0x40 MSTORE PUSH1 0x4 CALLDATASIZE LT PUSH2 0x129 JUMPI PUSH1 0x0 CALLDATALOAD PUSH1 0xE0 SHR DUP1 PUSH4 0x835A55FF GT PUSH2 0xA5 JUMPI DUP1 PUSH4 0xAE25A412 GT PUSH2 0x74 JUMPI DUP1 PUSH4 0xD8CFC775 GT PUSH2 0x59 JUMPI DUP1 PUSH4 0xD8CFC775 EQ PUSH2 0x3C1 JUMPI DUP1 PUSH4 0xE22D4F7D EQ PUSH2 0x3D4 JUMPI DUP1 PUSH4 0xF778550E EQ PUSH2 0x45C JUMPI PUSH1 0x0 DUP1 REVERT JUMPDEST DUP1 PUSH4 0xAE25A412 EQ PUSH2 0x381 JUMPI DUP1 PUSH4 0xCD6DC687 EQ PUSH2 0x3A1 JUMPI PUSH1 0x0 DUP1 REVERT JUMPDEST DUP1 PUSH4 0x835A55FF EQ PUSH2 0x30E JUMPI DUP1 PUSH4 0x9B484379 EQ PUSH2 0x32E JUMPI DUP1 PUSH4 0xA1D35C49 EQ PUSH2 0x34E JUMPI DUP1 PUSH4 0xA613B6A9 EQ PUSH2 0x361 JUMPI PUSH1 0x0 DUP1 REVERT JUMPDEST DUP1 PUSH4 0x3CCFD60B GT PUSH2 0xFC JUMPI DUP1 PUSH4 0x477FD836 GT PUSH2 0xE1 JUMPI DUP1 PUSH4 0x477FD836 EQ PUSH2 0x243 JUMPI DUP1 PUSH4 0x57D3C7C3 EQ PUSH2 0x256 JUMPI DUP1 PUSH4 0x7495C6AC EQ PUSH2 0x291 JUMPI PUSH1 0x0 DUP1 REVERT JUMPDEST DUP1 PUSH4 0x3CCFD60B EQ PUSH2 0x198 JUMPI DUP1 PUSH4 0x46D02934 EQ PUSH2 0x1AD JUMPI PUSH1 0x0 DUP1 REVERT JUMPDEST DUP1 PUSH4 0xD6AEF04 EQ PUSH2 0x12E JUMPI DUP1 PUSH4 0xFE6A689 EQ PUSH2 0x145 JUMPI DUP1 PUSH4 0x1D5459F7 EQ PUSH2 0x158 JUMPI DUP1 PUSH4 0x386E88ED EQ PUSH2 0x178 JUMPI JUMPDEST PUSH1 0x0 DUP1 REVERT JUMPDEST CALLVALUE DUP1 ISZERO PUSH2 0x13A JUMPI PUSH1 0x0 DUP1 REVERT JUMPDEST POP PUSH2 0x143 PUSH2 0x46F JUMP JUMPDEST STOP JUMPDEST PUSH2 0x143 PUSH2 0x153 CALLDATASIZE PUSH1 0x4 PUSH2 0x31C6 JUMP JUMPDEST PUSH2 0x4BA JUMP JUMPDEST CALLVALUE DUP1 ISZERO PUSH2 0x164 JUMPI PUSH1 0x0 DUP1 REVERT JUMPDEST POP PUSH2 0x143 PUSH2 0x173 CALLDATASIZE PUSH1 0x4 PUSH2 0x3278 JUMP JUMPDEST PUSH2 0xD1F JUMP JUMPDEST CALLVALUE DUP1 ISZERO PUSH2 0x184 JUMPI PUSH1 0x0 DUP1 REVERT JUMPDEST POP PUSH2 0x143 PUSH2 0x193 CALLDATASIZE PUSH1 0x4 PUSH2 0x3295 JUMP JUMPDEST PUSH2 0xD8B JUMP JUMPDEST CALLVALUE DUP1 ISZERO PUSH2 0x1A4 JUMPI PUSH1 0x0 DUP1 REVERT JUMPDEST POP PUSH2 0x143 PUSH2 0xF42 JUMP JUMPDEST CALLVALUE DUP1 ISZERO PUSH2 0x1B9 JUMPI PUSH1 0x0 DUP1 REVERT JUMPDEST POP PUSH2 0x20B PUSH2 0x1C8 CALLDATASIZE PUSH1 0x4 PUSH2 0x32C1 JUMP JUMPDEST PUSH1 0x2 PUSH1 0x20 DUP2 DUP2 MSTORE PUSH1 0x0 SWAP5 DUP6 MSTORE PUSH1 0x40 DUP1 DUP7 KECCAK256 DUP3 MSTORE SWAP4 DUP6 MSTORE DUP4 DUP6 KECCAK256 SWAP1 MSTORE SWAP1 DUP4 MSTORE SWAP2 KECCAK256 DUP1 SLOAD PUSH1 0x1 DUP3 ADD SLOAD SWAP2 SWAP1 SWAP3 ADD SLOAD PUSH1 0xFF DUP3 AND SWAP2 PUSH2 0x100 SWAP1 DIV PUSH1 0x1 PUSH1 0x1 PUSH1 0xA0 SHL SUB AND SWAP1 DUP5 JUMP JUMPDEST PUSH1 0x40 MLOAD PUSH2 0x23A SWAP5 SWAP4 SWAP3 SWAP2 SWAP1 SWAP4 DUP5 MSTORE SWAP2 ISZERO ISZERO PUSH1 0x20 DUP5 ADD MSTORE PUSH1 0x1 PUSH1 0x1 PUSH1 0xA0 SHL SUB AND PUSH1 0x40 DUP4 ADD MSTORE PUSH1 0x60 DUP3 ADD MSTORE PUSH1 0x80 ADD SWAP1 JUMP JUMPDEST PUSH1 0x40 MLOAD DUP1 SWAP2 SUB SWAP1 RETURN JUMPDEST PUSH2 0x143 PUSH2 0x251 CALLDATASIZE PUSH1 0x4 PUSH2 0x32F6 JUMP JUMPDEST PUSH2 0x10B9 JUMP JUMPDEST CALLVALUE DUP1 ISZERO PUSH2 0x262 JUMPI PUSH1 0x0 DUP1 REVERT JUMPDEST POP PUSH2 0x283 PUSH2 0x271 CALLDATASIZE PUSH1 0x4 PUSH2 0x3278 JUMP JUMPDEST PUSH1 0x4 PUSH1 0x20 MSTORE PUSH1 0x0 SWAP1 DUP2 MSTORE PUSH1 0x40 SWAP1 KECCAK256 SLOAD DUP2 JUMP JUMPDEST PUSH1 0x40 MLOAD SWAP1 DUP2 MSTORE PUSH1 0x20 ADD PUSH2 0x23A JUMP JUMPDEST CALLVALUE DUP1 ISZERO PUSH2 0x29D JUMPI PUSH1 0x0 DUP1 REVERT JUMPDEST POP PUSH2 0x2E6 PUSH2 0x2AC CALLDATASIZE PUSH1 0x4 PUSH2 0x3295 JUMP JUMPDEST PUSH1 0x3 PUSH1 0x20 DUP2 DUP2 MSTORE PUSH1 0x0 SWAP4 DUP5 MSTORE PUSH1 0x40 DUP1 DUP6 KECCAK256 SWAP1 SWAP2 MSTORE SWAP2 DUP4 MSTORE SWAP2 KECCAK256 DUP1 SLOAD PUSH1 0x1 DUP3 ADD SLOAD PUSH1 0x2 DUP4 ADD SLOAD SWAP3 SWAP1 SWAP4 ADD SLOAD SWAP1 SWAP3 PUSH1 0x1 PUSH1 0x1 PUSH1 0xA0 SHL SUB AND SWAP2 SWAP1 DUP5 JUMP JUMPDEST PUSH1 0x40 DUP1 MLOAD SWAP5 DUP6 MSTORE PUSH1 0x1 PUSH1 0x1 PUSH1 0xA0 SHL SUB SWAP1 SWAP4 AND PUSH1 0x20 DUP6 ADD MSTORE SWAP2 DUP4 ADD MSTORE PUSH1 0x60 DUP3 ADD MSTORE PUSH1 0x80 ADD PUSH2 0x23A JUMP JUMPDEST CALLVALUE DUP1 ISZERO PUSH2 0x31A JUMPI PUSH1 0x0 DUP1 REVERT JUMPDEST POP PUSH2 0x143 PUSH2 0x329 CALLDATASIZE PUSH1 0x4 PUSH2 0x3331 JUMP JUMPDEST PUSH2 0x14F0 JUMP JUMPDEST CALLVALUE DUP1 ISZERO PUSH2 0x33A JUMPI PUSH1 0x0 DUP1 REVERT JUMPDEST POP PUSH2 0x143 PUSH2 0x349 CALLDATASIZE PUSH1 0x4 PUSH2 0x33F5 JUMP JUMPDEST PUSH2 0x18CD JUMP JUMPDEST PUSH2 0x143 PUSH2 0x35C CALLDATASIZE PUSH1 0x4 PUSH2 0x3331 JUMP JUMPDEST PUSH2 0x191C JUMP JUMPDEST CALLVALUE DUP1 ISZERO PUSH2 0x36D JUMPI PUSH1 0x0 DUP1 REVERT JUMPDEST POP PUSH2 0x143 PUSH2 0x37C CALLDATASIZE PUSH1 0x4 PUSH2 0x340E JUMP JUMPDEST PUSH2 0x1EB0 JUMP JUMPDEST CALLVALUE DUP1 ISZERO PUSH2 0x38D JUMPI PUSH1 0x0 DUP1 REVERT JUMPDEST POP PUSH2 0x143 PUSH2 0x39C CALLDATASIZE PUSH1 0x4 PUSH2 0x31C6 JUMP JUMPDEST PUSH2 0x2080 JUMP JUMPDEST CALLVALUE DUP1 ISZERO PUSH2 0x3AD JUMPI PUSH1 0x0 DUP1 REVERT JUMPDEST POP PUSH2 0x143 PUSH2 0x3BC CALLDATASIZE PUSH1 0x4 PUSH2 0x3295 JUMP JUMPDEST PUSH2 0x235B JUMP JUMPDEST PUSH2 0x143 PUSH2 0x3CF CALLDATASIZE PUSH1 0x4 PUSH2 0x32C1 JUMP JUMPDEST PUSH2 0x24B2 JUMP JUMPDEST CALLVALUE DUP1 ISZERO PUSH2 0x3E0 JUMPI PUSH1 0x0 DUP1 REVERT JUMPDEST POP PUSH2 0x42F PUSH2 0x3EF CALLDATASIZE PUSH1 0x4 PUSH2 0x3295 JUMP JUMPDEST PUSH1 0x1 PUSH1 0x20 DUP2 DUP2 MSTORE PUSH1 0x0 SWAP4 DUP5 MSTORE PUSH1 0x40 DUP1 DUP6 KECCAK256 SWAP1 SWAP2 MSTORE SWAP2 DUP4 MSTORE SWAP2 KECCAK256 DUP1 SLOAD SWAP2 DUP2 ADD SLOAD PUSH1 0x2 SWAP1 SWAP2 ADD SLOAD PUSH1 0xFF DUP4 AND SWAP3 PUSH1 0x1 PUSH1 0x1 PUSH1 0xA0 SHL SUB PUSH2 0x100 SWAP1 SWAP2 DIV DUP2 AND SWAP3 SWAP2 AND DUP5 JUMP JUMPDEST PUSH1 0x40 DUP1 MLOAD SWAP5 ISZERO ISZERO DUP6 MSTORE PUSH1 0x1 PUSH1 0x1 PUSH1 0xA0 SHL SUB SWAP4 DUP5 AND PUSH1 0x20 DUP7 ADD MSTORE DUP5 ADD SWAP2 SWAP1 SWAP2 MSTORE AND PUSH1 0x60 DUP3 ADD MSTORE PUSH1 0x80 ADD PUSH2 0x23A JUMP JUMPDEST PUSH2 0x143 PUSH2 0x46A CALLDATASIZE PUSH1 0x4 PUSH2 0x31C6 JUMP JUMPDEST PUSH2 0x2615 JUMP JUMPDEST PUSH1 0x6 SLOAD PUSH1 0x1 PUSH1 0x1 PUSH1 0xA0 SHL SUB AND CALLER EQ PUSH2 0x4A8 JUMPI PUSH1 0x40 MLOAD PUSH3 0x461BCD PUSH1 0xE5 SHL DUP2 MSTORE PUSH1 0x20 PUSH1 0x4 DUP3 ADD MSTORE PUSH1 0x0 PUSH1 0x24 DUP3 ADD MSTORE PUSH1 0x44 ADD JUMPDEST PUSH1 0x40 MLOAD DUP1 SWAP2 SUB SWAP1 REVERT JUMPDEST PUSH1 0x6 DUP1 SLOAD PUSH1 0x1 PUSH1 0x1 PUSH1 0xA0 SHL SUB NOT AND SWAP1 SSTORE JUMP JUMPDEST PUSH1 0x0 DUP1 JUMPDEST DUP7 DUP2 LT ISZERO PUSH2 0xCDA JUMPI PUSH1 0x0 DUP9 DUP9 DUP4 DUP2 DUP2 LT PUSH2 0x4DA JUMPI PUSH2 0x4DA PUSH2 0x347A JUMP JUMPDEST SWAP1 POP PUSH1 0x20 MUL ADD PUSH1 0x20 DUP2 ADD SWAP1 PUSH2 0x4EF SWAP2 SWAP1 PUSH2 0x3278 JUMP JUMPDEST PUSH1 0x1 PUSH1 0x1 PUSH1 0xA0 SHL SUB DUP2 AND PUSH1 0x0 SWAP1 DUP2 MSTORE PUSH1 0x1 PUSH1 0x20 MSTORE PUSH1 0x40 DUP2 KECCAK256 SWAP2 SWAP3 POP DUP9 DUP9 DUP6 DUP2 DUP2 LT PUSH2 0x51C JUMPI PUSH2 0x51C PUSH2 0x347A JUMP JUMPDEST SWAP1 POP PUSH1 0x20 MUL ADD CALLDATALOAD DUP2 MSTORE PUSH1 0x20 ADD SWAP1 DUP2 MSTORE PUSH1 0x20 ADD PUSH1 0x0 KECCAK256 PUSH1 0x0 ADD PUSH1 0x0 SWAP1 SLOAD SWAP1 PUSH2 0x100 EXP SWAP1 DIV PUSH1 0xFF AND PUSH1 0x40 MLOAD DUP1 PUSH1 0x40 ADD PUSH1 0x40 MSTORE DUP1 PUSH1 0x1F DUP2 MSTORE PUSH1 0x20 ADD PUSH32 0x4D61726B6574706C6163653A3A61736B20646F6573206E6F7420657869737400 DUP2 MSTORE POP SWAP1 PUSH2 0x596 JUMPI PUSH1 0x40 MLOAD PUSH3 0x461BCD PUSH1 0xE5 SHL DUP2 MSTORE PUSH1 0x4 ADD PUSH2 0x49F SWAP2 SWAP1 PUSH2 0x34D6 JUMP JUMPDEST POP PUSH1 0x1 PUSH1 0x1 PUSH1 0xA0 SHL SUB DUP2 AND PUSH1 0x0 SWAP1 DUP2 MSTORE PUSH1 0x1 PUSH1 0x20 MSTORE PUSH1 0x40 DUP2 KECCAK256 CALLER SWAP2 DUP10 DUP10 DUP7 DUP2 DUP2 LT PUSH2 0x5C3 JUMPI PUSH2 0x5C3 PUSH2 0x347A JUMP JUMPDEST SWAP1 POP PUSH1 0x20 MUL ADD CALLDATALOAD DUP2 MSTORE PUSH1 0x20 ADD SWAP1 DUP2 MSTORE PUSH1 0x20 ADD PUSH1 0x0 KECCAK256 PUSH1 0x0 ADD PUSH1 0x1 SWAP1 SLOAD SWAP1 PUSH2 0x100 EXP SWAP1 DIV PUSH1 0x1 PUSH1 0x1 PUSH1 0xA0 SHL SUB AND PUSH1 0x1 PUSH1 0x1 PUSH1 0xA0 SHL SUB AND EQ ISZERO PUSH1 0x40 MLOAD DUP1 PUSH1 0x40 ADD PUSH1 0x40 MSTORE DUP1 PUSH1 0x20 DUP2 MSTORE PUSH1 0x20 ADD PUSH32 0x4D61726B6574706C6163653A3A63616E7420616363657074206F776E2061736B DUP2 MSTORE POP SWAP1 PUSH2 0x64E JUMPI PUSH1 0x40 MLOAD PUSH3 0x461BCD PUSH1 0xE5 SHL DUP2 MSTORE PUSH1 0x4 ADD PUSH2 0x49F SWAP2 SWAP1 PUSH2 0x34D6 JUMP JUMPDEST POP PUSH1 0x1 PUSH1 0x1 PUSH1 0xA0 SHL SUB DUP2 AND PUSH1 0x0 SWAP1 DUP2 MSTORE PUSH1 0x1 PUSH1 0x20 MSTORE PUSH1 0x40 DUP2 KECCAK256 DUP2 DUP10 DUP10 DUP7 DUP2 DUP2 LT PUSH2 0x67A JUMPI PUSH2 0x67A PUSH2 0x347A JUMP JUMPDEST PUSH1 0x20 SWAP1 DUP2 MUL SWAP3 SWAP1 SWAP3 ADD CALLDATALOAD DUP4 MSTORE POP DUP2 ADD SWAP2 SWAP1 SWAP2 MSTORE PUSH1 0x40 ADD PUSH1 0x0 KECCAK256 PUSH1 0x2 ADD SLOAD PUSH1 0x1 PUSH1 0x1 PUSH1 0xA0 SHL SUB AND EQ PUSH2 0x75D JUMPI PUSH1 0x1 PUSH1 0x1 PUSH1 0xA0 SHL SUB DUP2 AND PUSH1 0x0 SWAP1 DUP2 MSTORE PUSH1 0x1 PUSH1 0x20 MSTORE PUSH1 0x40 DUP2 KECCAK256 CALLER SWAP2 DUP10 DUP10 DUP7 DUP2 DUP2 LT PUSH2 0x6D1 JUMPI PUSH2 0x6D1 PUSH2 0x347A JUMP JUMPDEST SWAP1 POP PUSH1 0x20 MUL ADD CALLDATALOAD DUP2 MSTORE PUSH1 0x20 ADD SWAP1 DUP2 MSTORE PUSH1 0x20 ADD PUSH1 0x0 KECCAK256 PUSH1 0x2 ADD PUSH1 0x0 SWAP1 SLOAD SWAP1 PUSH2 0x100 EXP SWAP1 DIV PUSH1 0x1 PUSH1 0x1 PUSH1 0xA0 SHL SUB AND PUSH1 0x1 PUSH1 0x1 PUSH1 0xA0 SHL SUB AND EQ PUSH1 0x40 MLOAD DUP1 PUSH1 0x40 ADD PUSH1 0x40 MSTORE DUP1 PUSH1 0x1C DUP2 MSTORE PUSH1 0x20 ADD PUSH32 0x4D61726B6574706C6163653A3A61736B20697320726573657276656400000000 DUP2 MSTORE POP SWAP1 PUSH2 0x75B JUMPI PUSH1 0x40 MLOAD PUSH3 0x461BCD PUSH1 0xE5 SHL DUP2 MSTORE PUSH1 0x4 ADD PUSH2 0x49F SWAP2 SWAP1 PUSH2 0x34D6 JUMP JUMPDEST POP JUMPDEST PUSH1 0x1 PUSH1 0x1 PUSH1 0xA0 SHL SUB DUP2 AND PUSH1 0x0 SWAP1 DUP2 MSTORE PUSH1 0x1 PUSH1 0x20 MSTORE PUSH1 0x40 DUP2 KECCAK256 PUSH2 0x808 SWAP1 DUP3 DUP11 DUP11 DUP8 DUP2 DUP2 LT PUSH2 0x78C JUMPI PUSH2 0x78C PUSH2 0x347A JUMP JUMPDEST SWAP1 POP PUSH1 0x20 MUL ADD CALLDATALOAD DUP2 MSTORE PUSH1 0x20 ADD SWAP1 DUP2 MSTORE PUSH1 0x20 ADD PUSH1 0x0 KECCAK256 PUSH1 0x0 ADD PUSH1 0x1 SWAP1 SLOAD SWAP1 PUSH2 0x100 EXP SWAP1 DIV PUSH1 0x1 PUSH1 0x1 PUSH1 0xA0 SHL SUB AND DUP10 DUP10 DUP7 DUP2 DUP2 LT PUSH2 0x7CA JUMPI PUSH2 0x7CA PUSH2 0x347A JUMP JUMPDEST SWAP1 POP PUSH1 0x20 MUL ADD CALLDATALOAD DUP13 DUP13 DUP8 DUP2 DUP2 LT PUSH2 0x7E3 JUMPI PUSH2 0x7E3 PUSH2 0x347A JUMP JUMPDEST SWAP1 POP PUSH1 0x20 MUL ADD PUSH1 0x20 DUP2 ADD SWAP1 PUSH2 0x7F8 SWAP2 SWAP1 PUSH2 0x3278 JUMP JUMPDEST PUSH1 0x1 PUSH1 0x1 PUSH1 0xA0 SHL SUB AND SWAP2 SWAP1 PUSH2 0x287D JUMP JUMPDEST GT PUSH1 0x40 MLOAD DUP1 PUSH1 0x60 ADD PUSH1 0x40 MSTORE DUP1 PUSH1 0x22 DUP2 MSTORE PUSH1 0x20 ADD PUSH2 0x36A3 PUSH1 0x22 SWAP2 CODECOPY SWAP1 PUSH2 0x840 JUMPI PUSH1 0x40 MLOAD PUSH3 0x461BCD PUSH1 0xE5 SHL DUP2 MSTORE PUSH1 0x4 ADD PUSH2 0x49F SWAP2 SWAP1 PUSH2 0x34D6 JUMP JUMPDEST POP PUSH1 0x1 PUSH1 0x1 PUSH1 0xA0 SHL SUB DUP2 AND PUSH1 0x0 SWAP1 DUP2 MSTORE PUSH1 0x1 PUSH1 0x20 MSTORE PUSH1 0x40 DUP2 KECCAK256 SWAP1 DUP9 DUP9 DUP6 DUP2 DUP2 LT PUSH2 0x86C JUMPI PUSH2 0x86C PUSH2 0x347A JUMP JUMPDEST SWAP1 POP PUSH1 0x20 MUL ADD CALLDATALOAD DUP2 MSTORE PUSH1 0x20 ADD SWAP1 DUP2 MSTORE PUSH1 0x20 ADD PUSH1 0x0 KECCAK256 PUSH1 0x1 ADD SLOAD DUP6 DUP6 DUP5 DUP2 DUP2 LT PUSH2 0x897 JUMPI PUSH2 0x897 PUSH2 0x347A JUMP JUMPDEST SWAP1 POP PUSH1 0x20 MUL ADD CALLDATALOAD EQ PUSH2 0x8EB JUMPI PUSH1 0x40 MLOAD PUSH3 0x461BCD PUSH1 0xE5 SHL DUP2 MSTORE PUSH1 0x20 PUSH1 0x4 DUP3 ADD MSTORE PUSH1 0x1F PUSH1 0x24 DUP3 ADD MSTORE PUSH32 0x4E6F7420656E6F7567682062616C616E636520666F7220707572636861736500 PUSH1 0x44 DUP3 ADD MSTORE PUSH1 0x64 ADD PUSH2 0x49F JUMP JUMPDEST PUSH2 0x9C4 DUP2 DUP9 DUP9 DUP6 DUP2 DUP2 LT PUSH2 0x901 JUMPI PUSH2 0x901 PUSH2 0x347A JUMP JUMPDEST SWAP1 POP PUSH1 0x20 MUL ADD CALLDATALOAD PUSH1 0x1 PUSH1 0x0 DUP6 PUSH1 0x1 PUSH1 0x1 PUSH1 0xA0 SHL SUB AND PUSH1 0x1 PUSH1 0x1 PUSH1 0xA0 SHL SUB AND DUP2 MSTORE PUSH1 0x20 ADD SWAP1 DUP2 MSTORE PUSH1 0x20 ADD PUSH1 0x0 KECCAK256 PUSH1 0x0 DUP12 DUP12 DUP9 DUP2 DUP2 LT PUSH2 0x941 JUMPI PUSH2 0x941 PUSH2 0x347A JUMP JUMPDEST SWAP1 POP PUSH1 0x20 MUL ADD CALLDATALOAD DUP2 MSTORE PUSH1 0x20 ADD SWAP1 DUP2 MSTORE PUSH1 0x20 ADD PUSH1 0x0 KECCAK256 PUSH1 0x0 ADD PUSH1 0x1 SWAP1 SLOAD SWAP1 PUSH2 0x100 EXP SWAP1 DIV PUSH1 0x1 PUSH1 0x1 PUSH1 0xA0 SHL SUB AND PUSH1 0x1 PUSH1 0x0 DUP7 PUSH1 0x1 PUSH1 0x1 PUSH1 0xA0 SHL SUB AND PUSH1 0x1 PUSH1 0x1 PUSH1 0xA0 SHL SUB AND DUP2 MSTORE PUSH1 0x20 ADD SWAP1 DUP2 MSTORE PUSH1 0x20 ADD PUSH1 0x0 KECCAK256 PUSH1 0x0 DUP13 DUP13 DUP10 DUP2 DUP2 LT PUSH2 0x9A6 JUMPI PUSH2 0x9A6 PUSH2 0x347A JUMP JUMPDEST SWAP1 POP PUSH1 0x20 MUL ADD CALLDATALOAD DUP2 MSTORE PUSH1 0x20 ADD SWAP1 DUP2 MSTORE PUSH1 0x20 ADD PUSH1 0x0 KECCAK256 PUSH1 0x1 ADD SLOAD PUSH2 0x2A26 JUMP JUMPDEST PUSH1 0x0 PUSH1 0xA SLOAD PUSH1 0x1 PUSH2 0x9D5 SWAP2 SWAP1 PUSH2 0x34FF JUMP JUMPDEST SWAP1 POP CALLER DUP9 DUP9 DUP6 DUP2 DUP2 LT PUSH2 0x9EA JUMPI PUSH2 0x9EA PUSH2 0x347A JUMP JUMPDEST SWAP1 POP PUSH1 0x20 MUL ADD CALLDATALOAD DUP4 PUSH1 0x1 PUSH1 0x1 PUSH1 0xA0 SHL SUB AND PUSH32 0x1893DAA2088B7F003D8AA7BE0230D3BE7F84D937349FEC2CFBEE71E00E3FC7FA DUP5 PUSH1 0x1 PUSH1 0x0 DUP9 PUSH1 0x1 PUSH1 0x1 PUSH1 0xA0 SHL SUB AND PUSH1 0x1 PUSH1 0x1 PUSH1 0xA0 SHL SUB AND DUP2 MSTORE PUSH1 0x20 ADD SWAP1 DUP2 MSTORE PUSH1 0x20 ADD PUSH1 0x0 KECCAK256 PUSH1 0x0 DUP15 DUP15 DUP12 DUP2 DUP2 LT PUSH2 0xA56 JUMPI PUSH2 0xA56 PUSH2 0x347A JUMP JUMPDEST SWAP1 POP PUSH1 0x20 MUL ADD CALLDATALOAD DUP2 MSTORE PUSH1 0x20 ADD SWAP1 DUP2 MSTORE PUSH1 0x20 ADD PUSH1 0x0 KECCAK256 PUSH1 0x1 ADD SLOAD PUSH1 0x1 PUSH1 0x0 DUP10 PUSH1 0x1 PUSH1 0x1 PUSH1 0xA0 SHL SUB AND PUSH1 0x1 PUSH1 0x1 PUSH1 0xA0 SHL SUB AND DUP2 MSTORE PUSH1 0x20 ADD SWAP1 DUP2 MSTORE PUSH1 0x20 ADD PUSH1 0x0 KECCAK256 PUSH1 0x0 DUP16 DUP16 DUP13 DUP2 DUP2 LT PUSH2 0xAA8 JUMPI PUSH2 0xAA8 PUSH2 0x347A JUMP JUMPDEST PUSH1 0x20 SWAP1 DUP2 MUL SWAP3 SWAP1 SWAP3 ADD CALLDATALOAD DUP4 MSTORE POP DUP2 DUP2 ADD SWAP3 SWAP1 SWAP3 MSTORE PUSH1 0x40 SWAP1 DUP2 ADD PUSH1 0x0 KECCAK256 PUSH1 0x2 ADD SLOAD DUP2 MLOAD SWAP5 DUP6 MSTORE SWAP2 DUP5 ADD SWAP3 SWAP1 SWAP3 MSTORE PUSH1 0x1 PUSH1 0x1 PUSH1 0xA0 SHL SUB AND SWAP1 DUP3 ADD MSTORE PUSH1 0x60 ADD PUSH1 0x40 MLOAD DUP1 SWAP2 SUB SWAP1 LOG4 PUSH1 0x1 PUSH1 0x1 PUSH1 0xA0 SHL SUB DUP3 AND PUSH1 0x0 SWAP1 DUP2 MSTORE PUSH1 0x1 PUSH1 0x20 MSTORE PUSH1 0x40 DUP2 KECCAK256 PUSH2 0xBAD SWAP1 DUP3 DUP12 DUP12 DUP9 DUP2 DUP2 LT PUSH2 0xB1B JUMPI PUSH2 0xB1B PUSH2 0x347A JUMP JUMPDEST SWAP1 POP PUSH1 0x20 MUL ADD CALLDATALOAD DUP2 MSTORE PUSH1 0x20 ADD SWAP1 DUP2 MSTORE PUSH1 0x20 ADD PUSH1 0x0 KECCAK256 PUSH1 0x0 ADD PUSH1 0x1 SWAP1 SLOAD SWAP1 PUSH2 0x100 EXP SWAP1 DIV PUSH1 0x1 PUSH1 0x1 PUSH1 0xA0 SHL SUB AND CALLER DUP12 DUP12 DUP9 DUP2 DUP2 LT PUSH2 0xB5A JUMPI PUSH2 0xB5A PUSH2 0x347A JUMP JUMPDEST PUSH1 0x40 DUP1 MLOAD PUSH1 0x0 DUP2 MSTORE PUSH1 0x20 DUP1 DUP3 ADD SWAP1 SWAP3 MSTORE SWAP2 MUL SWAP3 SWAP1 SWAP3 ADD CALLDATALOAD SWAP2 SWAP1 POP DUP16 DUP16 DUP11 DUP2 DUP2 LT PUSH2 0xB86 JUMPI PUSH2 0xB86 PUSH2 0x347A JUMP JUMPDEST SWAP1 POP PUSH1 0x20 MUL ADD PUSH1 0x20 DUP2 ADD SWAP1 PUSH2 0xB9B SWAP2 SWAP1 PUSH2 0x3278 JUMP JUMPDEST PUSH1 0x1 PUSH1 0x1 PUSH1 0xA0 SHL SUB AND SWAP4 SWAP3 SWAP2 SWAP1 PUSH2 0x2B22 JUMP JUMPDEST SWAP1 POP DUP1 PUSH1 0x40 MLOAD DUP1 PUSH1 0x40 ADD PUSH1 0x40 MSTORE DUP1 PUSH1 0x19 DUP2 MSTORE PUSH1 0x20 ADD PUSH32 0x4D61726B6574706C6163653A3A4E4654206E6F742073656E7400000000000000 DUP2 MSTORE POP SWAP1 PUSH2 0xC04 JUMPI PUSH1 0x40 MLOAD PUSH3 0x461BCD PUSH1 0xE5 SHL DUP2 MSTORE PUSH1 0x4 ADD PUSH2 0x49F SWAP2 SWAP1 PUSH2 0x34D6 JUMP JUMPDEST POP PUSH1 0x1 PUSH1 0x1 PUSH1 0xA0 SHL SUB DUP4 AND PUSH1 0x0 SWAP1 DUP2 MSTORE PUSH1 0x1 PUSH1 0x20 MSTORE PUSH1 0x40 DUP2 KECCAK256 SWAP1 DUP11 DUP11 DUP8 DUP2 DUP2 LT PUSH2 0xC30 JUMPI PUSH2 0xC30 PUSH2 0x347A JUMP JUMPDEST SWAP1 POP PUSH1 0x20 MUL ADD CALLDATALOAD DUP2 MSTORE PUSH1 0x20 ADD SWAP1 DUP2 MSTORE PUSH1 0x20 ADD PUSH1 0x0 KECCAK256 PUSH1 0x1 ADD SLOAD DUP6 PUSH2 0xC54 SWAP2 SWAP1 PUSH2 0x34FF JUMP JUMPDEST PUSH1 0x1 PUSH1 0x1 PUSH1 0xA0 SHL SUB DUP5 AND PUSH1 0x0 SWAP1 DUP2 MSTORE PUSH1 0x1 PUSH1 0x20 MSTORE PUSH1 0x40 DUP2 KECCAK256 SWAP2 SWAP7 POP DUP11 DUP11 DUP8 DUP2 DUP2 LT PUSH2 0xC81 JUMPI PUSH2 0xC81 PUSH2 0x347A JUMP JUMPDEST PUSH1 0x20 SWAP1 DUP2 MUL SWAP3 SWAP1 SWAP3 ADD CALLDATALOAD DUP4 MSTORE POP DUP2 ADD SWAP2 SWAP1 SWAP2 MSTORE PUSH1 0x40 ADD PUSH1 0x0 SWAP1 DUP2 KECCAK256 DUP1 SLOAD PUSH1 0x1 PUSH1 0x1 PUSH1 0xA8 SHL SUB NOT AND DUP2 SSTORE PUSH1 0x1 DUP1 DUP3 ADD SWAP3 SWAP1 SWAP3 SSTORE PUSH1 0x2 ADD DUP1 SLOAD PUSH1 0x1 PUSH1 0x1 PUSH1 0xA0 SHL SUB NOT AND SWAP1 SSTORE PUSH1 0xA DUP1 SLOAD DUP3 ADD SWAP1 SSTORE SWAP4 SWAP1 SWAP4 ADD SWAP3 POP PUSH2 0x4BE SWAP2 POP POP JUMP JUMPDEST POP CALLVALUE DUP2 EQ PUSH1 0x40 MLOAD DUP1 PUSH1 0x60 ADD PUSH1 0x40 MSTORE DUP1 PUSH1 0x2D DUP2 MSTORE PUSH1 0x20 ADD PUSH2 0x36E9 PUSH1 0x2D SWAP2 CODECOPY SWAP1 PUSH2 0xD15 JUMPI PUSH1 0x40 MLOAD PUSH3 0x461BCD PUSH1 0xE5 SHL DUP2 MSTORE PUSH1 0x4 ADD PUSH2 0x49F SWAP2 SWAP1 PUSH2 0x34D6 JUMP JUMPDEST POP POP POP POP POP POP POP POP JUMP JUMPDEST PUSH1 0x6 SLOAD PUSH1 0x1 PUSH1 0x1 PUSH1 0xA0 SHL SUB AND CALLER EQ PUSH2 0xD69 JUMPI PUSH1 0x40 MLOAD PUSH3 0x461BCD PUSH1 0xE5 SHL DUP2 MSTORE PUSH1 0x20 PUSH1 0x4 DUP3 ADD MSTORE PUSH1 0xD PUSH1 0x24 DUP3 ADD MSTORE PUSH13 0x24B73B30B634B21020B236B4B7 PUSH1 0x99 SHL PUSH1 0x44 DUP3 ADD MSTORE PUSH1 0x64 ADD PUSH2 0x49F JUMP JUMPDEST PUSH1 0x5 DUP1 SLOAD PUSH1 0x1 PUSH1 0x1 PUSH1 0xA0 SHL SUB NOT AND PUSH1 0x1 PUSH1 0x1 PUSH1 0xA0 SHL SUB SWAP3 SWAP1 SWAP3 AND SWAP2 SWAP1 SWAP2 OR SWAP1 SSTORE JUMP JUMPDEST PUSH1 0x1 PUSH1 0x1 PUSH1 0xA0 SHL SUB DUP1 DUP4 AND PUSH1 0x0 SWAP1 DUP2 MSTORE PUSH1 0x3 PUSH1 0x20 SWAP1 DUP2 MSTORE PUSH1 0x40 DUP1 DUP4 KECCAK256 DUP6 DUP5 MSTORE DUP3 MSTORE SWAP2 DUP3 SWAP1 KECCAK256 PUSH1 0x1 ADD SLOAD DUP3 MLOAD PUSH1 0x60 DUP2 ADD SWAP1 SWAP4 MSTORE PUSH1 0x25 DUP1 DUP5 MSTORE DUP7 SWAP5 SWAP2 SWAP1 SWAP2 AND CALLER EQ SWAP3 SWAP2 PUSH2 0x367E SWAP1 DUP4 ADD CODECOPY SWAP1 PUSH2 0xDF1 JUMPI PUSH1 0x40 MLOAD PUSH3 0x461BCD PUSH1 0xE5 SHL DUP2 MSTORE PUSH1 0x4 ADD PUSH2 0x49F SWAP2 SWAP1 PUSH2 0x34D6 JUMP JUMPDEST POP PUSH1 0x1 PUSH1 0x1 PUSH1 0xA0 SHL SUB DUP2 AND PUSH1 0x0 SWAP1 DUP2 MSTORE PUSH1 0x3 PUSH1 0x20 DUP2 DUP2 MSTORE PUSH1 0x40 DUP1 DUP5 KECCAK256 DUP7 DUP6 MSTORE SWAP1 SWAP2 MSTORE DUP3 KECCAK256 PUSH1 0x2 DUP2 ADD SLOAD SWAP2 ADD SLOAD PUSH2 0xE27 SWAP2 SWAP1 PUSH2 0x3512 JUMP JUMPDEST CALLER PUSH1 0x0 SWAP1 DUP2 MSTORE PUSH1 0x4 PUSH1 0x20 MSTORE PUSH1 0x40 DUP2 KECCAK256 DUP1 SLOAD SWAP3 SWAP4 POP DUP4 SWAP3 SWAP1 SWAP2 SWAP1 PUSH2 0xE4B SWAP1 DUP5 SWAP1 PUSH2 0x34FF JUMP JUMPDEST SWAP1 SWAP2 SSTORE POP POP PUSH1 0xA SLOAD PUSH1 0x0 SWAP1 PUSH2 0xE61 SWAP1 PUSH1 0x1 PUSH2 0x34FF JUMP JUMPDEST SWAP1 POP PUSH1 0x1 PUSH1 0xA PUSH1 0x0 DUP3 DUP3 SLOAD PUSH2 0xE76 SWAP2 SWAP1 PUSH2 0x34FF JUMP JUMPDEST SWAP1 SWAP2 SSTORE POP POP PUSH1 0x1 PUSH1 0x1 PUSH1 0xA0 SHL SUB DUP4 AND PUSH1 0x0 SWAP1 DUP2 MSTORE PUSH1 0x3 PUSH1 0x20 DUP2 DUP2 MSTORE PUSH1 0x40 DUP1 DUP5 KECCAK256 DUP9 DUP6 MSTORE DUP3 MSTORE SWAP3 DUP4 SWAP1 KECCAK256 PUSH1 0x2 DUP2 ADD SLOAD SWAP3 ADD SLOAD DUP4 MLOAD DUP6 DUP2 MSTORE SWAP2 DUP3 ADD DUP9 SWAP1 MSTORE CALLER DUP3 DUP6 ADD MSTORE PUSH1 0x60 DUP3 ADD SWAP3 SWAP1 SWAP3 MSTORE PUSH1 0x80 DUP2 ADD SWAP2 SWAP1 SWAP2 MSTORE PUSH1 0xA0 DUP2 ADD DUP5 SWAP1 MSTORE SWAP1 MLOAD PUSH32 0x40FFE2EE66F82477E49A0B777198628020DB35E648F0C4BAAE247AB025BD48FA SWAP2 DUP2 SWAP1 SUB PUSH1 0xC0 ADD SWAP1 LOG1 POP POP PUSH1 0x1 PUSH1 0x1 PUSH1 0xA0 SHL SUB AND PUSH1 0x0 SWAP1 DUP2 MSTORE PUSH1 0x3 PUSH1 0x20 DUP2 DUP2 MSTORE PUSH1 0x40 DUP1 DUP5 KECCAK256 SWAP5 DUP5 MSTORE SWAP4 SWAP1 MSTORE SWAP2 DUP2 KECCAK256 DUP2 DUP2 SSTORE PUSH1 0x1 DUP2 ADD DUP1 SLOAD PUSH1 0x1 PUSH1 0x1 PUSH1 0xA0 SHL SUB NOT AND SWAP1 SSTORE PUSH1 0x2 DUP2 ADD DUP3 SWAP1 SSTORE SWAP1 SWAP2 ADD SSTORE POP JUMP JUMPDEST CALLER PUSH1 0x0 SWAP1 DUP2 MSTORE PUSH1 0x4 PUSH1 0x20 MSTORE PUSH1 0x40 SWAP1 KECCAK256 SLOAD DUP1 PUSH2 0xF9F JUMPI PUSH1 0x40 MLOAD PUSH3 0x461BCD PUSH1 0xE5 SHL DUP2 MSTORE PUSH1 0x20 PUSH1 0x4 DUP3 ADD MSTORE PUSH1 0x1D PUSH1 0x24 DUP3 ADD MSTORE PUSH32 0x4E6F7420656E6F75676820616D6F756E7420746F207769746864726177000000 PUSH1 0x44 DUP3 ADD MSTORE PUSH1 0x64 ADD PUSH2 0x49F JUMP JUMPDEST CALLER PUSH1 0x0 DUP2 DUP2 MSTORE PUSH1 0x4 PUSH1 0x20 MSTORE PUSH1 0x40 DUP1 DUP3 KECCAK256 DUP3 SWAP1 SSTORE MLOAD SWAP1 SWAP2 DUP3 SWAP2 DUP5 SWAP1 DUP4 DUP2 DUP2 DUP2 DUP6 DUP8 GAS CALL SWAP3 POP POP POP RETURNDATASIZE DUP1 PUSH1 0x0 DUP2 EQ PUSH2 0xFF1 JUMPI PUSH1 0x40 MLOAD SWAP2 POP PUSH1 0x1F NOT PUSH1 0x3F RETURNDATASIZE ADD AND DUP3 ADD PUSH1 0x40 MSTORE RETURNDATASIZE DUP3 MSTORE RETURNDATASIZE PUSH1 0x0 PUSH1 0x20 DUP5 ADD RETURNDATACOPY PUSH2 0xFF6 JUMP JUMPDEST PUSH1 0x60 SWAP2 POP JUMPDEST POP SWAP2 POP SWAP2 POP DUP2 PUSH2 0x1048 JUMPI PUSH1 0x40 MLOAD PUSH3 0x461BCD PUSH1 0xE5 SHL DUP2 MSTORE PUSH1 0x20 PUSH1 0x4 DUP3 ADD MSTORE PUSH1 0x14 PUSH1 0x24 DUP3 ADD MSTORE PUSH32 0x4661696C656420746F2073656E64204574686572000000000000000000000000 PUSH1 0x44 DUP3 ADD MSTORE PUSH1 0x64 ADD PUSH2 0x49F JUMP JUMPDEST PUSH1 0x0 PUSH1 0xA SLOAD PUSH1 0x1 PUSH2 0x1059 SWAP2 SWAP1 PUSH2 0x34FF JUMP JUMPDEST SWAP1 POP PUSH1 0x1 PUSH1 0xA PUSH1 0x0 DUP3 DUP3 SLOAD PUSH2 0x106E SWAP2 SWAP1 PUSH2 0x34FF JUMP JUMPDEST SWAP1 SWAP2 SSTORE POP POP PUSH1 0x40 DUP1 MLOAD DUP3 DUP2 MSTORE CALLER PUSH1 0x20 DUP3 ADD MSTORE SWAP1 DUP2 ADD DUP6 SWAP1 MSTORE PUSH32 0x8CF1DFE3B4685982358F16FBCB1D9192F7945D25D503B15A39BD2BF5DFC6BF7A SWAP1 PUSH1 0x60 ADD PUSH1 0x40 MLOAD DUP1 SWAP2 SUB SWAP1 LOG1 POP POP POP POP JUMP JUMPDEST PUSH1 0x1 PUSH1 0x1 PUSH1 0xA0 SHL SUB DUP5 AND PUSH1 0x0 SWAP1 DUP2 MSTORE PUSH1 0x3 PUSH1 0x20 DUP2 DUP2 MSTORE PUSH1 0x40 DUP1 DUP5 KECCAK256 DUP7 DUP6 MSTORE SWAP1 SWAP2 MSTORE SWAP1 SWAP2 KECCAK256 ADD SLOAD DUP5 SWAP1 PUSH2 0x1153 JUMPI PUSH1 0x40 MLOAD PUSH3 0x461BCD PUSH1 0xE5 SHL DUP2 MSTORE PUSH1 0x20 PUSH1 0x4 DUP3 ADD MSTORE PUSH1 0x23 PUSH1 0x24 DUP3 ADD MSTORE PUSH32 0x7265616D61696E20616D6F756E74206D7573742067726561746572207468616E PUSH1 0x44 DUP3 ADD MSTORE PUSH32 0x2030200000000000000000000000000000000000000000000000000000000000 PUSH1 0x64 DUP3 ADD MSTORE PUSH1 0x84 ADD PUSH2 0x49F JUMP JUMPDEST PUSH1 0x0 PUSH2 0x1169 PUSH1 0x1 PUSH1 0x1 PUSH1 0xA0 SHL SUB DUP8 AND CALLER DUP8 PUSH2 0x287D JUMP JUMPDEST GT PUSH1 0x40 MLOAD DUP1 PUSH1 0x60 ADD PUSH1 0x40 MSTORE DUP1 PUSH1 0x25 DUP2 MSTORE PUSH1 0x20 ADD PUSH2 0x3716 PUSH1 0x25 SWAP2 CODECOPY SWAP1 PUSH2 0x11A1 JUMPI PUSH1 0x40 MLOAD PUSH3 0x461BCD PUSH1 0xE5 SHL DUP2 MSTORE PUSH1 0x4 ADD PUSH2 0x49F SWAP2 SWAP1 PUSH2 0x34D6 JUMP JUMPDEST POP CALLVALUE DUP3 EQ PUSH2 0x11F1 JUMPI PUSH1 0x40 MLOAD PUSH3 0x461BCD PUSH1 0xE5 SHL DUP2 MSTORE PUSH1 0x20 PUSH1 0x4 DUP3 ADD MSTORE PUSH1 0x12 PUSH1 0x24 DUP3 ADD MSTORE PUSH32 0x4E6F7420656E6F7567682062616C616E63650000000000000000000000000000 PUSH1 0x44 DUP3 ADD MSTORE PUSH1 0x64 ADD PUSH2 0x49F JUMP JUMPDEST PUSH1 0x0 PUSH2 0x1207 PUSH1 0x1 PUSH1 0x1 PUSH1 0xA0 SHL SUB DUP8 AND ADDRESS DUP8 PUSH2 0x2C9E JUMP JUMPDEST SWAP1 POP DUP1 PUSH2 0x1256 JUMPI PUSH1 0x40 MLOAD PUSH3 0x461BCD PUSH1 0xE5 SHL DUP2 MSTORE PUSH1 0x20 PUSH1 0x4 DUP3 ADD MSTORE PUSH1 0x13 PUSH1 0x24 DUP3 ADD MSTORE PUSH32 0x4E4654206973206E6F7420617070726F76656400000000000000000000000000 PUSH1 0x44 DUP3 ADD MSTORE PUSH1 0x64 ADD PUSH2 0x49F JUMP JUMPDEST PUSH1 0x1 PUSH1 0x1 PUSH1 0xA0 SHL SUB DUP3 DUP2 AND PUSH1 0x0 SWAP1 DUP2 MSTORE PUSH1 0x3 PUSH1 0x20 SWAP1 DUP2 MSTORE PUSH1 0x40 DUP1 DUP4 KECCAK256 DUP9 DUP5 MSTORE DUP3 MSTORE DUP1 DUP4 KECCAK256 PUSH1 0x1 ADD SLOAD DUP2 MLOAD DUP5 DUP2 MSTORE SWAP3 DUP4 ADD SWAP1 SWAP2 MSTORE SWAP2 SWAP3 PUSH2 0x12A1 SWAP3 DUP11 DUP3 AND SWAP3 CALLER SWAP3 SWAP2 SWAP1 SWAP2 AND SWAP1 DUP11 SWAP1 PUSH2 0x2B22 JUMP JUMPDEST SWAP1 POP DUP1 PUSH1 0x40 MLOAD DUP1 PUSH1 0x40 ADD PUSH1 0x40 MSTORE DUP1 PUSH1 0x19 DUP2 MSTORE PUSH1 0x20 ADD PUSH32 0x4D61726B6574706C6163653A3A4E4654206E6F742073656E7400000000000000 DUP2 MSTORE POP SWAP1 PUSH2 0x12F8 JUMPI PUSH1 0x40 MLOAD PUSH3 0x461BCD PUSH1 0xE5 SHL DUP2 MSTORE PUSH1 0x4 ADD PUSH2 0x49F SWAP2 SWAP1 PUSH2 0x34D6 JUMP JUMPDEST POP PUSH1 0x1 PUSH1 0x1 PUSH1 0xA0 SHL SUB DUP4 AND PUSH1 0x0 SWAP1 DUP2 MSTORE PUSH1 0x1 PUSH1 0x20 SWAP1 DUP2 MSTORE PUSH1 0x40 DUP1 DUP4 KECCAK256 DUP10 DUP5 MSTORE SWAP1 SWAP2 MSTORE SWAP1 KECCAK256 SLOAD PUSH1 0xFF AND ISZERO PUSH2 0x136F JUMPI PUSH1 0x1 PUSH1 0x1 PUSH1 0xA0 SHL SUB DUP4 AND PUSH1 0x0 SWAP1 DUP2 MSTORE PUSH1 0x1 PUSH1 0x20 DUP2 DUP2 MSTORE PUSH1 0x40 DUP1 DUP5 KECCAK256 DUP11 DUP6 MSTORE SWAP1 SWAP2 MSTORE DUP3 KECCAK256 DUP1 SLOAD PUSH1 0x1 PUSH1 0x1 PUSH1 0xA8 SHL SUB NOT AND DUP2 SSTORE SWAP1 DUP2 ADD SWAP2 SWAP1 SWAP2 SSTORE PUSH1 0x2 ADD DUP1 SLOAD PUSH1 0x1 PUSH1 0x1 PUSH1 0xA0 SHL SUB NOT AND SWAP1 SSTORE JUMPDEST PUSH1 0x1 PUSH1 0x1 PUSH1 0xA0 SHL SUB DUP4 AND PUSH1 0x0 SWAP1 DUP2 MSTORE PUSH1 0x3 PUSH1 0x20 SWAP1 DUP2 MSTORE PUSH1 0x40 DUP1 DUP4 KECCAK256 DUP10 DUP5 MSTORE SWAP1 SWAP2 MSTORE SWAP1 KECCAK256 PUSH1 0x2 ADD SLOAD PUSH2 0x13A5 SWAP1 DUP5 SWAP1 DUP9 SWAP1 CALLER SWAP1 PUSH2 0x2A26 JUMP JUMPDEST PUSH1 0x1 PUSH1 0x1 PUSH1 0xA0 SHL SUB DUP4 AND PUSH1 0x0 SWAP1 DUP2 MSTORE PUSH1 0x3 PUSH1 0x20 DUP2 DUP2 MSTORE PUSH1 0x40 DUP1 DUP5 KECCAK256 DUP11 DUP6 MSTORE SWAP1 SWAP2 MSTORE SWAP1 SWAP2 KECCAK256 ADD SLOAD PUSH2 0x13D7 SWAP1 PUSH1 0x1 SWAP1 PUSH2 0x3529 JUMP JUMPDEST PUSH1 0x1 PUSH1 0x1 PUSH1 0xA0 SHL SUB DUP5 DUP2 AND PUSH1 0x0 SWAP1 DUP2 MSTORE PUSH1 0x3 PUSH1 0x20 DUP2 DUP2 MSTORE PUSH1 0x40 DUP1 DUP5 KECCAK256 DUP13 DUP6 MSTORE SWAP1 SWAP2 MSTORE DUP1 DUP4 KECCAK256 SWAP1 SWAP2 ADD DUP5 SWAP1 SSTORE DUP9 DUP3 MSTORE DUP2 KECCAK256 PUSH1 0x1 DUP2 ADD SLOAD PUSH1 0x2 SWAP1 SWAP2 ADD SLOAD DUP11 DUP4 MSTORE SWAP3 AND SWAP3 SWAP1 DUP2 SWAP1 SUB PUSH2 0x1462 JUMPI PUSH1 0x1 PUSH1 0x1 PUSH1 0xA0 SHL SUB DUP7 AND PUSH1 0x0 SWAP1 DUP2 MSTORE PUSH1 0x3 PUSH1 0x20 DUP2 DUP2 MSTORE PUSH1 0x40 DUP1 DUP5 KECCAK256 DUP13 DUP6 MSTORE SWAP1 SWAP2 MSTORE DUP3 KECCAK256 DUP3 DUP2 SSTORE PUSH1 0x1 DUP2 ADD DUP1 SLOAD PUSH1 0x1 PUSH1 0x1 PUSH1 0xA0 SHL SUB NOT AND SWAP1 SSTORE PUSH1 0x2 DUP2 ADD DUP4 SWAP1 SSTORE ADD SSTORE JUMPDEST PUSH1 0x0 PUSH1 0xA SLOAD PUSH1 0x1 PUSH2 0x1473 SWAP2 SWAP1 PUSH2 0x34FF JUMP JUMPDEST SWAP1 POP PUSH1 0x1 PUSH1 0xA PUSH1 0x0 DUP3 DUP3 SLOAD PUSH2 0x1488 SWAP2 SWAP1 PUSH2 0x34FF JUMP JUMPDEST SWAP1 SWAP2 SSTORE POP POP PUSH1 0x40 DUP1 MLOAD DUP3 DUP2 MSTORE PUSH1 0x20 DUP2 ADD DUP12 SWAP1 MSTORE PUSH1 0x1 PUSH1 0x1 PUSH1 0xA0 SHL SUB DUP7 AND DUP2 DUP4 ADD MSTORE PUSH1 0x60 DUP2 ADD DUP6 SWAP1 MSTORE PUSH1 0x80 DUP2 ADD DUP5 SWAP1 MSTORE SWAP1 MLOAD PUSH32 0x8C226753C392257D3E38E15FC2D951B2C4D2027FAF9C2DBFE0F1CF901F540C31 SWAP2 DUP2 SWAP1 SUB PUSH1 0xA0 ADD SWAP1 LOG1 POP POP POP POP POP POP POP POP POP POP POP JUMP JUMPDEST PUSH1 0x0 JUMPDEST DUP8 DUP2 LT ISZERO PUSH2 0x18C2 JUMPI PUSH1 0x0 PUSH2 0x152C CALLER DUP10 DUP10 DUP6 DUP2 DUP2 LT PUSH2 0x1513 JUMPI PUSH2 0x1513 PUSH2 0x347A JUMP JUMPDEST SWAP1 POP PUSH1 0x20 MUL ADD CALLDATALOAD DUP13 DUP13 DUP7 DUP2 DUP2 LT PUSH2 0x7E3 JUMPI PUSH2 0x7E3 PUSH2 0x347A JUMP JUMPDEST GT PUSH1 0x40 MLOAD DUP1 PUSH1 0x60 ADD PUSH1 0x40 MSTORE DUP1 PUSH1 0x25 DUP2 MSTORE PUSH1 0x20 ADD PUSH2 0x3716 PUSH1 0x25 SWAP2 CODECOPY SWAP1 PUSH2 0x1564 JUMPI PUSH1 0x40 MLOAD PUSH3 0x461BCD PUSH1 0xE5 SHL DUP2 MSTORE PUSH1 0x4 ADD PUSH2 0x49F SWAP2 SWAP1 PUSH2 0x34D6 JUMP JUMPDEST POP PUSH2 0x2710 DUP6 DUP6 DUP4 DUP2 DUP2 LT PUSH2 0x157A JUMPI PUSH2 0x157A PUSH2 0x347A JUMP JUMPDEST SWAP1 POP PUSH1 0x20 MUL ADD CALLDATALOAD GT PUSH2 0x15CE JUMPI PUSH1 0x40 MLOAD PUSH3 0x461BCD PUSH1 0xE5 SHL DUP2 MSTORE PUSH1 0x20 PUSH1 0x4 DUP3 ADD MSTORE PUSH1 0xD PUSH1 0x24 DUP3 ADD MSTORE PUSH32 0x707269636520746F6F206C6F7700000000000000000000000000000000000000 PUSH1 0x44 DUP3 ADD MSTORE PUSH1 0x64 ADD PUSH2 0x49F JUMP JUMPDEST PUSH1 0x0 PUSH2 0x1626 CALLER ADDRESS DUP11 DUP11 DUP7 DUP2 DUP2 LT PUSH2 0x15E7 JUMPI PUSH2 0x15E7 PUSH2 0x347A JUMP JUMPDEST SWAP1 POP PUSH1 0x20 MUL ADD CALLDATALOAD DUP14 DUP14 DUP8 DUP2 DUP2 LT PUSH2 0x1600 JUMPI PUSH2 0x1600 PUSH2 0x347A JUMP JUMPDEST SWAP1 POP PUSH1 0x20 MUL ADD PUSH1 0x20 DUP2 ADD SWAP1 PUSH2 0x1615 SWAP2 SWAP1 PUSH2 0x3278 JUMP JUMPDEST PUSH1 0x1 PUSH1 0x1 PUSH1 0xA0 SHL SUB AND SWAP3 SWAP2 SWAP1 PUSH2 0x2DFE JUMP JUMPDEST SWAP1 POP DUP1 PUSH2 0x1675 JUMPI PUSH1 0x40 MLOAD PUSH3 0x461BCD PUSH1 0xE5 SHL DUP2 MSTORE PUSH1 0x20 PUSH1 0x4 DUP3 ADD MSTORE PUSH1 0x13 PUSH1 0x24 DUP3 ADD MSTORE PUSH32 0x4E4654206973206E6F7420617070726F76656400000000000000000000000000 PUSH1 0x44 DUP3 ADD MSTORE PUSH1 0x64 ADD PUSH2 0x49F JUMP JUMPDEST PUSH1 0x40 DUP1 MLOAD PUSH1 0x80 DUP2 ADD DUP3 MSTORE PUSH1 0x1 DUP2 MSTORE CALLER PUSH1 0x20 DUP3 ADD MSTORE SWAP1 DUP2 ADD DUP8 DUP8 DUP6 DUP2 DUP2 LT PUSH2 0x169E JUMPI PUSH2 0x169E PUSH2 0x347A JUMP JUMPDEST SWAP1 POP PUSH1 0x20 MUL ADD CALLDATALOAD DUP2 MSTORE PUSH1 0x20 ADD DUP6 DUP6 DUP6 DUP2 DUP2 LT PUSH2 0x16BC JUMPI PUSH2 0x16BC PUSH2 0x347A JUMP JUMPDEST SWAP1 POP PUSH1 0x20 MUL ADD PUSH1 0x20 DUP2 ADD SWAP1 PUSH2 0x16D1 SWAP2 SWAP1 PUSH2 0x3278 JUMP JUMPDEST PUSH1 0x1 PUSH1 0x1 PUSH1 0xA0 SHL SUB AND SWAP1 MSTORE PUSH1 0x1 PUSH1 0x0 DUP13 DUP13 DUP7 DUP2 DUP2 LT PUSH2 0x16F2 JUMPI PUSH2 0x16F2 PUSH2 0x347A JUMP JUMPDEST SWAP1 POP PUSH1 0x20 MUL ADD PUSH1 0x20 DUP2 ADD SWAP1 PUSH2 0x1707 SWAP2 SWAP1 PUSH2 0x3278 JUMP JUMPDEST PUSH1 0x1 PUSH1 0x1 PUSH1 0xA0 SHL SUB AND PUSH1 0x1 PUSH1 0x1 PUSH1 0xA0 SHL SUB AND DUP2 MSTORE PUSH1 0x20 ADD SWAP1 DUP2 MSTORE PUSH1 0x20 ADD PUSH1 0x0 KECCAK256 PUSH1 0x0 DUP11 DUP11 DUP7 DUP2 DUP2 LT PUSH2 0x173B JUMPI PUSH2 0x173B PUSH2 0x347A JUMP JUMPDEST PUSH1 0x20 SWAP1 DUP2 MUL SWAP3 SWAP1 SWAP3 ADD CALLDATALOAD DUP4 MSTORE POP DUP2 DUP2 ADD SWAP3 SWAP1 SWAP3 MSTORE PUSH1 0x40 SWAP1 DUP2 ADD PUSH1 0x0 SWAP1 DUP2 KECCAK256 DUP5 MLOAD DUP2 SLOAD SWAP5 DUP7 ADD MLOAD PUSH1 0x1 PUSH1 0x1 PUSH1 0xA8 SHL SUB NOT SWAP1 SWAP6 AND SWAP1 ISZERO ISZERO PUSH21 0xFFFFFFFFFFFFFFFFFFFFFFFFFFFFFFFFFFFFFFFF00 NOT AND OR PUSH2 0x100 PUSH1 0x1 PUSH1 0x1 PUSH1 0xA0 SHL SUB SWAP6 DUP7 AND MUL OR DUP2 SSTORE SWAP2 DUP5 ADD MLOAD PUSH1 0x1 DUP1 DUP5 ADD SWAP2 SWAP1 SWAP2 SSTORE PUSH1 0x60 SWAP1 SWAP5 ADD MLOAD PUSH1 0x2 SWAP1 SWAP3 ADD DUP1 SLOAD PUSH1 0x1 PUSH1 0x1 PUSH1 0xA0 SHL SUB NOT AND SWAP3 SWAP1 SWAP4 AND SWAP2 SWAP1 SWAP2 OR SWAP1 SWAP2 SSTORE PUSH1 0xA SLOAD SWAP1 SWAP2 PUSH2 0x17D9 SWAP2 SWAP1 PUSH2 0x34FF JUMP JUMPDEST SWAP1 POP DUP9 DUP9 DUP5 DUP2 DUP2 LT PUSH2 0x17ED JUMPI PUSH2 0x17ED PUSH2 0x347A JUMP JUMPDEST SWAP1 POP PUSH1 0x20 MUL ADD CALLDATALOAD DUP12 DUP12 DUP6 DUP2 DUP2 LT PUSH2 0x1806 JUMPI PUSH2 0x1806 PUSH2 0x347A JUMP JUMPDEST SWAP1 POP PUSH1 0x20 MUL ADD PUSH1 0x20 DUP2 ADD SWAP1 PUSH2 0x181B SWAP2 SWAP1 PUSH2 0x3278 JUMP JUMPDEST PUSH1 0x1 PUSH1 0x1 PUSH1 0xA0 SHL SUB AND CALLER PUSH32 0x8E6899D2ABC5E022B0C8250A7FB9E8A33A91EAEA64EA09F450765154EF7B393E DUP5 DUP12 DUP12 DUP10 DUP2 DUP2 LT PUSH2 0x1859 JUMPI PUSH2 0x1859 PUSH2 0x347A JUMP JUMPDEST SWAP1 POP PUSH1 0x20 MUL ADD CALLDATALOAD DUP11 DUP11 DUP11 DUP2 DUP2 LT PUSH2 0x1872 JUMPI PUSH2 0x1872 PUSH2 0x347A JUMP JUMPDEST SWAP1 POP PUSH1 0x20 MUL ADD PUSH1 0x20 DUP2 ADD SWAP1 PUSH2 0x1887 SWAP2 SWAP1 PUSH2 0x3278 JUMP JUMPDEST PUSH1 0x40 DUP1 MLOAD SWAP4 DUP5 MSTORE PUSH1 0x20 DUP5 ADD SWAP3 SWAP1 SWAP3 MSTORE PUSH1 0x1 PUSH1 0x1 PUSH1 0xA0 SHL SUB AND SWAP1 DUP3 ADD MSTORE PUSH1 0x60 ADD PUSH1 0x40 MLOAD DUP1 SWAP2 SUB SWAP1 LOG4 POP POP PUSH1 0xA DUP1 SLOAD PUSH1 0x1 SWAP1 DUP2 ADD SWAP1 SWAP2 SSTORE ADD PUSH2 0x14F3 JUMP JUMPDEST POP POP POP POP POP POP POP POP POP JUMP JUMPDEST PUSH1 0x6 SLOAD PUSH1 0x1 PUSH1 0x1 PUSH1 0xA0 SHL SUB AND CALLER EQ PUSH2 0x1917 JUMPI PUSH1 0x40 MLOAD PUSH3 0x461BCD PUSH1 0xE5 SHL DUP2 MSTORE PUSH1 0x20 PUSH1 0x4 DUP3 ADD MSTORE PUSH1 0xD PUSH1 0x24 DUP3 ADD MSTORE PUSH13 0x24B73B30B634B21020B236B4B7 PUSH1 0x99 SHL PUSH1 0x44 DUP3 ADD MSTORE PUSH1 0x64 ADD PUSH2 0x49F JUMP JUMPDEST PUSH1 0x7 SSTORE JUMP JUMPDEST PUSH1 0x0 DUP1 JUMPDEST DUP9 DUP2 LT ISZERO PUSH2 0x1E69 JUMPI PUSH1 0x0 PUSH2 0x1959 CALLER DUP11 DUP11 DUP6 DUP2 DUP2 LT PUSH2 0x1940 JUMPI PUSH2 0x1940 PUSH2 0x347A JUMP JUMPDEST SWAP1 POP PUSH1 0x20 MUL ADD CALLDATALOAD DUP14 DUP14 DUP7 DUP2 DUP2 LT PUSH2 0x7E3 JUMPI PUSH2 0x7E3 PUSH2 0x347A JUMP JUMPDEST GT PUSH1 0x40 MLOAD DUP1 PUSH1 0x60 ADD PUSH1 0x40 MSTORE DUP1 PUSH1 0x25 DUP2 MSTORE PUSH1 0x20 ADD PUSH2 0x3716 PUSH1 0x25 SWAP2 CODECOPY SWAP1 PUSH2 0x1991 JUMPI PUSH1 0x40 MLOAD PUSH3 0x461BCD PUSH1 0xE5 SHL DUP2 MSTORE PUSH1 0x4 ADD PUSH2 0x49F SWAP2 SWAP1 PUSH2 0x34D6 JUMP JUMPDEST POP PUSH1 0x0 DUP11 DUP11 DUP4 DUP2 DUP2 LT PUSH2 0x19A6 JUMPI PUSH2 0x19A6 PUSH2 0x347A JUMP JUMPDEST SWAP1 POP PUSH1 0x20 MUL ADD PUSH1 0x20 DUP2 ADD SWAP1 PUSH2 0x19BB SWAP2 SWAP1 PUSH2 0x3278 JUMP JUMPDEST PUSH1 0x1 PUSH1 0x1 PUSH1 0xA0 SHL SUB DUP2 AND PUSH1 0x0 SWAP1 DUP2 MSTORE PUSH1 0x2 PUSH1 0x20 MSTORE PUSH1 0x40 DUP2 KECCAK256 SWAP2 SWAP3 POP DUP11 DUP11 DUP6 DUP2 DUP2 LT PUSH2 0x19E8 JUMPI PUSH2 0x19E8 PUSH2 0x347A JUMP JUMPDEST SWAP1 POP PUSH1 0x20 MUL ADD CALLDATALOAD DUP2 MSTORE PUSH1 0x20 ADD SWAP1 DUP2 MSTORE PUSH1 0x20 ADD PUSH1 0x0 KECCAK256 PUSH1 0x0 DUP9 DUP9 DUP6 DUP2 DUP2 LT PUSH2 0x1A11 JUMPI PUSH2 0x1A11 PUSH2 0x347A JUMP JUMPDEST SWAP1 POP PUSH1 0x20 MUL ADD CALLDATALOAD DUP2 MSTORE PUSH1 0x20 ADD SWAP1 DUP2 MSTORE PUSH1 0x20 ADD PUSH1 0x0 KECCAK256 PUSH1 0x2 ADD SLOAD DUP6 DUP6 DUP5 DUP2 DUP2 LT PUSH2 0x1A3C JUMPI PUSH2 0x1A3C PUSH2 0x347A JUMP JUMPDEST SWAP1 POP PUSH1 0x20 MUL ADD CALLDATALOAD EQ PUSH2 0x1A90 JUMPI PUSH1 0x40 MLOAD PUSH3 0x461BCD PUSH1 0xE5 SHL DUP2 MSTORE PUSH1 0x20 PUSH1 0x4 DUP3 ADD MSTORE PUSH1 0x14 PUSH1 0x24 DUP3 ADD MSTORE PUSH32 0x4E6F7420656E6F7567682062616C6163616E6521000000000000000000000000 PUSH1 0x44 DUP3 ADD MSTORE PUSH1 0x64 ADD PUSH2 0x49F JUMP JUMPDEST PUSH2 0x1B2E DUP2 DUP11 DUP11 DUP6 DUP2 DUP2 LT PUSH2 0x1AA6 JUMPI PUSH2 0x1AA6 PUSH2 0x347A JUMP JUMPDEST SWAP1 POP PUSH1 0x20 MUL ADD CALLDATALOAD CALLER PUSH1 0x2 PUSH1 0x0 DUP7 PUSH1 0x1 PUSH1 0x1 PUSH1 0xA0 SHL SUB AND PUSH1 0x1 PUSH1 0x1 PUSH1 0xA0 SHL SUB AND DUP2 MSTORE PUSH1 0x20 ADD SWAP1 DUP2 MSTORE PUSH1 0x20 ADD PUSH1 0x0 KECCAK256 PUSH1 0x0 DUP15 DUP15 DUP10 DUP2 DUP2 LT PUSH2 0x1AE7 JUMPI PUSH2 0x1AE7 PUSH2 0x347A JUMP JUMPDEST SWAP1 POP PUSH1 0x20 MUL ADD CALLDATALOAD DUP2 MSTORE PUSH1 0x20 ADD SWAP1 DUP2 MSTORE PUSH1 0x20 ADD PUSH1 0x0 KECCAK256 PUSH1 0x0 DUP13 DUP13 DUP10 DUP2 DUP2 LT PUSH2 0x1B10 JUMPI PUSH2 0x1B10 PUSH2 0x347A JUMP JUMPDEST SWAP1 POP PUSH1 0x20 MUL ADD CALLDATALOAD DUP2 MSTORE PUSH1 0x20 ADD SWAP1 DUP2 MSTORE PUSH1 0x20 ADD PUSH1 0x0 KECCAK256 PUSH1 0x2 ADD SLOAD PUSH2 0x2A26 JUMP JUMPDEST PUSH1 0x0 PUSH2 0x1B84 ADDRESS DUP12 DUP12 DUP7 DUP2 DUP2 LT PUSH2 0x1B46 JUMPI PUSH2 0x1B46 PUSH2 0x347A JUMP JUMPDEST SWAP1 POP PUSH1 0x20 MUL ADD CALLDATALOAD DUP15 DUP15 DUP8 DUP2 DUP2 LT PUSH2 0x1B5F JUMPI PUSH2 0x1B5F PUSH2 0x347A JUMP JUMPDEST SWAP1 POP PUSH1 0x20 MUL ADD PUSH1 0x20 DUP2 ADD SWAP1 PUSH2 0x1B74 SWAP2 SWAP1 PUSH2 0x3278 JUMP JUMPDEST PUSH1 0x1 PUSH1 0x1 PUSH1 0xA0 SHL SUB AND SWAP2 SWAP1 PUSH2 0x2C9E JUMP JUMPDEST SWAP1 POP DUP1 PUSH2 0x1BD3 JUMPI PUSH1 0x40 MLOAD PUSH3 0x461BCD PUSH1 0xE5 SHL DUP2 MSTORE PUSH1 0x20 PUSH1 0x4 DUP3 ADD MSTORE PUSH1 0x13 PUSH1 0x24 DUP3 ADD MSTORE PUSH32 0x4E4654206973206E6F7420617070726F76656400000000000000000000000000 PUSH1 0x44 DUP3 ADD MSTORE PUSH1 0x64 ADD PUSH2 0x49F JUMP JUMPDEST PUSH1 0x0 PUSH1 0xA SLOAD PUSH1 0x1 PUSH2 0x1BE4 SWAP2 SWAP1 PUSH2 0x34FF JUMP JUMPDEST SWAP1 POP PUSH1 0x0 DUP12 DUP12 DUP7 DUP2 DUP2 LT PUSH2 0x1BFA JUMPI PUSH2 0x1BFA PUSH2 0x347A JUMP JUMPDEST SWAP1 POP PUSH1 0x20 MUL ADD CALLDATALOAD SWAP1 POP PUSH1 0x0 DUP11 DUP11 DUP8 DUP2 DUP2 LT PUSH2 0x1C17 JUMPI PUSH2 0x1C17 PUSH2 0x347A JUMP JUMPDEST PUSH1 0x1 PUSH1 0x1 PUSH1 0xA0 SHL SUB DUP9 DUP2 AND PUSH1 0x0 DUP2 DUP2 MSTORE PUSH1 0x2 PUSH1 0x20 DUP2 DUP2 MSTORE PUSH1 0x40 DUP1 DUP5 KECCAK256 DUP12 DUP6 MSTORE DUP3 MSTORE DUP1 DUP5 KECCAK256 SWAP7 DUP3 MUL SWAP9 SWAP1 SWAP9 ADD CALLDATALOAD DUP1 DUP5 MSTORE SWAP6 DUP2 MSTORE SWAP2 DUP8 SWAP1 KECCAK256 PUSH1 0x1 DUP2 ADD SLOAD SWAP2 ADD SLOAD DUP8 MLOAD DUP12 DUP2 MSTORE SWAP3 DUP4 ADD DUP7 SWAP1 MSTORE PUSH2 0x100 SWAP1 SWAP2 DIV SWAP1 SWAP4 AND DUP2 DUP8 ADD MSTORE PUSH1 0x60 DUP2 ADD SWAP3 SWAP1 SWAP3 MSTORE SWAP4 MLOAD SWAP2 SWAP5 POP CALLER SWAP4 DUP7 SWAP4 POP SWAP2 PUSH32 0xA54DB49D60253C77A2AAC1D378AC35CA6252FB7AC2DBD97D4AE67F4B14E60B4A SWAP2 DUP2 SWAP1 SUB PUSH1 0x80 ADD SWAP1 LOG4 PUSH1 0x0 DUP16 DUP16 DUP9 DUP2 DUP2 LT PUSH2 0x1CBE JUMPI PUSH2 0x1CBE PUSH2 0x347A JUMP JUMPDEST SWAP1 POP PUSH1 0x20 MUL ADD PUSH1 0x20 DUP2 ADD SWAP1 PUSH2 0x1CD3 SWAP2 SWAP1 PUSH2 0x3278 JUMP JUMPDEST PUSH1 0x1 PUSH1 0x1 PUSH1 0xA0 SHL SUB DUP8 DUP2 AND PUSH1 0x0 SWAP1 DUP2 MSTORE PUSH1 0x2 PUSH1 0x20 SWAP1 DUP2 MSTORE PUSH1 0x40 DUP1 DUP4 KECCAK256 DUP9 DUP5 MSTORE DUP3 MSTORE DUP1 DUP4 KECCAK256 DUP8 DUP5 MSTORE DUP3 MSTORE DUP1 DUP4 KECCAK256 PUSH1 0x1 ADD SLOAD DUP2 MLOAD DUP5 DUP2 MSTORE SWAP3 DUP4 ADD SWAP1 SWAP2 MSTORE SWAP4 SWAP5 POP SWAP1 SWAP3 PUSH2 0x1D2D SWAP3 DUP6 DUP2 AND SWAP3 CALLER SWAP3 PUSH2 0x100 SWAP1 DIV SWAP1 SWAP2 AND SWAP1 DUP9 SWAP1 PUSH2 0x2B22 JUMP JUMPDEST SWAP1 POP DUP1 PUSH1 0x40 MLOAD DUP1 PUSH1 0x40 ADD PUSH1 0x40 MSTORE DUP1 PUSH1 0x19 DUP2 MSTORE PUSH1 0x20 ADD PUSH32 0x4D61726B6574706C6163653A3A4E4654206E6F742073656E7400000000000000 DUP2 MSTORE POP SWAP1 PUSH2 0x1D84 JUMPI PUSH1 0x40 MLOAD PUSH3 0x461BCD PUSH1 0xE5 SHL DUP2 MSTORE PUSH1 0x4 ADD PUSH2 0x49F SWAP2 SWAP1 PUSH2 0x34D6 JUMP JUMPDEST POP PUSH1 0x1 PUSH1 0x1 PUSH1 0xA0 SHL SUB DUP8 AND PUSH1 0x0 SWAP1 DUP2 MSTORE PUSH1 0x1 PUSH1 0x20 SWAP1 DUP2 MSTORE PUSH1 0x40 DUP1 DUP4 KECCAK256 DUP8 DUP5 MSTORE SWAP1 SWAP2 MSTORE SWAP1 KECCAK256 SLOAD PUSH1 0xFF AND ISZERO PUSH2 0x1DFB JUMPI PUSH1 0x1 PUSH1 0x1 PUSH1 0xA0 SHL SUB DUP8 AND PUSH1 0x0 SWAP1 DUP2 MSTORE PUSH1 0x1 PUSH1 0x20 DUP2 DUP2 MSTORE PUSH1 0x40 DUP1 DUP5 KECCAK256 DUP9 DUP6 MSTORE SWAP1 SWAP2 MSTORE DUP3 KECCAK256 DUP1 SLOAD PUSH1 0x1 PUSH1 0x1 PUSH1 0xA8 SHL SUB NOT AND DUP2 SSTORE SWAP1 DUP2 ADD SWAP2 SWAP1 SWAP2 SSTORE PUSH1 0x2 ADD DUP1 SLOAD PUSH1 0x1 PUSH1 0x1 PUSH1 0xA0 SHL SUB NOT AND SWAP1 SSTORE JUMPDEST PUSH1 0x1 PUSH1 0x1 PUSH1 0xA0 SHL SUB DUP8 AND PUSH1 0x0 SWAP1 DUP2 MSTORE PUSH1 0x2 PUSH1 0x20 DUP2 DUP2 MSTORE PUSH1 0x40 DUP1 DUP5 KECCAK256 DUP9 DUP6 MSTORE DUP3 MSTORE DUP1 DUP5 KECCAK256 DUP8 DUP6 MSTORE SWAP1 SWAP2 MSTORE DUP3 KECCAK256 DUP3 DUP2 SSTORE PUSH1 0x1 DUP2 ADD DUP1 SLOAD PUSH1 0x1 PUSH1 0x1 PUSH1 0xA8 SHL SUB NOT AND SWAP1 SSTORE ADD DUP2 SWAP1 SSTORE PUSH2 0x1E49 SWAP1 DUP11 PUSH2 0x34FF JUMP JUMPDEST PUSH1 0xA DUP1 SLOAD PUSH1 0x1 SWAP1 DUP2 ADD SWAP1 SWAP2 SSTORE SWAP1 SWAP10 POP SWAP1 SWAP8 ADD SWAP7 POP PUSH2 0x1920 SWAP6 POP POP POP POP POP POP JUMP JUMPDEST POP CALLVALUE DUP2 EQ PUSH1 0x40 MLOAD DUP1 PUSH1 0x60 ADD PUSH1 0x40 MSTORE DUP1 PUSH1 0x2D DUP2 MSTORE PUSH1 0x20 ADD PUSH2 0x36E9 PUSH1 0x2D SWAP2 CODECOPY SWAP1 PUSH2 0x1EA4 JUMPI PUSH1 0x40 MLOAD PUSH3 0x461BCD PUSH1 0xE5 SHL DUP2 MSTORE PUSH1 0x4 ADD PUSH2 0x49F SWAP2 SWAP1 PUSH2 0x34D6 JUMP JUMPDEST POP POP POP POP POP POP POP POP POP POP JUMP JUMPDEST PUSH1 0x0 JUMPDEST DUP4 DUP2 LT ISZERO PUSH2 0x2079 JUMPI PUSH1 0x0 DUP6 DUP6 DUP4 DUP2 DUP2 LT PUSH2 0x1ECF JUMPI PUSH2 0x1ECF PUSH2 0x347A JUMP JUMPDEST SWAP1 POP PUSH1 0x20 MUL ADD PUSH1 0x20 DUP2 ADD SWAP1 PUSH2 0x1EE4 SWAP2 SWAP1 PUSH2 0x3278 JUMP JUMPDEST PUSH1 0x1 PUSH1 0x1 PUSH1 0xA0 SHL SUB DUP2 AND PUSH1 0x0 SWAP1 DUP2 MSTORE PUSH1 0x1 PUSH1 0x20 MSTORE PUSH1 0x40 DUP2 KECCAK256 SWAP2 SWAP3 POP CALLER SWAP2 SWAP1 DUP7 DUP7 DUP7 DUP2 DUP2 LT PUSH2 0x1F14 JUMPI PUSH2 0x1F14 PUSH2 0x347A JUMP JUMPDEST SWAP1 POP PUSH1 0x20 MUL ADD CALLDATALOAD DUP2 MSTORE PUSH1 0x20 ADD SWAP1 DUP2 MSTORE PUSH1 0x20 ADD PUSH1 0x0 KECCAK256 PUSH1 0x0 ADD PUSH1 0x1 SWAP1 SLOAD SWAP1 PUSH2 0x100 EXP SWAP1 DIV PUSH1 0x1 PUSH1 0x1 PUSH1 0xA0 SHL SUB AND PUSH1 0x1 PUSH1 0x1 PUSH1 0xA0 SHL SUB AND EQ PUSH1 0x40 MLOAD DUP1 PUSH1 0x60 ADD PUSH1 0x40 MSTORE DUP1 PUSH1 0x25 DUP2 MSTORE PUSH1 0x20 ADD PUSH2 0x367E PUSH1 0x25 SWAP2 CODECOPY SWAP1 PUSH2 0x1F81 JUMPI PUSH1 0x40 MLOAD PUSH3 0x461BCD PUSH1 0xE5 SHL DUP2 MSTORE PUSH1 0x4 ADD PUSH2 0x49F SWAP2 SWAP1 PUSH2 0x34D6 JUMP JUMPDEST POP PUSH1 0x1 PUSH1 0x1 PUSH1 0xA0 SHL SUB DUP2 AND PUSH1 0x0 SWAP1 DUP2 MSTORE PUSH1 0x1 PUSH1 0x20 MSTORE PUSH1 0x40 DUP2 KECCAK256 SWAP1 DUP6 DUP6 DUP6 DUP2 DUP2 LT PUSH2 0x1FAD JUMPI PUSH2 0x1FAD PUSH2 0x347A JUMP JUMPDEST PUSH1 0x20 SWAP1 DUP2 MUL SWAP3 SWAP1 SWAP3 ADD CALLDATALOAD DUP4 MSTORE POP DUP2 ADD SWAP2 SWAP1 SWAP2 MSTORE PUSH1 0x40 ADD PUSH1 0x0 SWAP1 DUP2 KECCAK256 DUP1 SLOAD PUSH1 0x1 PUSH1 0x1 PUSH1 0xA8 SHL SUB NOT AND DUP2 SSTORE PUSH1 0x1 DUP1 DUP3 ADD DUP4 SWAP1 SSTORE PUSH1 0x2 SWAP1 SWAP2 ADD DUP1 SLOAD PUSH1 0x1 PUSH1 0x1 PUSH1 0xA0 SHL SUB NOT AND SWAP1 SSTORE PUSH1 0xA SLOAD PUSH2 0x1FFD SWAP2 PUSH2 0x34FF JUMP JUMPDEST SWAP1 POP DUP5 DUP5 DUP5 DUP2 DUP2 LT PUSH2 0x2011 JUMPI PUSH2 0x2011 PUSH2 0x347A JUMP JUMPDEST SWAP1 POP PUSH1 0x20 MUL ADD CALLDATALOAD DUP3 PUSH1 0x1 PUSH1 0x1 PUSH1 0xA0 SHL SUB AND CALLER PUSH1 0x1 PUSH1 0x1 PUSH1 0xA0 SHL SUB AND PUSH32 0xC4E050F50FF29963EA0DAD3D9ABDC08B57E991F503808A3BFD7BFC5EB555C33 DUP5 PUSH1 0x40 MLOAD PUSH2 0x205D SWAP2 DUP2 MSTORE PUSH1 0x20 ADD SWAP1 JUMP JUMPDEST PUSH1 0x40 MLOAD DUP1 SWAP2 SUB SWAP1 LOG4 POP POP PUSH1 0xA DUP1 SLOAD PUSH1 0x1 SWAP1 DUP2 ADD SWAP1 SWAP2 SSTORE ADD PUSH2 0x1EB3 JUMP JUMPDEST POP POP POP POP POP JUMP JUMPDEST PUSH1 0x0 JUMPDEST DUP6 DUP2 LT ISZERO PUSH2 0x2352 JUMPI PUSH1 0x0 DUP8 DUP8 DUP4 DUP2 DUP2 LT PUSH2 0x209F JUMPI PUSH2 0x209F PUSH2 0x347A JUMP JUMPDEST SWAP1 POP PUSH1 0x20 MUL ADD PUSH1 0x20 DUP2 ADD SWAP1 PUSH2 0x20B4 SWAP2 SWAP1 PUSH2 0x3278 JUMP JUMPDEST PUSH1 0x1 PUSH1 0x1 PUSH1 0xA0 SHL SUB DUP2 AND PUSH1 0x0 SWAP1 DUP2 MSTORE PUSH1 0x2 PUSH1 0x20 MSTORE PUSH1 0x40 DUP2 KECCAK256 SWAP2 SWAP3 POP CALLER SWAP2 SWAP1 DUP9 DUP9 DUP7 DUP2 DUP2 LT PUSH2 0x20E4 JUMPI PUSH2 0x20E4 PUSH2 0x347A JUMP JUMPDEST SWAP1 POP PUSH1 0x20 MUL ADD CALLDATALOAD DUP2 MSTORE PUSH1 0x20 ADD SWAP1 DUP2 MSTORE PUSH1 0x20 ADD PUSH1 0x0 KECCAK256 PUSH1 0x0 DUP7 DUP7 DUP7 DUP2 DUP2 LT PUSH2 0x210D JUMPI PUSH2 0x210D PUSH2 0x347A JUMP JUMPDEST SWAP1 POP PUSH1 0x20 MUL ADD CALLDATALOAD DUP2 MSTORE PUSH1 0x20 ADD SWAP1 DUP2 MSTORE PUSH1 0x20 ADD PUSH1 0x0 KECCAK256 PUSH1 0x1 ADD PUSH1 0x1 SWAP1 SLOAD SWAP1 PUSH2 0x100 EXP SWAP1 DIV PUSH1 0x1 PUSH1 0x1 PUSH1 0xA0 SHL SUB AND PUSH1 0x1 PUSH1 0x1 PUSH1 0xA0 SHL SUB AND EQ PUSH1 0x40 MLOAD DUP1 PUSH1 0x60 ADD PUSH1 0x40 MSTORE DUP1 PUSH1 0x25 DUP2 MSTORE PUSH1 0x20 ADD PUSH2 0x3659 PUSH1 0x25 SWAP2 CODECOPY SWAP1 PUSH2 0x217A JUMPI PUSH1 0x40 MLOAD PUSH3 0x461BCD PUSH1 0xE5 SHL DUP2 MSTORE PUSH1 0x4 ADD PUSH2 0x49F SWAP2 SWAP1 PUSH2 0x34D6 JUMP JUMPDEST POP PUSH1 0x1 PUSH1 0x1 PUSH1 0xA0 SHL SUB DUP2 AND PUSH1 0x0 SWAP1 DUP2 MSTORE PUSH1 0x2 PUSH1 0x20 MSTORE PUSH1 0x40 DUP2 KECCAK256 SWAP1 DUP8 DUP8 DUP6 DUP2 DUP2 LT PUSH2 0x21A6 JUMPI PUSH2 0x21A6 PUSH2 0x347A JUMP JUMPDEST SWAP1 POP PUSH1 0x20 MUL ADD CALLDATALOAD DUP2 MSTORE PUSH1 0x20 ADD SWAP1 DUP2 MSTORE PUSH1 0x20 ADD PUSH1 0x0 KECCAK256 PUSH1 0x0 DUP6 DUP6 DUP6 DUP2 DUP2 LT PUSH2 0x21CF JUMPI PUSH2 0x21CF PUSH2 0x347A JUMP JUMPDEST PUSH1 0x20 SWAP1 DUP2 MUL SWAP3 SWAP1 SWAP3 ADD CALLDATALOAD DUP4 MSTORE POP DUP2 ADD SWAP2 SWAP1 SWAP2 MSTORE PUSH1 0x40 ADD PUSH1 0x0 SWAP1 DUP2 KECCAK256 DUP2 DUP2 SSTORE PUSH1 0x1 DUP1 DUP3 ADD DUP1 SLOAD PUSH1 0x1 PUSH1 0x1 PUSH1 0xA8 SHL SUB NOT AND SWAP1 SSTORE PUSH1 0x2 SWAP1 SWAP2 ADD DUP3 SWAP1 SSTORE PUSH1 0xA SLOAD PUSH2 0x2214 SWAP2 PUSH2 0x34FF JUMP JUMPDEST SWAP1 POP CALLER DUP8 DUP8 DUP6 DUP2 DUP2 LT PUSH2 0x2229 JUMPI PUSH2 0x2229 PUSH2 0x347A JUMP JUMPDEST SWAP1 POP PUSH1 0x20 MUL ADD CALLDATALOAD DUP4 PUSH1 0x1 PUSH1 0x1 PUSH1 0xA0 SHL SUB AND PUSH32 0xC3E3F180CC1CE25937C628A641269A6AE977735B15DE256A3ED5C928A9D161CB DUP5 DUP10 DUP10 DUP10 DUP2 DUP2 LT PUSH2 0x226E JUMPI PUSH2 0x226E PUSH2 0x347A JUMP JUMPDEST SWAP1 POP PUSH1 0x20 MUL ADD CALLDATALOAD PUSH1 0x40 MLOAD PUSH2 0x228C SWAP3 SWAP2 SWAP1 SWAP2 DUP3 MSTORE PUSH1 0x20 DUP3 ADD MSTORE PUSH1 0x40 ADD SWAP1 JUMP JUMPDEST PUSH1 0x40 MLOAD DUP1 SWAP2 SUB SWAP1 LOG4 PUSH1 0x1 PUSH1 0x1 PUSH1 0xA0 SHL SUB DUP3 AND PUSH1 0x0 SWAP1 DUP2 MSTORE PUSH1 0x2 PUSH1 0x20 MSTORE PUSH1 0x40 DUP2 KECCAK256 SWAP1 DUP9 DUP9 DUP7 DUP2 DUP2 LT PUSH2 0x22BF JUMPI PUSH2 0x22BF PUSH2 0x347A JUMP JUMPDEST SWAP1 POP PUSH1 0x20 MUL ADD CALLDATALOAD DUP2 MSTORE PUSH1 0x20 ADD SWAP1 DUP2 MSTORE PUSH1 0x20 ADD PUSH1 0x0 KECCAK256 PUSH1 0x0 DUP7 DUP7 DUP7 DUP2 DUP2 LT PUSH2 0x22E8 JUMPI PUSH2 0x22E8 PUSH2 0x347A JUMP JUMPDEST SWAP1 POP PUSH1 0x20 MUL ADD CALLDATALOAD DUP2 MSTORE PUSH1 0x20 ADD SWAP1 DUP2 MSTORE PUSH1 0x20 ADD PUSH1 0x0 KECCAK256 PUSH1 0x2 ADD SLOAD PUSH1 0x4 PUSH1 0x0 CALLER PUSH1 0x1 PUSH1 0x1 PUSH1 0xA0 SHL SUB AND PUSH1 0x1 PUSH1 0x1 PUSH1 0xA0 SHL SUB AND DUP2 MSTORE PUSH1 0x20 ADD SWAP1 DUP2 MSTORE PUSH1 0x20 ADD PUSH1 0x0 KECCAK256 PUSH1 0x0 DUP3 DUP3 SLOAD PUSH2 0x2335 SWAP2 SWAP1 PUSH2 0x34FF JUMP JUMPDEST SWAP1 SWAP2 SSTORE POP POP PUSH1 0xA DUP1 SLOAD PUSH1 0x1 SWAP1 DUP2 ADD SWAP1 SWAP2 SSTORE SWAP1 SWAP3 ADD SWAP2 POP PUSH2 0x2083 SWAP1 POP JUMP JUMPDEST POP POP POP POP POP POP POP JUMP JUMPDEST PUSH1 0x0 SLOAD PUSH2 0x100 SWAP1 DIV PUSH1 0xFF AND ISZERO DUP1 DUP1 ISZERO PUSH2 0x237B JUMPI POP PUSH1 0x0 SLOAD PUSH1 0x1 PUSH1 0xFF SWAP1 SWAP2 AND LT JUMPDEST DUP1 PUSH2 0x2395 JUMPI POP ADDRESS EXTCODESIZE ISZERO DUP1 ISZERO PUSH2 0x2395 JUMPI POP PUSH1 0x0 SLOAD PUSH1 0xFF AND PUSH1 0x1 EQ JUMPDEST PUSH2 0x2407 JUMPI PUSH1 0x40 MLOAD PUSH3 0x461BCD PUSH1 0xE5 SHL DUP2 MSTORE PUSH1 0x20 PUSH1 0x4 DUP3 ADD MSTORE PUSH1 0x2E PUSH1 0x24 DUP3 ADD MSTORE PUSH32 0x496E697469616C697A61626C653A20636F6E747261637420697320616C726561 PUSH1 0x44 DUP3 ADD MSTORE PUSH32 0x647920696E697469616C697A6564000000000000000000000000000000000000 PUSH1 0x64 DUP3 ADD MSTORE PUSH1 0x84 ADD PUSH2 0x49F JUMP JUMPDEST PUSH1 0x0 DUP1 SLOAD PUSH1 0xFF NOT AND PUSH1 0x1 OR SWAP1 SSTORE DUP1 ISZERO PUSH2 0x242A JUMPI PUSH1 0x0 DUP1 SLOAD PUSH2 0xFF00 NOT AND PUSH2 0x100 OR SWAP1 SSTORE JUMPDEST PUSH1 0x5 DUP1 SLOAD PUSH1 0x1 PUSH1 0x1 PUSH1 0xA0 SHL SUB DUP6 AND PUSH1 0x1 PUSH1 0x1 PUSH1 0xA0 SHL SUB NOT SWAP2 DUP3 AND OR SWAP1 SWAP2 SSTORE PUSH1 0x6 DUP1 SLOAD SWAP1 SWAP2 AND CALLER OR SWAP1 SSTORE PUSH1 0x7 DUP3 SWAP1 SSTORE PUSH1 0x0 PUSH1 0x8 DUP2 SWAP1 SSTORE PUSH1 0x9 DUP2 SWAP1 SSTORE PUSH1 0xA SSTORE DUP1 ISZERO PUSH2 0x24AD JUMPI PUSH1 0x0 DUP1 SLOAD PUSH2 0xFF00 NOT AND SWAP1 SSTORE PUSH1 0x40 MLOAD PUSH1 0x1 DUP2 MSTORE PUSH32 0x7F26B83FF96E1F2B6A682F133852F6798A09C465DA95921460CEFB3847402498 SWAP1 PUSH1 0x20 ADD PUSH1 0x40 MLOAD DUP1 SWAP2 SUB SWAP1 LOG1 JUMPDEST POP POP POP JUMP JUMPDEST PUSH1 0x0 PUSH2 0x24BE DUP4 DUP4 PUSH2 0x3512 JUMP JUMPDEST SWAP1 POP CALLVALUE DUP2 EQ PUSH2 0x250F JUMPI PUSH1 0x40 MLOAD PUSH3 0x461BCD PUSH1 0xE5 SHL DUP2 MSTORE PUSH1 0x20 PUSH1 0x4 DUP3 ADD MSTORE PUSH1 0xF PUSH1 0x24 DUP3 ADD MSTORE PUSH32 0x494E56414C49442042414C414E43450000000000000000000000000000000000 PUSH1 0x44 DUP3 ADD MSTORE PUSH1 0x64 ADD PUSH2 0x49F JUMP JUMPDEST PUSH1 0x0 PUSH1 0x9 SLOAD PUSH1 0x1 PUSH2 0x2520 SWAP2 SWAP1 PUSH2 0x34FF JUMP JUMPDEST PUSH1 0x40 DUP1 MLOAD PUSH1 0x80 DUP2 ADD DUP3 MSTORE DUP3 DUP2 MSTORE CALLER PUSH1 0x20 DUP1 DUP4 ADD SWAP2 DUP3 MSTORE DUP3 DUP5 ADD DUP10 DUP2 MSTORE PUSH1 0x60 DUP5 ADD DUP10 DUP2 MSTORE PUSH1 0x1 PUSH1 0x1 PUSH1 0xA0 SHL SUB DUP13 DUP2 AND PUSH1 0x0 SWAP1 DUP2 MSTORE PUSH1 0x3 DUP1 DUP7 MSTORE DUP9 DUP3 KECCAK256 DUP11 DUP4 MSTORE SWAP1 SWAP6 MSTORE SWAP7 DUP8 KECCAK256 SWAP6 MLOAD DUP7 SSTORE SWAP4 MLOAD PUSH1 0x1 DUP1 DUP8 ADD DUP1 SLOAD PUSH1 0x1 PUSH1 0x1 PUSH1 0xA0 SHL SUB NOT AND SWAP3 SWAP1 SWAP7 AND SWAP2 SWAP1 SWAP2 OR SWAP1 SWAP5 SSTORE SWAP1 MLOAD PUSH1 0x2 DUP6 ADD SSTORE MLOAD SWAP3 ADD SWAP2 SWAP1 SWAP2 SSTORE PUSH1 0xA SLOAD SWAP3 SWAP4 POP DUP8 SWAP3 PUSH2 0x25A5 SWAP2 PUSH2 0x34FF JUMP JUMPDEST SWAP1 POP PUSH1 0x1 PUSH1 0xA PUSH1 0x0 DUP3 DUP3 SLOAD PUSH2 0x25BA SWAP2 SWAP1 PUSH2 0x34FF JUMP JUMPDEST SWAP1 SWAP2 SSTORE POP POP PUSH1 0x40 DUP1 MLOAD DUP3 DUP2 MSTORE PUSH1 0x20 DUP2 ADD DUP6 SWAP1 MSTORE CALLER DUP2 DUP4 ADD MSTORE PUSH1 0x60 DUP2 ADD DUP9 SWAP1 MSTORE PUSH1 0x80 DUP2 ADD DUP8 SWAP1 MSTORE SWAP1 MLOAD PUSH32 0x401067BD569ADEDB0A34A1DC69908C5BC0606F4D770D99A3C9350365BE351576 SWAP2 DUP2 SWAP1 SUB PUSH1 0xA0 ADD SWAP1 LOG1 POP POP POP POP POP POP POP JUMP JUMPDEST PUSH1 0x0 DUP1 JUMPDEST DUP7 DUP2 LT ISZERO PUSH2 0x2842 JUMPI PUSH1 0x0 DUP9 DUP9 DUP4 DUP2 DUP2 LT PUSH2 0x2635 JUMPI PUSH2 0x2635 PUSH2 0x347A JUMP JUMPDEST SWAP1 POP PUSH1 0x20 MUL ADD PUSH1 0x20 DUP2 ADD SWAP1 PUSH2 0x264A SWAP2 SWAP1 PUSH2 0x3278 JUMP JUMPDEST SWAP1 POP PUSH1 0x0 PUSH1 0x8 SLOAD PUSH1 0x1 PUSH2 0x265D SWAP2 SWAP1 PUSH2 0x34FF JUMP JUMPDEST SWAP1 POP PUSH1 0x40 MLOAD DUP1 PUSH1 0x80 ADD PUSH1 0x40 MSTORE DUP1 DUP3 DUP2 MSTORE PUSH1 0x20 ADD PUSH1 0x1 ISZERO ISZERO DUP2 MSTORE PUSH1 0x20 ADD CALLER PUSH1 0x1 PUSH1 0x1 PUSH1 0xA0 SHL SUB AND DUP2 MSTORE PUSH1 0x20 ADD DUP8 DUP8 DUP7 DUP2 DUP2 LT PUSH2 0x269A JUMPI PUSH2 0x269A PUSH2 0x347A JUMP JUMPDEST SWAP1 POP PUSH1 0x20 MUL ADD CALLDATALOAD DUP2 MSTORE POP PUSH1 0x2 PUSH1 0x0 DUP5 PUSH1 0x1 PUSH1 0x1 PUSH1 0xA0 SHL SUB AND PUSH1 0x1 PUSH1 0x1 PUSH1 0xA0 SHL SUB AND DUP2 MSTORE PUSH1 0x20 ADD SWAP1 DUP2 MSTORE PUSH1 0x20 ADD PUSH1 0x0 KECCAK256 PUSH1 0x0 DUP11 DUP11 DUP8 DUP2 DUP2 LT PUSH2 0x26DD JUMPI PUSH2 0x26DD PUSH2 0x347A JUMP JUMPDEST PUSH1 0x20 SWAP1 DUP2 MUL SWAP3 SWAP1 SWAP3 ADD CALLDATALOAD DUP4 MSTORE POP DUP2 DUP2 ADD SWAP3 SWAP1 SWAP3 MSTORE PUSH1 0x40 SWAP1 DUP2 ADD PUSH1 0x0 SWAP1 DUP2 KECCAK256 DUP6 DUP3 MSTORE DUP4 MSTORE DUP2 DUP2 KECCAK256 DUP5 MLOAD DUP2 SSTORE SWAP3 DUP5 ADD MLOAD PUSH1 0x1 DUP1 DUP6 ADD DUP1 SLOAD SWAP5 DUP8 ADD MLOAD PUSH1 0x1 PUSH1 0x1 PUSH1 0xA0 SHL SUB AND PUSH2 0x100 MUL PUSH21 0xFFFFFFFFFFFFFFFFFFFFFFFFFFFFFFFFFFFFFFFF00 NOT SWAP4 ISZERO ISZERO SWAP4 SWAP1 SWAP4 AND PUSH1 0x1 PUSH1 0x1 PUSH1 0xA8 SHL SUB NOT SWAP1 SWAP6 AND SWAP5 SWAP1 SWAP5 OR SWAP2 SWAP1 SWAP2 OR SWAP1 SWAP3 SSTORE PUSH1 0x60 SWAP1 SWAP4 ADD MLOAD PUSH1 0x2 SWAP1 SWAP3 ADD SWAP2 SWAP1 SWAP2 SSTORE PUSH1 0xA SLOAD PUSH2 0x2773 SWAP2 PUSH2 0x34FF JUMP JUMPDEST PUSH1 0x8 DUP4 SWAP1 SSTORE SWAP1 POP CALLER DUP10 DUP10 DUP7 DUP2 DUP2 LT PUSH2 0x278D JUMPI PUSH2 0x278D PUSH2 0x347A JUMP JUMPDEST SWAP1 POP PUSH1 0x20 MUL ADD CALLDATALOAD DUP5 PUSH1 0x1 PUSH1 0x1 PUSH1 0xA0 SHL SUB AND PUSH32 0xB1062E1EC779AE76009C60C88038CD4AAC8E7B48634A31A802D41574BDA1645E DUP5 DUP7 DUP13 DUP13 DUP12 DUP2 DUP2 LT PUSH2 0x27D3 JUMPI PUSH2 0x27D3 PUSH2 0x347A JUMP JUMPDEST SWAP1 POP PUSH1 0x20 MUL ADD CALLDATALOAD PUSH1 0x40 MLOAD PUSH2 0x27FA SWAP4 SWAP3 SWAP2 SWAP1 SWAP3 DUP4 MSTORE PUSH1 0x20 DUP4 ADD SWAP2 SWAP1 SWAP2 MSTORE PUSH1 0x40 DUP3 ADD MSTORE PUSH1 0x60 ADD SWAP1 JUMP JUMPDEST PUSH1 0x40 MLOAD DUP1 SWAP2 SUB SWAP1 LOG4 DUP7 DUP7 DUP6 DUP2 DUP2 LT PUSH2 0x2814 JUMPI PUSH2 0x2814 PUSH2 0x347A JUMP JUMPDEST SWAP1 POP PUSH1 0x20 MUL ADD CALLDATALOAD DUP6 PUSH2 0x2826 SWAP2 SWAP1 PUSH2 0x34FF JUMP JUMPDEST PUSH1 0xA DUP1 SLOAD PUSH1 0x1 SWAP1 DUP2 ADD SWAP1 SWAP2 SSTORE SWAP1 SWAP6 POP SWAP1 SWAP4 ADD SWAP3 POP PUSH2 0x2619 SWAP2 POP POP JUMP JUMPDEST POP CALLVALUE DUP2 EQ PUSH1 0x40 MLOAD DUP1 PUSH1 0x60 ADD PUSH1 0x40 MSTORE DUP1 PUSH1 0x24 DUP2 MSTORE PUSH1 0x20 ADD PUSH2 0x36C5 PUSH1 0x24 SWAP2 CODECOPY SWAP1 PUSH2 0xD15 JUMPI PUSH1 0x40 MLOAD PUSH3 0x461BCD PUSH1 0xE5 SHL DUP2 MSTORE PUSH1 0x4 ADD PUSH2 0x49F SWAP2 SWAP1 PUSH2 0x34D6 JUMP JUMPDEST PUSH1 0x40 MLOAD PUSH32 0x6352211E00000000000000000000000000000000000000000000000000000000 DUP2 MSTORE PUSH1 0x4 DUP2 ADD DUP3 SWAP1 MSTORE PUSH1 0x0 SWAP1 PUSH1 0x1 PUSH1 0x1 PUSH1 0xA0 SHL SUB DUP6 AND SWAP1 PUSH4 0x6352211E SWAP1 PUSH1 0x24 ADD PUSH1 0x20 PUSH1 0x40 MLOAD DUP1 DUP4 SUB DUP2 DUP7 GAS STATICCALL SWAP3 POP POP POP DUP1 ISZERO PUSH2 0x28FA JUMPI POP PUSH1 0x40 DUP1 MLOAD PUSH1 0x1F RETURNDATASIZE SWAP1 DUP2 ADD PUSH1 0x1F NOT AND DUP3 ADD SWAP1 SWAP3 MSTORE PUSH2 0x28F7 SWAP2 DUP2 ADD SWAP1 PUSH2 0x353C JUMP JUMPDEST PUSH1 0x1 JUMPDEST PUSH2 0x29F6 JUMPI RETURNDATASIZE DUP1 DUP1 ISZERO PUSH2 0x2928 JUMPI PUSH1 0x40 MLOAD SWAP2 POP PUSH1 0x1F NOT PUSH1 0x3F RETURNDATASIZE ADD AND DUP3 ADD PUSH1 0x40 MSTORE RETURNDATASIZE DUP3 MSTORE RETURNDATASIZE PUSH1 0x0 PUSH1 0x20 DUP5 ADD RETURNDATACOPY PUSH2 0x292D JUMP JUMPDEST PUSH1 0x60 SWAP2 POP JUMPDEST POP PUSH1 0x40 MLOAD PUSH31 0xFDD58E00000000000000000000000000000000000000000000000000000000 DUP2 MSTORE PUSH1 0x1 PUSH1 0x1 PUSH1 0xA0 SHL SUB DUP6 DUP2 AND PUSH1 0x4 DUP4 ADD MSTORE PUSH1 0x24 DUP3 ADD DUP6 SWAP1 MSTORE DUP7 AND SWAP1 PUSH3 0xFDD58E SWAP1 PUSH1 0x44 ADD PUSH1 0x20 PUSH1 0x40 MLOAD DUP1 DUP4 SUB DUP2 DUP7 GAS STATICCALL SWAP3 POP POP POP DUP1 ISZERO PUSH2 0x29AE JUMPI POP PUSH1 0x40 DUP1 MLOAD PUSH1 0x1F RETURNDATASIZE SWAP1 DUP2 ADD PUSH1 0x1F NOT AND DUP3 ADD SWAP1 SWAP3 MSTORE PUSH2 0x29AB SWAP2 DUP2 ADD SWAP1 PUSH2 0x3559 JUMP JUMPDEST PUSH1 0x1 JUMPDEST PUSH2 0x29ED JUMPI RETURNDATASIZE DUP1 DUP1 ISZERO PUSH2 0x29DC JUMPI PUSH1 0x40 MLOAD SWAP2 POP PUSH1 0x1F NOT PUSH1 0x3F RETURNDATASIZE ADD AND DUP3 ADD PUSH1 0x40 MSTORE RETURNDATASIZE DUP3 MSTORE RETURNDATASIZE PUSH1 0x0 PUSH1 0x20 DUP5 ADD RETURNDATACOPY PUSH2 0x29E1 JUMP JUMPDEST PUSH1 0x60 SWAP2 POP JUMPDEST POP PUSH1 0x0 SWAP3 POP POP POP PUSH2 0x2A1F JUMP JUMPDEST SWAP2 POP PUSH2 0x2A1F SWAP1 POP JUMP JUMPDEST DUP4 PUSH1 0x1 PUSH1 0x1 PUSH1 0xA0 SHL SUB AND DUP2 PUSH1 0x1 PUSH1 0x1 PUSH1 0xA0 SHL SUB AND SUB PUSH2 0x2A19 JUMPI PUSH1 0x1 SWAP2 POP POP PUSH2 0x2A1F JUMP JUMPDEST PUSH1 0x0 SWAP2 POP POP JUMPDEST SWAP4 SWAP3 POP POP POP JUMP JUMPDEST PUSH1 0x0 PUSH2 0x2710 PUSH1 0x7 SLOAD DUP4 PUSH2 0x2A39 SWAP2 SWAP1 PUSH2 0x3512 JUMP JUMPDEST PUSH2 0x2A43 SWAP2 SWAP1 PUSH2 0x3572 JUMP JUMPDEST SWAP1 POP PUSH1 0x0 DUP1 PUSH2 0x2A53 DUP8 DUP8 DUP7 PUSH2 0x2FAB JUMP JUMPDEST SWAP1 SWAP3 POP SWAP1 POP PUSH1 0x0 DUP2 PUSH2 0x2A65 DUP6 DUP8 PUSH2 0x3529 JUMP JUMPDEST PUSH2 0x2A6F SWAP2 SWAP1 PUSH2 0x3529 JUMP JUMPDEST SWAP1 POP PUSH1 0x0 DUP3 GT DUP1 ISZERO PUSH2 0x2A89 JUMPI POP PUSH1 0x1 PUSH1 0x1 PUSH1 0xA0 SHL SUB DUP4 AND ISZERO ISZERO JUMPDEST ISZERO PUSH2 0x2ABC JUMPI PUSH1 0x1 PUSH1 0x1 PUSH1 0xA0 SHL SUB DUP4 AND PUSH1 0x0 SWAP1 DUP2 MSTORE PUSH1 0x4 PUSH1 0x20 MSTORE PUSH1 0x40 DUP2 KECCAK256 DUP1 SLOAD DUP5 SWAP3 SWAP1 PUSH2 0x2AB6 SWAP1 DUP5 SWAP1 PUSH2 0x34FF JUMP JUMPDEST SWAP1 SWAP2 SSTORE POP POP JUMPDEST PUSH1 0x5 SLOAD PUSH1 0x1 PUSH1 0x1 PUSH1 0xA0 SHL SUB AND PUSH1 0x0 SWAP1 DUP2 MSTORE PUSH1 0x4 PUSH1 0x20 MSTORE PUSH1 0x40 DUP2 KECCAK256 DUP1 SLOAD DUP7 SWAP3 SWAP1 PUSH2 0x2AE6 SWAP1 DUP5 SWAP1 PUSH2 0x34FF JUMP JUMPDEST SWAP1 SWAP2 SSTORE POP POP PUSH1 0x1 PUSH1 0x1 PUSH1 0xA0 SHL SUB DUP7 AND PUSH1 0x0 SWAP1 DUP2 MSTORE PUSH1 0x4 PUSH1 0x20 MSTORE PUSH1 0x40 DUP2 KECCAK256 DUP1 SLOAD DUP4 SWAP3 SWAP1 PUSH2 0x2B13 SWAP1 DUP5 SWAP1 PUSH2 0x34FF JUMP JUMPDEST SWAP1 SWAP2 SSTORE POP POP POP POP POP POP POP POP POP POP JUMP JUMPDEST PUSH1 0x40 MLOAD PUSH32 0xB88D4FDE00000000000000000000000000000000000000000000000000000000 DUP2 MSTORE PUSH1 0x0 SWAP1 PUSH1 0x1 PUSH1 0x1 PUSH1 0xA0 SHL SUB DUP8 AND SWAP1 PUSH4 0xB88D4FDE SWAP1 PUSH2 0x2B70 SWAP1 DUP9 SWAP1 DUP9 SWAP1 DUP9 SWAP1 DUP9 SWAP1 PUSH1 0x4 ADD PUSH2 0x3594 JUMP JUMPDEST PUSH1 0x0 PUSH1 0x40 MLOAD DUP1 DUP4 SUB DUP2 PUSH1 0x0 DUP8 DUP1 EXTCODESIZE ISZERO DUP1 ISZERO PUSH2 0x2B8A JUMPI PUSH1 0x0 DUP1 REVERT JUMPDEST POP GAS CALL SWAP3 POP POP POP DUP1 ISZERO PUSH2 0x2B9B JUMPI POP PUSH1 0x1 JUMPDEST PUSH2 0x2C91 JUMPI RETURNDATASIZE DUP1 DUP1 ISZERO PUSH2 0x2BC9 JUMPI PUSH1 0x40 MLOAD SWAP2 POP PUSH1 0x1F NOT PUSH1 0x3F RETURNDATASIZE ADD AND DUP3 ADD PUSH1 0x40 MSTORE RETURNDATASIZE DUP3 MSTORE RETURNDATASIZE PUSH1 0x0 PUSH1 0x20 DUP5 ADD RETURNDATACOPY PUSH2 0x2BCE JUMP JUMPDEST PUSH1 0x60 SWAP2 POP JUMPDEST POP PUSH1 0x40 MLOAD PUSH32 0xF242432A00000000000000000000000000000000000000000000000000000000 DUP2 MSTORE PUSH1 0x1 PUSH1 0x1 PUSH1 0xA0 SHL SUB DUP9 AND SWAP1 PUSH4 0xF242432A SWAP1 PUSH2 0x2C1D SWAP1 DUP10 SWAP1 DUP10 SWAP1 DUP10 SWAP1 PUSH1 0x1 SWAP1 DUP11 SWAP1 PUSH1 0x4 ADD PUSH2 0x35D0 JUMP JUMPDEST PUSH1 0x0 PUSH1 0x40 MLOAD DUP1 DUP4 SUB DUP2 PUSH1 0x0 DUP8 DUP1 EXTCODESIZE ISZERO DUP1 ISZERO PUSH2 0x2C37 JUMPI PUSH1 0x0 DUP1 REVERT JUMPDEST POP GAS CALL SWAP3 POP POP POP DUP1 ISZERO PUSH2 0x2C48 JUMPI POP PUSH1 0x1 JUMPDEST PUSH2 0x2C87 JUMPI RETURNDATASIZE DUP1 DUP1 ISZERO PUSH2 0x2C76 JUMPI PUSH1 0x40 MLOAD SWAP2 POP PUSH1 0x1F NOT PUSH1 0x3F RETURNDATASIZE ADD AND DUP3 ADD PUSH1 0x40 MSTORE RETURNDATASIZE DUP3 MSTORE RETURNDATASIZE PUSH1 0x0 PUSH1 0x20 DUP5 ADD RETURNDATACOPY PUSH2 0x2C7B JUMP JUMPDEST PUSH1 0x60 SWAP2 POP JUMPDEST POP PUSH1 0x0 SWAP3 POP POP POP PUSH2 0x2C95 JUMP JUMPDEST PUSH1 0x1 SWAP2 POP POP PUSH2 0x2C95 JUMP JUMPDEST POP PUSH1 0x1 JUMPDEST SWAP6 SWAP5 POP POP POP POP POP JUMP JUMPDEST PUSH1 0x40 MLOAD PUSH32 0x95EA7B300000000000000000000000000000000000000000000000000000000 DUP2 MSTORE PUSH1 0x1 PUSH1 0x1 PUSH1 0xA0 SHL SUB DUP4 DUP2 AND PUSH1 0x4 DUP4 ADD MSTORE PUSH1 0x24 DUP3 ADD DUP4 SWAP1 MSTORE PUSH1 0x0 SWAP2 SWAP1 DUP6 AND SWAP1 PUSH4 0x95EA7B3 SWAP1 PUSH1 0x44 ADD PUSH1 0x0 PUSH1 0x40 MLOAD DUP1 DUP4 SUB DUP2 PUSH1 0x0 DUP8 DUP1 EXTCODESIZE ISZERO DUP1 ISZERO PUSH2 0x2D05 JUMPI PUSH1 0x0 DUP1 REVERT JUMPDEST POP GAS CALL SWAP3 POP POP POP DUP1 ISZERO PUSH2 0x2D16 JUMPI POP PUSH1 0x1 JUMPDEST PUSH2 0x2DF6 JUMPI RETURNDATASIZE DUP1 DUP1 ISZERO PUSH2 0x2D44 JUMPI PUSH1 0x40 MLOAD SWAP2 POP PUSH1 0x1F NOT PUSH1 0x3F RETURNDATASIZE ADD AND DUP3 ADD PUSH1 0x40 MSTORE RETURNDATASIZE DUP3 MSTORE RETURNDATASIZE PUSH1 0x0 PUSH1 0x20 DUP5 ADD RETURNDATACOPY PUSH2 0x2D49 JUMP JUMPDEST PUSH1 0x60 SWAP2 POP JUMPDEST POP PUSH1 0x40 MLOAD PUSH32 0xA22CB46500000000000000000000000000000000000000000000000000000000 DUP2 MSTORE PUSH1 0x1 PUSH1 0x1 PUSH1 0xA0 SHL SUB DUP6 DUP2 AND PUSH1 0x4 DUP4 ADD MSTORE PUSH1 0x1 PUSH1 0x24 DUP4 ADD MSTORE DUP7 AND SWAP1 PUSH4 0xA22CB465 SWAP1 PUSH1 0x44 ADD PUSH1 0x0 PUSH1 0x40 MLOAD DUP1 DUP4 SUB DUP2 PUSH1 0x0 DUP8 DUP1 EXTCODESIZE ISZERO DUP1 ISZERO PUSH2 0x2DAD JUMPI PUSH1 0x0 DUP1 REVERT JUMPDEST POP GAS CALL SWAP3 POP POP POP DUP1 ISZERO PUSH2 0x2DBE JUMPI POP PUSH1 0x1 JUMPDEST PUSH2 0x2DEC JUMPI RETURNDATASIZE DUP1 DUP1 ISZERO PUSH2 0x29DC JUMPI PUSH1 0x40 MLOAD SWAP2 POP PUSH1 0x1F NOT PUSH1 0x3F RETURNDATASIZE ADD AND DUP3 ADD PUSH1 0x40 MSTORE RETURNDATASIZE DUP3 MSTORE RETURNDATASIZE PUSH1 0x0 PUSH1 0x20 DUP5 ADD RETURNDATACOPY PUSH2 0x29E1 JUMP JUMPDEST PUSH1 0x1 SWAP2 POP POP PUSH2 0x2A1F JUMP JUMPDEST POP PUSH1 0x1 PUSH2 0x2A1F JUMP JUMPDEST PUSH1 0x40 MLOAD PUSH32 0x81812FC00000000000000000000000000000000000000000000000000000000 DUP2 MSTORE PUSH1 0x4 DUP2 ADD DUP3 SWAP1 MSTORE PUSH1 0x0 SWAP1 PUSH1 0x1 PUSH1 0x1 PUSH1 0xA0 SHL SUB DUP7 AND SWAP1 PUSH4 0x81812FC SWAP1 PUSH1 0x24 ADD PUSH1 0x20 PUSH1 0x40 MLOAD DUP1 DUP4 SUB DUP2 DUP7 GAS STATICCALL SWAP3 POP POP POP DUP1 ISZERO PUSH2 0x2E7B JUMPI POP PUSH1 0x40 DUP1 MLOAD PUSH1 0x1F RETURNDATASIZE SWAP1 DUP2 ADD PUSH1 0x1F NOT AND DUP3 ADD SWAP1 SWAP3 MSTORE PUSH2 0x2E78 SWAP2 DUP2 ADD SWAP1 PUSH2 0x353C JUMP JUMPDEST PUSH1 0x1 JUMPDEST PUSH2 0x2F7A JUMPI RETURNDATASIZE DUP1 DUP1 ISZERO PUSH2 0x2EA9 JUMPI PUSH1 0x40 MLOAD SWAP2 POP PUSH1 0x1F NOT PUSH1 0x3F RETURNDATASIZE ADD AND DUP3 ADD PUSH1 0x40 MSTORE RETURNDATASIZE DUP3 MSTORE RETURNDATASIZE PUSH1 0x0 PUSH1 0x20 DUP5 ADD RETURNDATACOPY PUSH2 0x2EAE JUMP JUMPDEST PUSH1 0x60 SWAP2 POP JUMPDEST POP PUSH1 0x40 MLOAD PUSH32 0xE985E9C500000000000000000000000000000000000000000000000000000000 DUP2 MSTORE PUSH1 0x1 PUSH1 0x1 PUSH1 0xA0 SHL SUB DUP7 DUP2 AND PUSH1 0x4 DUP4 ADD MSTORE DUP6 DUP2 AND PUSH1 0x24 DUP4 ADD MSTORE DUP8 AND SWAP1 PUSH4 0xE985E9C5 SWAP1 PUSH1 0x44 ADD PUSH1 0x20 PUSH1 0x40 MLOAD DUP1 DUP4 SUB DUP2 DUP7 GAS STATICCALL SWAP3 POP POP POP DUP1 ISZERO PUSH2 0x2F32 JUMPI POP PUSH1 0x40 DUP1 MLOAD PUSH1 0x1F RETURNDATASIZE SWAP1 DUP2 ADD PUSH1 0x1F NOT AND DUP3 ADD SWAP1 SWAP3 MSTORE PUSH2 0x2F2F SWAP2 DUP2 ADD SWAP1 PUSH2 0x3608 JUMP JUMPDEST PUSH1 0x1 JUMPDEST PUSH2 0x2F71 JUMPI RETURNDATASIZE DUP1 DUP1 ISZERO PUSH2 0x2F60 JUMPI PUSH1 0x40 MLOAD SWAP2 POP PUSH1 0x1F NOT PUSH1 0x3F RETURNDATASIZE ADD AND DUP3 ADD PUSH1 0x40 MSTORE RETURNDATASIZE DUP3 MSTORE RETURNDATASIZE PUSH1 0x0 PUSH1 0x20 DUP5 ADD RETURNDATACOPY PUSH2 0x2F65 JUMP JUMPDEST PUSH1 0x60 SWAP2 POP JUMPDEST POP PUSH1 0x0 SWAP3 POP POP POP PUSH2 0x2FA3 JUMP JUMPDEST SWAP2 POP PUSH2 0x2FA3 SWAP1 POP JUMP JUMPDEST DUP4 PUSH1 0x1 PUSH1 0x1 PUSH1 0xA0 SHL SUB AND DUP2 PUSH1 0x1 PUSH1 0x1 PUSH1 0xA0 SHL SUB AND SUB PUSH2 0x2F9D JUMPI PUSH1 0x1 SWAP2 POP POP PUSH2 0x2FA3 JUMP JUMPDEST PUSH1 0x0 SWAP2 POP POP JUMPDEST SWAP5 SWAP4 POP POP POP POP JUMP JUMPDEST PUSH1 0x0 DUP1 PUSH2 0x2FBF DUP6 PUSH4 0x152A902D PUSH1 0xE1 SHL PUSH2 0x3054 JUMP JUMPDEST ISZERO PUSH2 0x3045 JUMPI PUSH1 0x40 MLOAD PUSH4 0x152A902D PUSH1 0xE1 SHL DUP2 MSTORE PUSH1 0x4 DUP2 ADD DUP6 SWAP1 MSTORE PUSH1 0x24 DUP2 ADD DUP5 SWAP1 MSTORE PUSH1 0x0 SWAP1 DUP2 SWAP1 PUSH1 0x1 PUSH1 0x1 PUSH1 0xA0 SHL SUB DUP9 AND SWAP1 PUSH4 0x2A55205A SWAP1 PUSH1 0x44 ADD PUSH1 0x40 DUP1 MLOAD DUP1 DUP4 SUB DUP2 DUP7 GAS STATICCALL ISZERO DUP1 ISZERO PUSH2 0x3014 JUMPI RETURNDATASIZE PUSH1 0x0 DUP1 RETURNDATACOPY RETURNDATASIZE PUSH1 0x0 REVERT JUMPDEST POP POP POP POP PUSH1 0x40 MLOAD RETURNDATASIZE PUSH1 0x1F NOT PUSH1 0x1F DUP3 ADD AND DUP3 ADD DUP1 PUSH1 0x40 MSTORE POP DUP2 ADD SWAP1 PUSH2 0x3038 SWAP2 SWAP1 PUSH2 0x362A JUMP JUMPDEST SWAP1 SWAP5 POP SWAP3 POP PUSH2 0x304C SWAP2 POP POP JUMP JUMPDEST POP PUSH1 0x0 SWAP1 POP DUP1 JUMPDEST SWAP4 POP SWAP4 SWAP2 POP POP JUMP JUMPDEST PUSH1 0x0 PUSH2 0x305F DUP4 PUSH2 0x3079 JUMP JUMPDEST DUP1 ISZERO PUSH2 0x3070 JUMPI POP PUSH2 0x3070 DUP4 DUP4 PUSH2 0x30C4 JUMP JUMPDEST SWAP1 POP JUMPDEST SWAP3 SWAP2 POP POP JUMP JUMPDEST PUSH1 0x0 PUSH2 0x308C DUP3 PUSH4 0x1FFC9A7 PUSH1 0xE0 SHL PUSH2 0x30C4 JUMP JUMPDEST DUP1 ISZERO PUSH2 0x3073 JUMPI POP PUSH2 0x30BD DUP3 PUSH32 0xFFFFFFFF00000000000000000000000000000000000000000000000000000000 PUSH2 0x30C4 JUMP JUMPDEST ISZERO SWAP3 SWAP2 POP POP JUMP JUMPDEST PUSH1 0x40 DUP1 MLOAD PUSH32 0xFFFFFFFF00000000000000000000000000000000000000000000000000000000 DUP4 AND PUSH1 0x24 DUP1 DUP4 ADD SWAP2 SWAP1 SWAP2 MSTORE DUP3 MLOAD DUP1 DUP4 SUB SWAP1 SWAP2 ADD DUP2 MSTORE PUSH1 0x44 SWAP1 SWAP2 ADD SWAP1 SWAP2 MSTORE PUSH1 0x20 DUP1 DUP3 ADD DUP1 MLOAD PUSH28 0xFFFFFFFFFFFFFFFFFFFFFFFFFFFFFFFFFFFFFFFFFFFFFFFFFFFFFFFF AND PUSH4 0x1FFC9A7 PUSH1 0xE0 SHL OR DUP2 MSTORE DUP3 MLOAD PUSH1 0x0 SWAP4 SWAP3 DUP5 SWAP3 DUP4 SWAP3 DUP4 SWAP3 SWAP2 DUP4 SWAP2 SWAP1 DUP11 PUSH2 0x7530 STATICCALL SWAP3 POP RETURNDATASIZE SWAP2 POP PUSH1 0x0 MLOAD SWAP1 POP DUP3 DUP1 ISZERO PUSH2 0x3163 JUMPI POP PUSH1 0x20 DUP3 LT ISZERO JUMPDEST DUP1 ISZERO PUSH2 0x316F JUMPI POP PUSH1 0x0 DUP2 GT JUMPDEST SWAP8 SWAP7 POP POP POP POP POP POP POP JUMP JUMPDEST PUSH1 0x0 DUP1 DUP4 PUSH1 0x1F DUP5 ADD SLT PUSH2 0x318C JUMPI PUSH1 0x0 DUP1 REVERT JUMPDEST POP DUP2 CALLDATALOAD PUSH8 0xFFFFFFFFFFFFFFFF DUP2 GT ISZERO PUSH2 0x31A4 JUMPI PUSH1 0x0 DUP1 REVERT JUMPDEST PUSH1 0x20 DUP4 ADD SWAP2 POP DUP4 PUSH1 0x20 DUP3 PUSH1 0x5 SHL DUP6 ADD ADD GT ISZERO PUSH2 0x31BF JUMPI PUSH1 0x0 DUP1 REVERT JUMPDEST SWAP3 POP SWAP3 SWAP1 POP JUMP JUMPDEST PUSH1 0x0 DUP1 PUSH1 0x0 DUP1 PUSH1 0x0 DUP1 PUSH1 0x60 DUP8 DUP10 SUB SLT ISZERO PUSH2 0x31DF JUMPI PUSH1 0x0 DUP1 REVERT JUMPDEST DUP7 CALLDATALOAD PUSH8 0xFFFFFFFFFFFFFFFF DUP1 DUP3 GT ISZERO PUSH2 0x31F7 JUMPI PUSH1 0x0 DUP1 REVERT JUMPDEST PUSH2 0x3203 DUP11 DUP4 DUP12 ADD PUSH2 0x317A JUMP JUMPDEST SWAP1 SWAP9 POP SWAP7 POP PUSH1 0x20 DUP10 ADD CALLDATALOAD SWAP2 POP DUP1 DUP3 GT ISZERO PUSH2 0x321C JUMPI PUSH1 0x0 DUP1 REVERT JUMPDEST PUSH2 0x3228 DUP11 DUP4 DUP12 ADD PUSH2 0x317A JUMP JUMPDEST SWAP1 SWAP7 POP SWAP5 POP PUSH1 0x40 DUP10 ADD CALLDATALOAD SWAP2 POP DUP1 DUP3 GT ISZERO PUSH2 0x3241 JUMPI PUSH1 0x0 DUP1 REVERT JUMPDEST POP PUSH2 0x324E DUP10 DUP3 DUP11 ADD PUSH2 0x317A JUMP JUMPDEST SWAP8 SWAP11 SWAP7 SWAP10 POP SWAP5 SWAP8 POP SWAP3 SWAP6 SWAP4 SWAP5 SWAP3 POP POP POP JUMP JUMPDEST PUSH1 0x1 PUSH1 0x1 PUSH1 0xA0 SHL SUB DUP2 AND DUP2 EQ PUSH2 0x3275 JUMPI PUSH1 0x0 DUP1 REVERT JUMPDEST POP JUMP JUMPDEST PUSH1 0x0 PUSH1 0x20 DUP3 DUP5 SUB SLT ISZERO PUSH2 0x328A JUMPI PUSH1 0x0 DUP1 REVERT JUMPDEST DUP2 CALLDATALOAD PUSH2 0x2A1F DUP2 PUSH2 0x3260 JUMP JUMPDEST PUSH1 0x0 DUP1 PUSH1 0x40 DUP4 DUP6 SUB SLT ISZERO PUSH2 0x32A8 JUMPI PUSH1 0x0 DUP1 REVERT JUMPDEST DUP3 CALLDATALOAD PUSH2 0x32B3 DUP2 PUSH2 0x3260 JUMP JUMPDEST SWAP5 PUSH1 0x20 SWAP4 SWAP1 SWAP4 ADD CALLDATALOAD SWAP4 POP POP POP JUMP JUMPDEST PUSH1 0x0 DUP1 PUSH1 0x0 PUSH1 0x60 DUP5 DUP7 SUB SLT ISZERO PUSH2 0x32D6 JUMPI PUSH1 0x0 DUP1 REVERT JUMPDEST DUP4 CALLDATALOAD PUSH2 0x32E1 DUP2 PUSH2 0x3260 JUMP JUMPDEST SWAP6 PUSH1 0x20 DUP6 ADD CALLDATALOAD SWAP6 POP PUSH1 0x40 SWAP1 SWAP5 ADD CALLDATALOAD SWAP4 SWAP3 POP POP POP JUMP JUMPDEST PUSH1 0x0 DUP1 PUSH1 0x0 DUP1 PUSH1 0x80 DUP6 DUP8 SUB SLT ISZERO PUSH2 0x330C JUMPI PUSH1 0x0 DUP1 REVERT JUMPDEST DUP5 CALLDATALOAD PUSH2 0x3317 DUP2 PUSH2 0x3260 JUMP JUMPDEST SWAP7 PUSH1 0x20 DUP7 ADD CALLDATALOAD SWAP7 POP PUSH1 0x40 DUP7 ADD CALLDATALOAD SWAP6 PUSH1 0x60 ADD CALLDATALOAD SWAP5 POP SWAP3 POP POP POP JUMP JUMPDEST PUSH1 0x0 DUP1 PUSH1 0x0 DUP1 PUSH1 0x0 DUP1 PUSH1 0x0 DUP1 PUSH1 0x80 DUP10 DUP12 SUB SLT ISZERO PUSH2 0x334D JUMPI PUSH1 0x0 DUP1 REVERT JUMPDEST DUP9 CALLDATALOAD PUSH8 0xFFFFFFFFFFFFFFFF DUP1 DUP3 GT ISZERO PUSH2 0x3365 JUMPI PUSH1 0x0 DUP1 REVERT JUMPDEST PUSH2 0x3371 DUP13 DUP4 DUP14 ADD PUSH2 0x317A JUMP JUMPDEST SWAP1 SWAP11 POP SWAP9 POP PUSH1 0x20 DUP12 ADD CALLDATALOAD SWAP2 POP DUP1 DUP3 GT ISZERO PUSH2 0x338A JUMPI PUSH1 0x0 DUP1 REVERT JUMPDEST PUSH2 0x3396 DUP13 DUP4 DUP14 ADD PUSH2 0x317A JUMP JUMPDEST SWAP1 SWAP9 POP SWAP7 POP PUSH1 0x40 DUP12 ADD CALLDATALOAD SWAP2 POP DUP1 DUP3 GT ISZERO PUSH2 0x33AF JUMPI PUSH1 0x0 DUP1 REVERT JUMPDEST PUSH2 0x33BB DUP13 DUP4 DUP14 ADD PUSH2 0x317A JUMP JUMPDEST SWAP1 SWAP7 POP SWAP5 POP PUSH1 0x60 DUP12 ADD CALLDATALOAD SWAP2 POP DUP1 DUP3 GT ISZERO PUSH2 0x33D4 JUMPI PUSH1 0x0 DUP1 REVERT JUMPDEST POP PUSH2 0x33E1 DUP12 DUP3 DUP13 ADD PUSH2 0x317A JUMP JUMPDEST SWAP10 SWAP13 SWAP9 SWAP12 POP SWAP7 SWAP10 POP SWAP5 SWAP8 SWAP4 SWAP7 SWAP3 SWAP6 SWAP5 POP POP POP JUMP JUMPDEST PUSH1 0x0 PUSH1 0x20 DUP3 DUP5 SUB SLT ISZERO PUSH2 0x3407 JUMPI PUSH1 0x0 DUP1 REVERT JUMPDEST POP CALLDATALOAD SWAP2 SWAP1 POP JUMP JUMPDEST PUSH1 0x0 DUP1 PUSH1 0x0 DUP1 PUSH1 0x40 DUP6 DUP8 SUB SLT ISZERO PUSH2 0x3424 JUMPI PUSH1 0x0 DUP1 REVERT JUMPDEST DUP5 CALLDATALOAD PUSH8 0xFFFFFFFFFFFFFFFF DUP1 DUP3 GT ISZERO PUSH2 0x343C JUMPI PUSH1 0x0 DUP1 REVERT JUMPDEST PUSH2 0x3448 DUP9 DUP4 DUP10 ADD PUSH2 0x317A JUMP JUMPDEST SWAP1 SWAP7 POP SWAP5 POP PUSH1 0x20 DUP8 ADD CALLDATALOAD SWAP2 POP DUP1 DUP3 GT ISZERO PUSH2 0x3461 JUMPI PUSH1 0x0 DUP1 REVERT JUMPDEST POP PUSH2 0x346E DUP8 DUP3 DUP9 ADD PUSH2 0x317A JUMP JUMPDEST SWAP6 SWAP9 SWAP5 SWAP8 POP SWAP6 POP POP POP POP JUMP JUMPDEST PUSH4 0x4E487B71 PUSH1 0xE0 SHL PUSH1 0x0 MSTORE PUSH1 0x32 PUSH1 0x4 MSTORE PUSH1 0x24 PUSH1 0x0 REVERT JUMPDEST PUSH1 0x0 DUP2 MLOAD DUP1 DUP5 MSTORE PUSH1 0x0 JUMPDEST DUP2 DUP2 LT ISZERO PUSH2 0x34B6 JUMPI PUSH1 0x20 DUP2 DUP6 ADD DUP2 ADD MLOAD DUP7 DUP4 ADD DUP3 ADD MSTORE ADD PUSH2 0x349A JUMP JUMPDEST POP PUSH1 0x0 PUSH1 0x20 DUP3 DUP7 ADD ADD MSTORE PUSH1 0x20 PUSH1 0x1F NOT PUSH1 0x1F DUP4 ADD AND DUP6 ADD ADD SWAP2 POP POP SWAP3 SWAP2 POP POP JUMP JUMPDEST PUSH1 0x20 DUP2 MSTORE PUSH1 0x0 PUSH2 0x3070 PUSH1 0x20 DUP4 ADD DUP5 PUSH2 0x3490 JUMP JUMPDEST PUSH4 0x4E487B71 PUSH1 0xE0 SHL PUSH1 0x0 MSTORE PUSH1 0x11 PUSH1 0x4 MSTORE PUSH1 0x24 PUSH1 0x0 REVERT JUMPDEST DUP1 DUP3 ADD DUP1 DUP3 GT ISZERO PUSH2 0x3073 JUMPI PUSH2 0x3073 PUSH2 0x34E9 JUMP JUMPDEST DUP1 DUP3 MUL DUP2 ISZERO DUP3 DUP3 DIV DUP5 EQ OR PUSH2 0x3073 JUMPI PUSH2 0x3073 PUSH2 0x34E9 JUMP JUMPDEST DUP2 DUP2 SUB DUP2 DUP2 GT ISZERO PUSH2 0x3073 JUMPI PUSH2 0x3073 PUSH2 0x34E9 JUMP JUMPDEST PUSH1 0x0 PUSH1 0x20 DUP3 DUP5 SUB SLT ISZERO PUSH2 0x354E JUMPI PUSH1 0x0 DUP1 REVERT JUMPDEST DUP2 MLOAD PUSH2 0x2A1F DUP2 PUSH2 0x3260 JUMP JUMPDEST PUSH1 0x0 PUSH1 0x20 DUP3 DUP5 SUB SLT ISZERO PUSH2 0x356B JUMPI PUSH1 0x0 DUP1 REVERT JUMPDEST POP MLOAD SWAP2 SWAP1 POP JUMP JUMPDEST PUSH1 0x0 DUP3 PUSH2 0x358F JUMPI PUSH4 0x4E487B71 PUSH1 0xE0 SHL PUSH1 0x0 MSTORE PUSH1 0x12 PUSH1 0x4 MSTORE PUSH1 0x24 PUSH1 0x0 REVERT JUMPDEST POP DIV SWAP1 JUMP JUMPDEST PUSH1 0x0 PUSH1 0x1 PUSH1 0x1 PUSH1 0xA0 SHL SUB DUP1 DUP8 AND DUP4 MSTORE DUP1 DUP7 AND PUSH1 0x20 DUP5 ADD MSTORE POP DUP4 PUSH1 0x40 DUP4 ADD MSTORE PUSH1 0x80 PUSH1 0x60 DUP4 ADD MSTORE PUSH2 0x35C6 PUSH1 0x80 DUP4 ADD DUP5 PUSH2 0x3490 JUMP JUMPDEST SWAP7 SWAP6 POP POP POP POP POP POP JUMP JUMPDEST PUSH1 0x0 PUSH1 0x1 PUSH1 0x1 PUSH1 0xA0 SHL SUB DUP1 DUP9 AND DUP4 MSTORE DUP1 DUP8 AND PUSH1 0x20 DUP5 ADD MSTORE POP DUP5 PUSH1 0x40 DUP4 ADD MSTORE DUP4 PUSH1 0x60 DUP4 ADD MSTORE PUSH1 0xA0 PUSH1 0x80 DUP4 ADD MSTORE PUSH2 0x316F PUSH1 0xA0 DUP4 ADD DUP5 PUSH2 0x3490 JUMP JUMPDEST PUSH1 0x0 PUSH1 0x20 DUP3 DUP5 SUB SLT ISZERO PUSH2 0x361A JUMPI PUSH1 0x0 DUP1 REVERT JUMPDEST DUP2 MLOAD DUP1 ISZERO ISZERO DUP2 EQ PUSH2 0x2A1F JUMPI PUSH1 0x0 DUP1 REVERT JUMPDEST PUSH1 0x0 DUP1 PUSH1 0x40 DUP4 DUP6 SUB SLT ISZERO PUSH2 0x363D JUMPI PUSH1 0x0 DUP1 REVERT JUMPDEST DUP3 MLOAD PUSH2 0x3648 DUP2 PUSH2 0x3260 JUMP JUMPDEST PUSH1 0x20 SWAP4 SWAP1 SWAP4 ADD MLOAD SWAP3 SWAP5 SWAP3 SWAP4 POP POP POP JUMP INVALID 0x4D PUSH2 0x726B PUSH6 0x74706C616365 GASPRICE GASPRICE PUSH15 0x6F7420612063726561746F72206F66 KECCAK256 PUSH21 0x6865206269644D61726B6574706C6163653A3A6E6F PUSH21 0x20612063726561746F72206F66207468652061736B 0x4D PUSH2 0x726B PUSH6 0x74706C616365 GASPRICE GASPRICE PUSH2 0x736B KECCAK256 PUSH4 0x72656174 PUSH16 0x72206E6F74206F776E65724D61726B65 PUSH21 0x706C6163653A3A696E73756666696369656E742065 PUSH21 0x6865722073656E744D61726B6574706C6163653A3A PUSH2 0x736B KECCAK256 PUSH17 0x7269636520686967686572207468616E20 PUSH20 0x656E742076616C75654D61726B6574706C616365 GASPRICE GASPRICE PUSH15 0x6F7420616E206F776E6572206F6620 PUSH21 0x6F6B656E204944A26469706673582212208832891F SWAP13 CODESIZE 0xF8 SAR SLOAD 0x2D MSTORE PUSH2 0x2628 RETURNDATASIZE 0xB8 0xB9 0xEE 0xE1 0xBD PUSH19 0x932C161C6714BD309F7D4464736F6C63430008 SGT STOP CALLER "},"methodIdentifiers":{"acceptAsk(address[],uint256[],uint256[])":"0fe6a689","acceptBid(address[],uint256[],uint256[],uint256[])":"a1d35c49","acceptCollectionOffer(address,uint256,uint256,uint256)":"477fd836","asks(address,uint256)":"e22d4f7d","bids(address,uint256,uint256)":"46d02934","cancelAsk(address[],uint256[])":"a613b6a9","cancelBid(address[],uint256[],uint256[])":"ae25a412","cancelCollectionOffer(address,uint256)":"386e88ed","collectionOffers(address,uint256)":"7495c6ac","createAsk(address[],uint256[],uint256[],address[])":"835a55ff","createBid(address[],uint256[],uint256[])":"f778550e","createCollectionOffer(address,uint256,uint256)":"d8cfc775","escrow(address)":"57d3c7c3","initialize(address,uint256)":"cd6dc687","revokeAdmin()":"0d6aef04","updateFundAddress(address)":"1d5459f7","updateMarketFee(uint256)":"9b484379","withdraw()":"3ccfd60b"}},"storageLayout":{"storage":[{"astId":6,"contract":"contracts/Marketplace.sol:Marketplace","label":"_initialized","offset":0,"slot":"0","type":"t_uint8"},{"astId":9,"contract":"contracts/Marketplace.sol:Marketplace","label":"_initializing","offset":1,"slot":"0","type":"t_bool"},{"astId":1539,"contract":"contracts/Marketplace.sol:Marketplace","label":"asks","offset":0,"slot":"1","type":"t_mapping(t_address,t_mapping(t_uint256,t_struct(Ask)3683_storage))"},{"astId":1548,"contract":"contracts/Marketplace.sol:Marketplace","label":"bids","offset":0,"slot":"2","type":"t_mapping(t_address,t_mapping(t_uint256,t_mapping(t_uint256,t_struct(Bid)3692_storage)))"},{"astId":1555,"contract":"contracts/Marketplace.sol:Marketplace","label":"collectionOffers","offset":0,"slot":"3","type":"t_mapping(t_address,t_mapping(t_uint256,t_struct(CollectionOffer)3701_storage))"},{"astId":1559,"contract":"contracts/Marketplace.sol:Marketplace","label":"escrow","offset":0,"slot":"4","type":"t_mapping(t_address,t_uint256)"},{"astId":1561,"contract":"contracts/Marketplace.sol:Marketplace","label":"beneficiary","offset":0,"slot":"5","type":"t_address_payable"},{"astId":1563,"contract":"contracts/Marketplace.sol:Marketplace","label":"admin","offset":0,"slot":"6","type":"t_address"},{"astId":1565,"contract":"contracts/Marketplace.sol:Marketplace","label":"marketFee","offset":0,"slot":"7","type":"t_uint256"},{"astId":1567,"contract":"contracts/Marketplace.sol:Marketplace","label":"current_bid_id","offset":0,"slot":"8","type":"t_uint256"},{"astId":1569,"contract":"contracts/Marketplace.sol:Marketplace","label":"current_collection_offer_id","offset":0,"slot":"9","type":"t_uint256"},{"astId":1571,"contract":"contracts/Marketplace.sol:Marketplace","label":"current_event_id","offset":0,"slot":"10","type":"t_uint256"}],"types":{"t_address":{"encoding":"inplace","label":"address","numberOfBytes":"20"},"t_address_payable":{"encoding":"inplace","label":"address payable","numberOfBytes":"20"},"t_bool":{"encoding":"inplace","label":"bool","numberOfBytes":"1"},"t_mapping(t_address,t_mapping(t_uint256,t_mapping(t_uint256,t_struct(Bid)3692_storage)))":{"encoding":"mapping","key":"t_address","label":"mapping(address => mapping(uint256 => mapping(uint256 => struct IMarketplace.Bid)))","numberOfBytes":"32","value":"t_mapping(t_uint256,t_mapping(t_uint256,t_struct(Bid)3692_storage))"},"t_mapping(t_address,t_mapping(t_uint256,t_struct(Ask)3683_storage))":{"encoding":"mapping","key":"t_address","label":"mapping(address => mapping(uint256 => struct IMarketplace.Ask))","numberOfBytes":"32","value":"t_mapping(t_uint256,t_struct(Ask)3683_storage)"},"t_mapping(t_address,t_mapping(t_uint256,t_struct(CollectionOffer)3701_storage))":{"encoding":"mapping","key":"t_address","label":"mapping(address => mapping(uint256 => struct IMarketplace.CollectionOffer))","numberOfBytes":"32","value":"t_mapping(t_uint256,t_struct(CollectionOffer)3701_storage)"},"t_mapping(t_address,t_uint256)":{"encoding":"mapping","key":"t_address","label":"mapping(address => uint256)","numberOfBytes":"32","value":"t_uint256"},"t_mapping(t_uint256,t_mapping(t_uint256,t_struct(Bid)3692_storage))":{"encoding":"mapping","key":"t_uint256","label":"mapping(uint256 => mapping(uint256 => struct IMarketplace.Bid))","numberOfBytes":"32","value":"t_mapping(t_uint256,t_struct(Bid)3692_storage)"},"t_mapping(t_uint256,t_struct(Ask)3683_storage)":{"encoding":"mapping","key":"t_uint256","label":"mapping(uint256 => struct IMarketplace.Ask)","numberOfBytes":"32","value":"t_struct(Ask)3683_storage"},"t_mapping(t_uint256,t_struct(Bid)3692_storage)":{"encoding":"mapping","key":"t_uint256","label":"mapping(uint256 => struct IMarketplace.Bid)","numberOfBytes":"32","value":"t_struct(Bid)3692_storage"},"t_mapping(t_uint256,t_struct(CollectionOffer)3701_storage)":{"encoding":"mapping","key":"t_uint256","label":"mapping(uint256 => struct IMarketplace.CollectionOffer)","numberOfBytes":"32","value":"t_struct(CollectionOffer)3701_storage"},"t_struct(Ask)3683_storage":{"encoding":"inplace","label":"struct IMarketplace.Ask","members":[{"astId":3676,"contract":"contracts/Marketplace.sol:Marketplace","label":"exists","offset":0,"slot":"0","type":"t_bool"},{"astId":3678,"contract":"contracts/Marketplace.sol:Marketplace","label":"seller","offset":1,"slot":"0","type":"t_address"},{"astId":3680,"contract":"contracts/Marketplace.sol:Marketplace","label":"price","offset":0,"slot":"1","type":"t_uint256"},{"astId":3682,"contract":"contracts/Marketplace.sol:Marketplace","label":"to","offset":0,"slot":"2","type":"t_address"}],"numberOfBytes":"96"},"t_struct(Bid)3692_storage":{"encoding":"inplace","label":"struct IMarketplace.Bid","members":[{"astId":3685,"contract":"contracts/Marketplace.sol:Marketplace","label":"bid_id","offset":0,"slot":"0","type":"t_uint256"},{"astId":3687,"contract":"contracts/Marketplace.sol:Marketplace","label":"exists","offset":0,"slot":"1","type":"t_bool"},{"astId":3689,"contract":"contracts/Marketplace.sol:Marketplace","label":"buyer","offset":1,"slot":"1","type":"t_address"},{"astId":3691,"contract":"contracts/Marketplace.sol:Marketplace","label":"price","offset":0,"slot":"2","type":"t_uint256"}],"numberOfBytes":"96"},"t_struct(CollectionOffer)3701_storage":{"encoding":"inplace","label":"struct IMarketplace.CollectionOffer","members":[{"astId":3694,"contract":"contracts/Marketplace.sol:Marketplace","label":"collection_offer_id","offset":0,"slot":"0","type":"t_uint256"},{"astId":3696,"contract":"contracts/Marketplace.sol:Marketplace","label":"bidder","offset":0,"slot":"1","type":"t_address"},{"astId":3698,"contract":"contracts/Marketplace.sol:Marketplace","label":"price_per_item","offset":0,"slot":"2","type":"t_uint256"},{"astId":3700,"contract":"contracts/Marketplace.sol:Marketplace","label":"amount","offset":0,"slot":"3","type":"t_uint256"}],"numberOfBytes":"128"},"t_uint256":{"encoding":"inplace","label":"uint256","numberOfBytes":"32"},"t_uint8":{"encoding":"inplace","label":"uint8","numberOfBytes":"1"}}}}}}