{
  "_format": "hh-sol-artifact-1",
  "contractName": "BlueMoveNFT",
  "sourceName": "contracts/BlueMoveNFT.sol",
  "abi": [
    {
      "inputs": [
        {
          "internalType": "string",
          "name": "_name",
          "type": "string"
        },
        {
          "internalType": "string",
          "name": "_symbol",
          "type": "string"
        },
        {
          "internalType": "uint256",
          "name": "_royalty",
          "type": "uint256"
        },
        {
          "internalType": "address",
          "name": "_royalty_wallet",
          "type": "address"
        }
      ],
      "stateMutability": "nonpayable",
      "type": "constructor"
    },
    {
      "anonymous": false,
      "inputs": [
        {
          "indexed": true,
          "internalType": "address",
          "name": "owner",
          "type": "address"
        },
        {
          "indexed": true,
          "internalType": "address",
          "name": "approved",
          "type": "address"
        },
        {
          "indexed": true,
          "internalType": "uint256",
          "name": "tokenId",
          "type": "uint256"
        }
      ],
      "name": "Approval",
      "type": "event"
    },
    {
      "anonymous": false,
      "inputs": [
        {
          "indexed": true,
          "internalType": "address",
          "name": "owner",
          "type": "address"
        },
        {
          "indexed": true,
          "internalType": "address",
          "name": "operator",
          "type": "address"
        },
        {
          "indexed": false,
          "internalType": "bool",
          "name": "approved",
          "type": "bool"
        }
      ],
      "name": "ApprovalForAll",
      "type": "event"
    },
    {
      "anonymous": false,
      "inputs": [
        {
          "indexed": false,
          "internalType": "uint256",
          "name": "_fromTokenId",
          "type": "uint256"
        },
        {
          "indexed": false,
          "internalType": "uint256",
          "name": "_toTokenId",
          "type": "uint256"
        }
      ],
      "name": "BatchMetadataUpdate",
      "type": "event"
    },
    {
      "anonymous": false,
      "inputs": [
        {
          "indexed": false,
          "internalType": "uint256",
          "name": "_tokenId",
          "type": "uint256"
        }
      ],
      "name": "MetadataUpdate",
      "type": "event"
    },
    {
      "anonymous": false,
      "inputs": [
        {
          "indexed": true,
          "internalType": "address",
          "name": "previousOwner",
          "type": "address"
        },
        {
          "indexed": true,
          "internalType": "address",
          "name": "newOwner",
          "type": "address"
        }
      ],
      "name": "OwnershipTransferred",
      "type": "event"
    },
    {
      "anonymous": false,
      "inputs": [
        {
          "indexed": false,
          "internalType": "address",
          "name": "account",
          "type": "address"
        }
      ],
      "name": "Paused",
      "type": "event"
    },
    {
      "anonymous": false,
      "inputs": [
        {
          "indexed": true,
          "internalType": "address",
          "name": "from",
          "type": "address"
        },
        {
          "indexed": true,
          "internalType": "address",
          "name": "to",
          "type": "address"
        },
        {
          "indexed": true,
          "internalType": "uint256",
          "name": "tokenId",
          "type": "uint256"
        }
      ],
      "name": "Transfer",
      "type": "event"
    },
    {
      "anonymous": false,
      "inputs": [
        {
          "indexed": false,
          "internalType": "address",
          "name": "account",
          "type": "address"
        }
      ],
      "name": "Unpaused",
      "type": "event"
    },
    {
      "inputs": [
        {
          "internalType": "address",
          "name": "to",
          "type": "address"
        },
        {
          "internalType": "uint256",
          "name": "tokenId",
          "type": "uint256"
        }
      ],
      "name": "approve",
      "outputs": [],
      "stateMutability": "nonpayable",
      "type": "function"
    },
    {
      "inputs": [
        {
          "internalType": "address",
          "name": "owner",
          "type": "address"
        }
      ],
      "name": "balanceOf",
      "outputs": [
        {
          "internalType": "uint256",
          "name": "",
          "type": "uint256"
        }
      ],
      "stateMutability": "view",
      "type": "function"
    },
    {
      "inputs": [
        {
          "internalType": "uint256",
          "name": "tokenId",
          "type": "uint256"
        }
      ],
      "name": "burn",
      "outputs": [],
      "stateMutability": "nonpayable",
      "type": "function"
    },
    {
      "inputs": [
        {
          "internalType": "uint256",
          "name": "tokenId",
          "type": "uint256"
        }
      ],
      "name": "getApproved",
      "outputs": [
        {
          "internalType": "address",
          "name": "",
          "type": "address"
        }
      ],
      "stateMutability": "view",
      "type": "function"
    },
    {
      "inputs": [
        {
          "internalType": "address",
          "name": "owner",
          "type": "address"
        },
        {
          "internalType": "address",
          "name": "operator",
          "type": "address"
        }
      ],
      "name": "isApprovedForAll",
      "outputs": [
        {
          "internalType": "bool",
          "name": "",
          "type": "bool"
        }
      ],
      "stateMutability": "view",
      "type": "function"
    },
    {
      "inputs": [],
      "name": "name",
      "outputs": [
        {
          "internalType": "string",
          "name": "",
          "type": "string"
        }
      ],
      "stateMutability": "view",
      "type": "function"
    },
    {
      "inputs": [],
      "name": "owner",
      "outputs": [
        {
          "internalType": "address",
          "name": "",
          "type": "address"
        }
      ],
      "stateMutability": "view",
      "type": "function"
    },
    {
      "inputs": [
        {
          "internalType": "uint256",
          "name": "tokenId",
          "type": "uint256"
        }
      ],
      "name": "ownerOf",
      "outputs": [
        {
          "internalType": "address",
          "name": "",
          "type": "address"
        }
      ],
      "stateMutability": "view",
      "type": "function"
    },
    {
      "inputs": [],
      "name": "pause",
      "outputs": [],
      "stateMutability": "nonpayable",
      "type": "function"
    },
    {
      "inputs": [],
      "name": "paused",
      "outputs": [
        {
          "internalType": "bool",
          "name": "",
          "type": "bool"
        }
      ],
      "stateMutability": "view",
      "type": "function"
    },
    {
      "inputs": [],
      "name": "renounceOwnership",
      "outputs": [],
      "stateMutability": "nonpayable",
      "type": "function"
    },
    {
      "inputs": [
        {
          "internalType": "uint256",
          "name": "tokenId",
          "type": "uint256"
        },
        {
          "internalType": "uint256",
          "name": "salePrice",
          "type": "uint256"
        }
      ],
      "name": "royaltyInfo",
      "outputs": [
        {
          "internalType": "address",
          "name": "",
          "type": "address"
        },
        {
          "internalType": "uint256",
          "name": "",
          "type": "uint256"
        }
      ],
      "stateMutability": "view",
      "type": "function"
    },
    {
      "inputs": [
        {
          "internalType": "address",
          "name": "to",
          "type": "address"
        },
        {
          "internalType": "uint256",
          "name": "tokenId",
          "type": "uint256"
        },
        {
          "internalType": "string",
          "name": "uri",
          "type": "string"
        }
      ],
      "name": "safeMint",
      "outputs": [],
      "stateMutability": "nonpayable",
      "type": "function"
    },
    {
      "inputs": [
        {
          "internalType": "address",
          "name": "from",
          "type": "address"
        },
        {
          "internalType": "address",
          "name": "to",
          "type": "address"
        },
        {
          "internalType": "uint256",
          "name": "tokenId",
          "type": "uint256"
        }
      ],
      "name": "safeTransferFrom",
      "outputs": [],
      "stateMutability": "nonpayable",
      "type": "function"
    },
    {
      "inputs": [
        {
          "internalType": "address",
          "name": "from",
          "type": "address"
        },
        {
          "internalType": "address",
          "name": "to",
          "type": "address"
        },
        {
          "internalType": "uint256",
          "name": "tokenId",
          "type": "uint256"
        },
        {
          "internalType": "bytes",
          "name": "data",
          "type": "bytes"
        }
      ],
      "name": "safeTransferFrom",
      "outputs": [],
      "stateMutability": "nonpayable",
      "type": "function"
    },
    {
      "inputs": [
        {
          "internalType": "address",
          "name": "operator",
          "type": "address"
        },
        {
          "internalType": "bool",
          "name": "approved",
          "type": "bool"
        }
      ],
      "name": "setApprovalForAll",
      "outputs": [],
      "stateMutability": "nonpayable",
      "type": "function"
    },
    {
      "inputs": [
        {
          "internalType": "bytes4",
          "name": "interfaceId",
          "type": "bytes4"
        }
      ],
      "name": "supportsInterface",
      "outputs": [
        {
          "internalType": "bool",
          "name": "",
          "type": "bool"
        }
      ],
      "stateMutability": "view",
      "type": "function"
    },
    {
      "inputs": [],
      "name": "symbol",
      "outputs": [
        {
          "internalType": "string",
          "name": "",
          "type": "string"
        }
      ],
      "stateMutability": "view",
      "type": "function"
    },
    {
      "inputs": [
        {
          "internalType": "uint256",
          "name": "tokenId",
          "type": "uint256"
        }
      ],
      "name": "tokenURI",
      "outputs": [
        {
          "internalType": "string",
          "name": "",
          "type": "string"
        }
      ],
      "stateMutability": "view",
      "type": "function"
    },
    {
      "inputs": [
        {
          "internalType": "address",
          "name": "from",
          "type": "address"
        },
        {
          "internalType": "address",
          "name": "to",
          "type": "address"
        },
        {
          "internalType": "uint256",
          "name": "tokenId",
          "type": "uint256"
        }
      ],
      "name": "transferFrom",
      "outputs": [],
      "stateMutability": "nonpayable",
      "type": "function"
    },
    {
      "inputs": [
        {
          "internalType": "address",
          "name": "newOwner",
          "type": "address"
        }
      ],
      "name": "transferOwnership",
      "outputs": [],
      "stateMutability": "nonpayable",
      "type": "function"
    },
    {
      "inputs": [],
      "name": "unpause",
      "outputs": [],
      "stateMutability": "nonpayable",
      "type": "function"
    }
  ],
  "bytecode": "0x60806040523480156200001157600080fd5b5060405162002511380380620025118339810160408190526200003491620001b8565b83836000620000448382620002dc565b506001620000538282620002dc565b50506007805460ff19169055506200006b3362000099565b600b91909155600a80546001600160a01b0319166001600160a01b0390921691909117905550620003a89050565b600780546001600160a01b03838116610100818102610100600160a81b031985161790945560405193909204169182907f8be0079c531659141344cd1fd0a4f28419497f9722a3daafe3b4186f6b6457e090600090a35050565b634e487b7160e01b600052604160045260246000fd5b600082601f8301126200011b57600080fd5b81516001600160401b0380821115620001385762000138620000f3565b604051601f8301601f19908116603f01168101908282118183101715620001635762000163620000f3565b816040528381526020925086838588010111156200018057600080fd5b600091505b83821015620001a4578582018301518183018401529082019062000185565b600093810190920192909252949350505050565b60008060008060808587031215620001cf57600080fd5b84516001600160401b0380821115620001e757600080fd5b620001f58883890162000109565b955060208701519150808211156200020c57600080fd5b506200021b8782880162000109565b60408701516060880151919550935090506001600160a01b03811681146200024257600080fd5b939692955090935050565b600181811c908216806200026257607f821691505b6020821081036200028357634e487b7160e01b600052602260045260246000fd5b50919050565b601f821115620002d757600081815260208120601f850160051c81016020861015620002b25750805b601f850160051c820191505b81811015620002d357828155600101620002be565b5050505b505050565b81516001600160401b03811115620002f857620002f8620000f3565b62000310816200030984546200024d565b8462000289565b602080601f8311600181146200034857600084156200032f5750858301515b600019600386901b1c1916600185901b178555620002d3565b600085815260208120601f198616915b82811015620003795788860151825594840194600190910190840162000358565b5085821015620003985787850151600019600388901b60f8161c191681555b5050505050600190811b01905550565b61215980620003b86000396000f3fe608060405234801561001057600080fd5b50600436106101825760003560e01c806370a08231116100d8578063a22cb4651161008c578063cd279c7c11610066578063cd279c7c1461031d578063e985e9c514610330578063f2fde38b1461036c57600080fd5b8063a22cb465146102e4578063b88d4fde146102f7578063c87b56dd1461030a57600080fd5b80638456cb59116100bd5780638456cb59146102be5780638da5cb5b146102c657806395d89b41146102dc57600080fd5b806370a0823114610295578063715018a6146102b657600080fd5b80632a55205a1161013a57806342966c681161011457806342966c68146102645780635c975abb146102775780636352211e1461028257600080fd5b80632a55205a146102175780633f4ba83a1461024957806342842e0e1461025157600080fd5b8063081812fc1161016b578063081812fc146101c4578063095ea7b3146101ef57806323b872dd1461020457600080fd5b806301ffc9a71461018757806306fdde03146101af575b600080fd5b61019a610195366004611bd2565b61037f565b60405190151581526020015b60405180910390f35b6101b7610390565b6040516101a69190611c3f565b6101d76101d2366004611c52565b610422565b6040516001600160a01b0390911681526020016101a6565b6102026101fd366004611c87565b610449565b005b610202610212366004611cb1565b61059d565b61022a610225366004611ced565b610615565b604080516001600160a01b0390931683526020830191909152016101a6565b6102026106d0565b61020261025f366004611cb1565b6106e2565b610202610272366004611c52565b6106fd565b60075460ff1661019a565b6101d7610290366004611c52565b610774565b6102a86102a3366004611d0f565b6107d9565b6040519081526020016101a6565b610202610873565b610202610885565b60075461010090046001600160a01b03166101d7565b6101b7610895565b6102026102f2366004611d2a565b6108a4565b610202610305366004611df2565b6108b3565b6101b7610318366004611c52565b610931565b61020261032b366004611e6e565b61093c565b61019a61033e366004611ed9565b6001600160a01b03918216600090815260056020908152604080832093909416825291909152205460ff1690565b61020261037a366004611d0f565b610975565b600061038a82610a02565b92915050565b60606000805461039f90611f0c565b80601f01602080910402602001604051908101604052809291908181526020018280546103cb90611f0c565b80156104185780601f106103ed57610100808354040283529160200191610418565b820191906000526020600020905b8154815290600101906020018083116103fb57829003601f168201915b5050505050905090565b600061042d82610a40565b506000908152600460205260409020546001600160a01b031690565b600061045482610774565b9050806001600160a01b0316836001600160a01b0316036104e25760405162461bcd60e51b815260206004820152602160248201527f4552433732313a20617070726f76616c20746f2063757272656e74206f776e6560448201527f720000000000000000000000000000000000000000000000000000000000000060648201526084015b60405180910390fd5b336001600160a01b038216148061051c57506001600160a01b038116600090815260056020908152604080832033845290915290205460ff165b61058e5760405162461bcd60e51b815260206004820152603d60248201527f4552433732313a20617070726f76652063616c6c6572206973206e6f7420746f60448201527f6b656e206f776e6572206f7220617070726f76656420666f7220616c6c00000060648201526084016104d9565b6105988383610aa4565b505050565b6105a8335b82610b1f565b61060a5760405162461bcd60e51b815260206004820152602d60248201527f4552433732313a2063616c6c6572206973206e6f7420746f6b656e206f776e6560448201526c1c881bdc88185c1c1c9bdd9959609a1b60648201526084016104d9565b610598838383610b9e565b60008281526009602090815260408083208151808301909252546001600160a01b038116808352600160a01b9091046bffffffffffffffffffffffff169282019290925282916106945750604080518082019091526008546001600160a01b0381168252600160a01b90046bffffffffffffffffffffffff1660208201525b6020810151600090612710906106b8906bffffffffffffffffffffffff1687611f46565b6106c29190611f6b565b915196919550909350505050565b6106d8610db1565b6106e0610e11565b565b610598838383604051806020016040528060008152506108b3565b610706336105a2565b6107685760405162461bcd60e51b815260206004820152602d60248201527f4552433732313a2063616c6c6572206973206e6f7420746f6b656e206f776e6560448201526c1c881bdc88185c1c1c9bdd9959609a1b60648201526084016104d9565b61077181610e63565b50565b6000818152600260205260408120546001600160a01b03168061038a5760405162461bcd60e51b815260206004820152601860248201527f4552433732313a20696e76616c696420746f6b656e204944000000000000000060448201526064016104d9565b60006001600160a01b0382166108575760405162461bcd60e51b815260206004820152602960248201527f4552433732313a2061646472657373207a65726f206973206e6f74206120766160448201527f6c6964206f776e6572000000000000000000000000000000000000000000000060648201526084016104d9565b506001600160a01b031660009081526003602052604090205490565b61087b610db1565b6106e06000610e6c565b61088d610db1565b6106e0610edd565b60606001805461039f90611f0c565b6108af338383610f1a565b5050565b6108bd3383610b1f565b61091f5760405162461bcd60e51b815260206004820152602d60248201527f4552433732313a2063616c6c6572206973206e6f7420746f6b656e206f776e6560448201526c1c881bdc88185c1c1c9bdd9959609a1b60648201526084016104d9565b61092b84848484610fe8565b50505050565b606061038a82611066565b610944610db1565b61094e838361116e565b6109588282611188565b600a54600b546105989184916001600160a01b0390911690611262565b61097d610db1565b6001600160a01b0381166109f95760405162461bcd60e51b815260206004820152602660248201527f4f776e61626c653a206e6577206f776e657220697320746865207a65726f206160448201527f646472657373000000000000000000000000000000000000000000000000000060648201526084016104d9565b61077181610e6c565b60006001600160e01b031982167f2a55205a00000000000000000000000000000000000000000000000000000000148061038a575061038a8261138d565b6000818152600260205260409020546001600160a01b03166107715760405162461bcd60e51b815260206004820152601860248201527f4552433732313a20696e76616c696420746f6b656e204944000000000000000060448201526064016104d9565b6000818152600460205260409020805473ffffffffffffffffffffffffffffffffffffffff19166001600160a01b0384169081179091558190610ae682610774565b6001600160a01b03167f8c5be1e5ebec7d5bd14f71427d1e84f3dd0314c0f7b2291e5b200ac8c7c3b92560405160405180910390a45050565b600080610b2b83610774565b9050806001600160a01b0316846001600160a01b03161480610b7257506001600160a01b0380821660009081526005602090815260408083209388168352929052205460ff165b80610b965750836001600160a01b0316610b8b84610422565b6001600160a01b0316145b949350505050565b826001600160a01b0316610bb182610774565b6001600160a01b031614610c155760405162461bcd60e51b815260206004820152602560248201527f4552433732313a207472616e736665722066726f6d20696e636f72726563742060448201526437bbb732b960d91b60648201526084016104d9565b6001600160a01b038216610c905760405162461bcd60e51b8152602060048201526024808201527f4552433732313a207472616e7366657220746f20746865207a65726f2061646460448201527f726573730000000000000000000000000000000000000000000000000000000060648201526084016104d9565b610c9d83838360016113cb565b826001600160a01b0316610cb082610774565b6001600160a01b031614610d145760405162461bcd60e51b815260206004820152602560248201527f4552433732313a207472616e736665722066726f6d20696e636f72726563742060448201526437bbb732b960d91b60648201526084016104d9565b6000818152600460209081526040808320805473ffffffffffffffffffffffffffffffffffffffff199081169091556001600160a01b0387811680865260038552838620805460001901905590871680865283862080546001019055868652600290945282852080549092168417909155905184937fddf252ad1be2c89b69c2b068fc378daa952ba7f163c4a11628f55a4df523b3ef91a4505050565b6007546001600160a01b036101009091041633146106e05760405162461bcd60e51b815260206004820181905260248201527f4f776e61626c653a2063616c6c6572206973206e6f7420746865206f776e657260448201526064016104d9565b610e196113d8565b6007805460ff191690557f5db9ee0a495bf2e6ff9c91a7834c1ba4fdd244a5e8aa4e537bd38aeae4b073aa335b6040516001600160a01b03909116815260200160405180910390a1565b6107718161142a565b600780546001600160a01b038381166101008181027fffffffffffffffffffffff0000000000000000000000000000000000000000ff85161790945560405193909204169182907f8be0079c531659141344cd1fd0a4f28419497f9722a3daafe3b4186f6b6457e090600090a35050565b610ee561146a565b6007805460ff191660011790557f62e78cea01bee320cd4e420270b5ea74000d11b0c9f74754ebdbfc544b05a258610e463390565b816001600160a01b0316836001600160a01b031603610f7b5760405162461bcd60e51b815260206004820152601960248201527f4552433732313a20617070726f766520746f2063616c6c65720000000000000060448201526064016104d9565b6001600160a01b03838116600081815260056020908152604080832094871680845294825291829020805460ff191686151590811790915591519182527f17307eab39ab6107e8899845ad3d59bd9653f200f220920489ca2b5937696c31910160405180910390a3505050565b610ff3848484610b9e565b610fff848484846114bd565b61092b5760405162461bcd60e51b815260206004820152603260248201527f4552433732313a207472616e7366657220746f206e6f6e20455243373231526560448201527131b2b4bb32b91034b6b83632b6b2b73a32b960711b60648201526084016104d9565b606061107182610a40565b6000828152600660205260408120805461108a90611f0c565b80601f01602080910402602001604051908101604052809291908181526020018280546110b690611f0c565b80156111035780601f106110d857610100808354040283529160200191611103565b820191906000526020600020905b8154815290600101906020018083116110e657829003601f168201915b50505050509050600061112160408051602081019091526000815290565b90508051600003611133575092915050565b81511561116557808260405160200161114d929190611f8d565b60405160208183030381529060405292505050919050565b610b9684611609565b6108af82826040518060200160405280600081525061167d565b6000828152600260205260409020546001600160a01b03166112125760405162461bcd60e51b815260206004820152602e60248201527f45524337323155524953746f726167653a2055524920736574206f66206e6f6e60448201527f6578697374656e7420746f6b656e00000000000000000000000000000000000060648201526084016104d9565b600082815260066020526040902061122a828261200a565b506040518281527ff8e1a15aba9398e019f0b49df1a4fde98ee17ae345cb5f6b5e2c27f5033e8ce79060200160405180910390a15050565b6127106bffffffffffffffffffffffff821611156112e85760405162461bcd60e51b815260206004820152602a60248201527f455243323938313a20726f79616c7479206665652077696c6c2065786365656460448201527f2073616c6550726963650000000000000000000000000000000000000000000060648201526084016104d9565b6001600160a01b03821661133e5760405162461bcd60e51b815260206004820152601b60248201527f455243323938313a20496e76616c696420706172616d6574657273000000000060448201526064016104d9565b6040805180820182526001600160a01b0393841681526bffffffffffffffffffffffff92831660208083019182526000968752600990529190942093519051909116600160a01b029116179055565b60006001600160e01b031982167f4906490600000000000000000000000000000000000000000000000000000000148061038a575061038a826116fb565b6113d361146a565b61092b565b60075460ff166106e05760405162461bcd60e51b815260206004820152601460248201527f5061757361626c653a206e6f742070617573656400000000000000000000000060448201526064016104d9565b61143381611796565b6000818152600660205260409020805461144c90611f0c565b15905061077157600081815260066020526040812061077191611b6e565b60075460ff16156106e05760405162461bcd60e51b815260206004820152601060248201527f5061757361626c653a207061757365640000000000000000000000000000000060448201526064016104d9565b60006001600160a01b0384163b156115fe57604051630a85bd0160e11b81526001600160a01b0385169063150b7a02906115019033908990889088906004016120ca565b6020604051808303816000875af192505050801561153c575060408051601f3d908101601f1916820190925261153991810190612106565b60015b6115e4573d80801561156a576040519150601f19603f3d011682016040523d82523d6000602084013e61156f565b606091505b5080516000036115dc5760405162461bcd60e51b815260206004820152603260248201527f4552433732313a207472616e7366657220746f206e6f6e20455243373231526560448201527131b2b4bb32b91034b6b83632b6b2b73a32b960711b60648201526084016104d9565b805181602001fd5b6001600160e01b031916630a85bd0160e11b149050610b96565b506001949350505050565b606061161482610a40565b600061162b60408051602081019091526000815290565b9050600081511161164b5760405180602001604052806000815250611676565b8061165584611846565b604051602001611666929190611f8d565b6040516020818303038152906040525b9392505050565b61168783836118e6565b61169460008484846114bd565b6105985760405162461bcd60e51b815260206004820152603260248201527f4552433732313a207472616e7366657220746f206e6f6e20455243373231526560448201527131b2b4bb32b91034b6b83632b6b2b73a32b960711b60648201526084016104d9565b60006001600160e01b031982167f80ac58cd00000000000000000000000000000000000000000000000000000000148061175e57506001600160e01b031982167f5b5e139f00000000000000000000000000000000000000000000000000000000145b8061038a57507f01ffc9a7000000000000000000000000000000000000000000000000000000006001600160e01b031983161461038a565b60006117a182610774565b90506117b18160008460016113cb565b6117ba82610774565b6000838152600460209081526040808320805473ffffffffffffffffffffffffffffffffffffffff199081169091556001600160a01b0385168085526003845282852080546000190190558785526002909352818420805490911690555192935084927fddf252ad1be2c89b69c2b068fc378daa952ba7f163c4a11628f55a4df523b3ef908390a45050565b6060600061185383611a8c565b600101905060008167ffffffffffffffff81111561187357611873611d66565b6040519080825280601f01601f19166020018201604052801561189d576020820181803683370190505b5090508181016020015b600019017f3031323334353637383961626364656600000000000000000000000000000000600a86061a8153600a85049450846118a757509392505050565b6001600160a01b03821661193c5760405162461bcd60e51b815260206004820181905260248201527f4552433732313a206d696e7420746f20746865207a65726f206164647265737360448201526064016104d9565b6000818152600260205260409020546001600160a01b0316156119a15760405162461bcd60e51b815260206004820152601c60248201527f4552433732313a20746f6b656e20616c7265616479206d696e7465640000000060448201526064016104d9565b6119af6000838360016113cb565b6000818152600260205260409020546001600160a01b031615611a145760405162461bcd60e51b815260206004820152601c60248201527f4552433732313a20746f6b656e20616c7265616479206d696e7465640000000060448201526064016104d9565b6001600160a01b0382166000818152600360209081526040808320805460010190558483526002909152808220805473ffffffffffffffffffffffffffffffffffffffff19168417905551839291907fddf252ad1be2c89b69c2b068fc378daa952ba7f163c4a11628f55a4df523b3ef908290a45050565b6000807a184f03e93ff9f4daa797ed6e38ed64bf6a1f0100000000000000008310611ad5577a184f03e93ff9f4daa797ed6e38ed64bf6a1f010000000000000000830492506040015b6d04ee2d6d415b85acef81000000008310611b01576d04ee2d6d415b85acef8100000000830492506020015b662386f26fc100008310611b1f57662386f26fc10000830492506010015b6305f5e1008310611b37576305f5e100830492506008015b6127108310611b4b57612710830492506004015b60648310611b5d576064830492506002015b600a831061038a5760010192915050565b508054611b7a90611f0c565b6000825580601f10611b8a575050565b601f01602090049060005260206000209081019061077191905b80821115611bb85760008155600101611ba4565b5090565b6001600160e01b03198116811461077157600080fd5b600060208284031215611be457600080fd5b813561167681611bbc565b60005b83811015611c0a578181015183820152602001611bf2565b50506000910152565b60008151808452611c2b816020860160208601611bef565b601f01601f19169290920160200192915050565b6020815260006116766020830184611c13565b600060208284031215611c6457600080fd5b5035919050565b80356001600160a01b0381168114611c8257600080fd5b919050565b60008060408385031215611c9a57600080fd5b611ca383611c6b565b946020939093013593505050565b600080600060608486031215611cc657600080fd5b611ccf84611c6b565b9250611cdd60208501611c6b565b9150604084013590509250925092565b60008060408385031215611d0057600080fd5b50508035926020909101359150565b600060208284031215611d2157600080fd5b61167682611c6b565b60008060408385031215611d3d57600080fd5b611d4683611c6b565b915060208301358015158114611d5b57600080fd5b809150509250929050565b634e487b7160e01b600052604160045260246000fd5b600067ffffffffffffffff80841115611d9757611d97611d66565b604051601f8501601f19908116603f01168101908282118183101715611dbf57611dbf611d66565b81604052809350858152868686011115611dd857600080fd5b858560208301376000602087830101525050509392505050565b60008060008060808587031215611e0857600080fd5b611e1185611c6b565b9350611e1f60208601611c6b565b925060408501359150606085013567ffffffffffffffff811115611e4257600080fd5b8501601f81018713611e5357600080fd5b611e6287823560208401611d7c565b91505092959194509250565b600080600060608486031215611e8357600080fd5b611e8c84611c6b565b925060208401359150604084013567ffffffffffffffff811115611eaf57600080fd5b8401601f81018613611ec057600080fd5b611ecf86823560208401611d7c565b9150509250925092565b60008060408385031215611eec57600080fd5b611ef583611c6b565b9150611f0360208401611c6b565b90509250929050565b600181811c90821680611f2057607f821691505b602082108103611f4057634e487b7160e01b600052602260045260246000fd5b50919050565b808202811582820484141761038a57634e487b7160e01b600052601160045260246000fd5b600082611f8857634e487b7160e01b600052601260045260246000fd5b500490565b60008351611f9f818460208801611bef565b835190830190611fb3818360208801611bef565b01949350505050565b601f82111561059857600081815260208120601f850160051c81016020861015611fe35750805b601f850160051c820191505b8181101561200257828155600101611fef565b505050505050565b815167ffffffffffffffff81111561202457612024611d66565b612038816120328454611f0c565b84611fbc565b602080601f83116001811461206d57600084156120555750858301515b600019600386901b1c1916600185901b178555612002565b600085815260208120601f198616915b8281101561209c5788860151825594840194600190910190840161207d565b50858210156120ba5787850151600019600388901b60f8161c191681555b5050505050600190811b01905550565b60006001600160a01b038087168352808616602084015250836040830152608060608301526120fc6080830184611c13565b9695505050505050565b60006020828403121561211857600080fd5b815161167681611bbc56fea2646970667358221220494cc3bb294ff8734a8b6ea4bbe334e1e4eff37421031bb44b0eb79f4de4434c64736f6c63430008130033",
  "linkReferences": {},
  "deployedLinkReferences": {}
}